{
  "_format": "hh-sol-artifact-1",
  "contractName": "zBOOFI_WithdrawalFeeCalculator",
  "sourceName": "contracts/zBOOFI_WithdrawalFeeCalculator.sol",
  "abi": [
    {
      "inputs": [
        {
          "internalType": "contract ZombieBOOFI",
          "name": "_ZBOOFI",
          "type": "address"
        }
      ],
      "stateMutability": "nonpayable",
      "type": "constructor"
    },
    {
      "anonymous": false,
      "inputs": [
        {
          "indexed": true,
          "internalType": "address",
          "name": "previousOwner",
          "type": "address"
        },
        {
          "indexed": true,
          "internalType": "address",
          "name": "newOwner",
          "type": "address"
        }
      ],
      "name": "OwnershipTransferred",
      "type": "event"
    },
    {
      "inputs": [],
      "name": "MAX_BIPS",
      "outputs": [
        {
          "internalType": "uint256",
          "name": "",
          "type": "uint256"
        }
      ],
      "stateMutability": "view",
      "type": "function"
    },
    {
      "inputs": [],
      "name": "MIN_FEE",
      "outputs": [
        {
          "internalType": "uint256",
          "name": "",
          "type": "uint256"
        }
      ],
      "stateMutability": "view",
      "type": "function"
    },
    {
      "inputs": [],
      "name": "SECONDS_PER_DAY",
      "outputs": [
        {
          "internalType": "uint256",
          "name": "",
          "type": "uint256"
        }
      ],
      "stateMutability": "view",
      "type": "function"
    },
    {
      "inputs": [],
      "name": "ZBOOFI",
      "outputs": [
        {
          "internalType": "contract ZombieBOOFI",
          "name": "",
          "type": "address"
        }
      ],
      "stateMutability": "view",
      "type": "function"
    },
    {
      "inputs": [],
      "name": "owner",
      "outputs": [
        {
          "internalType": "address",
          "name": "",
          "type": "address"
        }
      ],
      "stateMutability": "view",
      "type": "function"
    },
    {
      "inputs": [],
      "name": "renounceOwnership",
      "outputs": [],
      "stateMutability": "nonpayable",
      "type": "function"
    },
    {
      "inputs": [
        {
          "internalType": "uint256",
          "name": "_withdrawalFeeMultiplier",
          "type": "uint256"
        }
      ],
      "name": "setWithdrawalFeeMultiplier",
      "outputs": [],
      "stateMutability": "nonpayable",
      "type": "function"
    },
    {
      "inputs": [
        {
          "internalType": "address",
          "name": "newOwner",
          "type": "address"
        }
      ],
      "name": "transferOwnership",
      "outputs": [],
      "stateMutability": "nonpayable",
      "type": "function"
    },
    {
      "inputs": [],
      "name": "withdrawalFee",
      "outputs": [
        {
          "internalType": "uint256",
          "name": "",
          "type": "uint256"
        }
      ],
      "stateMutability": "view",
      "type": "function"
    },
    {
      "inputs": [],
      "name": "withdrawalFeeMultiplier",
      "outputs": [
        {
          "internalType": "uint256",
          "name": "",
          "type": "uint256"
        }
      ],
      "stateMutability": "view",
      "type": "function"
    }
  ],
  "bytecode": "0x60a0604052614e2060015534801561001657600080fd5b50604051610b3a380380610b3a8339810160408190526100359161009f565b61003e3361004f565b6001600160a01b03166080526100cf565b600080546001600160a01b038381166001600160a01b0319831681178455604051919092169283917f8be0079c531659141344cd1fd0a4f28419497f9722a3daafe3b4186f6b6457e09190a35050565b6000602082840312156100b157600080fd5b81516001600160a01b03811681146100c857600080fd5b9392505050565b608051610a276101136000396000818160a8015281816101f30152818161027801528181610311015281816103b10152818161044601526104d70152610a276000f3fe608060405234801561001057600080fd5b506004361061009e5760003560e01c806377cc07961161006657806377cc07961461011a5780638bc7e8c41461012d5780638da5cb5b14610135578063b3249e9e14610146578063f2fde38b1461014f57600080fd5b80632e2ff026146100a35780635358c8da146100e7578063715018a6146100fe57806374f0314f1461010857806376c7a3c714610112575b600080fd5b6100ca7f000000000000000000000000000000000000000000000000000000000000000081565b6040516001600160a01b0390911681526020015b60405180910390f35b6100f060015481565b6040519081526020016100de565b610106610162565b005b6100f06201518081565b6100f0606481565b61010661012836600461078e565b6101a1565b6100f06101d0565b6000546001600160a01b03166100ca565b6100f061271081565b61010661015d3660046107a7565b6106a3565b6000546001600160a01b031633146101955760405162461bcd60e51b815260040161018c906107d7565b60405180910390fd5b61019f600061073e565b565b6000546001600160a01b031633146101cb5760405162461bcd60e51b815260040161018c906107d7565b600155565b60405163023ebce360e51b81526003600482015260009081906001600160a01b037f000000000000000000000000000000000000000000000000000000000000000016906347d79c609060240160006040518083038186803b15801561023557600080fd5b505afa158015610249573d6000803e3d6000fd5b505050506040513d6000823e601f3d908101601f1916820160405261027191908101906108bd565b50905060007f00000000000000000000000000000000000000000000000000000000000000006001600160a01b031663f37d4b566040518163ffffffff1660e01b815260040160206040518083038186803b1580156102cf57600080fd5b505afa1580156102e3573d6000803e3d6000fd5b505050506040513d601f19601f820116820180604052508101906103079190610921565b90506000620151807f00000000000000000000000000000000000000000000000000000000000000006001600160a01b031663a8ce0d9b6040518163ffffffff1660e01b815260040160206040518083038186803b15801561036857600080fd5b505afa15801561037c573d6000803e3d6000fd5b505050506040513d601f19601f820116820180604052508101906103a09190610921565b11156103af5762015180610440565b7f00000000000000000000000000000000000000000000000000000000000000006001600160a01b031663a8ce0d9b6040518163ffffffff1660e01b815260040160206040518083038186803b15801561040857600080fd5b505afa15801561041c573d6000803e3d6000fd5b505050506040513d601f19601f820116820180604052508101906104409190610921565b905060007f00000000000000000000000000000000000000000000000000000000000000006001600160a01b031663e5efeccd6040518163ffffffff1660e01b815260040160206040518083038186803b15801561049d57600080fd5b505afa1580156104b1573d6000803e3d6000fd5b505050506040513d601f19601f820116820180604052508101906104d59190610921565b7f00000000000000000000000000000000000000000000000000000000000000006001600160a01b031663604646276040518163ffffffff1660e01b815260040160206040518083038186803b15801561052e57600080fd5b505afa158015610542573d6000803e3d6000fd5b505050506040513d601f19601f820116820180604052508101906105669190610921565b6105709190610950565b905060006003855110156105d55760005b85518110156105c35785818151811061059c5761059c610967565b6020026020010151826105af919061097d565b9150806105bb81610995565b915050610581565b506105ce828261097d565b905061066f565b81856002815181106105e9576105e9610967565b60200260200101518660018151811061060457610604610967565b602002602001015162015180866201518061061f9190610950565b8960008151811061063257610632610967565b602002602001015161064491906109b0565b61064e91906109cf565b610658919061097d565b610662919061097d565b61066c919061097d565b90505b6000846001548361068091906109b0565b61068a91906109cf565b90506064811015610699575060645b9695505050505050565b6000546001600160a01b031633146106cd5760405162461bcd60e51b815260040161018c906107d7565b6001600160a01b0381166107325760405162461bcd60e51b815260206004820152602660248201527f4f776e61626c653a206e6577206f776e657220697320746865207a65726f206160448201526564647265737360d01b606482015260840161018c565b61073b8161073e565b50565b600080546001600160a01b038381166001600160a01b0319831681178455604051919092169283917f8be0079c531659141344cd1fd0a4f28419497f9722a3daafe3b4186f6b6457e09190a35050565b6000602082840312156107a057600080fd5b5035919050565b6000602082840312156107b957600080fd5b81356001600160a01b03811681146107d057600080fd5b9392505050565b6020808252818101527f4f776e61626c653a2063616c6c6572206973206e6f7420746865206f776e6572604082015260600190565b634e487b7160e01b600052604160045260246000fd5b600082601f83011261083357600080fd5b8151602067ffffffffffffffff808311156108505761085061080c565b8260051b604051601f19603f830116810181811084821117156108755761087561080c565b60405293845285810183019383810192508785111561089357600080fd5b83870191505b848210156108b257815183529183019190830190610899565b979650505050505050565b600080604083850312156108d057600080fd5b825167ffffffffffffffff808211156108e857600080fd5b6108f486838701610822565b9350602085015191508082111561090a57600080fd5b5061091785828601610822565b9150509250929050565b60006020828403121561093357600080fd5b5051919050565b634e487b7160e01b600052601160045260246000fd5b6000828210156109625761096261093a565b500390565b634e487b7160e01b600052603260045260246000fd5b600082198211156109905761099061093a565b500190565b60006000198214156109a9576109a961093a565b5060010190565b60008160001904831182151516156109ca576109ca61093a565b500290565b6000826109ec57634e487b7160e01b600052601260045260246000fd5b50049056fea26469706673582212206755b0aa76f8270a3a9afe963e0f721d600dc287d6946572a246f3932240cbc064736f6c63430008090033",
  "linkReferences": {},
  "deployedLinkReferences": {}
}