{
  "_format": "hh-sol-artifact-1",
  "contractName": "CauldronPriceUpdater",
  "sourceName": "contracts/CauldronPriceUpdater.sol",
  "abi": [
    {
      "inputs": [
        {
          "internalType": "address",
          "name": "_hauntedHouse",
          "type": "address"
        },
        {
          "internalType": "address",
          "name": "_oracle",
          "type": "address"
        }
      ],
      "stateMutability": "nonpayable",
      "type": "constructor"
    },
    {
      "anonymous": false,
      "inputs": [],
      "name": "OracleSet",
      "type": "event"
    },
    {
      "anonymous": false,
      "inputs": [
        {
          "indexed": true,
          "internalType": "address",
          "name": "previousOwner",
          "type": "address"
        },
        {
          "indexed": true,
          "internalType": "address",
          "name": "newOwner",
          "type": "address"
        }
      ],
      "name": "OwnershipTransferred",
      "type": "event"
    },
    {
      "inputs": [
        {
          "internalType": "address[]",
          "name": "tokens",
          "type": "address[]"
        }
      ],
      "name": "addLPTokens",
      "outputs": [],
      "stateMutability": "nonpayable",
      "type": "function"
    },
    {
      "inputs": [
        {
          "internalType": "address",
          "name": "lpToken",
          "type": "address"
        }
      ],
      "name": "getPriceOfLP",
      "outputs": [
        {
          "internalType": "uint256",
          "name": "",
          "type": "uint256"
        }
      ],
      "stateMutability": "nonpayable",
      "type": "function"
    },
    {
      "inputs": [
        {
          "internalType": "address",
          "name": "lpToken",
          "type": "address"
        }
      ],
      "name": "getPriceOfLPView",
      "outputs": [
        {
          "internalType": "uint256",
          "name": "",
          "type": "uint256"
        }
      ],
      "stateMutability": "view",
      "type": "function"
    },
    {
      "inputs": [
        {
          "internalType": "address",
          "name": "token",
          "type": "address"
        }
      ],
      "name": "getTokenPrice",
      "outputs": [
        {
          "internalType": "uint256",
          "name": "",
          "type": "uint256"
        }
      ],
      "stateMutability": "nonpayable",
      "type": "function"
    },
    {
      "inputs": [
        {
          "internalType": "address",
          "name": "token",
          "type": "address"
        }
      ],
      "name": "getTokenPriceView",
      "outputs": [
        {
          "internalType": "uint256",
          "name": "",
          "type": "uint256"
        }
      ],
      "stateMutability": "view",
      "type": "function"
    },
    {
      "inputs": [],
      "name": "hauntedHouse",
      "outputs": [
        {
          "internalType": "address",
          "name": "",
          "type": "address"
        }
      ],
      "stateMutability": "view",
      "type": "function"
    },
    {
      "inputs": [
        {
          "internalType": "address[]",
          "name": "addresses",
          "type": "address[]"
        },
        {
          "internalType": "bool[]",
          "name": "statuses",
          "type": "bool[]"
        }
      ],
      "name": "modifyWhitelist",
      "outputs": [],
      "stateMutability": "nonpayable",
      "type": "function"
    },
    {
      "inputs": [],
      "name": "oracle",
      "outputs": [
        {
          "internalType": "address",
          "name": "",
          "type": "address"
        }
      ],
      "stateMutability": "view",
      "type": "function"
    },
    {
      "inputs": [],
      "name": "owner",
      "outputs": [
        {
          "internalType": "address",
          "name": "",
          "type": "address"
        }
      ],
      "stateMutability": "view",
      "type": "function"
    },
    {
      "inputs": [
        {
          "internalType": "address[]",
          "name": "tokens",
          "type": "address[]"
        }
      ],
      "name": "removeLPTokens",
      "outputs": [],
      "stateMutability": "nonpayable",
      "type": "function"
    },
    {
      "inputs": [],
      "name": "renounceOwnership",
      "outputs": [],
      "stateMutability": "nonpayable",
      "type": "function"
    },
    {
      "inputs": [],
      "name": "setAllPrices",
      "outputs": [],
      "stateMutability": "nonpayable",
      "type": "function"
    },
    {
      "inputs": [
        {
          "internalType": "address",
          "name": "_oracle",
          "type": "address"
        }
      ],
      "name": "setOracle",
      "outputs": [],
      "stateMutability": "nonpayable",
      "type": "function"
    },
    {
      "inputs": [
        {
          "internalType": "address",
          "name": "token",
          "type": "address"
        }
      ],
      "name": "setPrice",
      "outputs": [],
      "stateMutability": "nonpayable",
      "type": "function"
    },
    {
      "inputs": [
        {
          "internalType": "address[]",
          "name": "tokens",
          "type": "address[]"
        }
      ],
      "name": "setPrices",
      "outputs": [],
      "stateMutability": "nonpayable",
      "type": "function"
    },
    {
      "inputs": [
        {
          "internalType": "address",
          "name": "newOwner",
          "type": "address"
        }
      ],
      "name": "transferOwnership",
      "outputs": [],
      "stateMutability": "nonpayable",
      "type": "function"
    }
  ],
  "bytecode": "0x60a06040523480156200001157600080fd5b50604051620015923803806200159283398101604081905262000034916200016a565b6200003f336200007c565b6001600160a01b0382166080526200005781620000cc565b5050336000908152600160208190526040909120805460ff19169091179055620001a2565b600080546001600160a01b038381166001600160a01b0319831681178455604051919092169283917f8be0079c531659141344cd1fd0a4f28419497f9722a3daafe3b4186f6b6457e09190a35050565b6000546001600160a01b031633146200012b5760405162461bcd60e51b815260206004820181905260248201527f4f776e61626c653a2063616c6c6572206973206e6f7420746865206f776e6572604482015260640160405180910390fd5b600380546001600160a01b0319166001600160a01b0392909216919091179055565b80516001600160a01b03811681146200016557600080fd5b919050565b600080604083850312156200017e57600080fd5b62000189836200014d565b915062000199602084016200014d565b90509250929050565b6080516113bf620001d36000396000818161011f015281816102f9015281816108a70152610c2c01526113bf6000f3fe608060405234801561001057600080fd5b50600436106101005760003560e01c80637dc0d1d011610097578063d02641a011610066578063d02641a01461021d578063eb4349a514610230578063ee121cf714610238578063f2fde38b1461024b57600080fd5b80637dc0d1d0146101d35780638da5cb5b146101e6578063a4117ddb146101f7578063c0982cc51461020a57600080fd5b806352bc49dd116100d357806352bc49dd14610192578063579269d3146101a5578063715018a6146101b85780637adbf973146101c057600080fd5b80633b324790146101055780633e12212e1461011a57806345d5bb101461015e578063509d21921461017f575b600080fd5b610118610113366004610e74565b61025e565b005b6101417f000000000000000000000000000000000000000000000000000000000000000081565b6040516001600160a01b0390911681526020015b60405180910390f35b61017161016c366004610e74565b61035a565b604051908152602001610155565b61017161018d366004610e74565b61058e565b6101186101a0366004610ee4565b610691565b6101186101b3366004610f91565b610732565b6101186108de565b6101186101ce366004610e74565b610914565b600354610141906001600160a01b031681565b6000546001600160a01b0316610141565b610118610205366004611030565b610960565b610118610218366004610ee4565b610a6f565b61017161022b366004610e74565b610b0b565b610118610bf9565b610171610246366004610e74565b610ccd565b610118610259366004610e74565b610d7b565b3360009081526001602052604090205460ff166102965760405162461bcd60e51b815260040161028d9061109c565b60405180910390fd5b6001600160a01b03811660009081526002602052604081205460ff16156102c7576102c08261035a565b90506102d3565b6102d082610b0b565b90505b6040516322bcb96f60e11b81526001600160a01b038381166004830152602482018390527f0000000000000000000000000000000000000000000000000000000000000000169063457972de906044015b600060405180830381600087803b15801561033e57600080fd5b505af1158015610352573d6000803e3d6000fd5b505050505050565b600080826001600160a01b0316630dfe16816040518163ffffffff1660e01b815260040160206040518083038186803b15801561039657600080fd5b505afa1580156103aa573d6000803e3d6000fd5b505050506040513d601f19601f820116820180604052508101906103ce91906110e2565b90506000836001600160a01b031663d21220a76040518163ffffffff1660e01b815260040160206040518083038186803b15801561040b57600080fd5b505afa15801561041f573d6000803e3d6000fd5b505050506040513d601f19601f8201168201806040525081019061044391906110e2565b9050600061045083610b0b565b9050600061045d83610b0b565b9050600080876001600160a01b0316630902f1ac6040518163ffffffff1660e01b815260040160606040518083038186803b15801561049b57600080fd5b505afa1580156104af573d6000803e3d6000fd5b505050506040513d601f19601f820116820180604052508101906104d39190611116565b506001600160701b03918216935016905060006104f0828561117c565b6104fa848761117c565b610504919061119b565b9050886001600160a01b03166318160ddd6040518163ffffffff1660e01b815260040160206040518083038186803b15801561053f57600080fd5b505afa158015610553573d6000803e3d6000fd5b505050506040513d601f19601f8201168201806040525081019061057791906111b3565b61058190826111cc565b9998505050505050505050565b600080826001600160a01b0316630dfe16816040518163ffffffff1660e01b815260040160206040518083038186803b1580156105ca57600080fd5b505afa1580156105de573d6000803e3d6000fd5b505050506040513d601f19601f8201168201806040525081019061060291906110e2565b90506000836001600160a01b031663d21220a76040518163ffffffff1660e01b815260040160206040518083038186803b15801561063f57600080fd5b505afa158015610653573d6000803e3d6000fd5b505050506040513d601f19601f8201168201806040525081019061067791906110e2565b9050600061068483610ccd565b9050600061045d83610ccd565b6000546001600160a01b031633146106bb5760405162461bcd60e51b815260040161028d906111ee565b60005b8181101561072d576000600260008585858181106106de576106de611223565b90506020020160208101906106f39190610e74565b6001600160a01b031681526020810191909152604001600020805460ff19169115159190911790558061072581611239565b9150506106be565b505050565b3360009081526001602052604090205460ff166107615760405162461bcd60e51b815260040161028d9061109c565b6000815167ffffffffffffffff81111561077d5761077d610f26565b6040519080825280602002602001820160405280156107a6578160200160208202803683370190505b50905060005b825181101561088f57600260008483815181106107cb576107cb611223565b6020908102919091018101516001600160a01b031682528101919091526040016000205460ff161561083c5761081983828151811061080c5761080c611223565b602002602001015161035a565b82828151811061082b5761082b611223565b60200260200101818152505061087d565b61085e83828151811061085157610851611223565b6020026020010151610b0b565b82828151811061087057610870611223565b6020026020010181815250505b8061088781611239565b9150506107ac565b506040516304b7bb8360e51b81526001600160a01b037f000000000000000000000000000000000000000000000000000000000000000016906396f77060906103249085908590600401611254565b6000546001600160a01b031633146109085760405162461bcd60e51b815260040161028d906111ee565b6109126000610e0f565b565b6000546001600160a01b0316331461093e5760405162461bcd60e51b815260040161028d906111ee565b600380546001600160a01b0319166001600160a01b0392909216919091179055565b6000546001600160a01b0316331461098a5760405162461bcd60e51b815260040161028d906111ee565b8281146109d15760405162461bcd60e51b81526020600482015260156024820152740d2dce0eae840d8cadccee8d040dad2e6dac2e8c6d605b1b604482015260640161028d565b60005b83811015610a68578282828181106109ee576109ee611223565b9050602002016020810190610a0391906112d8565b60016000878785818110610a1957610a19611223565b9050602002016020810190610a2e9190610e74565b6001600160a01b031681526020810191909152604001600020805460ff191691151591909117905580610a6081611239565b9150506109d4565b5050505050565b6000546001600160a01b03163314610a995760405162461bcd60e51b815260040161028d906111ee565b60005b8181101561072d57600160026000858585818110610abc57610abc611223565b9050602002016020810190610ad19190610e74565b6001600160a01b031681526020810191909152604001600020805460ff191691151591909117905580610b0381611239565b915050610a9c565b60006001600160a01b03821673b31f66aa3c1e785363f0875a1b74e27b85fd66c714610be5576003546040516396e6c33760e01b81526001600160a01b038481166004830181905273b31f66aa3c1e785363f0875a1b74e27b85fd66c760248401526044830152670de0b6b3a76400006064830152909116906396e6c33790608401602060405180830381600087803b158015610ba757600080fd5b505af1158015610bbb573d6000803e3d6000fd5b505050506040513d601f19601f82011682018060405250810190610bdf91906111b3565b92915050565b50670de0b6b3a7640000919050565b919050565b3360009081526001602052604090205460ff16610c285760405162461bcd60e51b815260040161028d9061109c565b60007f00000000000000000000000000000000000000000000000000000000000000006001600160a01b0316639e2c58ca6040518163ffffffff1660e01b815260040160006040518083038186803b158015610c8357600080fd5b505afa158015610c97573d6000803e3d6000fd5b505050506040513d6000823e601f3d908101601f19168201604052610cbf91908101906112fa565b9050610cca81610732565b50565b60006001600160a01b03821673b31f66aa3c1e785363f0875a1b74e27b85fd66c714610be557600354604051630a7d1a3f60e21b81526001600160a01b038481166004830181905273b31f66aa3c1e785363f0875a1b74e27b85fd66c760248401526044830152670de0b6b3a76400006064830152909116906329f468fc9060840160206040518083038186803b158015610d6757600080fd5b505afa158015610bbb573d6000803e3d6000fd5b6000546001600160a01b03163314610da55760405162461bcd60e51b815260040161028d906111ee565b6001600160a01b038116610e0a5760405162461bcd60e51b815260206004820152602660248201527f4f776e61626c653a206e6577206f776e657220697320746865207a65726f206160448201526564647265737360d01b606482015260840161028d565b610cca815b600080546001600160a01b038381166001600160a01b0319831681178455604051919092169283917f8be0079c531659141344cd1fd0a4f28419497f9722a3daafe3b4186f6b6457e09190a35050565b6001600160a01b0381168114610cca57600080fd5b600060208284031215610e8657600080fd5b8135610e9181610e5f565b9392505050565b60008083601f840112610eaa57600080fd5b50813567ffffffffffffffff811115610ec257600080fd5b6020830191508360208260051b8501011115610edd57600080fd5b9250929050565b60008060208385031215610ef757600080fd5b823567ffffffffffffffff811115610f0e57600080fd5b610f1a85828601610e98565b90969095509350505050565b634e487b7160e01b600052604160045260246000fd5b604051601f8201601f1916810167ffffffffffffffff81118282101715610f6557610f65610f26565b604052919050565b600067ffffffffffffffff821115610f8757610f87610f26565b5060051b60200190565b60006020808385031215610fa457600080fd5b823567ffffffffffffffff811115610fbb57600080fd5b8301601f81018513610fcc57600080fd5b8035610fdf610fda82610f6d565b610f3c565b81815260059190911b82018301908381019087831115610ffe57600080fd5b928401925b8284101561102557833561101681610e5f565b82529284019290840190611003565b979650505050505050565b6000806000806040858703121561104657600080fd5b843567ffffffffffffffff8082111561105e57600080fd5b61106a88838901610e98565b9096509450602087013591508082111561108357600080fd5b5061109087828801610e98565b95989497509550505050565b60208082526026908201527f6f6e6c792063616c6c61626c652062792077686974656c69737465642061646460408201526572657373657360d01b606082015260800190565b6000602082840312156110f457600080fd5b8151610e9181610e5f565b80516001600160701b0381168114610bf457600080fd5b60008060006060848603121561112b57600080fd5b611134846110ff565b9250611142602085016110ff565b9150604084015163ffffffff8116811461115b57600080fd5b809150509250925092565b634e487b7160e01b600052601160045260246000fd5b600081600019048311821515161561119657611196611166565b500290565b600082198211156111ae576111ae611166565b500190565b6000602082840312156111c557600080fd5b5051919050565b6000826111e957634e487b7160e01b600052601260045260246000fd5b500490565b6020808252818101527f4f776e61626c653a2063616c6c6572206973206e6f7420746865206f776e6572604082015260600190565b634e487b7160e01b600052603260045260246000fd5b600060001982141561124d5761124d611166565b5060010190565b604080825283519082018190526000906020906060840190828701845b828110156112965781516001600160a01b031684529284019290840190600101611271565b5050508381038285015284518082528583019183019060005b818110156112cb578351835292840192918401916001016112af565b5090979650505050505050565b6000602082840312156112ea57600080fd5b81358015158114610e9157600080fd5b6000602080838503121561130d57600080fd5b825167ffffffffffffffff81111561132457600080fd5b8301601f8101851361133557600080fd5b8051611343610fda82610f6d565b81815260059190911b8201830190838101908783111561136257600080fd5b928401925b8284101561102557835161137a81610e5f565b8252928401929084019061136756fea2646970667358221220a4e254fbbe6633dfad10d1e2028c88700f2a898bcea2852dec9f442ca6f37b4f64736f6c63430008090033",
  "linkReferences": {},
  "deployedLinkReferences": {}
}