{
  "_format": "hh-sol-artifact-1",
  "contractName": "ERC20WithVoting",
  "sourceName": "contracts/ERC20WithVoting.sol",
  "abi": [
    {
      "inputs": [
        {
          "internalType": "string",
          "name": "name_",
          "type": "string"
        },
        {
          "internalType": "string",
          "name": "symbol_",
          "type": "string"
        }
      ],
      "stateMutability": "nonpayable",
      "type": "constructor"
    },
    {
      "anonymous": false,
      "inputs": [
        {
          "indexed": true,
          "internalType": "address",
          "name": "owner",
          "type": "address"
        },
        {
          "indexed": true,
          "internalType": "address",
          "name": "spender",
          "type": "address"
        },
        {
          "indexed": false,
          "internalType": "uint256",
          "name": "value",
          "type": "uint256"
        }
      ],
      "name": "Approval",
      "type": "event"
    },
    {
      "anonymous": false,
      "inputs": [
        {
          "indexed": true,
          "internalType": "address",
          "name": "delegator",
          "type": "address"
        },
        {
          "indexed": true,
          "internalType": "address",
          "name": "fromDelegate",
          "type": "address"
        },
        {
          "indexed": true,
          "internalType": "address",
          "name": "toDelegate",
          "type": "address"
        }
      ],
      "name": "DelegateChanged",
      "type": "event"
    },
    {
      "anonymous": false,
      "inputs": [
        {
          "indexed": true,
          "internalType": "address",
          "name": "delegate",
          "type": "address"
        },
        {
          "indexed": false,
          "internalType": "uint256",
          "name": "previousBalance",
          "type": "uint256"
        },
        {
          "indexed": false,
          "internalType": "uint256",
          "name": "newBalance",
          "type": "uint256"
        }
      ],
      "name": "DelegateVotesChanged",
      "type": "event"
    },
    {
      "anonymous": false,
      "inputs": [
        {
          "indexed": true,
          "internalType": "address",
          "name": "from",
          "type": "address"
        },
        {
          "indexed": true,
          "internalType": "address",
          "name": "to",
          "type": "address"
        },
        {
          "indexed": false,
          "internalType": "uint256",
          "name": "value",
          "type": "uint256"
        }
      ],
      "name": "Transfer",
      "type": "event"
    },
    {
      "inputs": [],
      "name": "DELEGATION_TYPEHASH",
      "outputs": [
        {
          "internalType": "bytes32",
          "name": "",
          "type": "bytes32"
        }
      ],
      "stateMutability": "view",
      "type": "function"
    },
    {
      "inputs": [],
      "name": "DOMAIN_SEPARATOR",
      "outputs": [
        {
          "internalType": "bytes32",
          "name": "",
          "type": "bytes32"
        }
      ],
      "stateMutability": "view",
      "type": "function"
    },
    {
      "inputs": [],
      "name": "DOMAIN_TYPEHASH",
      "outputs": [
        {
          "internalType": "bytes32",
          "name": "",
          "type": "bytes32"
        }
      ],
      "stateMutability": "view",
      "type": "function"
    },
    {
      "inputs": [
        {
          "internalType": "address",
          "name": "owner",
          "type": "address"
        },
        {
          "internalType": "address",
          "name": "spender",
          "type": "address"
        }
      ],
      "name": "allowance",
      "outputs": [
        {
          "internalType": "uint256",
          "name": "",
          "type": "uint256"
        }
      ],
      "stateMutability": "view",
      "type": "function"
    },
    {
      "inputs": [
        {
          "internalType": "address",
          "name": "spender",
          "type": "address"
        },
        {
          "internalType": "uint256",
          "name": "amount",
          "type": "uint256"
        }
      ],
      "name": "approve",
      "outputs": [
        {
          "internalType": "bool",
          "name": "",
          "type": "bool"
        }
      ],
      "stateMutability": "nonpayable",
      "type": "function"
    },
    {
      "inputs": [
        {
          "internalType": "address",
          "name": "account",
          "type": "address"
        }
      ],
      "name": "balanceOf",
      "outputs": [
        {
          "internalType": "uint256",
          "name": "",
          "type": "uint256"
        }
      ],
      "stateMutability": "view",
      "type": "function"
    },
    {
      "inputs": [
        {
          "internalType": "address",
          "name": "",
          "type": "address"
        },
        {
          "internalType": "uint32",
          "name": "",
          "type": "uint32"
        }
      ],
      "name": "checkpoints",
      "outputs": [
        {
          "internalType": "uint32",
          "name": "fromBlock",
          "type": "uint32"
        },
        {
          "internalType": "uint256",
          "name": "votes",
          "type": "uint256"
        }
      ],
      "stateMutability": "view",
      "type": "function"
    },
    {
      "inputs": [],
      "name": "decimals",
      "outputs": [
        {
          "internalType": "uint8",
          "name": "",
          "type": "uint8"
        }
      ],
      "stateMutability": "view",
      "type": "function"
    },
    {
      "inputs": [
        {
          "internalType": "address",
          "name": "spender",
          "type": "address"
        },
        {
          "internalType": "uint256",
          "name": "subtractedValue",
          "type": "uint256"
        }
      ],
      "name": "decreaseAllowance",
      "outputs": [
        {
          "internalType": "bool",
          "name": "",
          "type": "bool"
        }
      ],
      "stateMutability": "nonpayable",
      "type": "function"
    },
    {
      "inputs": [
        {
          "internalType": "address",
          "name": "delegatee",
          "type": "address"
        }
      ],
      "name": "delegate",
      "outputs": [],
      "stateMutability": "nonpayable",
      "type": "function"
    },
    {
      "inputs": [
        {
          "internalType": "address",
          "name": "delegatee",
          "type": "address"
        },
        {
          "internalType": "uint256",
          "name": "nonce",
          "type": "uint256"
        },
        {
          "internalType": "uint256",
          "name": "expiry",
          "type": "uint256"
        },
        {
          "internalType": "uint8",
          "name": "v",
          "type": "uint8"
        },
        {
          "internalType": "bytes32",
          "name": "r",
          "type": "bytes32"
        },
        {
          "internalType": "bytes32",
          "name": "s",
          "type": "bytes32"
        }
      ],
      "name": "delegateBySig",
      "outputs": [],
      "stateMutability": "nonpayable",
      "type": "function"
    },
    {
      "inputs": [
        {
          "internalType": "address",
          "name": "delegator",
          "type": "address"
        }
      ],
      "name": "delegates",
      "outputs": [
        {
          "internalType": "address",
          "name": "",
          "type": "address"
        }
      ],
      "stateMutability": "view",
      "type": "function"
    },
    {
      "inputs": [
        {
          "internalType": "address",
          "name": "account",
          "type": "address"
        }
      ],
      "name": "getCurrentVotes",
      "outputs": [
        {
          "internalType": "uint256",
          "name": "",
          "type": "uint256"
        }
      ],
      "stateMutability": "view",
      "type": "function"
    },
    {
      "inputs": [
        {
          "internalType": "address",
          "name": "delegatee",
          "type": "address"
        },
        {
          "internalType": "uint256",
          "name": "nonce",
          "type": "uint256"
        },
        {
          "internalType": "uint256",
          "name": "expiry",
          "type": "uint256"
        }
      ],
      "name": "getDelegationDigest",
      "outputs": [
        {
          "internalType": "bytes32",
          "name": "",
          "type": "bytes32"
        }
      ],
      "stateMutability": "view",
      "type": "function"
    },
    {
      "inputs": [
        {
          "internalType": "address",
          "name": "account",
          "type": "address"
        },
        {
          "internalType": "uint256",
          "name": "blockNumber",
          "type": "uint256"
        }
      ],
      "name": "getPriorVotes",
      "outputs": [
        {
          "internalType": "uint256",
          "name": "",
          "type": "uint256"
        }
      ],
      "stateMutability": "view",
      "type": "function"
    },
    {
      "inputs": [
        {
          "internalType": "address",
          "name": "spender",
          "type": "address"
        },
        {
          "internalType": "uint256",
          "name": "addedValue",
          "type": "uint256"
        }
      ],
      "name": "increaseAllowance",
      "outputs": [
        {
          "internalType": "bool",
          "name": "",
          "type": "bool"
        }
      ],
      "stateMutability": "nonpayable",
      "type": "function"
    },
    {
      "inputs": [],
      "name": "name",
      "outputs": [
        {
          "internalType": "string",
          "name": "",
          "type": "string"
        }
      ],
      "stateMutability": "view",
      "type": "function"
    },
    {
      "inputs": [
        {
          "internalType": "address",
          "name": "",
          "type": "address"
        }
      ],
      "name": "nonces",
      "outputs": [
        {
          "internalType": "uint256",
          "name": "",
          "type": "uint256"
        }
      ],
      "stateMutability": "view",
      "type": "function"
    },
    {
      "inputs": [
        {
          "internalType": "address",
          "name": "",
          "type": "address"
        }
      ],
      "name": "numCheckpoints",
      "outputs": [
        {
          "internalType": "uint32",
          "name": "",
          "type": "uint32"
        }
      ],
      "stateMutability": "view",
      "type": "function"
    },
    {
      "inputs": [],
      "name": "symbol",
      "outputs": [
        {
          "internalType": "string",
          "name": "",
          "type": "string"
        }
      ],
      "stateMutability": "view",
      "type": "function"
    },
    {
      "inputs": [],
      "name": "totalSupply",
      "outputs": [
        {
          "internalType": "uint256",
          "name": "",
          "type": "uint256"
        }
      ],
      "stateMutability": "view",
      "type": "function"
    },
    {
      "inputs": [
        {
          "internalType": "address",
          "name": "recipient",
          "type": "address"
        },
        {
          "internalType": "uint256",
          "name": "amount",
          "type": "uint256"
        }
      ],
      "name": "transfer",
      "outputs": [
        {
          "internalType": "bool",
          "name": "",
          "type": "bool"
        }
      ],
      "stateMutability": "nonpayable",
      "type": "function"
    },
    {
      "inputs": [
        {
          "internalType": "address",
          "name": "sender",
          "type": "address"
        },
        {
          "internalType": "address",
          "name": "recipient",
          "type": "address"
        },
        {
          "internalType": "uint256",
          "name": "amount",
          "type": "uint256"
        }
      ],
      "name": "transferFrom",
      "outputs": [
        {
          "internalType": "bool",
          "name": "",
          "type": "bool"
        }
      ],
      "stateMutability": "nonpayable",
      "type": "function"
    }
  ],
  "bytecode": "0x60a06040523480156200001157600080fd5b5060405162001af838038062001af88339810160408190526200003491620002fb565b8151829082906200004d90600390602085019062000188565b5080516200006390600490602084019062000188565b50620000719150506200007d565b60805250620003a29050565b60007f8cad95687ba82c2ce50e74f7b754645e5117c3a5bec8151c0726d5857980a866620000aa620000ee565b805160209091012046604080516020810194909452830191909152606082015230608082015260a00160405160208183030381529060405280519060200120905090565b606060038054620000ff9062000365565b80601f01602080910402602001604051908101604052809291908181526020018280546200012d9062000365565b80156200017e5780601f1062000152576101008083540402835291602001916200017e565b820191906000526020600020905b8154815290600101906020018083116200016057829003601f168201915b5050505050905090565b828054620001969062000365565b90600052602060002090601f016020900481019282620001ba576000855562000205565b82601f10620001d557805160ff191683800117855562000205565b8280016001018555821562000205579182015b8281111562000205578251825591602001919060010190620001e8565b506200021392915062000217565b5090565b5b8082111562000213576000815560010162000218565b634e487b7160e01b600052604160045260246000fd5b600082601f8301126200025657600080fd5b81516001600160401b03808211156200027357620002736200022e565b604051601f8301601f19908116603f011681019082821181831017156200029e576200029e6200022e565b81604052838152602092508683858801011115620002bb57600080fd5b600091505b83821015620002df5785820183015181830184015290820190620002c0565b83821115620002f15760008385830101525b9695505050505050565b600080604083850312156200030f57600080fd5b82516001600160401b03808211156200032757600080fd5b620003358683870162000244565b935060208501519150808211156200034c57600080fd5b506200035b8582860162000244565b9150509250929050565b600181811c908216806200037a57607f821691505b602082108114156200039c57634e487b7160e01b600052602260045260246000fd5b50919050565b60805161172c620003cc600039600081816101f3015281816103c90152610a9f015261172c6000f3fe608060405234801561001057600080fd5b506004361061014d5760003560e01c806370a08231116100c3578063ac9ebbd01161007c578063ac9ebbd014610346578063b4b5ea5714610410578063c3cda52014610423578063dd62ed3e14610436578063e7a324dc1461046f578063f1127ed81461049657600080fd5b806370a08231146102bc578063782d6fe1146102e55780637ecebe00146102f857806395d89b4114610318578063a457c2d714610320578063a9059cbb1461033357600080fd5b8063313ce56711610115578063313ce567146101df5780633644e515146101ee5780633950935114610215578063587cde1e146102285780635c19a95c1461026c5780636fcfff451461028157600080fd5b806306fdde0314610152578063095ea7b31461017057806318160ddd1461019357806320606b70146101a557806323b872dd146101cc575b600080fd5b61015a6104ed565b60405161016791906113a6565b60405180910390f35b61018361017e366004611417565b61057f565b6040519015158152602001610167565b6002545b604051908152602001610167565b6101977f8cad95687ba82c2ce50e74f7b754645e5117c3a5bec8151c0726d5857980a86681565b6101836101da366004611441565b610596565b60405160128152602001610167565b6101977f000000000000000000000000000000000000000000000000000000000000000081565b610183610223366004611417565b610645565b61025461023636600461147d565b6001600160a01b039081166000908152600560205260409020541690565b6040516001600160a01b039091168152602001610167565b61027f61027a36600461147d565b610681565b005b6102a761028f36600461147d565b60076020526000908152604090205463ffffffff1681565b60405163ffffffff9091168152602001610167565b6101976102ca36600461147d565b6001600160a01b031660009081526020819052604090205490565b6101976102f3366004611417565b61068e565b61019761030636600461147d565b60086020526000908152604090205481565b61015a6108fe565b61018361032e366004611417565b61090d565b610183610341366004611417565b6109a6565b610197610354366004611498565b604080517fe48329057bfd03d55e49b547132e39cffd9c1820ad7b9d4c5307691425d15adf6020808301919091526001600160a01b03959095168183015260608101939093526080808401929092528051808403909201825260a08301815281519184019190912061190160f01b60c08401527f000000000000000000000000000000000000000000000000000000000000000060c284015260e280840191909152815180840390910181526101029092019052805191012090565b61019761041e36600461147d565b6109b3565b61027f6104313660046114cb565b610a28565b61019761044436600461152b565b6001600160a01b03918216600090815260016020908152604080832093909416825291909152205490565b6101977fe48329057bfd03d55e49b547132e39cffd9c1820ad7b9d4c5307691425d15adf81565b6104d16104a436600461155e565b60066020908152600092835260408084209091529082529020805460019091015463ffffffff9091169082565b6040805163ffffffff9093168352602083019190915201610167565b6060600380546104fc9061159e565b80601f01602080910402602001604051908101604052809291908181526020018280546105289061159e565b80156105755780601f1061054a57610100808354040283529160200191610575565b820191906000526020600020905b81548152906001019060200180831161055857829003601f168201915b5050505050905090565b600061058c338484610cc6565b5060015b92915050565b60006105a3848484610dea565b6001600160a01b03841660009081526001602090815260408083203384529091529020548281101561062d5760405162461bcd60e51b815260206004820152602860248201527f45524332303a207472616e7366657220616d6f756e74206578636565647320616044820152676c6c6f77616e636560c01b60648201526084015b60405180910390fd5b61063a8533858403610cc6565b506001949350505050565b3360008181526001602090815260408083206001600160a01b0387168452909152812054909161058c91859061067c9086906115ef565b610cc6565b61068b3382610e2c565b50565b60004382106106fa5760405162461bcd60e51b815260206004820152603260248201527f455243323057697468566f74696e673a3a6765745072696f72566f7465733a206044820152711b9bdd081e595d0819195d195c9b5a5b995960721b6064820152608401610624565b6001600160a01b03831660009081526007602052604090205463ffffffff1680610728576000915050610590565b6001600160a01b0384166000908152600660205260408120849161074d600185611607565b63ffffffff908116825260208201929092526040016000205416116107b6576001600160a01b038416600090815260066020526040812090610790600184611607565b63ffffffff1663ffffffff16815260200190815260200160002060010154915050610590565b6001600160a01b038416600090815260066020908152604080832083805290915290205463ffffffff168310156107f1576000915050610590565b6000806107ff600184611607565b90505b8163ffffffff168163ffffffff1611156108c757600060026108248484611607565b61082e919061162c565b6108389083611607565b6001600160a01b038816600090815260066020908152604080832063ffffffff808616855290835292819020815180830190925280549093168082526001909301549181019190915291925087141561089b576020015194506105909350505050565b805163ffffffff168711156108b2578193506108c0565b6108bd600183611607565b92505b5050610802565b506001600160a01b038516600090815260066020908152604080832063ffffffff9094168352929052206001015491505092915050565b6060600480546104fc9061159e565b3360009081526001602090815260408083206001600160a01b03861684529091528120548281101561098f5760405162461bcd60e51b815260206004820152602560248201527f45524332303a2064656372656173656420616c6c6f77616e63652062656c6f77604482015264207a65726f60d81b6064820152608401610624565b61099c3385858403610cc6565b5060019392505050565b600061058c338484610dea565b6001600160a01b03811660009081526007602052604081205463ffffffff16806109de576000610a21565b6001600160a01b038316600090815260066020526040812090610a02600184611607565b63ffffffff1663ffffffff168152602001908152602001600020600101545b9392505050565b604080517fe48329057bfd03d55e49b547132e39cffd9c1820ad7b9d4c5307691425d15adf60208201526001600160a01b03881691810191909152606081018690526080810185905260009060a00160408051601f1981840301815290829052805160209182012061190160f01b918301919091527f0000000000000000000000000000000000000000000000000000000000000000602283015260428201819052915060009060620160408051601f198184030181528282528051602091820120600080855291840180845281905260ff89169284019290925260608301879052608083018690529092509060019060a0016020604051602081039080840390855afa158015610b3d573d6000803e3d6000fd5b5050604051601f1901519150506001600160a01b038116610bba5760405162461bcd60e51b815260206004820152603160248201527f455243323057697468566f74696e673a3a64656c656761746542795369673a20604482015270696e76616c6964207369676e617475726560781b6064820152608401610624565b6001600160a01b0381166000908152600860205260408120805491610bde8361165d565b919050558814610c465760405162461bcd60e51b815260206004820152602d60248201527f455243323057697468566f74696e673a3a64656c656761746542795369673a2060448201526c696e76616c6964206e6f6e636560981b6064820152608401610624565b86421115610cb05760405162461bcd60e51b815260206004820152603160248201527f455243323057697468566f74696e673a3a64656c656761746542795369673a206044820152701cda59db985d1d5c9948195e1c1a5c9959607a1b6064820152608401610624565b610cba818a610e2c565b5050505b505050505050565b6001600160a01b038316610d285760405162461bcd60e51b8152602060048201526024808201527f45524332303a20617070726f76652066726f6d20746865207a65726f206164646044820152637265737360e01b6064820152608401610624565b6001600160a01b038216610d895760405162461bcd60e51b815260206004820152602260248201527f45524332303a20617070726f766520746f20746865207a65726f206164647265604482015261737360f01b6064820152608401610624565b6001600160a01b0383811660008181526001602090815260408083209487168084529482529182902085905590518481527f8c5be1e5ebec7d5bd14f71427d1e84f3dd0314c0f7b2291e5b200ac8c7c3b925910160405180910390a3505050565b610df5838383610eab565b6001600160a01b03808416600090815260056020526040808220548584168352912054610e2792918216911683611079565b505050565b6001600160a01b038281166000818152600560208181526040808420805485845282862054949093528787166001600160a01b03198416811790915590519190951694919391928592917f3134e8a2e6d97e929a7e54011ea5485d7d196dd5f0ba4d4ef95803e8e3fc257f9190a4610ea5828483611079565b50505050565b6001600160a01b038316610f0f5760405162461bcd60e51b815260206004820152602560248201527f45524332303a207472616e736665722066726f6d20746865207a65726f206164604482015264647265737360d81b6064820152608401610624565b6001600160a01b038216610f715760405162461bcd60e51b815260206004820152602360248201527f45524332303a207472616e7366657220746f20746865207a65726f206164647260448201526265737360e81b6064820152608401610624565b6001600160a01b03831660009081526020819052604090205481811015610fe95760405162461bcd60e51b815260206004820152602660248201527f45524332303a207472616e7366657220616d6f756e7420657863656564732062604482015265616c616e636560d01b6064820152608401610624565b6001600160a01b038085166000908152602081905260408082208585039055918516815290812080548492906110209084906115ef565b92505081905550826001600160a01b0316846001600160a01b03167fddf252ad1be2c89b69c2b068fc378daa952ba7f163c4a11628f55a4df523b3ef8460405161106c91815260200190565b60405180910390a3610ea5565b816001600160a01b0316836001600160a01b03161415801561109b5750600081115b15610e27576001600160a01b0383161561113e576001600160a01b03831660009081526007602052604081205463ffffffff1690816110db57600061111e565b6001600160a01b0385166000908152600660205260408120906110ff600185611607565b63ffffffff1663ffffffff168152602001908152602001600020600101545b9050600061112c8483611678565b905061113a868484846111d4565b5050505b6001600160a01b03821615610e27576001600160a01b03821660009081526007602052604081205463ffffffff1690816111795760006111bc565b6001600160a01b03841660009081526006602052604081209061119d600185611607565b63ffffffff1663ffffffff168152602001908152602001600020600101545b905060006111ca84836115ef565b9050610cbe858484845b60006111f8436040518060600160405280603f81526020016116b8603f9139611376565b905060008463ffffffff1611801561125257506001600160a01b038516600090815260066020526040812063ffffffff831691611236600188611607565b63ffffffff908116825260208201929092526040016000205416145b1561129b576001600160a01b0385166000908152600660205260408120839161127c600188611607565b63ffffffff16815260208101919091526040016000206001015561132b565b60408051808201825263ffffffff838116825260208083018681526001600160a01b038a166000908152600683528581208a851682529092529390209151825463ffffffff1916911617815590516001918201556112fa90859061168f565b6001600160a01b0386166000908152600760205260409020805463ffffffff191663ffffffff929092169190911790555b60408051848152602081018490526001600160a01b038716917fdec2bacdd2f05b59de34da9b523dff8be42e5e38e818c82fdb0bae774387a724910160405180910390a25050505050565b600081640100000000841061139e5760405162461bcd60e51b815260040161062491906113a6565b509192915050565b600060208083528351808285015260005b818110156113d3578581018301518582016040015282016113b7565b818111156113e5576000604083870101525b50601f01601f1916929092016040019392505050565b80356001600160a01b038116811461141257600080fd5b919050565b6000806040838503121561142a57600080fd5b611433836113fb565b946020939093013593505050565b60008060006060848603121561145657600080fd5b61145f846113fb565b925061146d602085016113fb565b9150604084013590509250925092565b60006020828403121561148f57600080fd5b610a21826113fb565b6000806000606084860312156114ad57600080fd5b6114b6846113fb565b95602085013595506040909401359392505050565b60008060008060008060c087890312156114e457600080fd5b6114ed876113fb565b95506020870135945060408701359350606087013560ff8116811461151157600080fd5b9598949750929560808101359460a0909101359350915050565b6000806040838503121561153e57600080fd5b611547836113fb565b9150611555602084016113fb565b90509250929050565b6000806040838503121561157157600080fd5b61157a836113fb565b9150602083013563ffffffff8116811461159357600080fd5b809150509250929050565b600181811c908216806115b257607f821691505b602082108114156115d357634e487b7160e01b600052602260045260246000fd5b50919050565b634e487b7160e01b600052601160045260246000fd5b60008219821115611602576116026115d9565b500190565b600063ffffffff83811690831681811015611624576116246115d9565b039392505050565b600063ffffffff8084168061165157634e487b7160e01b600052601260045260246000fd5b92169190910492915050565b6000600019821415611671576116716115d9565b5060010190565b60008282101561168a5761168a6115d9565b500390565b600063ffffffff8083168185168083038211156116ae576116ae6115d9565b0194935050505056fe455243323057697468566f74696e673a3a5f7772697465436865636b706f696e743a20626c6f636b206e756d62657220657863656564732033322062697473a2646970667358221220b4566ea621fd07ad03e698cb6199b40b8cd39d1907193085361c5f9ba939072164736f6c63430008090033",
  "linkReferences": {},
  "deployedLinkReferences": {}
}