{
  "_format": "hh-sol-artifact-1",
  "contractName": "BoofiStrategyForJoeV2Staking",
  "sourceName": "contracts/BoofiStrategyForJoeV2Staking.sol",
  "abi": [
    {
      "inputs": [
        {
          "internalType": "contract IHauntedHouse",
          "name": "_hauntedHouse",
          "type": "address"
        },
        {
          "internalType": "contract IERC20",
          "name": "_depositToken",
          "type": "address"
        },
        {
          "internalType": "uint256",
          "name": "_JOE_PID",
          "type": "uint256"
        }
      ],
      "stateMutability": "nonpayable",
      "type": "constructor"
    },
    {
      "anonymous": false,
      "inputs": [
        {
          "indexed": true,
          "internalType": "address",
          "name": "previousOwner",
          "type": "address"
        },
        {
          "indexed": true,
          "internalType": "address",
          "name": "newOwner",
          "type": "address"
        }
      ],
      "name": "OwnershipTransferred",
      "type": "event"
    },
    {
      "inputs": [],
      "name": "JOE_MASTERCHEF_V2",
      "outputs": [
        {
          "internalType": "contract IJoeChef",
          "name": "",
          "type": "address"
        }
      ],
      "stateMutability": "view",
      "type": "function"
    },
    {
      "inputs": [],
      "name": "JOE_PID",
      "outputs": [
        {
          "internalType": "uint256",
          "name": "",
          "type": "uint256"
        }
      ],
      "stateMutability": "view",
      "type": "function"
    },
    {
      "inputs": [],
      "name": "JOE_ROUTER",
      "outputs": [
        {
          "internalType": "contract IRouter",
          "name": "",
          "type": "address"
        }
      ],
      "stateMutability": "view",
      "type": "function"
    },
    {
      "inputs": [],
      "name": "REWARD_TOKEN",
      "outputs": [
        {
          "internalType": "contract IERC20",
          "name": "",
          "type": "address"
        }
      ],
      "stateMutability": "view",
      "type": "function"
    },
    {
      "inputs": [],
      "name": "ROUTER",
      "outputs": [
        {
          "internalType": "contract IRouter",
          "name": "",
          "type": "address"
        }
      ],
      "stateMutability": "view",
      "type": "function"
    },
    {
      "inputs": [],
      "name": "checkReward",
      "outputs": [
        {
          "internalType": "uint256",
          "name": "",
          "type": "uint256"
        }
      ],
      "stateMutability": "view",
      "type": "function"
    },
    {
      "inputs": [
        {
          "internalType": "address",
          "name": "",
          "type": "address"
        },
        {
          "internalType": "address",
          "name": "",
          "type": "address"
        },
        {
          "internalType": "uint256",
          "name": "tokenAmount",
          "type": "uint256"
        },
        {
          "internalType": "uint256",
          "name": "",
          "type": "uint256"
        }
      ],
      "name": "deposit",
      "outputs": [],
      "stateMutability": "nonpayable",
      "type": "function"
    },
    {
      "inputs": [],
      "name": "depositToken",
      "outputs": [
        {
          "internalType": "contract IERC20",
          "name": "",
          "type": "address"
        }
      ],
      "stateMutability": "view",
      "type": "function"
    },
    {
      "inputs": [],
      "name": "hauntedHouse",
      "outputs": [
        {
          "internalType": "contract IHauntedHouse",
          "name": "",
          "type": "address"
        }
      ],
      "stateMutability": "view",
      "type": "function"
    },
    {
      "inputs": [
        {
          "internalType": "contract IERC20",
          "name": "token",
          "type": "address"
        },
        {
          "internalType": "address",
          "name": "to",
          "type": "address"
        },
        {
          "internalType": "uint256",
          "name": "amount",
          "type": "uint256"
        }
      ],
      "name": "inCaseTokensGetStuck",
      "outputs": [],
      "stateMutability": "nonpayable",
      "type": "function"
    },
    {
      "inputs": [
        {
          "internalType": "address",
          "name": "newStrategy",
          "type": "address"
        }
      ],
      "name": "migrate",
      "outputs": [],
      "stateMutability": "nonpayable",
      "type": "function"
    },
    {
      "inputs": [],
      "name": "onMigration",
      "outputs": [],
      "stateMutability": "nonpayable",
      "type": "function"
    },
    {
      "inputs": [],
      "name": "owner",
      "outputs": [
        {
          "internalType": "address",
          "name": "",
          "type": "address"
        }
      ],
      "stateMutability": "view",
      "type": "function"
    },
    {
      "inputs": [
        {
          "internalType": "address",
          "name": "",
          "type": "address"
        }
      ],
      "name": "pendingTokens",
      "outputs": [
        {
          "internalType": "address[]",
          "name": "",
          "type": "address[]"
        },
        {
          "internalType": "uint256[]",
          "name": "",
          "type": "uint256[]"
        }
      ],
      "stateMutability": "view",
      "type": "function"
    },
    {
      "inputs": [],
      "name": "performanceFeeBips",
      "outputs": [
        {
          "internalType": "uint256",
          "name": "",
          "type": "uint256"
        }
      ],
      "stateMutability": "view",
      "type": "function"
    },
    {
      "inputs": [],
      "name": "renounceOwnership",
      "outputs": [],
      "stateMutability": "nonpayable",
      "type": "function"
    },
    {
      "inputs": [
        {
          "internalType": "uint256",
          "name": "newPerformanceFeeBips",
          "type": "uint256"
        }
      ],
      "name": "setPerformanceFeeBips",
      "outputs": [],
      "stateMutability": "nonpayable",
      "type": "function"
    },
    {
      "inputs": [],
      "name": "storedPerformanceFees",
      "outputs": [
        {
          "internalType": "uint256",
          "name": "",
          "type": "uint256"
        }
      ],
      "stateMutability": "view",
      "type": "function"
    },
    {
      "inputs": [],
      "name": "totalHarvested",
      "outputs": [
        {
          "internalType": "uint256",
          "name": "",
          "type": "uint256"
        }
      ],
      "stateMutability": "view",
      "type": "function"
    },
    {
      "inputs": [
        {
          "internalType": "address",
          "name": "newOwner",
          "type": "address"
        }
      ],
      "name": "transferOwnership",
      "outputs": [],
      "stateMutability": "nonpayable",
      "type": "function"
    },
    {
      "inputs": [
        {
          "internalType": "address",
          "name": "",
          "type": "address"
        },
        {
          "internalType": "address",
          "name": "to",
          "type": "address"
        },
        {
          "internalType": "uint256",
          "name": "tokenAmount",
          "type": "uint256"
        },
        {
          "internalType": "uint256",
          "name": "",
          "type": "uint256"
        }
      ],
      "name": "withdraw",
      "outputs": [],
      "stateMutability": "nonpayable",
      "type": "function"
    },
    {
      "inputs": [],
      "name": "withdrawPerformanceFees",
      "outputs": [],
      "stateMutability": "nonpayable",
      "type": "function"
    }
  ],
  "bytecode": "0x610120604052610bb86001553480156200001857600080fd5b50604051620024b8380380620024b88339810160408190526200003b91620008d3565b8282736e84a6216ea6dacc71ee8e6b0a5b7322eebc0fdd7360ae616a2155ee3d9a68541ba4544862310933d48383620000743362000302565b6001600160a01b038216158015906200009557506001600160a01b03811615155b620000d25760405162461bcd60e51b81526020600482015260086024820152671e995c9bc818985960c21b60448201526064015b60405180910390fd5b6001600160a01b03808316608052811660a052620000f08262000352565b50506001600160a01b0382811660c081905290821660e0819052620001259190600019620003b6602090811b620009c917901c565b5050506101008290525060408051600380825260808201909252906020820160608036833750508151620001619260049250602001906200083c565b50736e84a6216ea6dacc71ee8e6b0a5b7322eebc0fdd60046000815481106200018e576200018e6200091b565b9060005260206000200160006101000a8154816001600160a01b0302191690836001600160a01b0316021790555073b31f66aa3c1e785363f0875a1b74e27b85fd66c76004600181548110620001e857620001e86200091b565b9060005260206000200160006101000a8154816001600160a01b0302191690836001600160a01b03160217905550826001600160a01b0316637679b9d36040518163ffffffff1660e01b815260040160206040518083038186803b1580156200025057600080fd5b505afa15801562000265573d6000803e3d6000fd5b505050506040513d601f19601f820116820180604052508101906200028b919062000931565b6004600281548110620002a257620002a26200091b565b60009182526020918290200180546001600160a01b0319166001600160a01b03938416179055620002f99184169073d6a4f121ca35509af06a0be99093d08462f530529060001990620003b6811b620009c917901c565b50505062000a15565b600080546001600160a01b038381166001600160a01b0319831681178455604051919092169283917f8be0079c531659141344cd1fd0a4f28419497f9722a3daafe3b4186f6b6457e09190a35050565b6000546001600160a01b031633146200039d5760405162461bcd60e51b81526020600482018190526024820152600080516020620024988339815191526044820152606401620000c9565b620003b3816200051560201b62000b201760201c565b50565b801580620004445750604051636eb1769f60e11b81523060048201526001600160a01b03838116602483015284169063dd62ed3e9060440160206040518083038186803b1580156200040757600080fd5b505afa1580156200041c573d6000803e3d6000fd5b505050506040513d601f19601f8201168201806040525081019062000442919062000951565b155b620004b85760405162461bcd60e51b815260206004820152603660248201527f5361666545524332303a20617070726f76652066726f6d206e6f6e2d7a65726f60448201527f20746f206e6f6e2d7a65726f20616c6c6f77616e6365000000000000000000006064820152608401620000c9565b604080516001600160a01b038416602482015260448082018490528251808303909101815260649091019091526020810180516001600160e01b0390811663095ea7b360e01b1790915262000510918591620005d216565b505050565b6000546001600160a01b03163314620005605760405162461bcd60e51b81526020600482018190526024820152600080516020620024988339815191526044820152606401620000c9565b6001600160a01b038116620005c75760405162461bcd60e51b815260206004820152602660248201527f4f776e61626c653a206e6577206f776e657220697320746865207a65726f206160448201526564647265737360d01b6064820152608401620000c9565b620003b38162000302565b60006200062e826040518060400160405280602081526020017f5361666545524332303a206c6f772d6c6576656c2063616c6c206661696c6564815250856001600160a01b0316620006b060201b62000bb8179092919060201c565b8051909150156200051057808060200190518101906200064f91906200096b565b620005105760405162461bcd60e51b815260206004820152602a60248201527f5361666545524332303a204552433230206f7065726174696f6e20646964206e6044820152691bdd081cdd58d8d9595960b21b6064820152608401620000c9565b6060620006c18484600085620006cb565b90505b9392505050565b6060824710156200072e5760405162461bcd60e51b815260206004820152602660248201527f416464726573733a20696e73756666696369656e742062616c616e636520666f6044820152651c8818d85b1b60d21b6064820152608401620000c9565b843b6200077e5760405162461bcd60e51b815260206004820152601d60248201527f416464726573733a2063616c6c20746f206e6f6e2d636f6e74726163740000006044820152606401620000c9565b600080866001600160a01b031685876040516200079c9190620009c2565b60006040518083038185875af1925050503d8060008114620007db576040519150601f19603f3d011682016040523d82523d6000602084013e620007e0565b606091505b509092509050620007f3828286620007fe565b979650505050505050565b606083156200080f575081620006c4565b825115620008205782518084602001fd5b8160405162461bcd60e51b8152600401620000c99190620009e0565b82805482825590600052602060002090810192821562000894579160200282015b828111156200089457825182546001600160a01b0319166001600160a01b039091161782556020909201916001909101906200085d565b50620008a2929150620008a6565b5090565b5b80821115620008a25760008155600101620008a7565b6001600160a01b0381168114620003b357600080fd5b600080600060608486031215620008e957600080fd5b8351620008f681620008bd565b60208501519093506200090981620008bd565b80925050604084015190509250925092565b634e487b7160e01b600052603260045260246000fd5b6000602082840312156200094457600080fd5b8151620006c481620008bd565b6000602082840312156200096457600080fd5b5051919050565b6000602082840312156200097e57600080fd5b81518015158114620006c457600080fd5b60005b83811015620009ac57818101518382015260200162000992565b83811115620009bc576000848401525b50505050565b60008251620009d68184602087016200098f565b9190910192915050565b602081526000825180602084015262000a018160408501602087016200098f565b601f01601f19169190910160400192915050565b60805160a05160c05160e051610100516119c062000ad8600039600081816102850152818161061401528181610d8e01528181610e6d01528181610ecb015261117801526000818161018d01526112ef01526000818161025e0152818161040e015281816107c30152818161085a01528181610c2b01528181610cd901526112140152600081816102ea015281816104ca015281816105db0152818161078401526109350152600081816101e701528181610375015261132301526119c06000f3fe608060405234801561001057600080fd5b50600436106101425760003560e01c80638da5cb5b116100b8578063c89039c51161007c578063c89039c5146102e5578063c91010361461030c578063ce5494bb1461031f578063dfd0c09d14610332578063f2fde38b1461033b578063f587268a1461034e57600080fd5b80638da5cb5b1461024857806399248ea7146102595780639c0be14714610280578063c031a66f146102a7578063c4b24a46146102dd57600080fd5b80633969cffc1161010a5780633969cffc146101c75780633e12212e146101e25780635ea5f6a314610209578063715018a6146102245780637bfe950c1461022c578063864ec9b41461023f57600080fd5b806304a0906e1461014757806320e8c5651461015157806323dc1142146101645780632d39811f1461018057806332fe7b2614610188575b600080fd5b61014f610361565b005b61014f61015f36600461147b565b610438565b61016d60025481565b6040519081526020015b60405180910390f35b61014f610488565b6101af7f000000000000000000000000000000000000000000000000000000000000000081565b6040516001600160a01b039091168152602001610177565b6101af73d6a4f121ca35509af06a0be99093d08462f5305281565b6101af7f000000000000000000000000000000000000000000000000000000000000000081565b6101af7360ae616a2155ee3d9a68541ba4544862310933d481565b61014f610557565b61014f61023a36600461147b565b61058d565b61016d60035481565b6000546001600160a01b03166101af565b6101af7f000000000000000000000000000000000000000000000000000000000000000081565b61016d7f000000000000000000000000000000000000000000000000000000000000000081565b6102cf6102b53660046114c1565b506040805160008082526020820190815281830190925291565b6040516101779291906114de565b61016d610602565b6101af7f000000000000000000000000000000000000000000000000000000000000000081565b61014f61031a366004611562565b6106c0565b61014f61032d3660046114c1565b610732565b61016d60015481565b61014f6103493660046114c1565b610886565b61014f61035c36600461157b565b6108b9565b6000600354905060006003819055506104357f00000000000000000000000000000000000000000000000000000000000000006001600160a01b0316638471692a6040518163ffffffff1660e01b815260040160206040518083038186803b1580156103cc57600080fd5b505afa1580156103e0573d6000803e3d6000fd5b505050506040513d601f19601f8201168201806040525081019061040491906115bc565b6001600160a01b037f0000000000000000000000000000000000000000000000000000000000000000169083610bd1565b50565b6000546001600160a01b0316331461046b5760405162461bcd60e51b8152600401610462906115d9565b60405180910390fd5b610473610c01565b81156104825761048282610d7f565b50505050565b6000546001600160a01b031633146104b25760405162461bcd60e51b8152600401610462906115d9565b6040516370a0823160e01b81523060048201526000907f00000000000000000000000000000000000000000000000000000000000000006001600160a01b0316906370a082319060240160206040518083038186803b15801561051457600080fd5b505afa158015610528573d6000803e3d6000fd5b505050506040513d601f19601f8201168201806040525081019061054c919061160e565b905061043581610d7f565b6000546001600160a01b031633146105815760405162461bcd60e51b8152600401610462906115d9565b61058b6000610e0e565b565b6000546001600160a01b031633146105b75760405162461bcd60e51b8152600401610462906115d9565b6105bf610c01565b8115610482576105ce82610e5e565b6104826001600160a01b037f0000000000000000000000000000000000000000000000000000000000000000168484610bd1565b60405160016232bd9d60e01b031981527f00000000000000000000000000000000000000000000000000000000000000006004820152306024820152600090819073d6a4f121ca35509af06a0be99093d08462f530529063ffcd42639060440160006040518083038186803b15801561067a57600080fd5b505afa15801561068e573d6000803e3d6000fd5b505050506040513d6000823e601f3d908101601f191682016040526106b6919081019061169a565b5091949350505050565b6000546001600160a01b031633146106ea5760405162461bcd60e51b8152600401610462906115d9565b61271081111561072d5760405162461bcd60e51b815260206004820152600e60248201526d0d2dce0eae840e8dede40d0d2ced60931b6044820152606401610462565b600155565b6000546001600160a01b0316331461075c5760405162461bcd60e51b8152600401610462906115d9565b6000610766610ebc565b905080156107ab5761077781610e5e565b6107ab6001600160a01b037f0000000000000000000000000000000000000000000000000000000000000000168383610bd1565b6040516370a0823160e01b81523060048201526000907f00000000000000000000000000000000000000000000000000000000000000006001600160a01b0316906370a082319060240160206040518083038186803b15801561080d57600080fd5b505afa158015610821573d6000803e3d6000fd5b505050506040513d601f19601f82011682018060405250810190610845919061160e565b90508015610881576108816001600160a01b037f0000000000000000000000000000000000000000000000000000000000000000168483610bd1565b505050565b6000546001600160a01b031633146108b05760405162461bcd60e51b8152600401610462906115d9565b61043581610b20565b6000546001600160a01b031633146108e35760405162461bcd60e51b8152600401610462906115d9565b600081116109335760405162461bcd60e51b815260206004820152601760248201527f63616e6e6f74207265636f766572203020746f6b656e730000000000000000006044820152606401610462565b7f00000000000000000000000000000000000000000000000000000000000000006001600160a01b0316836001600160a01b031614156109b55760405162461bcd60e51b815260206004820152601c60248201527f63616e6e6f74207265636f766572206465706f73697420746f6b656e000000006044820152606401610462565b6108816001600160a01b0384168383610bd1565b801580610a525750604051636eb1769f60e11b81523060048201526001600160a01b03838116602483015284169063dd62ed3e9060440160206040518083038186803b158015610a1857600080fd5b505afa158015610a2c573d6000803e3d6000fd5b505050506040513d601f19601f82011682018060405250810190610a50919061160e565b155b610abd5760405162461bcd60e51b815260206004820152603660248201527f5361666545524332303a20617070726f76652066726f6d206e6f6e2d7a65726f60448201527520746f206e6f6e2d7a65726f20616c6c6f77616e636560501b6064820152608401610462565b6040516001600160a01b03831660248201526044810182905261088190849063095ea7b360e01b906064015b60408051601f198184030181529190526020810180516001600160e01b03166001600160e01b031990931692909217909152610f6f565b6000546001600160a01b03163314610b4a5760405162461bcd60e51b8152600401610462906115d9565b6001600160a01b038116610baf5760405162461bcd60e51b815260206004820152602660248201527f4f776e61626c653a206e6577206f776e657220697320746865207a65726f206160448201526564647265737360d01b6064820152608401610462565b61043581610e0e565b6060610bc78484600085611041565b90505b9392505050565b6040516001600160a01b03831660248201526044810182905261088190849063a9059cbb60e01b90606401610ae9565b6000610c0b610602565b90508015610435576040516370a0823160e01b81523060048201526000907f00000000000000000000000000000000000000000000000000000000000000006001600160a01b0316906370a082319060240160206040518083038186803b158015610c7557600080fd5b505afa158015610c89573d6000803e3d6000fd5b505050506040513d601f19601f82011682018060405250810190610cad919061160e565b9050610cb7611169565b6040516370a0823160e01b815230600482015260009082906001600160a01b037f000000000000000000000000000000000000000000000000000000000000000016906370a082319060240160206040518083038186803b158015610d1b57600080fd5b505afa158015610d2f573d6000803e3d6000fd5b505050506040513d601f19601f82011682018060405250810190610d53919061160e565b610d5d9190611769565b90508060026000828254610d719190611780565b9091555061088190506111f0565b604051631c57762b60e31b81527f000000000000000000000000000000000000000000000000000000000000000060048201526024810182905273d6a4f121ca35509af06a0be99093d08462f530529063e2bbb158906044015b600060405180830381600087803b158015610df357600080fd5b505af1158015610e07573d6000803e3d6000fd5b5050505050565b600080546001600160a01b038381166001600160a01b0319831681178455604051919092169283917f8be0079c531659141344cd1fd0a4f28419497f9722a3daafe3b4186f6b6457e09190a35050565b604051630441a3e760e41b81527f000000000000000000000000000000000000000000000000000000000000000060048201526024810182905273d6a4f121ca35509af06a0be99093d08462f530529063441a3e7090604401610dd9565b6040516393f1a40b60e01b81527f00000000000000000000000000000000000000000000000000000000000000006004820152306024820152600090819073d6a4f121ca35509af06a0be99093d08462f53052906393f1a40b90604401604080518083038186803b158015610f3057600080fd5b505afa158015610f44573d6000803e3d6000fd5b505050506040513d601f19601f82011682018060405250810190610f689190611798565b5092915050565b6000610fc4826040518060400160405280602081526020017f5361666545524332303a206c6f772d6c6576656c2063616c6c206661696c6564815250856001600160a01b0316610bb89092919063ffffffff16565b8051909150156108815780806020019051810190610fe291906117bc565b6108815760405162461bcd60e51b815260206004820152602a60248201527f5361666545524332303a204552433230206f7065726174696f6e20646964206e6044820152691bdd081cdd58d8d9595960b21b6064820152608401610462565b6060824710156110a25760405162461bcd60e51b815260206004820152602660248201527f416464726573733a20696e73756666696369656e742062616c616e636520666f6044820152651c8818d85b1b60d21b6064820152608401610462565b843b6110f05760405162461bcd60e51b815260206004820152601d60248201527f416464726573733a2063616c6c20746f206e6f6e2d636f6e74726163740000006044820152606401610462565b600080866001600160a01b0316858760405161110c91906117de565b60006040518083038185875af1925050503d8060008114611149576040519150601f19603f3d011682016040523d82523d6000602084013e61114e565b606091505b509150915061115e82828661142d565b979650505050505050565b604051631c57762b60e31b81527f000000000000000000000000000000000000000000000000000000000000000060048201526000602482015273d6a4f121ca35509af06a0be99093d08462f530529063e2bbb15890604401600060405180830381600087803b1580156111dc57600080fd5b505af1158015610482573d6000803e3d6000fd5b6003546040516370a0823160e01b8152306004820152600091906001600160a01b037f000000000000000000000000000000000000000000000000000000000000000016906370a082319060240160206040518083038186803b15801561125657600080fd5b505afa15801561126a573d6000803e3d6000fd5b505050506040513d601f19601f8201168201806040525081019061128e919061160e565b6112989190611769565b9050801561043557600154156112ed576000612710600154836112bb91906117fa565b6112c59190611819565b905080600360008282546112d99190611780565b909155506112e990508183611769565b9150505b7f00000000000000000000000000000000000000000000000000000000000000006001600160a01b03166338ed173982600060047f00000000000000000000000000000000000000000000000000000000000000006001600160a01b03166302ed05f46040518163ffffffff1660e01b815260040160206040518083038186803b15801561137a57600080fd5b505afa15801561138e573d6000803e3d6000fd5b505050506040513d601f19601f820116820180604052508101906113b291906115bc565b426040518663ffffffff1660e01b81526004016113d395949392919061183b565b600060405180830381600087803b1580156113ed57600080fd5b505af1158015611401573d6000803e3d6000fd5b505050506040513d6000823e601f3d908101601f1916820160405261142991908101906118b1565b5050565b6060831561143c575081610bca565b82511561144c5782518084602001fd5b8160405162461bcd60e51b81526004016104629190611957565b6001600160a01b038116811461043557600080fd5b6000806000806080858703121561149157600080fd5b843561149c81611466565b935060208501356114ac81611466565b93969395505050506040820135916060013590565b6000602082840312156114d357600080fd5b8135610bca81611466565b604080825283519082018190526000906020906060840190828701845b828110156115205781516001600160a01b0316845292840192908401906001016114fb565b5050508381038285015284518082528583019183019060005b8181101561155557835183529284019291840191600101611539565b5090979650505050505050565b60006020828403121561157457600080fd5b5035919050565b60008060006060848603121561159057600080fd5b833561159b81611466565b925060208401356115ab81611466565b929592945050506040919091013590565b6000602082840312156115ce57600080fd5b8151610bca81611466565b6020808252818101527f4f776e61626c653a2063616c6c6572206973206e6f7420746865206f776e6572604082015260600190565b60006020828403121561162057600080fd5b5051919050565b634e487b7160e01b600052604160045260246000fd5b604051601f8201601f1916810167ffffffffffffffff8111828210171561166657611666611627565b604052919050565b60005b83811015611689578181015183820152602001611671565b838111156104825750506000910152565b600080600080608085870312156116b057600080fd5b8451935060208501516116c281611466565b604086015190935067ffffffffffffffff808211156116e057600080fd5b818701915087601f8301126116f457600080fd5b81518181111561170657611706611627565b611719601f8201601f191660200161163d565b915080825288602082850101111561173057600080fd5b61174181602084016020860161166e565b50606096909601519497939650505050565b634e487b7160e01b600052601160045260246000fd5b60008282101561177b5761177b611753565b500390565b6000821982111561179357611793611753565b500190565b600080604083850312156117ab57600080fd5b505080516020909101519092909150565b6000602082840312156117ce57600080fd5b81518015158114610bca57600080fd5b600082516117f081846020870161166e565b9190910192915050565b600081600019048311821515161561181457611814611753565b500290565b60008261183657634e487b7160e01b600052601260045260246000fd5b500490565b600060a082018783526020878185015260a0604085015281875480845260c0860191508860005282600020935060005b818110156118905784546001600160a01b03168352600194850194928401920161186b565b50506001600160a01b03969096166060850152505050608001529392505050565b600060208083850312156118c457600080fd5b825167ffffffffffffffff808211156118dc57600080fd5b818501915085601f8301126118f057600080fd5b81518181111561190257611902611627565b8060051b915061191384830161163d565b818152918301840191848101908884111561192d57600080fd5b938501935b8385101561194b57845182529385019390850190611932565b98975050505050505050565b602081526000825180602084015261197681604085016020870161166e565b601f01601f1916919091016040019291505056fea26469706673582212205ac44f6161624d527148a2de907afde8ed05d1cced661846d15569b040920bdb64736f6c634300080900334f776e61626c653a2063616c6c6572206973206e6f7420746865206f776e6572",
  "linkReferences": {},
  "deployedLinkReferences": {}
}