{
  "_format": "hh-sol-artifact-1",
  "contractName": "BoofiAvaxDepositHelper",
  "sourceName": "contracts/BoofiAvaxDepositHelper.sol",
  "abi": [
    {
      "inputs": [
        {
          "internalType": "contract IHauntedHouse",
          "name": "_hauntedHouse",
          "type": "address"
        }
      ],
      "stateMutability": "nonpayable",
      "type": "constructor"
    },
    {
      "inputs": [],
      "name": "WAVAX",
      "outputs": [
        {
          "internalType": "contract IWAVAX",
          "name": "",
          "type": "address"
        }
      ],
      "stateMutability": "view",
      "type": "function"
    },
    {
      "inputs": [],
      "name": "deposit",
      "outputs": [],
      "stateMutability": "payable",
      "type": "function"
    },
    {
      "inputs": [
        {
          "internalType": "address",
          "name": "to",
          "type": "address"
        }
      ],
      "name": "depositTo",
      "outputs": [],
      "stateMutability": "payable",
      "type": "function"
    },
    {
      "inputs": [],
      "name": "hauntedHouse",
      "outputs": [
        {
          "internalType": "contract IHauntedHouse",
          "name": "",
          "type": "address"
        }
      ],
      "stateMutability": "view",
      "type": "function"
    }
  ],
  "bytecode": "0x60a060405234801561001057600080fd5b506040516103ef3803806103ef83398101604081905261002f91610118565b6001600160a01b0381166100745760405162461bcd60e51b81526020600482015260086024820152671e995c9bc818985960c21b604482015260640160405180910390fd5b6001600160a01b038116608081905260405163095ea7b360e01b81526004810191909152600019602482015273b31f66aa3c1e785363f0875a1b74e27b85fd66c79063095ea7b390604401602060405180830381600087803b1580156100d957600080fd5b505af11580156100ed573d6000803e3d6000fd5b505050506040513d601f19601f820116820180604052508101906101119190610148565b505061016a565b60006020828403121561012a57600080fd5b81516001600160a01b038116811461014157600080fd5b9392505050565b60006020828403121561015a57600080fd5b8151801515811461014157600080fd5b60805161026461018b600039600081816056015261019a01526102646000f3fe60806040526004361061003f5760003560e01c80633e12212e1461004457806373b295c214610094578063b760faf9146100bc578063d0e30db0146100d1575b600080fd5b34801561005057600080fd5b506100787f000000000000000000000000000000000000000000000000000000000000000081565b6040516001600160a01b03909116815260200160405180910390f35b3480156100a057600080fd5b5061007873b31f66aa3c1e785363f0875a1b74e27b85fd66c781565b6100cf6100ca3660046101fe565b6100d9565b005b6100cf6100e5565b6100e2816100f0565b50565b6100ee336100f0565b565b600034905073b31f66aa3c1e785363f0875a1b74e27b85fd66c76001600160a01b031663d0e30db0826040518263ffffffff1660e01b81526004016000604051808303818588803b15801561014457600080fd5b505af1158015610158573d6000803e3d6000fd5b5050604051633d14d1b760e21b815273b31f66aa3c1e785363f0875a1b74e27b85fd66c76004820152602481018590526001600160a01b0386811660448301527f000000000000000000000000000000000000000000000000000000000000000016935063f45346dc92506064019050600060405180830381600087803b1580156101e257600080fd5b505af11580156101f6573d6000803e3d6000fd5b505050505050565b60006020828403121561021057600080fd5b81356001600160a01b038116811461022757600080fd5b939250505056fea2646970667358221220c40dd773e15df7eb8a85f37535a2e8d564bdeb1454dbd28b94451cde623b4a4764736f6c63430008090033",
  "linkReferences": {},
  "deployedLinkReferences": {}
}