{
  "_format": "hh-sol-artifact-1",
  "contractName": "ERC20DistributorAdjustableBips",
  "sourceName": "contracts/ERC20DistributorAdjustableBips.sol",
  "abi": [
    {
      "inputs": [
        {
          "internalType": "address[]",
          "name": "_beneficiaries",
          "type": "address[]"
        },
        {
          "internalType": "uint256[]",
          "name": "_bips",
          "type": "uint256[]"
        },
        {
          "internalType": "address",
          "name": "_DEFAULT_TOKEN",
          "type": "address"
        }
      ],
      "stateMutability": "nonpayable",
      "type": "constructor"
    },
    {
      "anonymous": false,
      "inputs": [
        {
          "indexed": true,
          "internalType": "address",
          "name": "previousOwner",
          "type": "address"
        },
        {
          "indexed": true,
          "internalType": "address",
          "name": "newOwner",
          "type": "address"
        }
      ],
      "name": "OwnershipTransferred",
      "type": "event"
    },
    {
      "stateMutability": "nonpayable",
      "type": "fallback"
    },
    {
      "inputs": [],
      "name": "DEFAULT_TOKEN",
      "outputs": [
        {
          "internalType": "address",
          "name": "",
          "type": "address"
        }
      ],
      "stateMutability": "view",
      "type": "function"
    },
    {
      "inputs": [
        {
          "internalType": "uint256",
          "name": "",
          "type": "uint256"
        }
      ],
      "name": "beneficiaries",
      "outputs": [
        {
          "internalType": "address",
          "name": "",
          "type": "address"
        }
      ],
      "stateMutability": "view",
      "type": "function"
    },
    {
      "inputs": [
        {
          "internalType": "uint256",
          "name": "",
          "type": "uint256"
        }
      ],
      "name": "bips",
      "outputs": [
        {
          "internalType": "uint256",
          "name": "",
          "type": "uint256"
        }
      ],
      "stateMutability": "view",
      "type": "function"
    },
    {
      "inputs": [],
      "name": "defaultSplit",
      "outputs": [],
      "stateMutability": "nonpayable",
      "type": "function"
    },
    {
      "inputs": [],
      "name": "numberBeneficiaries",
      "outputs": [
        {
          "internalType": "uint256",
          "name": "",
          "type": "uint256"
        }
      ],
      "stateMutability": "view",
      "type": "function"
    },
    {
      "inputs": [],
      "name": "owner",
      "outputs": [
        {
          "internalType": "address",
          "name": "",
          "type": "address"
        }
      ],
      "stateMutability": "view",
      "type": "function"
    },
    {
      "inputs": [],
      "name": "renounceOwnership",
      "outputs": [],
      "stateMutability": "nonpayable",
      "type": "function"
    },
    {
      "inputs": [
        {
          "internalType": "address",
          "name": "token",
          "type": "address"
        }
      ],
      "name": "splitERC20",
      "outputs": [],
      "stateMutability": "nonpayable",
      "type": "function"
    },
    {
      "inputs": [
        {
          "internalType": "address",
          "name": "newOwner",
          "type": "address"
        }
      ],
      "name": "transferOwnership",
      "outputs": [],
      "stateMutability": "nonpayable",
      "type": "function"
    },
    {
      "inputs": [
        {
          "internalType": "address[]",
          "name": "_beneficiaries",
          "type": "address[]"
        },
        {
          "internalType": "uint256[]",
          "name": "_bips",
          "type": "uint256[]"
        }
      ],
      "name": "updateSplit",
      "outputs": [],
      "stateMutability": "nonpayable",
      "type": "function"
    }
  ],
  "bytecode": "0x60a06040523480156200001157600080fd5b506040516200138a3803806200138a833981016040819052620000349162000544565b8282826001600160a01b0381166200007e5760405162461bcd60e51b81526020600482015260086024820152671e995c9bc818985960c21b60448201526064015b60405180910390fd5b82516002819055825114620000d65760405162461bcd60e51b815260206004820152601560248201527f696e707574206c656e677468206d69736d617463680000000000000000000000604482015260640162000075565b604060025411156200011a5760405162461bcd60e51b815260206004820152600c60248201526b73616e69747920636865636b60a01b604482015260640162000075565b60006002546001600160401b0381111562000139576200013962000445565b60405190808252806020026020018201604052801562000163578160200160208202803683370190505b5080516200017a9160009160209091019062000386565b506002546001600160401b0381111562000198576200019862000445565b604051908082528060200260200182016040528015620001c2578160200160208202803683370190505b508051620001d991600191602090910190620003f0565b5060005b600254811015620002cb57848181518110620001fd57620001fd62000626565b6020026020010151600082815481106200021b576200021b62000626565b9060005260206000200160006101000a8154816001600160a01b0302191690836001600160a01b031602179055508381815181106200025e576200025e62000626565b6020026020010151600182815481106200027c576200027c62000626565b90600052602060002001819055508381815181106200029f576200029f62000626565b602002602001015182620002b4919062000652565b915080620002c2816200066d565b915050620001dd565b506127108114620003105760405162461bcd60e51b815260206004820152600e60248201526d77726f6e6720626970732073756d60901b604482015260640162000075565b506001600160a01b0316608052506200032b90503362000334565b5050506200068b565b600380546001600160a01b038381166001600160a01b0319831681179093556040519116919082907f8be0079c531659141344cd1fd0a4f28419497f9722a3daafe3b4186f6b6457e090600090a35050565b828054828255906000526020600020908101928215620003de579160200282015b82811115620003de57825182546001600160a01b0319166001600160a01b03909116178255602090920191600190910190620003a7565b50620003ec9291506200042e565b5090565b828054828255906000526020600020908101928215620003de579160200282015b82811115620003de57825182559160200191906001019062000411565b5b80821115620003ec57600081556001016200042f565b634e487b7160e01b600052604160045260246000fd5b604051601f8201601f191681016001600160401b038111828210171562000486576200048662000445565b604052919050565b60006001600160401b03821115620004aa57620004aa62000445565b5060051b60200190565b80516001600160a01b0381168114620004cc57600080fd5b919050565b600082601f830112620004e357600080fd5b81516020620004fc620004f6836200048e565b6200045b565b82815260059290921b840181019181810190868411156200051c57600080fd5b8286015b8481101562000539578051835291830191830162000520565b509695505050505050565b6000806000606084860312156200055a57600080fd5b83516001600160401b03808211156200057257600080fd5b818601915086601f8301126200058757600080fd5b815160206200059a620004f6836200048e565b82815260059290921b8401810191818101908a841115620005ba57600080fd5b948201945b83861015620005e357620005d386620004b4565b82529482019490820190620005bf565b91890151919750909350505080821115620005fd57600080fd5b506200060c86828701620004d1565b9250506200061d60408501620004b4565b90509250925092565b634e487b7160e01b600052603260045260246000fd5b634e487b7160e01b600052601160045260246000fd5b600082198211156200066857620006686200063c565b500190565b60006000198214156200068457620006846200063c565b5060010190565b608051610cdc620006ae6000396000818161011101526101710152610cdc6000f3fe608060405234801561001057600080fd5b50600436106100935760003560e01c8063bae85b9111610066578063bae85b9114610103578063ebc9b79a1461010c578063efeb5e5814610133578063f2fde38b14610146578063f6f697ab1461015957610093565b8063157b92231461009d578063715018a6146100c35780637150a10a146100cb5780638da5cb5b146100de575b61009b61016c565b005b6100b06100ab366004610a07565b610197565b6040519081526020015b60405180910390f35b61009b6101b8565b61009b6100d9366004610a6c565b6101f5565b6003546001600160a01b03165b6040516001600160a01b0390911681526020016100ba565b6100b060025481565b6100eb7f000000000000000000000000000000000000000000000000000000000000000081565b6100eb610141366004610a07565b610492565b61009b610154366004610ad8565b6104bc565b61009b610167366004610ad8565b610557565b6101957f0000000000000000000000000000000000000000000000000000000000000000610557565b565b600181815481106101a757600080fd5b600091825260209091200154905081565b6003546001600160a01b031633146101eb5760405162461bcd60e51b81526004016101e290610b01565b60405180910390fd5b6101956000610679565b6003546001600160a01b0316331461021f5760405162461bcd60e51b81526004016101e290610b01565b600283905580831461026b5760405162461bcd60e51b81526020600482015260156024820152740d2dce0eae840d8cadccee8d040dad2e6dac2e8c6d605b1b60448201526064016101e2565b604060025411156102ad5760405162461bcd60e51b815260206004820152600c60248201526b73616e69747920636865636b60a01b60448201526064016101e2565b600060025467ffffffffffffffff8111156102ca576102ca610b36565b6040519080825280602002602001820160405280156102f3578160200160208202803683370190505b50805161030891600091602090910190610952565b5060025467ffffffffffffffff81111561032457610324610b36565b60405190808252806020026020018201604052801561034d578160200160208202803683370190505b508051610362916001916020909101906109b7565b5060005b6002548110156104485785858281811061038257610382610b4c565b90506020020160208101906103979190610ad8565b600082815481106103aa576103aa610b4c565b9060005260206000200160006101000a8154816001600160a01b0302191690836001600160a01b031602179055508383828181106103ea576103ea610b4c565b905060200201356001828154811061040457610404610b4c565b60009182526020909120015583838281811061042257610422610b4c565b90506020020135826104349190610b78565b91508061044081610b90565b915050610366565b50612710811461048b5760405162461bcd60e51b815260206004820152600e60248201526d77726f6e6720626970732073756d60901b60448201526064016101e2565b5050505050565b600081815481106104a257600080fd5b6000918252602090912001546001600160a01b0316905081565b6003546001600160a01b031633146104e65760405162461bcd60e51b81526004016101e290610b01565b6001600160a01b03811661054b5760405162461bcd60e51b815260206004820152602660248201527f4f776e61626c653a206e6577206f776e657220697320746865207a65726f206160448201526564647265737360d01b60648201526084016101e2565b61055481610679565b50565b6040516370a0823160e01b81523060048201526000906001600160a01b038316906370a082319060240160206040518083038186803b15801561059957600080fd5b505afa1580156105ad573d6000803e3d6000fd5b505050506040513d601f19601f820116820180604052508101906105d19190610bab565b905080156106755760005b60025481101561067357610661600082815481106105fc576105fc610b4c565b9060005260206000200160009054906101000a90046001600160a01b03166127106001848154811061063057610630610b4c565b9060005260206000200154856106469190610bc4565b6106509190610be3565b6001600160a01b03861691906106cb565b8061066b81610b90565b9150506105dc565b505b5050565b600380546001600160a01b038381166001600160a01b0319831681179093556040519116919082907f8be0079c531659141344cd1fd0a4f28419497f9722a3daafe3b4186f6b6457e090600090a35050565b604080516001600160a01b03848116602483015260448083018590528351808403909101815260649092018352602080830180516001600160e01b031663a9059cbb60e01b17905283518085019094528084527f5361666545524332303a206c6f772d6c6576656c2063616c6c206661696c6564908401526106739286929160009161075b9185169084906107d8565b80519091501561067357808060200190518101906107799190610c05565b6106735760405162461bcd60e51b815260206004820152602a60248201527f5361666545524332303a204552433230206f7065726174696f6e20646964206e6044820152691bdd081cdd58d8d9595960b21b60648201526084016101e2565b60606107e784846000856107f1565b90505b9392505050565b6060824710156108525760405162461bcd60e51b815260206004820152602660248201527f416464726573733a20696e73756666696369656e742062616c616e636520666f6044820152651c8818d85b1b60d21b60648201526084016101e2565b843b6108a05760405162461bcd60e51b815260206004820152601d60248201527f416464726573733a2063616c6c20746f206e6f6e2d636f6e747261637400000060448201526064016101e2565b600080866001600160a01b031685876040516108bc9190610c57565b60006040518083038185875af1925050503d80600081146108f9576040519150601f19603f3d011682016040523d82523d6000602084013e6108fe565b606091505b509150915061090e828286610919565b979650505050505050565b606083156109285750816107ea565b8251156109385782518084602001fd5b8160405162461bcd60e51b81526004016101e29190610c73565b8280548282559060005260206000209081019282156109a7579160200282015b828111156109a757825182546001600160a01b0319166001600160a01b03909116178255602090920191600190910190610972565b506109b39291506109f2565b5090565b8280548282559060005260206000209081019282156109a7579160200282015b828111156109a75782518255916020019190600101906109d7565b5b808211156109b357600081556001016109f3565b600060208284031215610a1957600080fd5b5035919050565b60008083601f840112610a3257600080fd5b50813567ffffffffffffffff811115610a4a57600080fd5b6020830191508360208260051b8501011115610a6557600080fd5b9250929050565b60008060008060408587031215610a8257600080fd5b843567ffffffffffffffff80821115610a9a57600080fd5b610aa688838901610a20565b90965094506020870135915080821115610abf57600080fd5b50610acc87828801610a20565b95989497509550505050565b600060208284031215610aea57600080fd5b81356001600160a01b03811681146107ea57600080fd5b6020808252818101527f4f776e61626c653a2063616c6c6572206973206e6f7420746865206f776e6572604082015260600190565b634e487b7160e01b600052604160045260246000fd5b634e487b7160e01b600052603260045260246000fd5b634e487b7160e01b600052601160045260246000fd5b60008219821115610b8b57610b8b610b62565b500190565b6000600019821415610ba457610ba4610b62565b5060010190565b600060208284031215610bbd57600080fd5b5051919050565b6000816000190483118215151615610bde57610bde610b62565b500290565b600082610c0057634e487b7160e01b600052601260045260246000fd5b500490565b600060208284031215610c1757600080fd5b815180151581146107ea57600080fd5b60005b83811015610c42578181015183820152602001610c2a565b83811115610c51576000848401525b50505050565b60008251610c69818460208701610c27565b9190910192915050565b6020815260008251806020840152610c92816040850160208701610c27565b601f01601f1916919091016040019291505056fea264697066735822122038cf95539e55b5fbb180c4720806f7c54511bc0b8f93d9b855781df5e909be7064736f6c63430008090033",
  "linkReferences": {},
  "deployedLinkReferences": {}
}