{
  "_format": "hh-sol-artifact-1",
  "contractName": "ZombieBOOFI",
  "sourceName": "contracts/ZombieBOOFI.sol",
  "abi": [
    {
      "inputs": [
        {
          "internalType": "contract IERC20",
          "name": "_boofi",
          "type": "address"
        }
      ],
      "stateMutability": "nonpayable",
      "type": "constructor"
    },
    {
      "anonymous": false,
      "inputs": [
        {
          "indexed": true,
          "internalType": "address",
          "name": "owner",
          "type": "address"
        },
        {
          "indexed": true,
          "internalType": "address",
          "name": "spender",
          "type": "address"
        },
        {
          "indexed": false,
          "internalType": "uint256",
          "name": "value",
          "type": "uint256"
        }
      ],
      "name": "Approval",
      "type": "event"
    },
    {
      "anonymous": false,
      "inputs": [
        {
          "indexed": true,
          "internalType": "uint256",
          "name": "dayNumber",
          "type": "uint256"
        },
        {
          "indexed": true,
          "internalType": "uint256",
          "name": "timestamp",
          "type": "uint256"
        },
        {
          "indexed": false,
          "internalType": "uint256",
          "name": "amountBoofiReceived",
          "type": "uint256"
        },
        {
          "indexed": false,
          "internalType": "uint256",
          "name": "amountBoofiDeposited",
          "type": "uint256"
        },
        {
          "indexed": false,
          "internalType": "uint256",
          "name": "amountBoofiWithdrawn",
          "type": "uint256"
        }
      ],
      "name": "DailyUpdate",
      "type": "event"
    },
    {
      "anonymous": false,
      "inputs": [
        {
          "indexed": true,
          "internalType": "address",
          "name": "delegator",
          "type": "address"
        },
        {
          "indexed": true,
          "internalType": "address",
          "name": "fromDelegate",
          "type": "address"
        },
        {
          "indexed": true,
          "internalType": "address",
          "name": "toDelegate",
          "type": "address"
        }
      ],
      "name": "DelegateChanged",
      "type": "event"
    },
    {
      "anonymous": false,
      "inputs": [
        {
          "indexed": true,
          "internalType": "address",
          "name": "delegate",
          "type": "address"
        },
        {
          "indexed": false,
          "internalType": "uint256",
          "name": "previousBalance",
          "type": "uint256"
        },
        {
          "indexed": false,
          "internalType": "uint256",
          "name": "newBalance",
          "type": "uint256"
        }
      ],
      "name": "DelegateVotesChanged",
      "type": "event"
    },
    {
      "anonymous": false,
      "inputs": [
        {
          "indexed": true,
          "internalType": "address",
          "name": "account",
          "type": "address"
        },
        {
          "indexed": false,
          "internalType": "uint256",
          "name": "amount",
          "type": "uint256"
        }
      ],
      "name": "Enter",
      "type": "event"
    },
    {
      "anonymous": false,
      "inputs": [
        {
          "indexed": true,
          "internalType": "address",
          "name": "account",
          "type": "address"
        },
        {
          "indexed": false,
          "internalType": "uint256",
          "name": "amount",
          "type": "uint256"
        },
        {
          "indexed": false,
          "internalType": "uint256",
          "name": "shares",
          "type": "uint256"
        }
      ],
      "name": "Leave",
      "type": "event"
    },
    {
      "anonymous": false,
      "inputs": [
        {
          "indexed": true,
          "internalType": "address",
          "name": "previousOwner",
          "type": "address"
        },
        {
          "indexed": true,
          "internalType": "address",
          "name": "newOwner",
          "type": "address"
        }
      ],
      "name": "OwnershipTransferred",
      "type": "event"
    },
    {
      "anonymous": false,
      "inputs": [
        {
          "indexed": true,
          "internalType": "address",
          "name": "from",
          "type": "address"
        },
        {
          "indexed": true,
          "internalType": "address",
          "name": "to",
          "type": "address"
        },
        {
          "indexed": false,
          "internalType": "uint256",
          "name": "value",
          "type": "uint256"
        }
      ],
      "name": "Transfer",
      "type": "event"
    },
    {
      "anonymous": false,
      "inputs": [],
      "name": "WithdrawalFeeDisabled",
      "type": "event"
    },
    {
      "anonymous": false,
      "inputs": [],
      "name": "WithdrawalFeeEnabled",
      "type": "event"
    },
    {
      "inputs": [],
      "name": "DELEGATION_TYPEHASH",
      "outputs": [
        {
          "internalType": "bytes32",
          "name": "",
          "type": "bytes32"
        }
      ],
      "stateMutability": "view",
      "type": "function"
    },
    {
      "inputs": [],
      "name": "DOMAIN_SEPARATOR",
      "outputs": [
        {
          "internalType": "bytes32",
          "name": "",
          "type": "bytes32"
        }
      ],
      "stateMutability": "view",
      "type": "function"
    },
    {
      "inputs": [],
      "name": "DOMAIN_TYPEHASH",
      "outputs": [
        {
          "internalType": "bytes32",
          "name": "",
          "type": "bytes32"
        }
      ],
      "stateMutability": "view",
      "type": "function"
    },
    {
      "inputs": [],
      "name": "INIT_EXCHANGE_RATE",
      "outputs": [
        {
          "internalType": "uint256",
          "name": "",
          "type": "uint256"
        }
      ],
      "stateMutability": "view",
      "type": "function"
    },
    {
      "inputs": [],
      "name": "MAX_BIPS",
      "outputs": [
        {
          "internalType": "uint256",
          "name": "",
          "type": "uint256"
        }
      ],
      "stateMutability": "view",
      "type": "function"
    },
    {
      "inputs": [],
      "name": "MAX_WITHDRAWAL_FEE",
      "outputs": [
        {
          "internalType": "uint256",
          "name": "",
          "type": "uint256"
        }
      ],
      "stateMutability": "view",
      "type": "function"
    },
    {
      "inputs": [],
      "name": "PERMIT_TYPEHASH",
      "outputs": [
        {
          "internalType": "bytes32",
          "name": "",
          "type": "bytes32"
        }
      ],
      "stateMutability": "view",
      "type": "function"
    },
    {
      "inputs": [],
      "name": "SECONDS_PER_DAY",
      "outputs": [
        {
          "internalType": "uint256",
          "name": "",
          "type": "uint256"
        }
      ],
      "stateMutability": "view",
      "type": "function"
    },
    {
      "inputs": [
        {
          "internalType": "address",
          "name": "owner",
          "type": "address"
        },
        {
          "internalType": "address",
          "name": "spender",
          "type": "address"
        }
      ],
      "name": "allowance",
      "outputs": [
        {
          "internalType": "uint256",
          "name": "",
          "type": "uint256"
        }
      ],
      "stateMutability": "view",
      "type": "function"
    },
    {
      "inputs": [
        {
          "internalType": "address",
          "name": "spender",
          "type": "address"
        },
        {
          "internalType": "uint256",
          "name": "amount",
          "type": "uint256"
        }
      ],
      "name": "approve",
      "outputs": [
        {
          "internalType": "bool",
          "name": "",
          "type": "bool"
        }
      ],
      "stateMutability": "nonpayable",
      "type": "function"
    },
    {
      "inputs": [
        {
          "internalType": "address",
          "name": "account",
          "type": "address"
        }
      ],
      "name": "balanceOf",
      "outputs": [
        {
          "internalType": "uint256",
          "name": "",
          "type": "uint256"
        }
      ],
      "stateMutability": "view",
      "type": "function"
    },
    {
      "inputs": [],
      "name": "boofi",
      "outputs": [
        {
          "internalType": "contract IERC20",
          "name": "",
          "type": "address"
        }
      ],
      "stateMutability": "view",
      "type": "function"
    },
    {
      "inputs": [],
      "name": "boofiBalance",
      "outputs": [
        {
          "internalType": "uint256",
          "name": "",
          "type": "uint256"
        }
      ],
      "stateMutability": "view",
      "type": "function"
    },
    {
      "inputs": [
        {
          "internalType": "address",
          "name": "",
          "type": "address"
        },
        {
          "internalType": "uint32",
          "name": "",
          "type": "uint32"
        }
      ],
      "name": "checkpoints",
      "outputs": [
        {
          "internalType": "uint32",
          "name": "fromBlock",
          "type": "uint32"
        },
        {
          "internalType": "uint256",
          "name": "votes",
          "type": "uint256"
        }
      ],
      "stateMutability": "view",
      "type": "function"
    },
    {
      "inputs": [],
      "name": "currentExchangeRate",
      "outputs": [
        {
          "internalType": "uint256",
          "name": "",
          "type": "uint256"
        }
      ],
      "stateMutability": "view",
      "type": "function"
    },
    {
      "inputs": [],
      "name": "decimals",
      "outputs": [
        {
          "internalType": "uint8",
          "name": "",
          "type": "uint8"
        }
      ],
      "stateMutability": "view",
      "type": "function"
    },
    {
      "inputs": [
        {
          "internalType": "address",
          "name": "spender",
          "type": "address"
        },
        {
          "internalType": "uint256",
          "name": "subtractedValue",
          "type": "uint256"
        }
      ],
      "name": "decreaseAllowance",
      "outputs": [
        {
          "internalType": "bool",
          "name": "",
          "type": "bool"
        }
      ],
      "stateMutability": "nonpayable",
      "type": "function"
    },
    {
      "inputs": [
        {
          "internalType": "address",
          "name": "delegatee",
          "type": "address"
        }
      ],
      "name": "delegate",
      "outputs": [],
      "stateMutability": "nonpayable",
      "type": "function"
    },
    {
      "inputs": [
        {
          "internalType": "address",
          "name": "delegatee",
          "type": "address"
        },
        {
          "internalType": "uint256",
          "name": "nonce",
          "type": "uint256"
        },
        {
          "internalType": "uint256",
          "name": "expiry",
          "type": "uint256"
        },
        {
          "internalType": "uint8",
          "name": "v",
          "type": "uint8"
        },
        {
          "internalType": "bytes32",
          "name": "r",
          "type": "bytes32"
        },
        {
          "internalType": "bytes32",
          "name": "s",
          "type": "bytes32"
        }
      ],
      "name": "delegateBySig",
      "outputs": [],
      "stateMutability": "nonpayable",
      "type": "function"
    },
    {
      "inputs": [
        {
          "internalType": "address",
          "name": "delegator",
          "type": "address"
        }
      ],
      "name": "delegates",
      "outputs": [
        {
          "internalType": "address",
          "name": "",
          "type": "address"
        }
      ],
      "stateMutability": "view",
      "type": "function"
    },
    {
      "inputs": [
        {
          "internalType": "address",
          "name": "",
          "type": "address"
        }
      ],
      "name": "deposits",
      "outputs": [
        {
          "internalType": "uint256",
          "name": "",
          "type": "uint256"
        }
      ],
      "stateMutability": "view",
      "type": "function"
    },
    {
      "inputs": [],
      "name": "depositsToday",
      "outputs": [
        {
          "internalType": "uint256",
          "name": "",
          "type": "uint256"
        }
      ],
      "stateMutability": "view",
      "type": "function"
    },
    {
      "inputs": [],
      "name": "disableWithdrawalFee",
      "outputs": [],
      "stateMutability": "nonpayable",
      "type": "function"
    },
    {
      "inputs": [],
      "name": "enableWithdrawalFee",
      "outputs": [],
      "stateMutability": "nonpayable",
      "type": "function"
    },
    {
      "inputs": [
        {
          "internalType": "uint256",
          "name": "_amount",
          "type": "uint256"
        }
      ],
      "name": "enter",
      "outputs": [],
      "stateMutability": "nonpayable",
      "type": "function"
    },
    {
      "inputs": [
        {
          "internalType": "address",
          "name": "_to",
          "type": "address"
        },
        {
          "internalType": "uint256",
          "name": "_amount",
          "type": "uint256"
        }
      ],
      "name": "enterFor",
      "outputs": [],
      "stateMutability": "nonpayable",
      "type": "function"
    },
    {
      "inputs": [
        {
          "internalType": "uint256",
          "name": "amountZBoofi",
          "type": "uint256"
        }
      ],
      "name": "expectedBOOFI",
      "outputs": [
        {
          "internalType": "uint256",
          "name": "",
          "type": "uint256"
        }
      ],
      "stateMutability": "view",
      "type": "function"
    },
    {
      "inputs": [
        {
          "internalType": "uint256",
          "name": "amountBoofi",
          "type": "uint256"
        }
      ],
      "name": "expectedZBOOFI",
      "outputs": [
        {
          "internalType": "uint256",
          "name": "",
          "type": "uint256"
        }
      ],
      "stateMutability": "view",
      "type": "function"
    },
    {
      "inputs": [],
      "name": "fundsRedistributedByWithdrawalFee",
      "outputs": [
        {
          "internalType": "uint256",
          "name": "",
          "type": "uint256"
        }
      ],
      "stateMutability": "view",
      "type": "function"
    },
    {
      "inputs": [
        {
          "internalType": "address",
          "name": "account",
          "type": "address"
        }
      ],
      "name": "getCurrentVotes",
      "outputs": [
        {
          "internalType": "uint256",
          "name": "",
          "type": "uint256"
        }
      ],
      "stateMutability": "view",
      "type": "function"
    },
    {
      "inputs": [
        {
          "internalType": "address",
          "name": "delegatee",
          "type": "address"
        },
        {
          "internalType": "uint256",
          "name": "nonce",
          "type": "uint256"
        },
        {
          "internalType": "uint256",
          "name": "expiry",
          "type": "uint256"
        }
      ],
      "name": "getDelegationDigest",
      "outputs": [
        {
          "internalType": "bytes32",
          "name": "",
          "type": "bytes32"
        }
      ],
      "stateMutability": "view",
      "type": "function"
    },
    {
      "inputs": [
        {
          "internalType": "uint256",
          "name": "amountDays",
          "type": "uint256"
        }
      ],
      "name": "getDepositAmountHistory",
      "outputs": [
        {
          "internalType": "uint256[]",
          "name": "",
          "type": "uint256[]"
        },
        {
          "internalType": "uint256[]",
          "name": "",
          "type": "uint256[]"
        }
      ],
      "stateMutability": "view",
      "type": "function"
    },
    {
      "inputs": [
        {
          "internalType": "uint256",
          "name": "amountDays",
          "type": "uint256"
        }
      ],
      "name": "getExchangeRateHistory",
      "outputs": [
        {
          "internalType": "uint256[]",
          "name": "",
          "type": "uint256[]"
        },
        {
          "internalType": "uint256[]",
          "name": "",
          "type": "uint256[]"
        }
      ],
      "stateMutability": "view",
      "type": "function"
    },
    {
      "inputs": [],
      "name": "getLatestStoredDepositAmount",
      "outputs": [
        {
          "internalType": "uint256",
          "name": "",
          "type": "uint256"
        },
        {
          "internalType": "uint256",
          "name": "",
          "type": "uint256"
        }
      ],
      "stateMutability": "view",
      "type": "function"
    },
    {
      "inputs": [],
      "name": "getLatestStoredExchangeRate",
      "outputs": [
        {
          "internalType": "uint256",
          "name": "",
          "type": "uint256"
        },
        {
          "internalType": "uint256",
          "name": "",
          "type": "uint256"
        }
      ],
      "stateMutability": "view",
      "type": "function"
    },
    {
      "inputs": [],
      "name": "getLatestStoredWithdrawalAmount",
      "outputs": [
        {
          "internalType": "uint256",
          "name": "",
          "type": "uint256"
        },
        {
          "internalType": "uint256",
          "name": "",
          "type": "uint256"
        }
      ],
      "stateMutability": "view",
      "type": "function"
    },
    {
      "inputs": [
        {
          "internalType": "address",
          "name": "owner",
          "type": "address"
        },
        {
          "internalType": "address",
          "name": "spender",
          "type": "address"
        },
        {
          "internalType": "uint256",
          "name": "nonce",
          "type": "uint256"
        },
        {
          "internalType": "uint256",
          "name": "value",
          "type": "uint256"
        },
        {
          "internalType": "uint256",
          "name": "deadline",
          "type": "uint256"
        }
      ],
      "name": "getPermitDigest",
      "outputs": [
        {
          "internalType": "bytes32",
          "name": "",
          "type": "bytes32"
        }
      ],
      "stateMutability": "view",
      "type": "function"
    },
    {
      "inputs": [
        {
          "internalType": "address",
          "name": "account",
          "type": "address"
        },
        {
          "internalType": "uint256",
          "name": "blockNumber",
          "type": "uint256"
        }
      ],
      "name": "getPriorVotes",
      "outputs": [
        {
          "internalType": "uint256",
          "name": "",
          "type": "uint256"
        }
      ],
      "stateMutability": "view",
      "type": "function"
    },
    {
      "inputs": [
        {
          "internalType": "uint256",
          "name": "amountDays",
          "type": "uint256"
        }
      ],
      "name": "getWithdrawalAmountHistory",
      "outputs": [
        {
          "internalType": "uint256[]",
          "name": "",
          "type": "uint256[]"
        },
        {
          "internalType": "uint256[]",
          "name": "",
          "type": "uint256[]"
        }
      ],
      "stateMutability": "view",
      "type": "function"
    },
    {
      "inputs": [
        {
          "internalType": "uint256",
          "name": "",
          "type": "uint256"
        }
      ],
      "name": "historicDepositAmounts",
      "outputs": [
        {
          "internalType": "uint256",
          "name": "",
          "type": "uint256"
        }
      ],
      "stateMutability": "view",
      "type": "function"
    },
    {
      "inputs": [
        {
          "internalType": "uint256",
          "name": "",
          "type": "uint256"
        }
      ],
      "name": "historicExchangeRates",
      "outputs": [
        {
          "internalType": "uint256",
          "name": "",
          "type": "uint256"
        }
      ],
      "stateMutability": "view",
      "type": "function"
    },
    {
      "inputs": [
        {
          "internalType": "uint256",
          "name": "",
          "type": "uint256"
        }
      ],
      "name": "historicTimestamps",
      "outputs": [
        {
          "internalType": "uint256",
          "name": "",
          "type": "uint256"
        }
      ],
      "stateMutability": "view",
      "type": "function"
    },
    {
      "inputs": [
        {
          "internalType": "uint256",
          "name": "",
          "type": "uint256"
        }
      ],
      "name": "historicWithdrawalAmounts",
      "outputs": [
        {
          "internalType": "uint256",
          "name": "",
          "type": "uint256"
        }
      ],
      "stateMutability": "view",
      "type": "function"
    },
    {
      "inputs": [
        {
          "internalType": "address",
          "name": "spender",
          "type": "address"
        },
        {
          "internalType": "uint256",
          "name": "addedValue",
          "type": "uint256"
        }
      ],
      "name": "increaseAllowance",
      "outputs": [
        {
          "internalType": "bool",
          "name": "",
          "type": "bool"
        }
      ],
      "stateMutability": "nonpayable",
      "type": "function"
    },
    {
      "inputs": [
        {
          "internalType": "uint256",
          "name": "_share",
          "type": "uint256"
        }
      ],
      "name": "leave",
      "outputs": [],
      "stateMutability": "nonpayable",
      "type": "function"
    },
    {
      "inputs": [
        {
          "internalType": "address",
          "name": "_to",
          "type": "address"
        },
        {
          "internalType": "uint256",
          "name": "_share",
          "type": "uint256"
        }
      ],
      "name": "leaveTo",
      "outputs": [],
      "stateMutability": "nonpayable",
      "type": "function"
    },
    {
      "inputs": [],
      "name": "name",
      "outputs": [
        {
          "internalType": "string",
          "name": "",
          "type": "string"
        }
      ],
      "stateMutability": "view",
      "type": "function"
    },
    {
      "inputs": [
        {
          "internalType": "address",
          "name": "",
          "type": "address"
        }
      ],
      "name": "nonces",
      "outputs": [
        {
          "internalType": "uint256",
          "name": "",
          "type": "uint256"
        }
      ],
      "stateMutability": "view",
      "type": "function"
    },
    {
      "inputs": [
        {
          "internalType": "address",
          "name": "",
          "type": "address"
        }
      ],
      "name": "numCheckpoints",
      "outputs": [
        {
          "internalType": "uint32",
          "name": "",
          "type": "uint32"
        }
      ],
      "stateMutability": "view",
      "type": "function"
    },
    {
      "inputs": [],
      "name": "numStoredDailyData",
      "outputs": [
        {
          "internalType": "uint256",
          "name": "",
          "type": "uint256"
        }
      ],
      "stateMutability": "view",
      "type": "function"
    },
    {
      "inputs": [],
      "name": "owner",
      "outputs": [
        {
          "internalType": "address",
          "name": "",
          "type": "address"
        }
      ],
      "stateMutability": "view",
      "type": "function"
    },
    {
      "inputs": [
        {
          "internalType": "address",
          "name": "owner",
          "type": "address"
        },
        {
          "internalType": "address",
          "name": "spender",
          "type": "address"
        },
        {
          "internalType": "uint256",
          "name": "value",
          "type": "uint256"
        },
        {
          "internalType": "uint256",
          "name": "deadline",
          "type": "uint256"
        },
        {
          "internalType": "uint8",
          "name": "v",
          "type": "uint8"
        },
        {
          "internalType": "bytes32",
          "name": "r",
          "type": "bytes32"
        },
        {
          "internalType": "bytes32",
          "name": "s",
          "type": "bytes32"
        }
      ],
      "name": "permit",
      "outputs": [],
      "stateMutability": "nonpayable",
      "type": "function"
    },
    {
      "inputs": [
        {
          "internalType": "address",
          "name": "",
          "type": "address"
        }
      ],
      "name": "permitNonces",
      "outputs": [
        {
          "internalType": "uint256",
          "name": "",
          "type": "uint256"
        }
      ],
      "stateMutability": "view",
      "type": "function"
    },
    {
      "inputs": [],
      "name": "renounceOwnership",
      "outputs": [],
      "stateMutability": "nonpayable",
      "type": "function"
    },
    {
      "inputs": [],
      "name": "rewardsToday",
      "outputs": [
        {
          "internalType": "uint256",
          "name": "",
          "type": "uint256"
        }
      ],
      "stateMutability": "view",
      "type": "function"
    },
    {
      "inputs": [],
      "name": "rollingStartBoofiBalance",
      "outputs": [
        {
          "internalType": "uint256",
          "name": "",
          "type": "uint256"
        }
      ],
      "stateMutability": "view",
      "type": "function"
    },
    {
      "inputs": [],
      "name": "rollingStartTimestamp",
      "outputs": [
        {
          "internalType": "uint256",
          "name": "",
          "type": "uint256"
        }
      ],
      "stateMutability": "view",
      "type": "function"
    },
    {
      "inputs": [],
      "name": "rollingStartTotalDeposits",
      "outputs": [
        {
          "internalType": "uint256",
          "name": "",
          "type": "uint256"
        }
      ],
      "stateMutability": "view",
      "type": "function"
    },
    {
      "inputs": [],
      "name": "rollingStartTotalWithdrawals",
      "outputs": [
        {
          "internalType": "uint256",
          "name": "",
          "type": "uint256"
        }
      ],
      "stateMutability": "view",
      "type": "function"
    },
    {
      "inputs": [
        {
          "internalType": "address",
          "name": "_withdrawalFeeCalculator",
          "type": "address"
        }
      ],
      "name": "setWithdrawalFeeCalculator",
      "outputs": [],
      "stateMutability": "nonpayable",
      "type": "function"
    },
    {
      "inputs": [],
      "name": "symbol",
      "outputs": [
        {
          "internalType": "string",
          "name": "",
          "type": "string"
        }
      ],
      "stateMutability": "view",
      "type": "function"
    },
    {
      "inputs": [],
      "name": "timeSinceLastDailyUpdate",
      "outputs": [
        {
          "internalType": "uint256",
          "name": "",
          "type": "uint256"
        }
      ],
      "stateMutability": "view",
      "type": "function"
    },
    {
      "inputs": [],
      "name": "totalDeposits",
      "outputs": [
        {
          "internalType": "uint256",
          "name": "",
          "type": "uint256"
        }
      ],
      "stateMutability": "view",
      "type": "function"
    },
    {
      "inputs": [],
      "name": "totalSupply",
      "outputs": [
        {
          "internalType": "uint256",
          "name": "",
          "type": "uint256"
        }
      ],
      "stateMutability": "view",
      "type": "function"
    },
    {
      "inputs": [],
      "name": "totalWithdrawals",
      "outputs": [
        {
          "internalType": "uint256",
          "name": "",
          "type": "uint256"
        }
      ],
      "stateMutability": "view",
      "type": "function"
    },
    {
      "inputs": [
        {
          "internalType": "address",
          "name": "recipient",
          "type": "address"
        },
        {
          "internalType": "uint256",
          "name": "amount",
          "type": "uint256"
        }
      ],
      "name": "transfer",
      "outputs": [
        {
          "internalType": "bool",
          "name": "",
          "type": "bool"
        }
      ],
      "stateMutability": "nonpayable",
      "type": "function"
    },
    {
      "inputs": [
        {
          "internalType": "address",
          "name": "sender",
          "type": "address"
        },
        {
          "internalType": "address",
          "name": "recipient",
          "type": "address"
        },
        {
          "internalType": "uint256",
          "name": "amount",
          "type": "uint256"
        }
      ],
      "name": "transferFrom",
      "outputs": [
        {
          "internalType": "bool",
          "name": "",
          "type": "bool"
        }
      ],
      "stateMutability": "nonpayable",
      "type": "function"
    },
    {
      "inputs": [
        {
          "internalType": "address",
          "name": "newOwner",
          "type": "address"
        }
      ],
      "name": "transferOwnership",
      "outputs": [],
      "stateMutability": "nonpayable",
      "type": "function"
    },
    {
      "inputs": [
        {
          "internalType": "address",
          "name": "",
          "type": "address"
        }
      ],
      "name": "transfersIn",
      "outputs": [
        {
          "internalType": "uint256",
          "name": "",
          "type": "uint256"
        }
      ],
      "stateMutability": "view",
      "type": "function"
    },
    {
      "inputs": [
        {
          "internalType": "address",
          "name": "",
          "type": "address"
        }
      ],
      "name": "transfersOut",
      "outputs": [
        {
          "internalType": "uint256",
          "name": "",
          "type": "uint256"
        }
      ],
      "stateMutability": "view",
      "type": "function"
    },
    {
      "inputs": [
        {
          "internalType": "address",
          "name": "account",
          "type": "address"
        }
      ],
      "name": "userProfits",
      "outputs": [
        {
          "internalType": "int256",
          "name": "",
          "type": "int256"
        }
      ],
      "stateMutability": "view",
      "type": "function"
    },
    {
      "inputs": [
        {
          "internalType": "address",
          "name": "account",
          "type": "address"
        }
      ],
      "name": "userProfitsIncludingTransfers",
      "outputs": [
        {
          "internalType": "int256",
          "name": "",
          "type": "int256"
        }
      ],
      "stateMutability": "view",
      "type": "function"
    },
    {
      "inputs": [],
      "name": "withdrawalFee",
      "outputs": [
        {
          "internalType": "uint256",
          "name": "",
          "type": "uint256"
        }
      ],
      "stateMutability": "view",
      "type": "function"
    },
    {
      "inputs": [],
      "name": "withdrawalFeeCalculator",
      "outputs": [
        {
          "internalType": "address",
          "name": "",
          "type": "address"
        }
      ],
      "stateMutability": "view",
      "type": "function"
    },
    {
      "inputs": [
        {
          "internalType": "address",
          "name": "",
          "type": "address"
        }
      ],
      "name": "withdrawals",
      "outputs": [
        {
          "internalType": "uint256",
          "name": "",
          "type": "uint256"
        }
      ],
      "stateMutability": "view",
      "type": "function"
    },
    {
      "inputs": [],
      "name": "withdrawalsToday",
      "outputs": [
        {
          "internalType": "uint256",
          "name": "",
          "type": "uint256"
        }
      ],
      "stateMutability": "view",
      "type": "function"
    }
  ],
  "bytecode": "0x60c06040523480156200001157600080fd5b5060405162003ecf38038062003ecf833981016040819052620000349162000405565b6040518060400160405280600b81526020016a5a6f6d626965424f4f464960a81b815250604051806040016040528060068152602001657a424f4f464960d01b815250818181818160039080519060200190620000939291906200035f565b508051620000a99060049060208401906200035f565b50620000b791505062000202565b60805250620000d29250620000cc9150503390565b62000273565b6001600160a01b03811660a0526001600f5560106200010a68056bc75e2d631000006ec097ce7bc90715b34b9f100000000062000437565b8154600180820184556000938452602080852090920192909255601180548084019091557f31ecc21a745e3968a04e9570e4425bc18fa8019c68028196b546d1669c200c6801839055601280548084019091557fbb8a6a4669ba250d26cd7a459eca9d215f8307e33aebe50379bc5a3617ec344401839055601380548084018255908452427f66de8ffda797e3de9c05e8fc57b3bf0ec28a930d40b0d285d93c06501cf6a0909091018190556014819055604080518581529283018590528201939093527f4a692749c13dc6fe0e24a9e6cecfb16c9d11c50f1ad0025de018af5d9ba749039060600160405180910390a35062000497565b60007f8cad95687ba82c2ce50e74f7b754645e5117c3a5bec8151c0726d5857980a8666200022f620002c5565b805160209091012046604080516020810194909452830191909152606082015230608082015260a00160405160208183030381529060405280519060200120905090565b600a80546001600160a01b038381166001600160a01b0319831681179093556040519116919082907f8be0079c531659141344cd1fd0a4f28419497f9722a3daafe3b4186f6b6457e090600090a35050565b606060038054620002d6906200045a565b80601f016020809104026020016040519081016040528092919081815260200182805462000304906200045a565b8015620003555780601f10620003295761010080835404028352916020019162000355565b820191906000526020600020905b8154815290600101906020018083116200033757829003601f168201915b5050505050905090565b8280546200036d906200045a565b90600052602060002090601f016020900481019282620003915760008555620003dc565b82601f10620003ac57805160ff1916838001178555620003dc565b82800160010185558215620003dc579182015b82811115620003dc578251825591602001919060010190620003bf565b50620003ea929150620003ee565b5090565b5b80821115620003ea5760008155600101620003ef565b6000602082840312156200041857600080fd5b81516001600160a01b03811681146200043057600080fd5b9392505050565b6000826200045557634e487b7160e01b600052601260045260246000fd5b500490565b600181811c908216806200046f57607f821691505b602082108114156200049157634e487b7160e01b600052602260045260246000fd5b50919050565b60805160a0516139e1620004ee6000396000818161057301528181612074015281816123c201526125d701526000818161062e01528181610df001528181611a0201528181611b62015261265401526139e16000f3fe608060405234801561001057600080fd5b50600436106104545760003560e01c80637ca0eda111610241578063b4b5ea571161013b578063e5efeccd116100c3578063f1127ed811610087578063f1127ed814610a1d578063f2fde38b14610a74578063f37d4b5614610a87578063fc7e286d14610a8f578063fd57956c14610aaf57600080fd5b8063e5efeccd146109c9578063e7a324dc146109d2578063e9510a72146109f9578063eb6ed33014610a01578063efaca1fc14610a0a57600080fd5b8063c80158671161010a578063c80158671461095a578063c80ff0d014610962578063d505accf1461096a578063dd62ed3e1461097d578063e08518d2146109b657600080fd5b8063b4b5ea5714610918578063be3548361461092b578063c3cda5201461093e578063c69a965b1461095157600080fd5b8063a3341119116101c9578063a8ce0d9b1161018d578063a8ce0d9b146108d8578063a9059cbb146108e0578063ac9ebbd0146108f3578063aee3f97814610906578063b3249e9e1461090f57600080fd5b8063a334111914610884578063a368497714610897578063a457c2d71461089f578063a47f07c0146108b2578063a59f3e0c146108c557600080fd5b80638da5cb5b116102105780638da5cb5b1461082557806395d89b41146108365780639835fffe1461083e5780639e921b5314610851578063a19188811461086457600080fd5b80637ca0eda1146107ec5780637d882097146107f45780637ecebe00146107fd5780638bc7e8c41461081d57600080fd5b80633644e5151161035257806360464627116102da578063715018a61161029e578063715018a614610797578063744a8a111461079f57806374f0314f146107af578063782d6fe1146107b95780637a9262a2146107cc57600080fd5b806360464627146107045780636750f7361461070d57806367dfd4c9146107205780636fcfff451461073357806370a082311461076e57600080fd5b80635776e5c8116103215780635776e5c814610689578063587cde1e146106925780635c19a95c146106be5780635d941563146106d15780635f6c81d7146106f157600080fd5b80633644e51514610629578063395093511461065057806344b90d661461066357806347d79c601461067657600080fd5b806320606b70116103e05780632cb321e8116103a45780632cb321e8146105c05780632d7794a7146105ca57806330adf81f146105eb578063313ce5671461061257806334edf3531461062157600080fd5b806320606b701461052157806322866a8b1461054857806323b872dd1461055b57806327614f261461056e5780632c19e8b5146105ad57600080fd5b806312e267be1161042757806312e267be146104c057806314266ee6146104dd57806318160ddd146104e6578063191d0ffc146104ee5780631b91ca831461050e57600080fd5b8063026a6c5e1461045957806306fdde0314610475578063095ea7b31461048a5780630ffc864e146104ad575b600080fd5b61046260145481565b6040519081526020015b60405180910390f35b61047d610ab7565b60405161046c91906133f3565b61049d61049836600461343d565b610b49565b604051901515815260200161046c565b6104626104bb366004613467565b610b60565b6104c8610c2e565b6040805192835260208301919091520161046c565b61046260155481565b600254610462565b6104626104fc366004613467565b60096020526000908152604090205481565b61046261051c366004613482565b610c91565b6104627f8cad95687ba82c2ce50e74f7b754645e5117c3a5bec8151c0726d5857980a86681565b610462610556366004613482565b610cb2565b61049d61056936600461349b565b610cc2565b6105957f000000000000000000000000000000000000000000000000000000000000000081565b6040516001600160a01b03909116815260200161046c565b6104626105bb3660046134d7565b610d73565b6105c8610e45565b005b6105dd6105d8366004613482565b610f07565b60405161046c92919061355f565b6104627f6e71edae12b1b97f4d1f60370fef10105fa2faae0126114a169c64845d6126c981565b6040516012815260200161046c565b6104626110a2565b6104627f000000000000000000000000000000000000000000000000000000000000000081565b61049d61065e36600461343d565b6110f1565b610462610671366004613482565b61112d565b6105dd610684366004613482565b61117d565b61046260165481565b6105956106a0366004613467565b6001600160a01b039081166000908152600560205260409020541690565b6105c86106cc366004613467565b61130a565b6104626106df366004613467565b601a6020526000908152604090205481565b600e54610595906001600160a01b031681565b610462600c5481565b61046261071b366004613482565b611317565b6105c861072e366004613482565b611327565b610759610741366004613467565b60076020526000908152604090205463ffffffff1681565b60405163ffffffff909116815260200161046c565b61046261077c366004613467565b6001600160a01b031660009081526020819052604090205490565b6105c8611331565b61046268056bc75e2d6310000081565b6104626201518081565b6104626107c736600461343d565b611367565b6104626107da366004613467565b60196020526000908152604090205481565b6104626115d7565b610462600b5481565b61046261080b366004613467565b60086020526000908152604090205481565b6104626115ea565b600a546001600160a01b0316610595565b61047d61169a565b61046261084c366004613482565b6116a9565b6105dd61085f366004613482565b6116c5565b610462610872366004613467565b601b6020526000908152604090205481565b610462610892366004613482565b611852565b610462611862565b61049d6108ad36600461343d565b6118c2565b6105c86108c036600461343d565b61195b565b6105c86108d3366004613482565b611969565b610462611973565b61049d6108ee36600461343d565b611988565b61046261090136600461358d565b611995565b610462600d5481565b61046261271081565b610462610926366004613467565b611a55565b610462610939366004613467565b611ac9565b6105c861094c3660046135d1565b611af7565b610462600f5481565b6104c8611d87565b6105c8611d9b565b6105c8610978366004613629565b611e56565b61046261098b366004613693565b6001600160a01b03918216600090815260016020908152604080832093909416825291909152205490565b6105c86109c4366004613467565b611f5b565b61046260175481565b6104627fe48329057bfd03d55e49b547132e39cffd9c1820ad7b9d4c5307691425d15adf81565b610462611fa7565b6104626109c481565b6105c8610a1836600461343d565b611fba565b610a58610a2b3660046136c6565b60066020908152600092835260408084209091529082529020805460019091015463ffffffff9091169082565b6040805163ffffffff909316835260208301919091520161046c565b6105c8610a82366004613467565b611fc4565b61046261205c565b610462610a9d366004613467565b60186020526000908152604090205481565b6104c86120f6565b606060038054610ac690613706565b80601f0160208091040260200160405190810160405280929190818152602001828054610af290613706565b8015610b3f5780601f10610b1457610100808354040283529160200191610b3f565b820191906000526020600020905b815481529060010190602001808311610b2257829003601f168201915b5050505050905090565b6000610b5633848461210a565b5060015b92915050565b6001600160a01b0381166000908152601a602090815260408083205460189092528220548291610b8f91613757565b6001600160a01b0384166000908152601b602090815260408083205460199092528220549293509091610bc29190613757565b90506000610bcf60025490565b9050600081610bdc61205c565b6001600160a01b038816600090815260208190526040902054610bff919061376f565b610c0991906137a4565b90506000610c178285613757565b9050610c2385826137b8565b979650505050505050565b60008060126001600f54610c4291906137f7565b81548110610c5257610c5261380e565b906000526020600020015460136001600f54610c6e91906137f7565b81548110610c7e57610c7e61380e565b9060005260206000200154915091509091565b60138181548110610ca157600080fd5b600091825260209091200154905081565b60118181548110610ca157600080fd5b6000610ccf84848461222e565b6001600160a01b038416600090815260016020908152604080832033845290915290205482811015610d595760405162461bcd60e51b815260206004820152602860248201527f45524332303a207472616e7366657220616d6f756e74206578636565647320616044820152676c6c6f77616e636560c01b60648201526084015b60405180910390fd5b610d66853385840361210a565b60019150505b9392505050565b604080517f6e71edae12b1b97f4d1f60370fef10105fa2faae0126114a169c64845d6126c960208201526001600160a01b038088169282019290925290851660608201526080810183905260a0810184905260c08101829052600090819060e00160405160208183030381529060405280519060200120905060007f000000000000000000000000000000000000000000000000000000000000000082604051602001610e21929190613824565b60408051808303601f19018152919052805160209091012098975050505050505050565b600a546001600160a01b03163314610e6f5760405162461bcd60e51b8152600401610d509061383f565b600e54600160a01b900460ff1615610ec95760405162461bcd60e51b815260206004820152601e60248201527f7769746864726177616c2066656520616c726561647920656e61626c656400006044820152606401610d50565b600e805460ff60a01b1916600160a01b1790556040517f282c2f8f74df8559d33eb38d49cfbede2a9497049c68bee7b0b4c554f6feb4a190600090a1565b60608060006001600f54610f1b91906137f7565b90506000818511610f4057610f3085836137f7565b610f3b906001613757565b610f43565b60005b90506000610f5182846137f7565b610f5c906001613757565b905060008167ffffffffffffffff811115610f7957610f79613874565b604051908082528060200260200182016040528015610fa2578160200160208202803683370190505b50905060008267ffffffffffffffff811115610fc057610fc0613874565b604051908082528060200260200182016040528015610fe9578160200160208202803683370190505b509050835b85811161109457601081815481106110085761100861380e565b906000526020600020015483868361102091906137f7565b815181106110305761103061380e565b6020026020010181815250506013818154811061104f5761104f61380e565b906000526020600020015482868361106791906137f7565b815181106110775761107761380e565b60209081029190910101528061108c8161388a565b915050610fee565b509097909650945050505050565b6000806110ad61205c565b905060006110b96115d7565b905060006110c5611fa7565b9050601554826110d59190613757565b6110df8285613757565b6110e991906137f7565b935050505090565b3360008181526001602090815260408083206001600160a01b03871684529091528120549091610b56918590611128908690613757565b61210a565b6000611143612710670de0b6b3a764000061376f565b61114b6115ea565b611157906127106137f7565b61115f611862565b611169908561376f565b611173919061376f565b610b5a91906137a4565b60608060006001600f5461119191906137f7565b905060008185116111b6576111a685836137f7565b6111b1906001613757565b6111b9565b60005b905060006111c782846137f7565b6111d2906001613757565b905060008167ffffffffffffffff8111156111ef576111ef613874565b604051908082528060200260200182016040528015611218578160200160208202803683370190505b50905060008267ffffffffffffffff81111561123657611236613874565b60405190808252806020026020018201604052801561125f578160200160208202803683370190505b509050835b858111611094576012818154811061127e5761127e61380e565b906000526020600020015483868361129691906137f7565b815181106112a6576112a661380e565b602002602001018181525050601381815481106112c5576112c561380e565b90600052602060002001548286836112dd91906137f7565b815181106112ed576112ed61380e565b6020908102919091010152806113028161388a565b915050611264565b61131433826122c9565b50565b60108181548110610ca157600080fd5b6113143382612348565b600a546001600160a01b0316331461135b5760405162461bcd60e51b8152600401610d509061383f565b611365600061249e565b565b60004382106113d35760405162461bcd60e51b815260206004820152603260248201527f455243323057697468566f74696e673a3a6765745072696f72566f7465733a206044820152711b9bdd081e595d0819195d195c9b5a5b995960721b6064820152608401610d50565b6001600160a01b03831660009081526007602052604090205463ffffffff1680611401576000915050610b5a565b6001600160a01b038416600090815260066020526040812084916114266001856138a5565b63ffffffff9081168252602082019290925260400160002054161161148f576001600160a01b0384166000908152600660205260408120906114696001846138a5565b63ffffffff1663ffffffff16815260200190815260200160002060010154915050610b5a565b6001600160a01b038416600090815260066020908152604080832083805290915290205463ffffffff168310156114ca576000915050610b5a565b6000806114d86001846138a5565b90505b8163ffffffff168163ffffffff1611156115a057600060026114fd84846138a5565b61150791906138ca565b61151190836138a5565b6001600160a01b038816600090815260066020908152604080832063ffffffff808616855290835292819020815180830190925280549093168082526001909301549181019190915291925087141561157457602001519450610b5a9350505050565b805163ffffffff1687111561158b57819350611599565b6115966001836138a5565b92505b50506114db565b506001600160a01b038516600090815260066020908152604080832063ffffffff9094168352929052206001015491505092915050565b600080601654600b54610b5a91906137f7565b600e54600090600160a01b900460ff166116045750600090565b600e54604080516322f1fa3160e21b815290516000926001600160a01b031691638bc7e8c4916004808301926020929190829003018186803b15801561164957600080fd5b505afa15801561165d573d6000803e3d6000fd5b505050506040513d601f19601f8201168201806040525081019061168191906138ed565b90506109c48110611695576109c491505090565b919050565b606060048054610ac690613706565b60006116b3611862565b61117383670de0b6b3a764000061376f565b60608060006001600f546116d991906137f7565b905060008185116116fe576116ee85836137f7565b6116f9906001613757565b611701565b60005b9050600061170f82846137f7565b61171a906001613757565b905060008167ffffffffffffffff81111561173757611737613874565b604051908082528060200260200182016040528015611760578160200160208202803683370190505b50905060008267ffffffffffffffff81111561177e5761177e613874565b6040519080825280602002602001820160405280156117a7578160200160208202803683370190505b509050835b85811161109457601181815481106117c6576117c661380e565b90600052602060002001548386836117de91906137f7565b815181106117ee576117ee61380e565b6020026020010181815250506013818154811061180d5761180d61380e565b906000526020600020015482868361182591906137f7565b815181106118355761183561380e565b60209081029190910101528061184a8161388a565b9150506117ac565b60128181548110610ca157600080fd5b60008061186e60025490565b90508061189d5761189768056bc75e2d631000006ec097ce7bc90715b34b9f10000000006137a4565b91505090565b806118a661205c565b6118b890670de0b6b3a764000061376f565b61189791906137a4565b3360009081526001602090815260408083206001600160a01b0386168452909152812054828110156119445760405162461bcd60e51b815260206004820152602560248201527f45524332303a2064656372656173656420616c6c6f77616e63652062656c6f77604482015264207a65726f60d81b6064820152608401610d50565b611951338585840361210a565b5060019392505050565b61196582826124f0565b5050565b61131433826124f0565b60006014544261198391906137f7565b905090565b6000610b5633848461222e565b604080517fe48329057bfd03d55e49b547132e39cffd9c1820ad7b9d4c5307691425d15adf60208201526001600160a01b038516918101919091526060810183905260808101829052600090819060a00160405160208183030381529060405280519060200120905060007f000000000000000000000000000000000000000000000000000000000000000082604051602001611a33929190613824565b60408051808303601f1901815291905280516020909101209695505050505050565b6001600160a01b03811660009081526007602052604081205463ffffffff1680611a80576000610d6c565b6001600160a01b038316600090815260066020526040812090611aa46001846138a5565b63ffffffff1663ffffffff168152602001908152602001600020600101549392505050565b6001600160a01b038116600090815260186020908152604080832054601990925282205482610bcf60025490565b604080517fe48329057bfd03d55e49b547132e39cffd9c1820ad7b9d4c5307691425d15adf60208201526001600160a01b03881691810191909152606081018690526080810185905260009060a00160405160208183030381529060405280519060200120905060007f000000000000000000000000000000000000000000000000000000000000000082604051602001611b93929190613824565b60408051601f198184030181528282528051602091820120600080855291840180845281905260ff89169284019290925260608301879052608083018690529092509060019060a0016020604051602081039080840390855afa158015611bfe573d6000803e3d6000fd5b5050604051601f1901519150506001600160a01b038116611c7b5760405162461bcd60e51b815260206004820152603160248201527f455243323057697468566f74696e673a3a64656c656761746542795369673a20604482015270696e76616c6964207369676e617475726560781b6064820152608401610d50565b6001600160a01b0381166000908152600860205260408120805491611c9f8361388a565b919050558814611d075760405162461bcd60e51b815260206004820152602d60248201527f455243323057697468566f74696e673a3a64656c656761746542795369673a2060448201526c696e76616c6964206e6f6e636560981b6064820152608401610d50565b86421115611d715760405162461bcd60e51b815260206004820152603160248201527f455243323057697468566f74696e673a3a64656c656761746542795369673a206044820152701cda59db985d1d5c9948195e1c1a5c9959607a1b6064820152608401610d50565b611d7b818a6122c9565b5050505b505050505050565b60008060116001600f54610c4291906137f7565b600a546001600160a01b03163314611dc55760405162461bcd60e51b8152600401610d509061383f565b600e54600160a01b900460ff16611e1e5760405162461bcd60e51b815260206004820152601f60248201527f7769746864726177616c2066656520616c72656164792064697361626c6564006044820152606401610d50565b600e805460ff60a01b191690556040517f9ce4caeeb4158a651114fd72aeb51854aa381a60cf63a4ae3f46a4220ea626b290600090a1565b42841015611e985760405162461bcd60e51b815260206004820152600f60248201526e1c195c9b5a5d0e8e995e1c1a5c9959608a1b6044820152606401610d50565b6001600160a01b038716600090815260096020526040812080547f6e71edae12b1b97f4d1f60370fef10105fa2faae0126114a169c64845d6126c9918a918a918a919086611ee58361388a565b909155506040805160208101969096526001600160a01b0394851690860152929091166060840152608083015260a082015260c0810186905260e001604051602081830303815290604052805190602001209050611f468882868686612650565b611f5188888861210a565b5050505050505050565b600a546001600160a01b03163314611f855760405162461bcd60e51b8152600401610d509061383f565b600e80546001600160a01b0319166001600160a01b0392909216919091179055565b600080601754600c54610b5a91906137f7565b6119658282612348565b600a546001600160a01b03163314611fee5760405162461bcd60e51b8152600401610d509061383f565b6001600160a01b0381166120535760405162461bcd60e51b815260206004820152602660248201527f4f776e61626c653a206e6577206f776e657220697320746865207a65726f206160448201526564647265737360d01b6064820152608401610d50565b6113148161249e565b6040516370a0823160e01b81523060048201526000907f00000000000000000000000000000000000000000000000000000000000000006001600160a01b0316906370a082319060240160206040518083038186803b1580156120be57600080fd5b505afa1580156120d2573d6000803e3d6000fd5b505050506040513d601f19601f8201168201806040525081019061198391906138ed565b60008060106001600f54610c4291906137f7565b6001600160a01b03831661216c5760405162461bcd60e51b8152602060048201526024808201527f45524332303a20617070726f76652066726f6d20746865207a65726f206164646044820152637265737360e01b6064820152608401610d50565b6001600160a01b0382166121cd5760405162461bcd60e51b815260206004820152602260248201527f45524332303a20617070726f766520746f20746865207a65726f206164647265604482015261737360f01b6064820152608401610d50565b6001600160a01b0383811660008181526001602090815260408083209487168084529482529182902085905590518481527f8c5be1e5ebec7d5bd14f71427d1e84f3dd0314c0f7b2291e5b200ac8c7c3b925910160405180910390a3505050565b600061223960025490565b9050600061224561205c565b9050600082612254838661376f565b61225e91906137a4565b6001600160a01b0386166000908152601a602052604081208054929350839290919061228b908490613757565b90915550506001600160a01b0386166000908152601b6020526040812080548392906122b8908490613757565b90915550611d7f9050868686612787565b6001600160a01b038281166000818152600560208181526040808420805485845282862054949093528787166001600160a01b03198416811790915590519190951694919391928592917f3134e8a2e6d97e929a7e54011ea5485d7d196dd5f0ba4d4ef95803e8e3fc257f9190a46123428284836127c9565b50505050565b600061235360025490565b9050600061235f61205c565b905060008261236e838661376f565b61237891906137a4565b90506123843385612928565b60006127106123916115ea565b61239b908461376f565b6123a591906137a4565b905060006123b382846137f7565b90506123e96001600160a01b037f0000000000000000000000000000000000000000000000000000000000000000168883612958565b6001600160a01b03871660009081526019602052604081208054839290612411908490613757565b9250508190555080600c600082825461242a9190613757565b9250508190555081600d60008282546124439190613757565b9091555061245190506129bb565b60408051848152602081018890526001600160a01b038916917f0f0f7f8153c6d63a5696720d4cc434e56bb5ac1cf8c791ed9c180defb6e92153910160405180910390a250505050505050565b600a80546001600160a01b038381166001600160a01b0319831681179093556040519116919082907f8be0079c531659141344cd1fd0a4f28419497f9722a3daafe3b4186f6b6457e090600090a35050565b60006124fa61205c565b9050600061250760025490565b9050801580612514575081155b1561254d5761254884670de0b6b3a764000061253968056bc75e2d631000008761376f565b61254391906137a4565b612b59565b612572565b60008261255a838661376f565b61256491906137a4565b90506125708582612b59565b505b6001600160a01b038416600090815260186020526040902054612596908490613757565b6001600160a01b038516600090815260186020526040812091909155600b80548592906125c4908490613757565b909155506125ff90506001600160a01b037f000000000000000000000000000000000000000000000000000000000000000016333086612b88565b6126076129bb565b836001600160a01b03167f1fb48929215fc354244acea33112720ce5b7ba6912db70bb0149e77aa7c91ce18460405161264291815260200190565b60405180910390a250505050565b60007f000000000000000000000000000000000000000000000000000000000000000085604051602001612685929190613824565b60408051601f198184030181528282528051602091820120600080855291840180845281905260ff88169284019290925260608301869052608083018590529092509060019060a0016020604051602081039080840390855afa1580156126f0573d6000803e3d6000fd5b5050604051601f1901519150506001600160a01b038116158015906127265750866001600160a01b0316816001600160a01b0316145b61277e5760405162461bcd60e51b8152602060048201526024808201527f417263683a3a76616c69646174655369673a20696e76616c6964207369676e616044820152637475726560e01b6064820152608401610d50565b50505050505050565b612792838383612bc0565b6001600160a01b038084166000908152600560205260408082205485841683529120546127c4929182169116836127c9565b505050565b816001600160a01b0316836001600160a01b0316141580156127eb5750600081115b156127c4576001600160a01b0383161561288e576001600160a01b03831660009081526007602052604081205463ffffffff16908161282b57600061286e565b6001600160a01b03851660009081526006602052604081209061284f6001856138a5565b63ffffffff1663ffffffff168152602001908152602001600020600101545b9050600061287c84836137f7565b905061288a86848484612d8e565b5050505b6001600160a01b038216156127c4576001600160a01b03821660009081526007602052604081205463ffffffff1690816128c957600061290c565b6001600160a01b0384166000908152600660205260408120906128ed6001856138a5565b63ffffffff1663ffffffff168152602001908152602001600020600101545b9050600061291a8483613757565b9050611d7f85848484612d8e565b6129328282612f30565b6001600160a01b03808316600090815260056020526040812054611965921690836127c9565b6040516001600160a01b0383166024820152604481018290526127c490849063a9059cbb60e01b906064015b60408051601f198184030181529190526020810180516001600160e01b03166001600160e01b03199093169290921790915261307e565b620151806129c7611973565b106113655760006129d661205c565b90506000601654600b546129ea91906137f7565b90506000601754600c546129fe91906137f7565b9050600060155483612a109190613757565b612a1a8386613757565b612a2491906137f7565b90506010612a30611862565b81546001818101845560009384526020842090910191909155601180548083019091557f31ecc21a745e3968a04e9570e4425bc18fa8019c68028196b546d1669c200c6801859055601280548083019091557fbb8a6a4669ba250d26cd7a459eca9d215f8307e33aebe50379bc5a3617ec344401849055601380548083018255908352427f66de8ffda797e3de9c05e8fc57b3bf0ec28a930d40b0d285d93c06501cf6a09090910155600f805491929091612aec908490613757565b9091555050600f5460408051838152602081018690529081018490524291907f4a692749c13dc6fe0e24a9e6cecfb16c9d11c50f1ad0025de018af5d9ba749039060600160405180910390a342601455612b4461205c565b6015555050600b546016555050600c54601755565b612b638282613150565b6001600160a01b038083166000908152600560205260408120546119659216836127c9565b6040516001600160a01b03808516602483015283166044820152606481018290526123429085906323b872dd60e01b90608401612984565b6001600160a01b038316612c245760405162461bcd60e51b815260206004820152602560248201527f45524332303a207472616e736665722066726f6d20746865207a65726f206164604482015264647265737360d81b6064820152608401610d50565b6001600160a01b038216612c865760405162461bcd60e51b815260206004820152602360248201527f45524332303a207472616e7366657220746f20746865207a65726f206164647260448201526265737360e81b6064820152608401610d50565b6001600160a01b03831660009081526020819052604090205481811015612cfe5760405162461bcd60e51b815260206004820152602660248201527f45524332303a207472616e7366657220616d6f756e7420657863656564732062604482015265616c616e636560d01b6064820152608401610d50565b6001600160a01b03808516600090815260208190526040808220858503905591851681529081208054849290612d35908490613757565b92505081905550826001600160a01b0316846001600160a01b03167fddf252ad1be2c89b69c2b068fc378daa952ba7f163c4a11628f55a4df523b3ef84604051612d8191815260200190565b60405180910390a3612342565b6000612db2436040518060600160405280603f815260200161396d603f913961322f565b905060008463ffffffff16118015612e0c57506001600160a01b038516600090815260066020526040812063ffffffff831691612df06001886138a5565b63ffffffff908116825260208201929092526040016000205416145b15612e55576001600160a01b03851660009081526006602052604081208391612e366001886138a5565b63ffffffff168152602081019190915260400160002060010155612ee5565b60408051808201825263ffffffff838116825260208083018681526001600160a01b038a166000908152600683528581208a851682529092529390209151825463ffffffff191691161781559051600191820155612eb4908590613906565b6001600160a01b0386166000908152600760205260409020805463ffffffff191663ffffffff929092169190911790555b60408051848152602081018490526001600160a01b038716917fdec2bacdd2f05b59de34da9b523dff8be42e5e38e818c82fdb0bae774387a724910160405180910390a25050505050565b6001600160a01b038216612f905760405162461bcd60e51b815260206004820152602160248201527f45524332303a206275726e2066726f6d20746865207a65726f206164647265736044820152607360f81b6064820152608401610d50565b6001600160a01b038216600090815260208190526040902054818110156130045760405162461bcd60e51b815260206004820152602260248201527f45524332303a206275726e20616d6f756e7420657863656564732062616c616e604482015261636560f01b6064820152608401610d50565b6001600160a01b03831660009081526020819052604081208383039055600280548492906130339084906137f7565b90915550506040518281526000906001600160a01b038516907fddf252ad1be2c89b69c2b068fc378daa952ba7f163c4a11628f55a4df523b3ef9060200160405180910390a3505050565b60006130d3826040518060400160405280602081526020017f5361666545524332303a206c6f772d6c6576656c2063616c6c206661696c6564815250856001600160a01b031661325f9092919063ffffffff16565b8051909150156127c457808060200190518101906130f1919061392e565b6127c45760405162461bcd60e51b815260206004820152602a60248201527f5361666545524332303a204552433230206f7065726174696f6e20646964206e6044820152691bdd081cdd58d8d9595960b21b6064820152608401610d50565b6001600160a01b0382166131a65760405162461bcd60e51b815260206004820152601f60248201527f45524332303a206d696e7420746f20746865207a65726f2061646472657373006044820152606401610d50565b80600260008282546131b89190613757565b90915550506001600160a01b038216600090815260208190526040812080548392906131e5908490613757565b90915550506040518181526001600160a01b038316906000907fddf252ad1be2c89b69c2b068fc378daa952ba7f163c4a11628f55a4df523b3ef9060200160405180910390a35050565b60008164010000000084106132575760405162461bcd60e51b8152600401610d5091906133f3565b509192915050565b606061326e8484600085613276565b949350505050565b6060824710156132d75760405162461bcd60e51b815260206004820152602660248201527f416464726573733a20696e73756666696369656e742062616c616e636520666f6044820152651c8818d85b1b60d21b6064820152608401610d50565b843b6133255760405162461bcd60e51b815260206004820152601d60248201527f416464726573733a2063616c6c20746f206e6f6e2d636f6e74726163740000006044820152606401610d50565b600080866001600160a01b031685876040516133419190613950565b60006040518083038185875af1925050503d806000811461337e576040519150601f19603f3d011682016040523d82523d6000602084013e613383565b606091505b5091509150610c238282866060831561339d575081610d6c565b8251156133ad5782518084602001fd5b8160405162461bcd60e51b8152600401610d5091906133f3565b60005b838110156133e25781810151838201526020016133ca565b838111156123425750506000910152565b60208152600082518060208401526134128160408501602087016133c7565b601f01601f19169190910160400192915050565b80356001600160a01b038116811461169557600080fd5b6000806040838503121561345057600080fd5b61345983613426565b946020939093013593505050565b60006020828403121561347957600080fd5b610d6c82613426565b60006020828403121561349457600080fd5b5035919050565b6000806000606084860312156134b057600080fd5b6134b984613426565b92506134c760208501613426565b9150604084013590509250925092565b600080600080600060a086880312156134ef57600080fd5b6134f886613426565b945061350660208701613426565b94979496505050506040830135926060810135926080909101359150565b600081518084526020808501945080840160005b8381101561355457815187529582019590820190600101613538565b509495945050505050565b6040815260006135726040830185613524565b82810360208401526135848185613524565b95945050505050565b6000806000606084860312156135a257600080fd5b6135ab84613426565b95602085013595506040909401359392505050565b803560ff8116811461169557600080fd5b60008060008060008060c087890312156135ea57600080fd5b6135f387613426565b9550602087013594506040870135935061360f606088016135c0565b92506080870135915060a087013590509295509295509295565b600080600080600080600060e0888a03121561364457600080fd5b61364d88613426565b965061365b60208901613426565b95506040880135945060608801359350613677608089016135c0565b925060a0880135915060c0880135905092959891949750929550565b600080604083850312156136a657600080fd5b6136af83613426565b91506136bd60208401613426565b90509250929050565b600080604083850312156136d957600080fd5b6136e283613426565b9150602083013563ffffffff811681146136fb57600080fd5b809150509250929050565b600181811c9082168061371a57607f821691505b6020821081141561373b57634e487b7160e01b600052602260045260246000fd5b50919050565b634e487b7160e01b600052601160045260246000fd5b6000821982111561376a5761376a613741565b500190565b600081600019048311821515161561378957613789613741565b500290565b634e487b7160e01b600052601260045260246000fd5b6000826137b3576137b361378e565b500490565b60008083128015600160ff1b8501841216156137d6576137d6613741565b6001600160ff1b03840183138116156137f1576137f1613741565b50500390565b60008282101561380957613809613741565b500390565b634e487b7160e01b600052603260045260246000fd5b61190160f01b81526002810192909252602282015260420190565b6020808252818101527f4f776e61626c653a2063616c6c6572206973206e6f7420746865206f776e6572604082015260600190565b634e487b7160e01b600052604160045260246000fd5b600060001982141561389e5761389e613741565b5060010190565b600063ffffffff838116908316818110156138c2576138c2613741565b039392505050565b600063ffffffff808416806138e1576138e161378e565b92169190910492915050565b6000602082840312156138ff57600080fd5b5051919050565b600063ffffffff80831681851680830382111561392557613925613741565b01949350505050565b60006020828403121561394057600080fd5b81518015158114610d6c57600080fd5b600082516139628184602087016133c7565b919091019291505056fe455243323057697468566f74696e673a3a5f7772697465436865636b706f696e743a20626c6f636b206e756d62657220657863656564732033322062697473a26469706673582212205b56ab90f4c743044e0d08044fc4c4aaa5f0f7bd0c5edb670c8912686b05c0c164736f6c63430008090033",
  "linkReferences": {},
  "deployedLinkReferences": {}
}