{
  "_format": "hh-sol-artifact-1",
  "contractName": "WellOfSoulsEventEmitter",
  "sourceName": "contracts/testing/WellOfSoulsEventEmitter.sol",
  "abi": [
    {
      "anonymous": false,
      "inputs": [
        {
          "indexed": true,
          "internalType": "address",
          "name": "caller",
          "type": "address"
        },
        {
          "indexed": true,
          "internalType": "address",
          "name": "to",
          "type": "address"
        },
        {
          "indexed": false,
          "internalType": "uint256",
          "name": "amount",
          "type": "uint256"
        },
        {
          "indexed": true,
          "internalType": "uint256",
          "name": "totalAmountHarvested",
          "type": "uint256"
        }
      ],
      "name": "Harvest",
      "type": "event"
    },
    {
      "anonymous": false,
      "inputs": [
        {
          "indexed": true,
          "internalType": "address",
          "name": "previousOwner",
          "type": "address"
        },
        {
          "indexed": true,
          "internalType": "address",
          "name": "newOwner",
          "type": "address"
        }
      ],
      "name": "OwnershipTransferred",
      "type": "event"
    },
    {
      "inputs": [
        {
          "internalType": "address",
          "name": "user",
          "type": "address"
        },
        {
          "internalType": "uint256",
          "name": "amount",
          "type": "uint256"
        }
      ],
      "name": "emitHarvest",
      "outputs": [],
      "stateMutability": "nonpayable",
      "type": "function"
    },
    {
      "inputs": [
        {
          "internalType": "address",
          "name": "",
          "type": "address"
        }
      ],
      "name": "harvested",
      "outputs": [
        {
          "internalType": "uint256",
          "name": "",
          "type": "uint256"
        }
      ],
      "stateMutability": "view",
      "type": "function"
    },
    {
      "inputs": [],
      "name": "owner",
      "outputs": [
        {
          "internalType": "address",
          "name": "",
          "type": "address"
        }
      ],
      "stateMutability": "view",
      "type": "function"
    },
    {
      "inputs": [],
      "name": "renounceOwnership",
      "outputs": [],
      "stateMutability": "nonpayable",
      "type": "function"
    },
    {
      "inputs": [
        {
          "internalType": "address",
          "name": "newOwner",
          "type": "address"
        }
      ],
      "name": "transferOwnership",
      "outputs": [],
      "stateMutability": "nonpayable",
      "type": "function"
    }
  ],
  "bytecode": "0x608060405234801561001057600080fd5b5061001a3361001f565b61006f565b600080546001600160a01b038381166001600160a01b0319831681178455604051919092169283917f8be0079c531659141344cd1fd0a4f28419497f9722a3daafe3b4186f6b6457e09190a35050565b6103aa8061007e6000396000f3fe608060405234801561001057600080fd5b50600436106100575760003560e01c80631ef4efb71461005c578063715018a61461008f5780638da5cb5b14610099578063aa6c5015146100b4578063f2fde38b146100c7575b600080fd5b61007c61006a3660046102cd565b60016020526000908152604090205481565b6040519081526020015b60405180910390f35b6100976100da565b005b6000546040516001600160a01b039091168152602001610086565b6100976100c23660046102ef565b610119565b6100976100d53660046102cd565b6101c6565b6000546001600160a01b0316331461010d5760405162461bcd60e51b815260040161010490610319565b60405180910390fd5b6101176000610261565b565b6000546001600160a01b031633146101435760405162461bcd60e51b815260040161010490610319565b6001600160a01b0382166000908152600160205260408120805483929061016b90849061034e565b90915550506001600160a01b03821660008181526001602090815260409182902054915184815291929182917fdec9257d126f56798a34ce7ca0ffedeaa9a024543946f79c3b5038035ba32a1e910160405180910390a45050565b6000546001600160a01b031633146101f05760405162461bcd60e51b815260040161010490610319565b6001600160a01b0381166102555760405162461bcd60e51b815260206004820152602660248201527f4f776e61626c653a206e6577206f776e657220697320746865207a65726f206160448201526564647265737360d01b6064820152608401610104565b61025e81610261565b50565b600080546001600160a01b038381166001600160a01b0319831681178455604051919092169283917f8be0079c531659141344cd1fd0a4f28419497f9722a3daafe3b4186f6b6457e09190a35050565b80356001600160a01b03811681146102c857600080fd5b919050565b6000602082840312156102df57600080fd5b6102e8826102b1565b9392505050565b6000806040838503121561030257600080fd5b61030b836102b1565b946020939093013593505050565b6020808252818101527f4f776e61626c653a2063616c6c6572206973206e6f7420746865206f776e6572604082015260600190565b6000821982111561036f57634e487b7160e01b600052601160045260246000fd5b50019056fea264697066735822122054cc2dc459dbbce7af19c14c70ff4ec90920a345ce2c8daeec161aeb47839e8564736f6c63430008090033",
  "linkReferences": {},
  "deployedLinkReferences": {}
}