{
  "_format": "hh-sol-artifact-1",
  "contractName": "TopHarvestersDistributor",
  "sourceName": "contracts/TopHarvestersDistributor.sol",
  "abi": [
    {
      "inputs": [
        {
          "internalType": "contract IERC20",
          "name": "_BOOFI",
          "type": "address"
        },
        {
          "internalType": "contract IZBOOFI_Staking",
          "name": "_zboofiStaking",
          "type": "address"
        },
        {
          "internalType": "uint256[]",
          "name": "_bips",
          "type": "uint256[]"
        }
      ],
      "stateMutability": "nonpayable",
      "type": "constructor"
    },
    {
      "anonymous": false,
      "inputs": [
        {
          "indexed": true,
          "internalType": "address",
          "name": "previousOwner",
          "type": "address"
        },
        {
          "indexed": true,
          "internalType": "address",
          "name": "newOwner",
          "type": "address"
        }
      ],
      "name": "OwnershipTransferred",
      "type": "event"
    },
    {
      "inputs": [],
      "name": "BOOFI",
      "outputs": [
        {
          "internalType": "contract IERC20",
          "name": "",
          "type": "address"
        }
      ],
      "stateMutability": "view",
      "type": "function"
    },
    {
      "inputs": [],
      "name": "NUMBER_TOP_HARVESTERS",
      "outputs": [
        {
          "internalType": "uint256",
          "name": "",
          "type": "uint256"
        }
      ],
      "stateMutability": "view",
      "type": "function"
    },
    {
      "inputs": [
        {
          "internalType": "uint256",
          "name": "",
          "type": "uint256"
        }
      ],
      "name": "bips",
      "outputs": [
        {
          "internalType": "uint256",
          "name": "",
          "type": "uint256"
        }
      ],
      "stateMutability": "view",
      "type": "function"
    },
    {
      "inputs": [],
      "name": "claimBOOFI",
      "outputs": [],
      "stateMutability": "nonpayable",
      "type": "function"
    },
    {
      "inputs": [],
      "name": "owner",
      "outputs": [
        {
          "internalType": "address",
          "name": "",
          "type": "address"
        }
      ],
      "stateMutability": "view",
      "type": "function"
    },
    {
      "inputs": [
        {
          "internalType": "address",
          "name": "token",
          "type": "address"
        },
        {
          "internalType": "address",
          "name": "to",
          "type": "address"
        }
      ],
      "name": "recoverERC20",
      "outputs": [],
      "stateMutability": "nonpayable",
      "type": "function"
    },
    {
      "inputs": [],
      "name": "renounceOwnership",
      "outputs": [],
      "stateMutability": "nonpayable",
      "type": "function"
    },
    {
      "inputs": [
        {
          "internalType": "address",
          "name": "newOwner",
          "type": "address"
        }
      ],
      "name": "transferOwnership",
      "outputs": [],
      "stateMutability": "nonpayable",
      "type": "function"
    },
    {
      "inputs": [
        {
          "internalType": "uint256[]",
          "name": "_bips",
          "type": "uint256[]"
        }
      ],
      "name": "updateParameters",
      "outputs": [],
      "stateMutability": "nonpayable",
      "type": "function"
    },
    {
      "inputs": [],
      "name": "zboofiStaking",
      "outputs": [
        {
          "internalType": "contract IZBOOFI_Staking",
          "name": "",
          "type": "address"
        }
      ],
      "stateMutability": "view",
      "type": "function"
    }
  ],
  "bytecode": "0x60e06040523480156200001157600080fd5b50604051620012fc380380620012fc833981016040819052620000349162000338565b6200003f3362000252565b6000826001600160a01b031663ae01b1d26040518163ffffffff1660e01b815260040160206040518083038186803b1580156200007b57600080fd5b505afa15801562000090573d6000803e3d6000fd5b505050506040513d601f19601f82011682018060405250810190620000b691906200042f565b60c081905282519091508114620001055760405162461bcd60e51b815260206004820152600e60248201526d18985908189a5c1cc81a5b9c1d5d60921b60448201526064015b60405180910390fd5b6000816001600160401b0381111562000122576200012262000322565b6040519080825280602002602001820160405280156200014c578160200160208202803683370190505b5080516200016391600191602090910190620002a2565b5060005b82811015620001f25783818151811062000185576200018562000449565b602002602001015160018281548110620001a357620001a362000449565b9060005260206000200181905550838181518110620001c657620001c662000449565b602002602001015182620001db919062000475565b915080620001e98162000490565b91505062000167565b506127108114620002375760405162461bcd60e51b815260206004820152600e60248201526d77726f6e6720626970732073756d60901b6044820152606401620000fc565b5050506001600160a01b039182166080521660a052620004ae565b600080546001600160a01b038381166001600160a01b0319831681178455604051919092169283917f8be0079c531659141344cd1fd0a4f28419497f9722a3daafe3b4186f6b6457e09190a35050565b828054828255906000526020600020908101928215620002e0579160200282015b82811115620002e0578251825591602001919060010190620002c3565b50620002ee929150620002f2565b5090565b5b80821115620002ee5760008155600101620002f3565b6001600160a01b03811681146200031f57600080fd5b50565b634e487b7160e01b600052604160045260246000fd5b6000806000606084860312156200034e57600080fd5b83516200035b8162000309565b80935050602080850151620003708162000309565b60408601519093506001600160401b03808211156200038e57600080fd5b818701915087601f830112620003a357600080fd5b815181811115620003b857620003b862000322565b8060051b604051601f19603f83011681018181108582111715620003e057620003e062000322565b60405291825284820192508381018501918a831115620003ff57600080fd5b938501935b828510156200041f5784518452938501939285019262000404565b8096505050505050509250925092565b6000602082840312156200044257600080fd5b5051919050565b634e487b7160e01b600052603260045260246000fd5b634e487b7160e01b600052601160045260246000fd5b600082198211156200048b576200048b6200045f565b500190565b6000600019821415620004a757620004a76200045f565b5060010190565b60805160a05160c051610de76200051560003960008181610162015281816103b7015281816105bb0152818161061e015261069901526000818161013b01526103f701526000818160d80152818161023e0152818161032801526104b90152610de76000f3fe608060405234801561001057600080fd5b506004361061009e5760003560e01c8063914b6ffb11610066578063914b6ffb14610136578063ae01b1d21461015d578063c0916b5014610184578063f2fde38b1461018c578063fd8d95191461019f57600080fd5b8063157b9223146100a3578063715018a6146100c95780637679b9d3146100d3578063886f039a146101125780638da5cb5b14610125575b600080fd5b6100b66100b1366004610aad565b6101b2565b6040519081526020015b60405180910390f35b6100d16101d3565b005b6100fa7f000000000000000000000000000000000000000000000000000000000000000081565b6040516001600160a01b0390911681526020016100c0565b6100d1610120366004610adb565b610212565b6000546001600160a01b03166100fa565b6100fa7f000000000000000000000000000000000000000000000000000000000000000081565b6100b67f000000000000000000000000000000000000000000000000000000000000000081565b6100d1610310565b6100d161019a366004610b14565b6104f7565b6100d16101ad366004610b47565b61058f565b600181815481106101c257600080fd5b600091825260209091200154905081565b6000546001600160a01b031633146102065760405162461bcd60e51b81526004016101fd90610c05565b60405180910390fd5b6102106000610776565b565b6000546001600160a01b0316331461023c5760405162461bcd60e51b81526004016101fd90610c05565b7f00000000000000000000000000000000000000000000000000000000000000006001600160a01b0316826001600160a01b0316141561027b57600080fd5b6040516370a0823160e01b81523060048201526000906001600160a01b038416906370a082319060240160206040518083038186803b1580156102bd57600080fd5b505afa1580156102d1573d6000803e3d6000fd5b505050506040513d601f19601f820116820180604052508101906102f59190610c3a565b905061030b6001600160a01b03841683836107c6565b505050565b6040516370a0823160e01b81523060048201526000907f00000000000000000000000000000000000000000000000000000000000000006001600160a01b0316906370a082319060240160206040518083038186803b15801561037257600080fd5b505afa158015610386573d6000803e3d6000fd5b505050506040513d601f19601f820116820180604052508101906103aa9190610c3a565b905080156104f45760005b7f00000000000000000000000000000000000000000000000000000000000000008110156104f2576040516309c11db560e01b8152600481018290526104e0907f00000000000000000000000000000000000000000000000000000000000000006001600160a01b0316906309c11db59060240160206040518083038186803b15801561044157600080fd5b505afa158015610455573d6000803e3d6000fd5b505050506040513d601f19601f820116820180604052508101906104799190610c53565b6127106001848154811061048f5761048f610c70565b9060005260206000200154856104a59190610c9c565b6104af9190610cbb565b6001600160a01b037f00000000000000000000000000000000000000000000000000000000000000001691906107c6565b806104ea81610cdd565b9150506103b5565b505b50565b6000546001600160a01b031633146105215760405162461bcd60e51b81526004016101fd90610c05565b6001600160a01b0381166105865760405162461bcd60e51b815260206004820152602660248201527f4f776e61626c653a206e6577206f776e657220697320746865207a65726f206160448201526564647265737360d01b60648201526084016101fd565b6104f481610776565b6000546001600160a01b031633146105b95760405162461bcd60e51b81526004016101fd90610c05565b7f000000000000000000000000000000000000000000000000000000000000000081511461061a5760405162461bcd60e51b815260206004820152600e60248201526d18985908189a5c1cc81a5b9c1d5d60921b60448201526064016101fd565b60007f000000000000000000000000000000000000000000000000000000000000000067ffffffffffffffff81111561065557610655610b31565b60405190808252806020026020018201604052801561067e578160200160208202803683370190505b50805161069391600191602090910190610a4d565b5060005b7f0000000000000000000000000000000000000000000000000000000000000000811015610733578281815181106106d1576106d1610c70565b6020026020010151600182815481106106ec576106ec610c70565b906000526020600020018190555082818151811061070c5761070c610c70565b60200260200101518261071f9190610cf8565b91508061072b81610cdd565b915050610697565b5061271081146104f25760405162461bcd60e51b815260206004820152600e60248201526d77726f6e6720626970732073756d60901b60448201526064016101fd565b600080546001600160a01b038381166001600160a01b0319831681178455604051919092169283917f8be0079c531659141344cd1fd0a4f28419497f9722a3daafe3b4186f6b6457e09190a35050565b604080516001600160a01b03848116602483015260448083018590528351808403909101815260649092018352602080830180516001600160e01b031663a9059cbb60e01b17905283518085019094528084527f5361666545524332303a206c6f772d6c6576656c2063616c6c206661696c65649084015261030b928692916000916108569185169084906108d3565b80519091501561030b57808060200190518101906108749190610d10565b61030b5760405162461bcd60e51b815260206004820152602a60248201527f5361666545524332303a204552433230206f7065726174696f6e20646964206e6044820152691bdd081cdd58d8d9595960b21b60648201526084016101fd565b60606108e284846000856108ec565b90505b9392505050565b60608247101561094d5760405162461bcd60e51b815260206004820152602660248201527f416464726573733a20696e73756666696369656e742062616c616e636520666f6044820152651c8818d85b1b60d21b60648201526084016101fd565b843b61099b5760405162461bcd60e51b815260206004820152601d60248201527f416464726573733a2063616c6c20746f206e6f6e2d636f6e747261637400000060448201526064016101fd565b600080866001600160a01b031685876040516109b79190610d62565b60006040518083038185875af1925050503d80600081146109f4576040519150601f19603f3d011682016040523d82523d6000602084013e6109f9565b606091505b5091509150610a09828286610a14565b979650505050505050565b60608315610a235750816108e5565b825115610a335782518084602001fd5b8160405162461bcd60e51b81526004016101fd9190610d7e565b828054828255906000526020600020908101928215610a88579160200282015b82811115610a88578251825591602001919060010190610a6d565b50610a94929150610a98565b5090565b5b80821115610a945760008155600101610a99565b600060208284031215610abf57600080fd5b5035919050565b6001600160a01b03811681146104f457600080fd5b60008060408385031215610aee57600080fd5b8235610af981610ac6565b91506020830135610b0981610ac6565b809150509250929050565b600060208284031215610b2657600080fd5b81356108e581610ac6565b634e487b7160e01b600052604160045260246000fd5b60006020808385031215610b5a57600080fd5b823567ffffffffffffffff80821115610b7257600080fd5b818501915085601f830112610b8657600080fd5b813581811115610b9857610b98610b31565b8060051b604051601f19603f83011681018181108582111715610bbd57610bbd610b31565b604052918252848201925083810185019188831115610bdb57600080fd5b938501935b82851015610bf957843584529385019392850192610be0565b98975050505050505050565b6020808252818101527f4f776e61626c653a2063616c6c6572206973206e6f7420746865206f776e6572604082015260600190565b600060208284031215610c4c57600080fd5b5051919050565b600060208284031215610c6557600080fd5b81516108e581610ac6565b634e487b7160e01b600052603260045260246000fd5b634e487b7160e01b600052601160045260246000fd5b6000816000190483118215151615610cb657610cb6610c86565b500290565b600082610cd857634e487b7160e01b600052601260045260246000fd5b500490565b6000600019821415610cf157610cf1610c86565b5060010190565b60008219821115610d0b57610d0b610c86565b500190565b600060208284031215610d2257600080fd5b815180151581146108e557600080fd5b60005b83811015610d4d578181015183820152602001610d35565b83811115610d5c576000848401525b50505050565b60008251610d74818460208701610d32565b9190910192915050565b6020815260008251806020840152610d9d816040850160208701610d32565b601f01601f1916919091016040019291505056fea26469706673582212201a056b73bc000d4bbb9b46d7d65ac5f429872a76621e824fa9e6b2bd0fc697fe64736f6c63430008090033",
  "linkReferences": {},
  "deployedLinkReferences": {}
}