{
  "_format": "hh-sol-artifact-1",
  "contractName": "ERC20WithVotingAndPermit",
  "sourceName": "contracts/ERC20WithVotingAndPermit.sol",
  "abi": [
    {
      "inputs": [
        {
          "internalType": "string",
          "name": "name_",
          "type": "string"
        },
        {
          "internalType": "string",
          "name": "symbol_",
          "type": "string"
        }
      ],
      "stateMutability": "nonpayable",
      "type": "constructor"
    },
    {
      "anonymous": false,
      "inputs": [
        {
          "indexed": true,
          "internalType": "address",
          "name": "owner",
          "type": "address"
        },
        {
          "indexed": true,
          "internalType": "address",
          "name": "spender",
          "type": "address"
        },
        {
          "indexed": false,
          "internalType": "uint256",
          "name": "value",
          "type": "uint256"
        }
      ],
      "name": "Approval",
      "type": "event"
    },
    {
      "anonymous": false,
      "inputs": [
        {
          "indexed": true,
          "internalType": "address",
          "name": "delegator",
          "type": "address"
        },
        {
          "indexed": true,
          "internalType": "address",
          "name": "fromDelegate",
          "type": "address"
        },
        {
          "indexed": true,
          "internalType": "address",
          "name": "toDelegate",
          "type": "address"
        }
      ],
      "name": "DelegateChanged",
      "type": "event"
    },
    {
      "anonymous": false,
      "inputs": [
        {
          "indexed": true,
          "internalType": "address",
          "name": "delegate",
          "type": "address"
        },
        {
          "indexed": false,
          "internalType": "uint256",
          "name": "previousBalance",
          "type": "uint256"
        },
        {
          "indexed": false,
          "internalType": "uint256",
          "name": "newBalance",
          "type": "uint256"
        }
      ],
      "name": "DelegateVotesChanged",
      "type": "event"
    },
    {
      "anonymous": false,
      "inputs": [
        {
          "indexed": true,
          "internalType": "address",
          "name": "from",
          "type": "address"
        },
        {
          "indexed": true,
          "internalType": "address",
          "name": "to",
          "type": "address"
        },
        {
          "indexed": false,
          "internalType": "uint256",
          "name": "value",
          "type": "uint256"
        }
      ],
      "name": "Transfer",
      "type": "event"
    },
    {
      "inputs": [],
      "name": "DELEGATION_TYPEHASH",
      "outputs": [
        {
          "internalType": "bytes32",
          "name": "",
          "type": "bytes32"
        }
      ],
      "stateMutability": "view",
      "type": "function"
    },
    {
      "inputs": [],
      "name": "DOMAIN_SEPARATOR",
      "outputs": [
        {
          "internalType": "bytes32",
          "name": "",
          "type": "bytes32"
        }
      ],
      "stateMutability": "view",
      "type": "function"
    },
    {
      "inputs": [],
      "name": "DOMAIN_TYPEHASH",
      "outputs": [
        {
          "internalType": "bytes32",
          "name": "",
          "type": "bytes32"
        }
      ],
      "stateMutability": "view",
      "type": "function"
    },
    {
      "inputs": [],
      "name": "PERMIT_TYPEHASH",
      "outputs": [
        {
          "internalType": "bytes32",
          "name": "",
          "type": "bytes32"
        }
      ],
      "stateMutability": "view",
      "type": "function"
    },
    {
      "inputs": [
        {
          "internalType": "address",
          "name": "owner",
          "type": "address"
        },
        {
          "internalType": "address",
          "name": "spender",
          "type": "address"
        }
      ],
      "name": "allowance",
      "outputs": [
        {
          "internalType": "uint256",
          "name": "",
          "type": "uint256"
        }
      ],
      "stateMutability": "view",
      "type": "function"
    },
    {
      "inputs": [
        {
          "internalType": "address",
          "name": "spender",
          "type": "address"
        },
        {
          "internalType": "uint256",
          "name": "amount",
          "type": "uint256"
        }
      ],
      "name": "approve",
      "outputs": [
        {
          "internalType": "bool",
          "name": "",
          "type": "bool"
        }
      ],
      "stateMutability": "nonpayable",
      "type": "function"
    },
    {
      "inputs": [
        {
          "internalType": "address",
          "name": "account",
          "type": "address"
        }
      ],
      "name": "balanceOf",
      "outputs": [
        {
          "internalType": "uint256",
          "name": "",
          "type": "uint256"
        }
      ],
      "stateMutability": "view",
      "type": "function"
    },
    {
      "inputs": [
        {
          "internalType": "address",
          "name": "",
          "type": "address"
        },
        {
          "internalType": "uint32",
          "name": "",
          "type": "uint32"
        }
      ],
      "name": "checkpoints",
      "outputs": [
        {
          "internalType": "uint32",
          "name": "fromBlock",
          "type": "uint32"
        },
        {
          "internalType": "uint256",
          "name": "votes",
          "type": "uint256"
        }
      ],
      "stateMutability": "view",
      "type": "function"
    },
    {
      "inputs": [],
      "name": "decimals",
      "outputs": [
        {
          "internalType": "uint8",
          "name": "",
          "type": "uint8"
        }
      ],
      "stateMutability": "view",
      "type": "function"
    },
    {
      "inputs": [
        {
          "internalType": "address",
          "name": "spender",
          "type": "address"
        },
        {
          "internalType": "uint256",
          "name": "subtractedValue",
          "type": "uint256"
        }
      ],
      "name": "decreaseAllowance",
      "outputs": [
        {
          "internalType": "bool",
          "name": "",
          "type": "bool"
        }
      ],
      "stateMutability": "nonpayable",
      "type": "function"
    },
    {
      "inputs": [
        {
          "internalType": "address",
          "name": "delegatee",
          "type": "address"
        }
      ],
      "name": "delegate",
      "outputs": [],
      "stateMutability": "nonpayable",
      "type": "function"
    },
    {
      "inputs": [
        {
          "internalType": "address",
          "name": "delegatee",
          "type": "address"
        },
        {
          "internalType": "uint256",
          "name": "nonce",
          "type": "uint256"
        },
        {
          "internalType": "uint256",
          "name": "expiry",
          "type": "uint256"
        },
        {
          "internalType": "uint8",
          "name": "v",
          "type": "uint8"
        },
        {
          "internalType": "bytes32",
          "name": "r",
          "type": "bytes32"
        },
        {
          "internalType": "bytes32",
          "name": "s",
          "type": "bytes32"
        }
      ],
      "name": "delegateBySig",
      "outputs": [],
      "stateMutability": "nonpayable",
      "type": "function"
    },
    {
      "inputs": [
        {
          "internalType": "address",
          "name": "delegator",
          "type": "address"
        }
      ],
      "name": "delegates",
      "outputs": [
        {
          "internalType": "address",
          "name": "",
          "type": "address"
        }
      ],
      "stateMutability": "view",
      "type": "function"
    },
    {
      "inputs": [
        {
          "internalType": "address",
          "name": "account",
          "type": "address"
        }
      ],
      "name": "getCurrentVotes",
      "outputs": [
        {
          "internalType": "uint256",
          "name": "",
          "type": "uint256"
        }
      ],
      "stateMutability": "view",
      "type": "function"
    },
    {
      "inputs": [
        {
          "internalType": "address",
          "name": "delegatee",
          "type": "address"
        },
        {
          "internalType": "uint256",
          "name": "nonce",
          "type": "uint256"
        },
        {
          "internalType": "uint256",
          "name": "expiry",
          "type": "uint256"
        }
      ],
      "name": "getDelegationDigest",
      "outputs": [
        {
          "internalType": "bytes32",
          "name": "",
          "type": "bytes32"
        }
      ],
      "stateMutability": "view",
      "type": "function"
    },
    {
      "inputs": [
        {
          "internalType": "address",
          "name": "owner",
          "type": "address"
        },
        {
          "internalType": "address",
          "name": "spender",
          "type": "address"
        },
        {
          "internalType": "uint256",
          "name": "nonce",
          "type": "uint256"
        },
        {
          "internalType": "uint256",
          "name": "value",
          "type": "uint256"
        },
        {
          "internalType": "uint256",
          "name": "deadline",
          "type": "uint256"
        }
      ],
      "name": "getPermitDigest",
      "outputs": [
        {
          "internalType": "bytes32",
          "name": "",
          "type": "bytes32"
        }
      ],
      "stateMutability": "view",
      "type": "function"
    },
    {
      "inputs": [
        {
          "internalType": "address",
          "name": "account",
          "type": "address"
        },
        {
          "internalType": "uint256",
          "name": "blockNumber",
          "type": "uint256"
        }
      ],
      "name": "getPriorVotes",
      "outputs": [
        {
          "internalType": "uint256",
          "name": "",
          "type": "uint256"
        }
      ],
      "stateMutability": "view",
      "type": "function"
    },
    {
      "inputs": [
        {
          "internalType": "address",
          "name": "spender",
          "type": "address"
        },
        {
          "internalType": "uint256",
          "name": "addedValue",
          "type": "uint256"
        }
      ],
      "name": "increaseAllowance",
      "outputs": [
        {
          "internalType": "bool",
          "name": "",
          "type": "bool"
        }
      ],
      "stateMutability": "nonpayable",
      "type": "function"
    },
    {
      "inputs": [],
      "name": "name",
      "outputs": [
        {
          "internalType": "string",
          "name": "",
          "type": "string"
        }
      ],
      "stateMutability": "view",
      "type": "function"
    },
    {
      "inputs": [
        {
          "internalType": "address",
          "name": "",
          "type": "address"
        }
      ],
      "name": "nonces",
      "outputs": [
        {
          "internalType": "uint256",
          "name": "",
          "type": "uint256"
        }
      ],
      "stateMutability": "view",
      "type": "function"
    },
    {
      "inputs": [
        {
          "internalType": "address",
          "name": "",
          "type": "address"
        }
      ],
      "name": "numCheckpoints",
      "outputs": [
        {
          "internalType": "uint32",
          "name": "",
          "type": "uint32"
        }
      ],
      "stateMutability": "view",
      "type": "function"
    },
    {
      "inputs": [
        {
          "internalType": "address",
          "name": "owner",
          "type": "address"
        },
        {
          "internalType": "address",
          "name": "spender",
          "type": "address"
        },
        {
          "internalType": "uint256",
          "name": "value",
          "type": "uint256"
        },
        {
          "internalType": "uint256",
          "name": "deadline",
          "type": "uint256"
        },
        {
          "internalType": "uint8",
          "name": "v",
          "type": "uint8"
        },
        {
          "internalType": "bytes32",
          "name": "r",
          "type": "bytes32"
        },
        {
          "internalType": "bytes32",
          "name": "s",
          "type": "bytes32"
        }
      ],
      "name": "permit",
      "outputs": [],
      "stateMutability": "nonpayable",
      "type": "function"
    },
    {
      "inputs": [
        {
          "internalType": "address",
          "name": "",
          "type": "address"
        }
      ],
      "name": "permitNonces",
      "outputs": [
        {
          "internalType": "uint256",
          "name": "",
          "type": "uint256"
        }
      ],
      "stateMutability": "view",
      "type": "function"
    },
    {
      "inputs": [],
      "name": "symbol",
      "outputs": [
        {
          "internalType": "string",
          "name": "",
          "type": "string"
        }
      ],
      "stateMutability": "view",
      "type": "function"
    },
    {
      "inputs": [],
      "name": "totalSupply",
      "outputs": [
        {
          "internalType": "uint256",
          "name": "",
          "type": "uint256"
        }
      ],
      "stateMutability": "view",
      "type": "function"
    },
    {
      "inputs": [
        {
          "internalType": "address",
          "name": "recipient",
          "type": "address"
        },
        {
          "internalType": "uint256",
          "name": "amount",
          "type": "uint256"
        }
      ],
      "name": "transfer",
      "outputs": [
        {
          "internalType": "bool",
          "name": "",
          "type": "bool"
        }
      ],
      "stateMutability": "nonpayable",
      "type": "function"
    },
    {
      "inputs": [
        {
          "internalType": "address",
          "name": "sender",
          "type": "address"
        },
        {
          "internalType": "address",
          "name": "recipient",
          "type": "address"
        },
        {
          "internalType": "uint256",
          "name": "amount",
          "type": "uint256"
        }
      ],
      "name": "transferFrom",
      "outputs": [
        {
          "internalType": "bool",
          "name": "",
          "type": "bool"
        }
      ],
      "stateMutability": "nonpayable",
      "type": "function"
    }
  ],
  "bytecode": "0x60a06040523480156200001157600080fd5b5060405162001fb838038062001fb8833981016040819052620000349162000300565b818181818160039080519060200190620000509291906200018d565b508051620000669060049060208401906200018d565b506200007491505062000082565b60805250620003a792505050565b60007f8cad95687ba82c2ce50e74f7b754645e5117c3a5bec8151c0726d5857980a866620000af620000f3565b805160209091012046604080516020810194909452830191909152606082015230608082015260a00160405160208183030381529060405280519060200120905090565b60606003805462000104906200036a565b80601f016020809104026020016040519081016040528092919081815260200182805462000132906200036a565b8015620001835780601f10620001575761010080835404028352916020019162000183565b820191906000526020600020905b8154815290600101906020018083116200016557829003601f168201915b5050505050905090565b8280546200019b906200036a565b90600052602060002090601f016020900481019282620001bf57600085556200020a565b82601f10620001da57805160ff19168380011785556200020a565b828001600101855582156200020a579182015b828111156200020a578251825591602001919060010190620001ed565b50620002189291506200021c565b5090565b5b808211156200021857600081556001016200021d565b634e487b7160e01b600052604160045260246000fd5b600082601f8301126200025b57600080fd5b81516001600160401b038082111562000278576200027862000233565b604051601f8301601f19908116603f01168101908282118183101715620002a357620002a362000233565b81604052838152602092508683858801011115620002c057600080fd5b600091505b83821015620002e45785820183015181830184015290820190620002c5565b83821115620002f65760008385830101525b9695505050505050565b600080604083850312156200031457600080fd5b82516001600160401b03808211156200032c57600080fd5b6200033a8683870162000249565b935060208501519150808211156200035157600080fd5b50620003608582860162000249565b9150509250929050565b600181811c908216806200037f57607f821691505b60208210811415620003a157634e487b7160e01b600052602260045260246000fd5b50919050565b608051611bd9620003df600039600081816102a9015281816106d401528181610b0401528181610c37015261114a0152611bd96000f3fe608060405234801561001057600080fd5b50600436106101a95760003560e01c80636fcfff45116100f9578063ac9ebbd011610097578063d505accf11610071578063d505accf14610435578063dd62ed3e14610448578063e7a324dc14610481578063f1127ed8146104a857600080fd5b8063ac9ebbd0146103fc578063b4b5ea571461040f578063c3cda5201461042257600080fd5b80637ecebe00116100d35780637ecebe00146103ae57806395d89b41146103ce578063a457c2d7146103d6578063a9059cbb146103e957600080fd5b80636fcfff451461033757806370a0823114610372578063782d6fe11461039b57600080fd5b80632c19e8b5116101665780633644e515116101405780633644e515146102a457806339509351146102cb578063587cde1e146102de5780635c19a95c1461032257600080fd5b80632c19e8b51461025b57806330adf81f1461026e578063313ce5671461029557600080fd5b806306fdde03146101ae578063095ea7b3146101cc57806318160ddd146101ef578063191d0ffc1461020157806320606b701461022157806323b872dd14610248575b600080fd5b6101b66104ff565b6040516101c39190611778565b60405180910390f35b6101df6101da3660046117e9565b610591565b60405190151581526020016101c3565b6002545b6040519081526020016101c3565b6101f361020f366004611813565b60096020526000908152604090205481565b6101f37f8cad95687ba82c2ce50e74f7b754645e5117c3a5bec8151c0726d5857980a86681565b6101df61025636600461182e565b6105a8565b6101f361026936600461186a565b610657565b6101f37f6e71edae12b1b97f4d1f60370fef10105fa2faae0126114a169c64845d6126c981565b604051601281526020016101c3565b6101f37f000000000000000000000000000000000000000000000000000000000000000081565b6101df6102d93660046117e9565b610729565b61030a6102ec366004611813565b6001600160a01b039081166000908152600560205260409020541690565b6040516001600160a01b0390911681526020016101c3565b610335610330366004611813565b610765565b005b61035d610345366004611813565b60076020526000908152604090205463ffffffff1681565b60405163ffffffff90911681526020016101c3565b6101f3610380366004611813565b6001600160a01b031660009081526020819052604090205490565b6101f36103a93660046117e9565b610772565b6101f36103bc366004611813565b60086020526000908152604090205481565b6101b66109e2565b6101df6103e43660046117e9565b6109f1565b6101df6103f73660046117e9565b610a8a565b6101f361040a3660046118b7565b610a97565b6101f361041d366004611813565b610b57565b6103356104303660046118fb565b610bcc565b610335610443366004611953565b610e5c565b6101f36104563660046119bd565b6001600160a01b03918216600090815260016020908152604080832093909416825291909152205490565b6101f37fe48329057bfd03d55e49b547132e39cffd9c1820ad7b9d4c5307691425d15adf81565b6104e36104b63660046119f0565b60066020908152600092835260408084209091529082529020805460019091015463ffffffff9091169082565b6040805163ffffffff90931683526020830191909152016101c3565b60606003805461050e90611a30565b80601f016020809104026020016040519081016040528092919081815260200182805461053a90611a30565b80156105875780601f1061055c57610100808354040283529160200191610587565b820191906000526020600020905b81548152906001019060200180831161056a57829003601f168201915b5050505050905090565b600061059e338484610f61565b5060015b92915050565b60006105b5848484611085565b6001600160a01b03841660009081526001602090815260408083203384529091529020548281101561063f5760405162461bcd60e51b815260206004820152602860248201527f45524332303a207472616e7366657220616d6f756e74206578636565647320616044820152676c6c6f77616e636560c01b60648201526084015b60405180910390fd5b61064c8533858403610f61565b506001949350505050565b604080517f6e71edae12b1b97f4d1f60370fef10105fa2faae0126114a169c64845d6126c960208201526001600160a01b038088169282019290925290851660608201526080810183905260a0810184905260c08101829052600090819060e00160405160208183030381529060405280519060200120905060007f000000000000000000000000000000000000000000000000000000000000000082604051602001610705929190611a6b565b60408051808303601f19018152919052805160209091012098975050505050505050565b3360008181526001602090815260408083206001600160a01b0387168452909152812054909161059e918590610760908690611a9c565b610f61565b61076f33826110c7565b50565b60004382106107de5760405162461bcd60e51b815260206004820152603260248201527f455243323057697468566f74696e673a3a6765745072696f72566f7465733a206044820152711b9bdd081e595d0819195d195c9b5a5b995960721b6064820152608401610636565b6001600160a01b03831660009081526007602052604090205463ffffffff168061080c5760009150506105a2565b6001600160a01b03841660009081526006602052604081208491610831600185611ab4565b63ffffffff9081168252602082019290925260400160002054161161089a576001600160a01b038416600090815260066020526040812090610874600184611ab4565b63ffffffff1663ffffffff168152602001908152602001600020600101549150506105a2565b6001600160a01b038416600090815260066020908152604080832083805290915290205463ffffffff168310156108d55760009150506105a2565b6000806108e3600184611ab4565b90505b8163ffffffff168163ffffffff1611156109ab57600060026109088484611ab4565b6109129190611ad9565b61091c9083611ab4565b6001600160a01b038816600090815260066020908152604080832063ffffffff808616855290835292819020815180830190925280549093168082526001909301549181019190915291925087141561097f576020015194506105a29350505050565b805163ffffffff16871115610996578193506109a4565b6109a1600183611ab4565b92505b50506108e6565b506001600160a01b038516600090815260066020908152604080832063ffffffff9094168352929052206001015491505092915050565b60606004805461050e90611a30565b3360009081526001602090815260408083206001600160a01b038616845290915281205482811015610a735760405162461bcd60e51b815260206004820152602560248201527f45524332303a2064656372656173656420616c6c6f77616e63652062656c6f77604482015264207a65726f60d81b6064820152608401610636565b610a803385858403610f61565b5060019392505050565b600061059e338484611085565b604080517fe48329057bfd03d55e49b547132e39cffd9c1820ad7b9d4c5307691425d15adf60208201526001600160a01b038516918101919091526060810183905260808101829052600090819060a00160405160208183030381529060405280519060200120905060007f000000000000000000000000000000000000000000000000000000000000000082604051602001610b35929190611a6b565b60408051808303601f1901815291905280516020909101209695505050505050565b6001600160a01b03811660009081526007602052604081205463ffffffff1680610b82576000610bc5565b6001600160a01b038316600090815260066020526040812090610ba6600184611ab4565b63ffffffff1663ffffffff168152602001908152602001600020600101545b9392505050565b604080517fe48329057bfd03d55e49b547132e39cffd9c1820ad7b9d4c5307691425d15adf60208201526001600160a01b03881691810191909152606081018690526080810185905260009060a00160405160208183030381529060405280519060200120905060007f000000000000000000000000000000000000000000000000000000000000000082604051602001610c68929190611a6b565b60408051601f198184030181528282528051602091820120600080855291840180845281905260ff89169284019290925260608301879052608083018690529092509060019060a0016020604051602081039080840390855afa158015610cd3573d6000803e3d6000fd5b5050604051601f1901519150506001600160a01b038116610d505760405162461bcd60e51b815260206004820152603160248201527f455243323057697468566f74696e673a3a64656c656761746542795369673a20604482015270696e76616c6964207369676e617475726560781b6064820152608401610636565b6001600160a01b0381166000908152600860205260408120805491610d7483611b0a565b919050558814610ddc5760405162461bcd60e51b815260206004820152602d60248201527f455243323057697468566f74696e673a3a64656c656761746542795369673a2060448201526c696e76616c6964206e6f6e636560981b6064820152608401610636565b86421115610e465760405162461bcd60e51b815260206004820152603160248201527f455243323057697468566f74696e673a3a64656c656761746542795369673a206044820152701cda59db985d1d5c9948195e1c1a5c9959607a1b6064820152608401610636565b610e50818a6110c7565b5050505b505050505050565b42841015610e9e5760405162461bcd60e51b815260206004820152600f60248201526e1c195c9b5a5d0e8e995e1c1a5c9959608a1b6044820152606401610636565b6001600160a01b038716600090815260096020526040812080547f6e71edae12b1b97f4d1f60370fef10105fa2faae0126114a169c64845d6126c9918a918a918a919086610eeb83611b0a565b909155506040805160208101969096526001600160a01b0394851690860152929091166060840152608083015260a082015260c0810186905260e001604051602081830303815290604052805190602001209050610f4c8882868686611146565b610f57888888610f61565b5050505050505050565b6001600160a01b038316610fc35760405162461bcd60e51b8152602060048201526024808201527f45524332303a20617070726f76652066726f6d20746865207a65726f206164646044820152637265737360e01b6064820152608401610636565b6001600160a01b0382166110245760405162461bcd60e51b815260206004820152602260248201527f45524332303a20617070726f766520746f20746865207a65726f206164647265604482015261737360f01b6064820152608401610636565b6001600160a01b0383811660008181526001602090815260408083209487168084529482529182902085905590518481527f8c5be1e5ebec7d5bd14f71427d1e84f3dd0314c0f7b2291e5b200ac8c7c3b925910160405180910390a3505050565b61109083838361127d565b6001600160a01b038084166000908152600560205260408082205485841683529120546110c29291821691168361144b565b505050565b6001600160a01b038281166000818152600560208181526040808420805485845282862054949093528787166001600160a01b03198416811790915590519190951694919391928592917f3134e8a2e6d97e929a7e54011ea5485d7d196dd5f0ba4d4ef95803e8e3fc257f9190a461114082848361144b565b50505050565b60007f00000000000000000000000000000000000000000000000000000000000000008560405160200161117b929190611a6b565b60408051601f198184030181528282528051602091820120600080855291840180845281905260ff88169284019290925260608301869052608083018590529092509060019060a0016020604051602081039080840390855afa1580156111e6573d6000803e3d6000fd5b5050604051601f1901519150506001600160a01b0381161580159061121c5750866001600160a01b0316816001600160a01b0316145b6112745760405162461bcd60e51b8152602060048201526024808201527f417263683a3a76616c69646174655369673a20696e76616c6964207369676e616044820152637475726560e01b6064820152608401610636565b50505050505050565b6001600160a01b0383166112e15760405162461bcd60e51b815260206004820152602560248201527f45524332303a207472616e736665722066726f6d20746865207a65726f206164604482015264647265737360d81b6064820152608401610636565b6001600160a01b0382166113435760405162461bcd60e51b815260206004820152602360248201527f45524332303a207472616e7366657220746f20746865207a65726f206164647260448201526265737360e81b6064820152608401610636565b6001600160a01b038316600090815260208190526040902054818110156113bb5760405162461bcd60e51b815260206004820152602660248201527f45524332303a207472616e7366657220616d6f756e7420657863656564732062604482015265616c616e636560d01b6064820152608401610636565b6001600160a01b038085166000908152602081905260408082208585039055918516815290812080548492906113f2908490611a9c565b92505081905550826001600160a01b0316846001600160a01b03167fddf252ad1be2c89b69c2b068fc378daa952ba7f163c4a11628f55a4df523b3ef8460405161143e91815260200190565b60405180910390a3611140565b816001600160a01b0316836001600160a01b03161415801561146d5750600081115b156110c2576001600160a01b03831615611510576001600160a01b03831660009081526007602052604081205463ffffffff1690816114ad5760006114f0565b6001600160a01b0385166000908152600660205260408120906114d1600185611ab4565b63ffffffff1663ffffffff168152602001908152602001600020600101545b905060006114fe8483611b25565b905061150c868484846115a6565b5050505b6001600160a01b038216156110c2576001600160a01b03821660009081526007602052604081205463ffffffff16908161154b57600061158e565b6001600160a01b03841660009081526006602052604081209061156f600185611ab4565b63ffffffff1663ffffffff168152602001908152602001600020600101545b9050600061159c8483611a9c565b9050610e54858484845b60006115ca436040518060600160405280603f8152602001611b65603f9139611748565b905060008463ffffffff1611801561162457506001600160a01b038516600090815260066020526040812063ffffffff831691611608600188611ab4565b63ffffffff908116825260208201929092526040016000205416145b1561166d576001600160a01b0385166000908152600660205260408120839161164e600188611ab4565b63ffffffff1681526020810191909152604001600020600101556116fd565b60408051808201825263ffffffff838116825260208083018681526001600160a01b038a166000908152600683528581208a851682529092529390209151825463ffffffff1916911617815590516001918201556116cc908590611b3c565b6001600160a01b0386166000908152600760205260409020805463ffffffff191663ffffffff929092169190911790555b60408051848152602081018490526001600160a01b038716917fdec2bacdd2f05b59de34da9b523dff8be42e5e38e818c82fdb0bae774387a724910160405180910390a25050505050565b60008164010000000084106117705760405162461bcd60e51b81526004016106369190611778565b509192915050565b600060208083528351808285015260005b818110156117a557858101830151858201604001528201611789565b818111156117b7576000604083870101525b50601f01601f1916929092016040019392505050565b80356001600160a01b03811681146117e457600080fd5b919050565b600080604083850312156117fc57600080fd5b611805836117cd565b946020939093013593505050565b60006020828403121561182557600080fd5b610bc5826117cd565b60008060006060848603121561184357600080fd5b61184c846117cd565b925061185a602085016117cd565b9150604084013590509250925092565b600080600080600060a0868803121561188257600080fd5b61188b866117cd565b9450611899602087016117cd565b94979496505050506040830135926060810135926080909101359150565b6000806000606084860312156118cc57600080fd5b6118d5846117cd565b95602085013595506040909401359392505050565b803560ff811681146117e457600080fd5b60008060008060008060c0878903121561191457600080fd5b61191d876117cd565b95506020870135945060408701359350611939606088016118ea565b92506080870135915060a087013590509295509295509295565b600080600080600080600060e0888a03121561196e57600080fd5b611977886117cd565b9650611985602089016117cd565b955060408801359450606088013593506119a1608089016118ea565b925060a0880135915060c0880135905092959891949750929550565b600080604083850312156119d057600080fd5b6119d9836117cd565b91506119e7602084016117cd565b90509250929050565b60008060408385031215611a0357600080fd5b611a0c836117cd565b9150602083013563ffffffff81168114611a2557600080fd5b809150509250929050565b600181811c90821680611a4457607f821691505b60208210811415611a6557634e487b7160e01b600052602260045260246000fd5b50919050565b61190160f01b81526002810192909252602282015260420190565b634e487b7160e01b600052601160045260246000fd5b60008219821115611aaf57611aaf611a86565b500190565b600063ffffffff83811690831681811015611ad157611ad1611a86565b039392505050565b600063ffffffff80841680611afe57634e487b7160e01b600052601260045260246000fd5b92169190910492915050565b6000600019821415611b1e57611b1e611a86565b5060010190565b600082821015611b3757611b37611a86565b500390565b600063ffffffff808316818516808303821115611b5b57611b5b611a86565b0194935050505056fe455243323057697468566f74696e673a3a5f7772697465436865636b706f696e743a20626c6f636b206e756d62657220657863656564732033322062697473a264697066735822122038417e30cc016873f7ab75dcf2868492ffe0a899935d95ba1c7dff541d39fc3e64736f6c63430008090033",
  "linkReferences": {},
  "deployedLinkReferences": {}
}