{
  "_format": "hh-sol-artifact-1",
  "contractName": "BoofiStrategyForQiStaking_WAVAX",
  "sourceName": "contracts/BoofiStrategyForQiStaking_WAVAX.sol",
  "abi": [
    {
      "inputs": [
        {
          "internalType": "contract IHauntedHouse",
          "name": "_hauntedHouse",
          "type": "address"
        }
      ],
      "stateMutability": "nonpayable",
      "type": "constructor"
    },
    {
      "anonymous": false,
      "inputs": [
        {
          "indexed": true,
          "internalType": "address",
          "name": "previousOwner",
          "type": "address"
        },
        {
          "indexed": true,
          "internalType": "address",
          "name": "newOwner",
          "type": "address"
        }
      ],
      "name": "OwnershipTransferred",
      "type": "event"
    },
    {
      "inputs": [],
      "name": "COMPTROLLER",
      "outputs": [
        {
          "internalType": "address",
          "name": "",
          "type": "address"
        }
      ],
      "stateMutability": "view",
      "type": "function"
    },
    {
      "inputs": [],
      "name": "CTOKEN",
      "outputs": [
        {
          "internalType": "contract ICToken",
          "name": "",
          "type": "address"
        }
      ],
      "stateMutability": "view",
      "type": "function"
    },
    {
      "inputs": [],
      "name": "REWARD_TOKEN",
      "outputs": [
        {
          "internalType": "contract IERC20",
          "name": "",
          "type": "address"
        }
      ],
      "stateMutability": "view",
      "type": "function"
    },
    {
      "inputs": [],
      "name": "ROUTER",
      "outputs": [
        {
          "internalType": "contract IRouter",
          "name": "",
          "type": "address"
        }
      ],
      "stateMutability": "view",
      "type": "function"
    },
    {
      "inputs": [],
      "name": "checkReward",
      "outputs": [
        {
          "internalType": "uint256",
          "name": "",
          "type": "uint256"
        }
      ],
      "stateMutability": "view",
      "type": "function"
    },
    {
      "inputs": [
        {
          "internalType": "address",
          "name": "",
          "type": "address"
        },
        {
          "internalType": "address",
          "name": "",
          "type": "address"
        },
        {
          "internalType": "uint256",
          "name": "tokenAmount",
          "type": "uint256"
        },
        {
          "internalType": "uint256",
          "name": "",
          "type": "uint256"
        }
      ],
      "name": "deposit",
      "outputs": [],
      "stateMutability": "nonpayable",
      "type": "function"
    },
    {
      "inputs": [],
      "name": "depositToken",
      "outputs": [
        {
          "internalType": "contract IERC20",
          "name": "",
          "type": "address"
        }
      ],
      "stateMutability": "view",
      "type": "function"
    },
    {
      "inputs": [],
      "name": "hauntedHouse",
      "outputs": [
        {
          "internalType": "contract IHauntedHouse",
          "name": "",
          "type": "address"
        }
      ],
      "stateMutability": "view",
      "type": "function"
    },
    {
      "inputs": [
        {
          "internalType": "contract IERC20",
          "name": "token",
          "type": "address"
        },
        {
          "internalType": "address",
          "name": "to",
          "type": "address"
        },
        {
          "internalType": "uint256",
          "name": "amount",
          "type": "uint256"
        }
      ],
      "name": "inCaseTokensGetStuck",
      "outputs": [],
      "stateMutability": "nonpayable",
      "type": "function"
    },
    {
      "inputs": [
        {
          "internalType": "address",
          "name": "newStrategy",
          "type": "address"
        }
      ],
      "name": "migrate",
      "outputs": [],
      "stateMutability": "nonpayable",
      "type": "function"
    },
    {
      "inputs": [],
      "name": "onMigration",
      "outputs": [],
      "stateMutability": "nonpayable",
      "type": "function"
    },
    {
      "inputs": [],
      "name": "owner",
      "outputs": [
        {
          "internalType": "address",
          "name": "",
          "type": "address"
        }
      ],
      "stateMutability": "view",
      "type": "function"
    },
    {
      "inputs": [
        {
          "internalType": "address",
          "name": "",
          "type": "address"
        }
      ],
      "name": "pendingTokens",
      "outputs": [
        {
          "internalType": "address[]",
          "name": "",
          "type": "address[]"
        },
        {
          "internalType": "uint256[]",
          "name": "",
          "type": "uint256[]"
        }
      ],
      "stateMutability": "view",
      "type": "function"
    },
    {
      "inputs": [],
      "name": "performanceFeeBips",
      "outputs": [
        {
          "internalType": "uint256",
          "name": "",
          "type": "uint256"
        }
      ],
      "stateMutability": "view",
      "type": "function"
    },
    {
      "inputs": [],
      "name": "renounceOwnership",
      "outputs": [],
      "stateMutability": "nonpayable",
      "type": "function"
    },
    {
      "inputs": [
        {
          "internalType": "uint256",
          "name": "newPerformanceFeeBips",
          "type": "uint256"
        }
      ],
      "name": "setPerformanceFeeBips",
      "outputs": [],
      "stateMutability": "nonpayable",
      "type": "function"
    },
    {
      "inputs": [],
      "name": "storedPerformanceFees",
      "outputs": [
        {
          "internalType": "uint256",
          "name": "",
          "type": "uint256"
        }
      ],
      "stateMutability": "view",
      "type": "function"
    },
    {
      "inputs": [],
      "name": "storedWavaxPerformanceFees",
      "outputs": [
        {
          "internalType": "uint256",
          "name": "",
          "type": "uint256"
        }
      ],
      "stateMutability": "view",
      "type": "function"
    },
    {
      "inputs": [],
      "name": "totalProfitsUnderlyingRealized",
      "outputs": [
        {
          "internalType": "uint256",
          "name": "",
          "type": "uint256"
        }
      ],
      "stateMutability": "view",
      "type": "function"
    },
    {
      "inputs": [],
      "name": "totalRewardTokenHarvested",
      "outputs": [
        {
          "internalType": "uint256",
          "name": "",
          "type": "uint256"
        }
      ],
      "stateMutability": "view",
      "type": "function"
    },
    {
      "inputs": [],
      "name": "totalWavaxHarvested",
      "outputs": [
        {
          "internalType": "uint256",
          "name": "",
          "type": "uint256"
        }
      ],
      "stateMutability": "view",
      "type": "function"
    },
    {
      "inputs": [
        {
          "internalType": "address",
          "name": "newOwner",
          "type": "address"
        }
      ],
      "name": "transferOwnership",
      "outputs": [],
      "stateMutability": "nonpayable",
      "type": "function"
    },
    {
      "inputs": [
        {
          "internalType": "address",
          "name": "",
          "type": "address"
        },
        {
          "internalType": "address",
          "name": "to",
          "type": "address"
        },
        {
          "internalType": "uint256",
          "name": "tokenAmount",
          "type": "uint256"
        },
        {
          "internalType": "uint256",
          "name": "",
          "type": "uint256"
        }
      ],
      "name": "withdraw",
      "outputs": [],
      "stateMutability": "nonpayable",
      "type": "function"
    },
    {
      "inputs": [],
      "name": "withdrawPerformanceFees",
      "outputs": [],
      "stateMutability": "nonpayable",
      "type": "function"
    },
    {
      "stateMutability": "payable",
      "type": "receive"
    }
  ],
  "bytecode": "0x610140604052610bb86001553480156200001857600080fd5b50604051620030f0380380620030f08339810160408190526200003b9162000a7e565b8073b31f66aa3c1e785363f0875a1b74e27b85fd66c7735c0401e81bc07ca70fad469b451682c0d747ef1c828273486af39519b4dc9a7fccd318217352830e8ad9b483738729438eb15e2c8b576fcc6aecda6a148776c0f57360ae616a2155ee3d9a68541ba4544862310933d48585620000b533620004ad565b6001600160a01b03821615801590620000d657506001600160a01b03811615155b620001135760405162461bcd60e51b81526020600482015260086024820152671e995c9bc818985960c21b60448201526064015b60405180910390fd5b6001600160a01b03808316608052811660a0526200013182620004fd565b50506001600160a01b0384811660c05283811660e05282811661010081905290821661012081905262000174919060001962000561602090811b62000df617901c565b6200019d60e051600019876001600160a01b03166200056160201b62000df6179092919060201c565b5060039450620001ad9350505050565b604051908082528060200260200182016040528015620001d7578160200160208202803683370190505b508051620001ee91600591602090910190620009e7565b50738729438eb15e2c8b576fcc6aecda6a148776c0f560056000815481106200021b576200021b62000a9e565b9060005260206000200160006101000a8154816001600160a01b0302191690836001600160a01b0316021790555073b31f66aa3c1e785363f0875a1b74e27b85fd66c7600560018154811062000275576200027562000a9e565b9060005260206000200160006101000a8154816001600160a01b0302191690836001600160a01b03160217905550826001600160a01b0316637679b9d36040518163ffffffff1660e01b815260040160206040518083038186803b158015620002dd57600080fd5b505afa158015620002f2573d6000803e3d6000fd5b505050506040513d601f19601f8201168201806040525081019062000318919062000a7e565b60056002815481106200032f576200032f62000a9e565b600091825260209091200180546001600160a01b03929092166001600160a01b03199092169190911790556040805160028082526060820190925290816020016020820280368337505081516200038e926008925060200190620009e7565b5073b31f66aa3c1e785363f0875a1b74e27b85fd66c76008600081548110620003bb57620003bb62000a9e565b9060005260206000200160006101000a8154816001600160a01b0302191690836001600160a01b03160217905550826001600160a01b0316637679b9d36040518163ffffffff1660e01b815260040160206040518083038186803b1580156200042357600080fd5b505afa15801562000438573d6000803e3d6000fd5b505050506040513d601f19601f820116820180604052508101906200045e919062000a7e565b600860018154811062000475576200047562000a9e565b9060005260206000200160006101000a8154816001600160a01b0302191690836001600160a01b031602179055505050505062000b78565b600080546001600160a01b038381166001600160a01b0319831681178455604051919092169283917f8be0079c531659141344cd1fd0a4f28419497f9722a3daafe3b4186f6b6457e09190a35050565b6000546001600160a01b03163314620005485760405162461bcd60e51b81526020600482018190526024820152600080516020620030d083398151915260448201526064016200010a565b6200055e81620006c060201b62000f4d1760201c565b50565b801580620005ef5750604051636eb1769f60e11b81523060048201526001600160a01b03838116602483015284169063dd62ed3e9060440160206040518083038186803b158015620005b257600080fd5b505afa158015620005c7573d6000803e3d6000fd5b505050506040513d601f19601f82011682018060405250810190620005ed919062000ab4565b155b620006635760405162461bcd60e51b815260206004820152603660248201527f5361666545524332303a20617070726f76652066726f6d206e6f6e2d7a65726f60448201527f20746f206e6f6e2d7a65726f20616c6c6f77616e63650000000000000000000060648201526084016200010a565b604080516001600160a01b038416602482015260448082018490528251808303909101815260649091019091526020810180516001600160e01b0390811663095ea7b360e01b17909152620006bb9185916200077d16565b505050565b6000546001600160a01b031633146200070b5760405162461bcd60e51b81526020600482018190526024820152600080516020620030d083398151915260448201526064016200010a565b6001600160a01b038116620007725760405162461bcd60e51b815260206004820152602660248201527f4f776e61626c653a206e6577206f776e657220697320746865207a65726f206160448201526564647265737360d01b60648201526084016200010a565b6200055e81620004ad565b6000620007d9826040518060400160405280602081526020017f5361666545524332303a206c6f772d6c6576656c2063616c6c206661696c6564815250856001600160a01b03166200085b60201b62000fe5179092919060201c565b805190915015620006bb5780806020019051810190620007fa919062000ace565b620006bb5760405162461bcd60e51b815260206004820152602a60248201527f5361666545524332303a204552433230206f7065726174696f6e20646964206e6044820152691bdd081cdd58d8d9595960b21b60648201526084016200010a565b60606200086c848460008562000876565b90505b9392505050565b606082471015620008d95760405162461bcd60e51b815260206004820152602660248201527f416464726573733a20696e73756666696369656e742062616c616e636520666f6044820152651c8818d85b1b60d21b60648201526084016200010a565b843b620009295760405162461bcd60e51b815260206004820152601d60248201527f416464726573733a2063616c6c20746f206e6f6e2d636f6e747261637400000060448201526064016200010a565b600080866001600160a01b0316858760405162000947919062000b25565b60006040518083038185875af1925050503d806000811462000986576040519150601f19603f3d011682016040523d82523d6000602084013e6200098b565b606091505b5090925090506200099e828286620009a9565b979650505050505050565b60608315620009ba5750816200086f565b825115620009cb5782518084602001fd5b8160405162461bcd60e51b81526004016200010a919062000b43565b82805482825590600052602060002090810192821562000a3f579160200282015b8281111562000a3f57825182546001600160a01b0319166001600160a01b0390911617825560209092019160019091019062000a08565b5062000a4d92915062000a51565b5090565b5b8082111562000a4d576000815560010162000a52565b6001600160a01b03811681146200055e57600080fd5b60006020828403121562000a9157600080fd5b81516200086f8162000a68565b634e487b7160e01b600052603260045260246000fd5b60006020828403121562000ac757600080fd5b5051919050565b60006020828403121562000ae157600080fd5b815180151581146200086f57600080fd5b60005b8381101562000b0f57818101518382015260200162000af5565b8381111562000b1f576000848401525b50505050565b6000825162000b3981846020870162000af2565b9190910192915050565b602081526000825180602084015262000b6481604085016020870162000af2565b601f01601f19169190910160400192915050565b60805160a05160c05160e051610100516101205161244462000c8c600039600081816101b901528181611bbe0152611df901526000818161034901528181610ac501528181610b5c015281816113130152818161143f015281816114ed0152611d1601526000818161023e0152818161094601528181611020015281816113a80152818161168b01526117a7015260008181610296015281816107f4015281816119f40152611a720152600081816104010152818161069a015281816107ae01528181610a8201528181610d5d015281816110bb015261124e01526000818161020a015281816104f5015281816110e9015281816111b50152818161127a01528181611bf20152611e2d01526124446000f3fe60806040526004361061014f5760003560e01c80638da5cb5b116100b6578063c89039c51161006f578063c89039c5146103ef578063c910103614610423578063ce5494bb14610443578063dfd0c09d14610463578063f2fde38b14610479578063f587268a1461049957600080fd5b80638da5cb5b1461031957806399248ea714610337578063aa19d4371461036b578063c031a66f14610381578063c273e3f0146103c4578063c4b24a46146103da57600080fd5b80635dc5376b116101085780635dc5376b146102605780635f82c67e146102845780636cac18d5146102b8578063715018a6146102ce5780637bfe950c146102e3578063864ec9b41461030357600080fd5b806304a0906e1461015b57806320e8c565146101725780632d39811f1461019257806332fe7b26146101a75780633e12212e146101f8578063432954111461022c57600080fd5b3661015657005b600080fd5b34801561016757600080fd5b506101706104b9565b005b34801561017e57600080fd5b5061017061018d366004611ed2565b610608565b34801561019e57600080fd5b50610170610658565b3480156101b357600080fd5b506101db7f000000000000000000000000000000000000000000000000000000000000000081565b6040516001600160a01b0390911681526020015b60405180910390f35b34801561020457600080fd5b506101db7f000000000000000000000000000000000000000000000000000000000000000081565b34801561023857600080fd5b506101db7f000000000000000000000000000000000000000000000000000000000000000081565b34801561026c57600080fd5b5061027660065481565b6040519081526020016101ef565b34801561029057600080fd5b506101db7f000000000000000000000000000000000000000000000000000000000000000081565b3480156102c457600080fd5b5061027660025481565b3480156102da57600080fd5b5061017061072a565b3480156102ef57600080fd5b506101706102fe366004611ed2565b610760565b34801561030f57600080fd5b5061027660045481565b34801561032557600080fd5b506000546001600160a01b03166101db565b34801561034357600080fd5b506101db7f000000000000000000000000000000000000000000000000000000000000000081565b34801561037757600080fd5b5061027660035481565b34801561038d57600080fd5b506103b661039c366004611f18565b506040805160008082526020820190815281830190925291565b6040516101ef929190611f35565b3480156103d057600080fd5b5061027660075481565b3480156103e657600080fd5b506102766107d5565b3480156103fb57600080fd5b506101db7f000000000000000000000000000000000000000000000000000000000000000081565b34801561042f57600080fd5b5061017061043e366004611fb9565b61087c565b34801561044f57600080fd5b5061017061045e366004611f18565b6108ee565b34801561046f57600080fd5b5061027660015481565b34801561048557600080fd5b50610170610494366004611f18565b610cae565b3480156104a557600080fd5b506101706104b4366004611fd2565b610ce1565b6104c1610ffe565b60006007549050600060078190555073b31f66aa3c1e785363f0875a1b74e27b85fd66c76001600160a01b031663a9059cbb7f00000000000000000000000000000000000000000000000000000000000000006001600160a01b0316638471692a6040518163ffffffff1660e01b815260040160206040518083038186803b15801561054c57600080fd5b505afa158015610560573d6000803e3d6000fd5b505050506040513d601f19601f820116820180604052508101906105849190612023565b6040516001600160e01b031960e084901b1681526001600160a01b03909116600482015260248101849052604401602060405180830381600087803b1580156105cc57600080fd5b505af11580156105e0573d6000803e3d6000fd5b505050506040513d601f19601f820116820180604052508101906106049190612040565b5050565b6000546001600160a01b0316331461063b5760405162461bcd60e51b815260040161063290612062565b60405180910390fd5b811561064a5761064a82611341565b610652611415565b50505050565b6000546001600160a01b031633146106825760405162461bcd60e51b815260040161063290612062565b6040516370a0823160e01b81523060048201526000907f00000000000000000000000000000000000000000000000000000000000000006001600160a01b0316906370a082319060240160206040518083038186803b1580156106e457600080fd5b505afa1580156106f8573d6000803e3d6000fd5b505050506040513d601f19601f8201168201806040525081019061071c9190612097565b905061072781611341565b50565b6000546001600160a01b031633146107545760405162461bcd60e51b815260040161063290612062565b61075e6000611622565b565b6000546001600160a01b0316331461078a5760405162461bcd60e51b815260040161063290612062565b610792611415565b8115610652576107a182611672565b6106526001600160a01b037f000000000000000000000000000000000000000000000000000000000000000016848461175f565b6040516305b9783d60e01b8152600060048201819052306024830152907f00000000000000000000000000000000000000000000000000000000000000006001600160a01b0316906305b9783d906044015b60206040518083038186803b15801561083f57600080fd5b505afa158015610853573d6000803e3d6000fd5b505050506040513d601f19601f820116820180604052508101906108779190612097565b905090565b6000546001600160a01b031633146108a65760405162461bcd60e51b815260040161063290612062565b6127108111156108e95760405162461bcd60e51b815260206004820152600e60248201526d0d2dce0eae840e8dede40d0d2ced60931b6044820152606401610632565b600155565b6000546001600160a01b031633146109185760405162461bcd60e51b815260040161063290612062565b600061092261178f565b60405163db006a7560e01b8152600481018290529091506000906001600160a01b037f0000000000000000000000000000000000000000000000000000000000000000169063db006a7590602401602060405180830381600087803b15801561098a57600080fd5b505af115801561099e573d6000803e3d6000fd5b505050506040513d601f19601f820116820180604052508101906109c29190612097565b90508015610a095760405162461bcd60e51b815260206004820152601460248201527310d513d2d153881c995919595b4819985a5b195960621b6044820152606401610632565b600047905073b31f66aa3c1e785363f0875a1b74e27b85fd66c76001600160a01b031663d0e30db0826040518263ffffffff1660e01b81526004016000604051808303818588803b158015610a5d57600080fd5b505af1158015610a71573d6000803e3d6000fd5b50610aad9350506001600160a01b037f00000000000000000000000000000000000000000000000000000000000000001691508690508361175f565b6040516370a0823160e01b81523060048201526000907f00000000000000000000000000000000000000000000000000000000000000006001600160a01b0316906370a082319060240160206040518083038186803b158015610b0f57600080fd5b505afa158015610b23573d6000803e3d6000fd5b505050506040513d601f19601f82011682018060405250810190610b479190612097565b90508015610b8357610b836001600160a01b037f000000000000000000000000000000000000000000000000000000000000000016868361175f565b6040516370a0823160e01b815230600482015260009073b31f66aa3c1e785363f0875a1b74e27b85fd66c7906370a082319060240160206040518083038186803b158015610bd057600080fd5b505afa158015610be4573d6000803e3d6000fd5b505050506040513d601f19601f82011682018060405250810190610c089190612097565b90508015610ca65760405163a9059cbb60e01b81526001600160a01b03871660048201526024810182905273b31f66aa3c1e785363f0875a1b74e27b85fd66c79063a9059cbb90604401602060405180830381600087803b158015610c6c57600080fd5b505af1158015610c80573d6000803e3d6000fd5b505050506040513d601f19601f82011682018060405250810190610ca49190612040565b505b505050505050565b6000546001600160a01b03163314610cd85760405162461bcd60e51b815260040161063290612062565b61072781610f4d565b6000546001600160a01b03163314610d0b5760405162461bcd60e51b815260040161063290612062565b60008111610d5b5760405162461bcd60e51b815260206004820152601760248201527f63616e6e6f74207265636f766572203020746f6b656e730000000000000000006044820152606401610632565b7f00000000000000000000000000000000000000000000000000000000000000006001600160a01b0316836001600160a01b03161415610ddd5760405162461bcd60e51b815260206004820152601c60248201527f63616e6e6f74207265636f766572206465706f73697420746f6b656e000000006044820152606401610632565b610df16001600160a01b038416838361175f565b505050565b801580610e7f5750604051636eb1769f60e11b81523060048201526001600160a01b03838116602483015284169063dd62ed3e9060440160206040518083038186803b158015610e4557600080fd5b505afa158015610e59573d6000803e3d6000fd5b505050506040513d601f19601f82011682018060405250810190610e7d9190612097565b155b610eea5760405162461bcd60e51b815260206004820152603660248201527f5361666545524332303a20617070726f76652066726f6d206e6f6e2d7a65726f60448201527520746f206e6f6e2d7a65726f20616c6c6f77616e636560501b6064820152608401610632565b6040516001600160a01b038316602482015260448101829052610df190849063095ea7b360e01b906064015b60408051601f198184030181529190526020810180516001600160e01b03166001600160e01b0319909316929092179091526117de565b6000546001600160a01b03163314610f775760405162461bcd60e51b815260040161063290612062565b6001600160a01b038116610fdc5760405162461bcd60e51b815260206004820152602660248201527f4f776e61626c653a206e6577206f776e657220697320746865207a65726f206160448201526564647265737360d01b6064820152608401610632565b61072781611622565b6060610ff484846000856118b0565b90505b9392505050565b600480546000808355604051633af9e66960e01b8152309381019390935290917f00000000000000000000000000000000000000000000000000000000000000006001600160a01b031690633af9e66990602401602060405180830381600087803b15801561106c57600080fd5b505af1158015611080573d6000803e3d6000fd5b505050506040513d601f19601f820116820180604052508101906110a49190612097565b604051637345c91760e11b81526001600160a01b037f0000000000000000000000000000000000000000000000000000000000000000811660048301529192506000917f0000000000000000000000000000000000000000000000000000000000000000169063e68b922e906024016101406040518083038186803b15801561112c57600080fd5b505afa158015611140573d6000803e3d6000fd5b505050506040513d601f19601f820116820180604052508101906111649190612153565b60e0810151909150600081841161117c576000611186565b6111868285612207565b905080156112755761119781611672565b80600360008282546111a9919061221e565b925050819055506112757f00000000000000000000000000000000000000000000000000000000000000006001600160a01b0316638471692a6040518163ffffffff1660e01b815260040160206040518083038186803b15801561120c57600080fd5b505afa158015611220573d6000803e3d6000fd5b505050506040513d601f19601f820116820180604052508101906112449190612023565b6001600160a01b037f000000000000000000000000000000000000000000000000000000000000000016908361175f565b61133a7f00000000000000000000000000000000000000000000000000000000000000006001600160a01b0316638471692a6040518163ffffffff1660e01b815260040160206040518083038186803b1580156112d157600080fd5b505afa1580156112e5573d6000803e3d6000fd5b505050506040513d601f19601f820116820180604052508101906113099190612023565b6001600160a01b037f000000000000000000000000000000000000000000000000000000000000000016908761175f565b5050505050565b604051632e1a7d4d60e01b81526004810182905273b31f66aa3c1e785363f0875a1b74e27b85fd66c790632e1a7d4d90602401600060405180830381600087803b15801561138e57600080fd5b505af11580156113a2573d6000803e3d6000fd5b505050507f00000000000000000000000000000000000000000000000000000000000000006001600160a01b0316631249c58b826040518263ffffffff1660e01b81526004016000604051808303818588803b15801561140157600080fd5b505af1158015610ca6573d6000803e3d6000fd5b600061141f6107d5565b90508015610727576040516370a0823160e01b81523060048201526000907f00000000000000000000000000000000000000000000000000000000000000006001600160a01b0316906370a082319060240160206040518083038186803b15801561148957600080fd5b505afa15801561149d573d6000803e3d6000fd5b505050506040513d601f19601f820116820180604052508101906114c19190612097565b90506114cb6119d8565b6040516370a0823160e01b815230600482015260009082906001600160a01b037f000000000000000000000000000000000000000000000000000000000000000016906370a082319060240160206040518083038186803b15801561152f57600080fd5b505afa158015611543573d6000803e3d6000fd5b505050506040513d601f19601f820116820180604052508101906115679190612097565b6115719190612207565b90508060026000828254611585919061221e565b90915550479050801561161a5773b31f66aa3c1e785363f0875a1b74e27b85fd66c76001600160a01b031663d0e30db0826040518263ffffffff1660e01b81526004016000604051808303818588803b1580156115e157600080fd5b505af11580156115f5573d6000803e3d6000fd5b5050505050806006600082825461160c919061221e565b9091555061161a9050611ad4565b610652611cf8565b600080546001600160a01b038381166001600160a01b0319831681178455604051919092169283917f8be0079c531659141344cd1fd0a4f28419497f9722a3daafe3b4186f6b6457e09190a35050565b60405163852a12e360e01b8152600481018290526000907f00000000000000000000000000000000000000000000000000000000000000006001600160a01b03169063852a12e390602401602060405180830381600087803b1580156116d757600080fd5b505af11580156116eb573d6000803e3d6000fd5b505050506040513d601f19601f8201168201806040525081019061170f9190612097565b905080156106045760405162461bcd60e51b815260206004820152601e60248201527f43544f4b454e2072656465656d556e6465726c79696e67206661696c656400006044820152606401610632565b6040516001600160a01b038316602482015260448101829052610df190849063a9059cbb60e01b90606401610f16565b6040516370a0823160e01b81523060048201526000907f00000000000000000000000000000000000000000000000000000000000000006001600160a01b0316906370a0823190602401610827565b6000611833826040518060400160405280602081526020017f5361666545524332303a206c6f772d6c6576656c2063616c6c206661696c6564815250856001600160a01b0316610fe59092919063ffffffff16565b805190915015610df157808060200190518101906118519190612040565b610df15760405162461bcd60e51b815260206004820152602a60248201527f5361666545524332303a204552433230206f7065726174696f6e20646964206e6044820152691bdd081cdd58d8d9595960b21b6064820152608401610632565b6060824710156119115760405162461bcd60e51b815260206004820152602660248201527f416464726573733a20696e73756666696369656e742062616c616e636520666f6044820152651c8818d85b1b60d21b6064820152608401610632565b843b61195f5760405162461bcd60e51b815260206004820152601d60248201527f416464726573733a2063616c6c20746f206e6f6e2d636f6e74726163740000006044820152606401610632565b600080866001600160a01b0316858760405161197b9190612262565b60006040518083038185875af1925050503d80600081146119b8576040519150601f19603f3d011682016040523d82523d6000602084013e6119bd565b606091505b50915091506119cd828286611e84565b979650505050505050565b604051630952c56360e01b8152600060048201523060248201527f00000000000000000000000000000000000000000000000000000000000000006001600160a01b031690630952c56390604401600060405180830381600087803b158015611a4057600080fd5b505af1158015611a54573d6000803e3d6000fd5b5050604051630952c56360e01b8152600160048201523060248201527f00000000000000000000000000000000000000000000000000000000000000006001600160a01b03169250630952c5639150604401600060405180830381600087803b158015611ac057600080fd5b505af1158015610652573d6000803e3d6000fd5b6007546040516370a0823160e01b81523060048201526000919073b31f66aa3c1e785363f0875a1b74e27b85fd66c7906370a082319060240160206040518083038186803b158015611b2557600080fd5b505afa158015611b39573d6000803e3d6000fd5b505050506040513d601f19601f82011682018060405250810190611b5d9190612097565b611b679190612207565b905080156107275760015415611bbc57600061271060015483611b8a919061227e565b611b94919061229d565b90508060076000828254611ba8919061221e565b90915550611bb890508183612207565b9150505b7f00000000000000000000000000000000000000000000000000000000000000006001600160a01b03166338ed173982600060087f00000000000000000000000000000000000000000000000000000000000000006001600160a01b03166302ed05f46040518163ffffffff1660e01b815260040160206040518083038186803b158015611c4957600080fd5b505afa158015611c5d573d6000803e3d6000fd5b505050506040513d601f19601f82011682018060405250810190611c819190612023565b426040518663ffffffff1660e01b8152600401611ca29594939291906122bf565b600060405180830381600087803b158015611cbc57600080fd5b505af1158015611cd0573d6000803e3d6000fd5b505050506040513d6000823e601f3d908101601f191682016040526106049190810190612335565b600480546040516370a0823160e01b815230928101929092526000917f00000000000000000000000000000000000000000000000000000000000000006001600160a01b0316906370a082319060240160206040518083038186803b158015611d6057600080fd5b505afa158015611d74573d6000803e3d6000fd5b505050506040513d601f19601f82011682018060405250810190611d989190612097565b611da29190612207565b905080156107275760015415611df757600061271060015483611dc5919061227e565b611dcf919061229d565b90508060046000828254611de3919061221e565b90915550611df390508183612207565b9150505b7f00000000000000000000000000000000000000000000000000000000000000006001600160a01b03166338ed173982600060057f00000000000000000000000000000000000000000000000000000000000000006001600160a01b03166302ed05f46040518163ffffffff1660e01b815260040160206040518083038186803b158015611c4957600080fd5b60608315611e93575081610ff7565b825115611ea35782518084602001fd5b8160405162461bcd60e51b815260040161063291906123db565b6001600160a01b038116811461072757600080fd5b60008060008060808587031215611ee857600080fd5b8435611ef381611ebd565b93506020850135611f0381611ebd565b93969395505050506040820135916060013590565b600060208284031215611f2a57600080fd5b8135610ff781611ebd565b604080825283519082018190526000906020906060840190828701845b82811015611f775781516001600160a01b031684529284019290840190600101611f52565b5050508381038285015284518082528583019183019060005b81811015611fac57835183529284019291840191600101611f90565b5090979650505050505050565b600060208284031215611fcb57600080fd5b5035919050565b600080600060608486031215611fe757600080fd5b8335611ff281611ebd565b9250602084013561200281611ebd565b929592945050506040919091013590565b805161201e81611ebd565b919050565b60006020828403121561203557600080fd5b8151610ff781611ebd565b60006020828403121561205257600080fd5b81518015158114610ff757600080fd5b6020808252818101527f4f776e61626c653a2063616c6c6572206973206e6f7420746865206f776e6572604082015260600190565b6000602082840312156120a957600080fd5b5051919050565b634e487b7160e01b600052604160045260246000fd5b604051610140810167ffffffffffffffff811182821017156120ea576120ea6120b0565b60405290565b604051601f8201601f1916810167ffffffffffffffff81118282101715612119576121196120b0565b604052919050565b80516fffffffffffffffffffffffffffffffff8116811461201e57600080fd5b805161ffff8116811461201e57600080fd5b6000610140828403121561216657600080fd5b61216e6120c6565b61217783612013565b815261218560208401612013565b602082015260408301516040820152606083015160608201526080830151608082015260a083015160a082015260c083015160c082015260e083015160e08201526101006121d4818501612121565b908201526101206121e6848201612141565b908201529392505050565b634e487b7160e01b600052601160045260246000fd5b600082821015612219576122196121f1565b500390565b60008219821115612231576122316121f1565b500190565b60005b83811015612251578181015183820152602001612239565b838111156106525750506000910152565b60008251612274818460208701612236565b9190910192915050565b6000816000190483118215151615612298576122986121f1565b500290565b6000826122ba57634e487b7160e01b600052601260045260246000fd5b500490565b600060a082018783526020878185015260a0604085015281875480845260c0860191508860005282600020935060005b818110156123145784546001600160a01b0316835260019485019492840192016122ef565b50506001600160a01b03969096166060850152505050608001529392505050565b6000602080838503121561234857600080fd5b825167ffffffffffffffff8082111561236057600080fd5b818501915085601f83011261237457600080fd5b815181811115612386576123866120b0565b8060051b91506123978483016120f0565b81815291830184019184810190888411156123b157600080fd5b938501935b838510156123cf578451825293850193908501906123b6565b98975050505050505050565b60208152600082518060208401526123fa816040850160208701612236565b601f01601f1916919091016040019291505056fea264697066735822122058a3f85bc5935011a85f7ff7b20846acd636906f61fe81956346a8bc3885b41f64736f6c634300080900334f776e61626c653a2063616c6c6572206973206e6f7420746865206f776e6572",
  "linkReferences": {},
  "deployedLinkReferences": {}
}