{
  "_format": "hh-sol-artifact-1",
  "contractName": "BoofiStrategyBase",
  "sourceName": "contracts/BoofiStrategyBase.sol",
  "abi": [
    {
      "inputs": [
        {
          "internalType": "contract IHauntedHouse",
          "name": "_hauntedHouse",
          "type": "address"
        },
        {
          "internalType": "contract IERC20",
          "name": "_depositToken",
          "type": "address"
        }
      ],
      "stateMutability": "nonpayable",
      "type": "constructor"
    },
    {
      "anonymous": false,
      "inputs": [
        {
          "indexed": true,
          "internalType": "address",
          "name": "previousOwner",
          "type": "address"
        },
        {
          "indexed": true,
          "internalType": "address",
          "name": "newOwner",
          "type": "address"
        }
      ],
      "name": "OwnershipTransferred",
      "type": "event"
    },
    {
      "inputs": [
        {
          "internalType": "address",
          "name": "",
          "type": "address"
        },
        {
          "internalType": "address",
          "name": "",
          "type": "address"
        },
        {
          "internalType": "uint256",
          "name": "",
          "type": "uint256"
        },
        {
          "internalType": "uint256",
          "name": "",
          "type": "uint256"
        }
      ],
      "name": "deposit",
      "outputs": [],
      "stateMutability": "nonpayable",
      "type": "function"
    },
    {
      "inputs": [],
      "name": "depositToken",
      "outputs": [
        {
          "internalType": "contract IERC20",
          "name": "",
          "type": "address"
        }
      ],
      "stateMutability": "view",
      "type": "function"
    },
    {
      "inputs": [],
      "name": "hauntedHouse",
      "outputs": [
        {
          "internalType": "contract IHauntedHouse",
          "name": "",
          "type": "address"
        }
      ],
      "stateMutability": "view",
      "type": "function"
    },
    {
      "inputs": [
        {
          "internalType": "contract IERC20",
          "name": "token",
          "type": "address"
        },
        {
          "internalType": "address",
          "name": "to",
          "type": "address"
        },
        {
          "internalType": "uint256",
          "name": "amount",
          "type": "uint256"
        }
      ],
      "name": "inCaseTokensGetStuck",
      "outputs": [],
      "stateMutability": "nonpayable",
      "type": "function"
    },
    {
      "inputs": [
        {
          "internalType": "address",
          "name": "newStrategy",
          "type": "address"
        }
      ],
      "name": "migrate",
      "outputs": [],
      "stateMutability": "nonpayable",
      "type": "function"
    },
    {
      "inputs": [],
      "name": "onMigration",
      "outputs": [],
      "stateMutability": "nonpayable",
      "type": "function"
    },
    {
      "inputs": [],
      "name": "owner",
      "outputs": [
        {
          "internalType": "address",
          "name": "",
          "type": "address"
        }
      ],
      "stateMutability": "view",
      "type": "function"
    },
    {
      "inputs": [
        {
          "internalType": "address",
          "name": "",
          "type": "address"
        }
      ],
      "name": "pendingTokens",
      "outputs": [
        {
          "internalType": "address[]",
          "name": "",
          "type": "address[]"
        },
        {
          "internalType": "uint256[]",
          "name": "",
          "type": "uint256[]"
        }
      ],
      "stateMutability": "view",
      "type": "function"
    },
    {
      "inputs": [],
      "name": "performanceFeeBips",
      "outputs": [
        {
          "internalType": "uint256",
          "name": "",
          "type": "uint256"
        }
      ],
      "stateMutability": "view",
      "type": "function"
    },
    {
      "inputs": [],
      "name": "renounceOwnership",
      "outputs": [],
      "stateMutability": "nonpayable",
      "type": "function"
    },
    {
      "inputs": [
        {
          "internalType": "uint256",
          "name": "newPerformanceFeeBips",
          "type": "uint256"
        }
      ],
      "name": "setPerformanceFeeBips",
      "outputs": [],
      "stateMutability": "nonpayable",
      "type": "function"
    },
    {
      "inputs": [
        {
          "internalType": "address",
          "name": "newOwner",
          "type": "address"
        }
      ],
      "name": "transferOwnership",
      "outputs": [],
      "stateMutability": "nonpayable",
      "type": "function"
    },
    {
      "inputs": [
        {
          "internalType": "address",
          "name": "",
          "type": "address"
        },
        {
          "internalType": "address",
          "name": "to",
          "type": "address"
        },
        {
          "internalType": "uint256",
          "name": "tokenAmount",
          "type": "uint256"
        },
        {
          "internalType": "uint256",
          "name": "",
          "type": "uint256"
        }
      ],
      "name": "withdraw",
      "outputs": [],
      "stateMutability": "nonpayable",
      "type": "function"
    }
  ],
  "bytecode": "0x60c0604052610bb86001553480156200001757600080fd5b5060405162000eab38038062000eab8339810160408190526200003a9162000250565b6200004533620000c9565b6001600160a01b038216158015906200006657506001600160a01b03811615155b620000a35760405162461bcd60e51b81526020600482015260086024820152671e995c9bc818985960c21b60448201526064015b60405180910390fd5b6001600160a01b03808316608052811660a052620000c18262000119565b50506200028f565b600080546001600160a01b038381166001600160a01b0319831681178455604051919092169283917f8be0079c531659141344cd1fd0a4f28419497f9722a3daafe3b4186f6b6457e09190a35050565b6000546001600160a01b03163314620001645760405162461bcd60e51b8152602060048201819052602482015260008051602062000e8b83398151915260448201526064016200009a565b6200017a816200017d60201b620005d91760201c565b50565b6000546001600160a01b03163314620001c85760405162461bcd60e51b8152602060048201819052602482015260008051602062000e8b83398151915260448201526064016200009a565b6001600160a01b0381166200022f5760405162461bcd60e51b815260206004820152602660248201527f4f776e61626c653a206e6577206f776e657220697320746865207a65726f206160448201526564647265737360d01b60648201526084016200009a565b6200017a81620000c9565b6001600160a01b03811681146200017a57600080fd5b600080604083850312156200026457600080fd5b825162000271816200023a565b602084015190925062000284816200023a565b809150509250929050565b60805160a051610bbb620002d06000396000818161019c015281816102f7015281816103d20152818161046301526105400152600060f60152610bbb6000f3fe608060405234801561001057600080fd5b50600436106100cf5760003560e01c8063c031a66f1161008c578063ce5494bb11610066578063ce5494bb146101d1578063dfd0c09d146101e4578063f2fde38b146101fb578063f587268a1461020e57600080fd5b8063c031a66f14610161578063c89039c514610197578063c9101036146101be57600080fd5b806320e8c565146100d45780632d39811f146100e95780633e12212e146100f1578063715018a6146101355780637bfe950c1461013d5780638da5cb5b14610150575b600080fd5b6100e76100e2366004610959565b610221565b005b6100e761025a565b6101187f000000000000000000000000000000000000000000000000000000000000000081565b6040516001600160a01b0390911681526020015b60405180910390f35b6100e7610286565b6100e761014b366004610959565b6102ba565b6000546001600160a01b0316610118565b61018961016f36600461099f565b506040805160008082526020820190815281830190925291565b60405161012c9291906109bc565b6101187f000000000000000000000000000000000000000000000000000000000000000081565b6100e76101cc366004610a40565b61031e565b6100e76101df36600461099f565b610390565b6101ed60015481565b60405190815260200161012c565b6100e761020936600461099f565b61048e565b6100e761021c366004610a59565b6104c4565b6000546001600160a01b031633146102545760405162461bcd60e51b815260040161024b90610a9a565b60405180910390fd5b50505050565b6000546001600160a01b031633146102845760405162461bcd60e51b815260040161024b90610a9a565b565b6000546001600160a01b031633146102b05760405162461bcd60e51b815260040161024b90610a9a565b610284600061066d565b6000546001600160a01b031633146102e45760405162461bcd60e51b815260040161024b90610a9a565b8115610254576102546001600160a01b037f00000000000000000000000000000000000000000000000000000000000000001684846106bd565b6000546001600160a01b031633146103485760405162461bcd60e51b815260040161024b90610a9a565b61271081111561038b5760405162461bcd60e51b815260206004820152600e60248201526d0d2dce0eae840e8dede40d0d2ced60931b604482015260640161024b565b600155565b6000546001600160a01b031633146103ba5760405162461bcd60e51b815260040161024b90610a9a565b6040516370a0823160e01b81523060048201526000907f00000000000000000000000000000000000000000000000000000000000000006001600160a01b0316906370a082319060240160206040518083038186803b15801561041c57600080fd5b505afa158015610430573d6000803e3d6000fd5b505050506040513d601f19601f820116820180604052508101906104549190610acf565b905061048a6001600160a01b037f00000000000000000000000000000000000000000000000000000000000000001683836106bd565b5050565b6000546001600160a01b031633146104b85760405162461bcd60e51b815260040161024b90610a9a565b6104c1816105d9565b50565b6000546001600160a01b031633146104ee5760405162461bcd60e51b815260040161024b90610a9a565b6000811161053e5760405162461bcd60e51b815260206004820152601760248201527f63616e6e6f74207265636f766572203020746f6b656e73000000000000000000604482015260640161024b565b7f00000000000000000000000000000000000000000000000000000000000000006001600160a01b0316836001600160a01b031614156105c05760405162461bcd60e51b815260206004820152601c60248201527f63616e6e6f74207265636f766572206465706f73697420746f6b656e00000000604482015260640161024b565b6105d46001600160a01b03841683836106bd565b505050565b6000546001600160a01b031633146106035760405162461bcd60e51b815260040161024b90610a9a565b6001600160a01b0381166106685760405162461bcd60e51b815260206004820152602660248201527f4f776e61626c653a206e6577206f776e657220697320746865207a65726f206160448201526564647265737360d01b606482015260840161024b565b6104c1815b600080546001600160a01b038381166001600160a01b0319831681178455604051919092169283917f8be0079c531659141344cd1fd0a4f28419497f9722a3daafe3b4186f6b6457e09190a35050565b604080516001600160a01b03848116602483015260448083018590528351808403909101815260649092018352602080830180516001600160e01b031663a9059cbb60e01b17905283518085019094528084527f5361666545524332303a206c6f772d6c6576656c2063616c6c206661696c6564908401526105d49286929160009161074d9185169084906107ca565b8051909150156105d4578080602001905181019061076b9190610ae8565b6105d45760405162461bcd60e51b815260206004820152602a60248201527f5361666545524332303a204552433230206f7065726174696f6e20646964206e6044820152691bdd081cdd58d8d9595960b21b606482015260840161024b565b60606107d984846000856107e3565b90505b9392505050565b6060824710156108445760405162461bcd60e51b815260206004820152602660248201527f416464726573733a20696e73756666696369656e742062616c616e636520666f6044820152651c8818d85b1b60d21b606482015260840161024b565b843b6108925760405162461bcd60e51b815260206004820152601d60248201527f416464726573733a2063616c6c20746f206e6f6e2d636f6e7472616374000000604482015260640161024b565b600080866001600160a01b031685876040516108ae9190610b36565b60006040518083038185875af1925050503d80600081146108eb576040519150601f19603f3d011682016040523d82523d6000602084013e6108f0565b606091505b509150915061090082828661090b565b979650505050505050565b6060831561091a5750816107dc565b82511561092a5782518084602001fd5b8160405162461bcd60e51b815260040161024b9190610b52565b6001600160a01b03811681146104c157600080fd5b6000806000806080858703121561096f57600080fd5b843561097a81610944565b9350602085013561098a81610944565b93969395505050506040820135916060013590565b6000602082840312156109b157600080fd5b81356107dc81610944565b604080825283519082018190526000906020906060840190828701845b828110156109fe5781516001600160a01b0316845292840192908401906001016109d9565b5050508381038285015284518082528583019183019060005b81811015610a3357835183529284019291840191600101610a17565b5090979650505050505050565b600060208284031215610a5257600080fd5b5035919050565b600080600060608486031215610a6e57600080fd5b8335610a7981610944565b92506020840135610a8981610944565b929592945050506040919091013590565b6020808252818101527f4f776e61626c653a2063616c6c6572206973206e6f7420746865206f776e6572604082015260600190565b600060208284031215610ae157600080fd5b5051919050565b600060208284031215610afa57600080fd5b815180151581146107dc57600080fd5b60005b83811015610b25578181015183820152602001610b0d565b838111156102545750506000910152565b60008251610b48818460208701610b0a565b9190910192915050565b6020815260008251806020840152610b71816040850160208701610b0a565b601f01601f1916919091016040019291505056fea26469706673582212202de5788125327f770d6f17df894f39efa7de720dddf899edb76b7682d00aeef064736f6c634300080900334f776e61626c653a2063616c6c6572206973206e6f7420746865206f776e6572",
  "linkReferences": {},
  "deployedLinkReferences": {}
}