{
  "_format": "hh-sol-artifact-1",
  "contractName": "BoofiStrategyForPangolinStaking",
  "sourceName": "contracts/BoofiStrategyForPangolinStaking.sol",
  "abi": [
    {
      "inputs": [
        {
          "internalType": "contract IHauntedHouse",
          "name": "_hauntedHouse",
          "type": "address"
        },
        {
          "internalType": "contract IERC20",
          "name": "_depositToken",
          "type": "address"
        },
        {
          "internalType": "contract IERC20",
          "name": "_rewardToken",
          "type": "address"
        },
        {
          "internalType": "contract IStakingRewards",
          "name": "_STAKING_CONTRACT",
          "type": "address"
        }
      ],
      "stateMutability": "nonpayable",
      "type": "constructor"
    },
    {
      "anonymous": false,
      "inputs": [
        {
          "indexed": true,
          "internalType": "address",
          "name": "previousOwner",
          "type": "address"
        },
        {
          "indexed": true,
          "internalType": "address",
          "name": "newOwner",
          "type": "address"
        }
      ],
      "name": "OwnershipTransferred",
      "type": "event"
    },
    {
      "inputs": [],
      "name": "PNG_ROUTER",
      "outputs": [
        {
          "internalType": "contract IRouter",
          "name": "",
          "type": "address"
        }
      ],
      "stateMutability": "view",
      "type": "function"
    },
    {
      "inputs": [],
      "name": "REWARD_TOKEN",
      "outputs": [
        {
          "internalType": "contract IERC20",
          "name": "",
          "type": "address"
        }
      ],
      "stateMutability": "view",
      "type": "function"
    },
    {
      "inputs": [],
      "name": "ROUTER",
      "outputs": [
        {
          "internalType": "contract IRouter",
          "name": "",
          "type": "address"
        }
      ],
      "stateMutability": "view",
      "type": "function"
    },
    {
      "inputs": [],
      "name": "STAKING_CONTRACT",
      "outputs": [
        {
          "internalType": "contract IStakingRewards",
          "name": "",
          "type": "address"
        }
      ],
      "stateMutability": "view",
      "type": "function"
    },
    {
      "inputs": [],
      "name": "checkReward",
      "outputs": [
        {
          "internalType": "uint256",
          "name": "",
          "type": "uint256"
        }
      ],
      "stateMutability": "view",
      "type": "function"
    },
    {
      "inputs": [
        {
          "internalType": "address",
          "name": "",
          "type": "address"
        },
        {
          "internalType": "address",
          "name": "",
          "type": "address"
        },
        {
          "internalType": "uint256",
          "name": "tokenAmount",
          "type": "uint256"
        },
        {
          "internalType": "uint256",
          "name": "",
          "type": "uint256"
        }
      ],
      "name": "deposit",
      "outputs": [],
      "stateMutability": "nonpayable",
      "type": "function"
    },
    {
      "inputs": [],
      "name": "depositToken",
      "outputs": [
        {
          "internalType": "contract IERC20",
          "name": "",
          "type": "address"
        }
      ],
      "stateMutability": "view",
      "type": "function"
    },
    {
      "inputs": [],
      "name": "hauntedHouse",
      "outputs": [
        {
          "internalType": "contract IHauntedHouse",
          "name": "",
          "type": "address"
        }
      ],
      "stateMutability": "view",
      "type": "function"
    },
    {
      "inputs": [
        {
          "internalType": "contract IERC20",
          "name": "token",
          "type": "address"
        },
        {
          "internalType": "address",
          "name": "to",
          "type": "address"
        },
        {
          "internalType": "uint256",
          "name": "amount",
          "type": "uint256"
        }
      ],
      "name": "inCaseTokensGetStuck",
      "outputs": [],
      "stateMutability": "nonpayable",
      "type": "function"
    },
    {
      "inputs": [
        {
          "internalType": "address",
          "name": "newStrategy",
          "type": "address"
        }
      ],
      "name": "migrate",
      "outputs": [],
      "stateMutability": "nonpayable",
      "type": "function"
    },
    {
      "inputs": [],
      "name": "onMigration",
      "outputs": [],
      "stateMutability": "nonpayable",
      "type": "function"
    },
    {
      "inputs": [],
      "name": "owner",
      "outputs": [
        {
          "internalType": "address",
          "name": "",
          "type": "address"
        }
      ],
      "stateMutability": "view",
      "type": "function"
    },
    {
      "inputs": [
        {
          "internalType": "address",
          "name": "",
          "type": "address"
        }
      ],
      "name": "pendingTokens",
      "outputs": [
        {
          "internalType": "address[]",
          "name": "",
          "type": "address[]"
        },
        {
          "internalType": "uint256[]",
          "name": "",
          "type": "uint256[]"
        }
      ],
      "stateMutability": "view",
      "type": "function"
    },
    {
      "inputs": [],
      "name": "performanceFeeBips",
      "outputs": [
        {
          "internalType": "uint256",
          "name": "",
          "type": "uint256"
        }
      ],
      "stateMutability": "view",
      "type": "function"
    },
    {
      "inputs": [],
      "name": "renounceOwnership",
      "outputs": [],
      "stateMutability": "nonpayable",
      "type": "function"
    },
    {
      "inputs": [
        {
          "internalType": "uint256",
          "name": "newPerformanceFeeBips",
          "type": "uint256"
        }
      ],
      "name": "setPerformanceFeeBips",
      "outputs": [],
      "stateMutability": "nonpayable",
      "type": "function"
    },
    {
      "inputs": [],
      "name": "storedPerformanceFees",
      "outputs": [
        {
          "internalType": "uint256",
          "name": "",
          "type": "uint256"
        }
      ],
      "stateMutability": "view",
      "type": "function"
    },
    {
      "inputs": [],
      "name": "totalHarvested",
      "outputs": [
        {
          "internalType": "uint256",
          "name": "",
          "type": "uint256"
        }
      ],
      "stateMutability": "view",
      "type": "function"
    },
    {
      "inputs": [
        {
          "internalType": "address",
          "name": "newOwner",
          "type": "address"
        }
      ],
      "name": "transferOwnership",
      "outputs": [],
      "stateMutability": "nonpayable",
      "type": "function"
    },
    {
      "inputs": [
        {
          "internalType": "address",
          "name": "",
          "type": "address"
        },
        {
          "internalType": "address",
          "name": "to",
          "type": "address"
        },
        {
          "internalType": "uint256",
          "name": "tokenAmount",
          "type": "uint256"
        },
        {
          "internalType": "uint256",
          "name": "",
          "type": "uint256"
        }
      ],
      "name": "withdraw",
      "outputs": [],
      "stateMutability": "nonpayable",
      "type": "function"
    },
    {
      "inputs": [],
      "name": "withdrawPerformanceFees",
      "outputs": [],
      "stateMutability": "nonpayable",
      "type": "function"
    }
  ],
  "bytecode": "0x610120604052610bb86001553480156200001857600080fd5b50604051620024e0380380620024e08339810160408190526200003b9162000a63565b83838373e54ca86531e17ef3616d22ca28b0d458b6c891068383620000603362000492565b6001600160a01b038216158015906200008157506001600160a01b03811615155b620000be5760405162461bcd60e51b81526020600482015260086024820152671e995c9bc818985960c21b60448201526064015b60405180910390fd5b6001600160a01b03808316608052811660a052620000dc82620004e2565b50506001600160a01b0382811660c081905290821660e081905262000111919060001962000546602090811b6200098217901c565b505050506001600160a01b038116620001585760405162461bcd60e51b81526020600482015260086024820152671e995c9bc818985960c21b6044820152606401620000b5565b6001600160a01b0380821661010052821673b31f66aa3c1e785363f0875a1b74e27b85fd66c714620003175760408051600380825260808201909252906020820160608036833750508151620001b6926004925060200190620009cc565b50816004600081548110620001cf57620001cf62000acb565b9060005260206000200160006101000a8154816001600160a01b0302191690836001600160a01b0316021790555073b31f66aa3c1e785363f0875a1b74e27b85fd66c7600460018154811062000229576200022962000acb565b9060005260206000200160006101000a8154816001600160a01b0302191690836001600160a01b03160217905550836001600160a01b0316637679b9d36040518163ffffffff1660e01b815260040160206040518083038186803b1580156200029157600080fd5b505afa158015620002a6573d6000803e3d6000fd5b505050506040513d601f19601f82011682018060405250810190620002cc919062000ae1565b6004600281548110620002e357620002e362000acb565b9060005260206000200160006101000a8154816001600160a01b0302191690836001600160a01b031602179055506200045e565b60408051600280825260608201835290916020830190803683375050815162000348926004925060200190620009cc565b5073b31f66aa3c1e785363f0875a1b74e27b85fd66c7600460008154811062000375576200037562000acb565b9060005260206000200160006101000a8154816001600160a01b0302191690836001600160a01b03160217905550836001600160a01b0316637679b9d36040518163ffffffff1660e01b815260040160206040518083038186803b158015620003dd57600080fd5b505afa158015620003f2573d6000803e3d6000fd5b505050506040513d601f19601f8201168201806040525081019062000418919062000ae1565b60046001815481106200042f576200042f62000acb565b9060005260206000200160006101000a8154816001600160a01b0302191690836001600160a01b031602179055505b6200048861010051600019856001600160a01b03166200054660201b62000982179092919060201c565b5050505062000bc5565b600080546001600160a01b038381166001600160a01b0319831681178455604051919092169283917f8be0079c531659141344cd1fd0a4f28419497f9722a3daafe3b4186f6b6457e09190a35050565b6000546001600160a01b031633146200052d5760405162461bcd60e51b81526020600482018190526024820152600080516020620024c08339815191526044820152606401620000b5565b6200054381620006a560201b62000ad91760201c565b50565b801580620005d45750604051636eb1769f60e11b81523060048201526001600160a01b03838116602483015284169063dd62ed3e9060440160206040518083038186803b1580156200059757600080fd5b505afa158015620005ac573d6000803e3d6000fd5b505050506040513d601f19601f82011682018060405250810190620005d2919062000b01565b155b620006485760405162461bcd60e51b815260206004820152603660248201527f5361666545524332303a20617070726f76652066726f6d206e6f6e2d7a65726f60448201527f20746f206e6f6e2d7a65726f20616c6c6f77616e6365000000000000000000006064820152608401620000b5565b604080516001600160a01b038416602482015260448082018490528251808303909101815260649091019091526020810180516001600160e01b0390811663095ea7b360e01b17909152620006a09185916200076216565b505050565b6000546001600160a01b03163314620006f05760405162461bcd60e51b81526020600482018190526024820152600080516020620024c08339815191526044820152606401620000b5565b6001600160a01b038116620007575760405162461bcd60e51b815260206004820152602660248201527f4f776e61626c653a206e6577206f776e657220697320746865207a65726f206160448201526564647265737360d01b6064820152608401620000b5565b620005438162000492565b6000620007be826040518060400160405280602081526020017f5361666545524332303a206c6f772d6c6576656c2063616c6c206661696c6564815250856001600160a01b03166200084060201b62000b71179092919060201c565b805190915015620006a05780806020019051810190620007df919062000b1b565b620006a05760405162461bcd60e51b815260206004820152602a60248201527f5361666545524332303a204552433230206f7065726174696f6e20646964206e6044820152691bdd081cdd58d8d9595960b21b6064820152608401620000b5565b60606200085184846000856200085b565b90505b9392505050565b606082471015620008be5760405162461bcd60e51b815260206004820152602660248201527f416464726573733a20696e73756666696369656e742062616c616e636520666f6044820152651c8818d85b1b60d21b6064820152608401620000b5565b843b6200090e5760405162461bcd60e51b815260206004820152601d60248201527f416464726573733a2063616c6c20746f206e6f6e2d636f6e74726163740000006044820152606401620000b5565b600080866001600160a01b031685876040516200092c919062000b72565b60006040518083038185875af1925050503d80600081146200096b576040519150601f19603f3d011682016040523d82523d6000602084013e62000970565b606091505b509092509050620009838282866200098e565b979650505050505050565b606083156200099f57508162000854565b825115620009b05782518084602001fd5b8160405162461bcd60e51b8152600401620000b5919062000b90565b82805482825590600052602060002090810192821562000a24579160200282015b8281111562000a2457825182546001600160a01b0319166001600160a01b03909116178255602090920191600190910190620009ed565b5062000a3292915062000a36565b5090565b5b8082111562000a32576000815560010162000a37565b6001600160a01b03811681146200054357600080fd5b6000806000806080858703121562000a7a57600080fd5b845162000a878162000a4d565b602086015190945062000a9a8162000a4d565b604086015190935062000aad8162000a4d565b606086015190925062000ac08162000a4d565b939692955090935050565b634e487b7160e01b600052603260045260246000fd5b60006020828403121562000af457600080fd5b8151620008548162000a4d565b60006020828403121562000b1457600080fd5b5051919050565b60006020828403121562000b2e57600080fd5b815180151581146200085457600080fd5b60005b8381101562000b5c57818101518382015260200162000b42565b8381111562000b6c576000848401525b50505050565b6000825162000b8681846020870162000b3f565b9190910192915050565b602081526000825180602084015262000bb181604085016020870162000b3f565b601f01601f19169190910160400192915050565b60805160a05160c05160e0516101005161183862000c88600039600081816102ea015281816105f301528181610d4e01528181610e1c01528181610e7501526110f1015260008181610182015261125d015260008181610238015281816103e80152818161077c0152818161081301528181610be401528181610c92015261118201526000818161029d015281816104a4015281816105b50152818161073d01526108ee0152600081816101c10152818161034f015261129101526118386000f3fe608060405234801561001057600080fd5b50600436106101375760003560e01c80638da5cb5b116100b8578063c91010361161007c578063c9101036146102bf578063ce5494bb146102d2578063da19ddfb146102e5578063dfd0c09d1461030c578063f2fde38b14610315578063f587268a1461032857600080fd5b80638da5cb5b1461022257806399248ea714610233578063c031a66f1461025a578063c4b24a4614610290578063c89039c51461029857600080fd5b80633e12212e116100ff5780633e12212e146101bc578063521cd51a146101e3578063715018a6146101fe5780637bfe950c14610206578063864ec9b41461021957600080fd5b806304a0906e1461013c57806320e8c5651461014657806323dc1142146101595780632d39811f1461017557806332fe7b261461017d575b600080fd5b61014461033b565b005b6101446101543660046113e9565b610412565b61016260025481565b6040519081526020015b60405180910390f35b610144610462565b6101a47f000000000000000000000000000000000000000000000000000000000000000081565b6040516001600160a01b03909116815260200161016c565b6101a47f000000000000000000000000000000000000000000000000000000000000000081565b6101a473e54ca86531e17ef3616d22ca28b0d458b6c8910681565b610144610531565b6101446102143660046113e9565b610567565b61016260035481565b6000546001600160a01b03166101a4565b6101a47f000000000000000000000000000000000000000000000000000000000000000081565b61028261026836600461142f565b506040805160008082526020820190815281830190925291565b60405161016c92919061144c565b6101626105dc565b6101a47f000000000000000000000000000000000000000000000000000000000000000081565b6101446102cd3660046114d0565b610679565b6101446102e036600461142f565b6106eb565b6101a47f000000000000000000000000000000000000000000000000000000000000000081565b61016260015481565b61014461032336600461142f565b61083f565b6101446103363660046114e9565b610872565b60006003549050600060038190555061040f7f00000000000000000000000000000000000000000000000000000000000000006001600160a01b0316638471692a6040518163ffffffff1660e01b815260040160206040518083038186803b1580156103a657600080fd5b505afa1580156103ba573d6000803e3d6000fd5b505050506040513d601f19601f820116820180604052508101906103de919061152a565b6001600160a01b037f0000000000000000000000000000000000000000000000000000000000000000169083610b8a565b50565b6000546001600160a01b031633146104455760405162461bcd60e51b815260040161043c90611547565b60405180910390fd5b61044d610bba565b811561045c5761045c82610d38565b50505050565b6000546001600160a01b0316331461048c5760405162461bcd60e51b815260040161043c90611547565b6040516370a0823160e01b81523060048201526000907f00000000000000000000000000000000000000000000000000000000000000006001600160a01b0316906370a082319060240160206040518083038186803b1580156104ee57600080fd5b505afa158015610502573d6000803e3d6000fd5b505050506040513d601f19601f82011682018060405250810190610526919061157c565b905061040f81610d38565b6000546001600160a01b0316331461055b5760405162461bcd60e51b815260040161043c90611547565b6105656000610db6565b565b6000546001600160a01b031633146105915760405162461bcd60e51b815260040161043c90611547565b610599610bba565b811561045c576105a882610e06565b61045c6001600160a01b037f0000000000000000000000000000000000000000000000000000000000000000168484610b8a565b6040516246613160e11b81523060048201526000907f00000000000000000000000000000000000000000000000000000000000000006001600160a01b031690628cc2629060240160206040518083038186803b15801561063c57600080fd5b505afa158015610650573d6000803e3d6000fd5b505050506040513d601f19601f82011682018060405250810190610674919061157c565b905090565b6000546001600160a01b031633146106a35760405162461bcd60e51b815260040161043c90611547565b6127108111156106e65760405162461bcd60e51b815260206004820152600e60248201526d0d2dce0eae840e8dede40d0d2ced60931b604482015260640161043c565b600155565b6000546001600160a01b031633146107155760405162461bcd60e51b815260040161043c90611547565b600061071f610e53565b905080156107645761073081610e06565b6107646001600160a01b037f0000000000000000000000000000000000000000000000000000000000000000168383610b8a565b6040516370a0823160e01b81523060048201526000907f00000000000000000000000000000000000000000000000000000000000000006001600160a01b0316906370a082319060240160206040518083038186803b1580156107c657600080fd5b505afa1580156107da573d6000803e3d6000fd5b505050506040513d601f19601f820116820180604052508101906107fe919061157c565b9050801561083a5761083a6001600160a01b037f0000000000000000000000000000000000000000000000000000000000000000168483610b8a565b505050565b6000546001600160a01b031633146108695760405162461bcd60e51b815260040161043c90611547565b61040f81610ad9565b6000546001600160a01b0316331461089c5760405162461bcd60e51b815260040161043c90611547565b600081116108ec5760405162461bcd60e51b815260206004820152601760248201527f63616e6e6f74207265636f766572203020746f6b656e73000000000000000000604482015260640161043c565b7f00000000000000000000000000000000000000000000000000000000000000006001600160a01b0316836001600160a01b0316141561096e5760405162461bcd60e51b815260206004820152601c60248201527f63616e6e6f74207265636f766572206465706f73697420746f6b656e00000000604482015260640161043c565b61083a6001600160a01b0384168383610b8a565b801580610a0b5750604051636eb1769f60e11b81523060048201526001600160a01b03838116602483015284169063dd62ed3e9060440160206040518083038186803b1580156109d157600080fd5b505afa1580156109e5573d6000803e3d6000fd5b505050506040513d601f19601f82011682018060405250810190610a09919061157c565b155b610a765760405162461bcd60e51b815260206004820152603660248201527f5361666545524332303a20617070726f76652066726f6d206e6f6e2d7a65726f60448201527520746f206e6f6e2d7a65726f20616c6c6f77616e636560501b606482015260840161043c565b6040516001600160a01b03831660248201526044810182905261083a90849063095ea7b360e01b906064015b60408051601f198184030181529190526020810180516001600160e01b03166001600160e01b031990931692909217909152610ef5565b6000546001600160a01b03163314610b035760405162461bcd60e51b815260040161043c90611547565b6001600160a01b038116610b685760405162461bcd60e51b815260206004820152602660248201527f4f776e61626c653a206e6577206f776e657220697320746865207a65726f206160448201526564647265737360d01b606482015260840161043c565b61040f81610db6565b6060610b808484600085610fc7565b90505b9392505050565b6040516001600160a01b03831660248201526044810182905261083a90849063a9059cbb60e01b90606401610aa2565b6000610bc46105dc565b9050801561040f576040516370a0823160e01b81523060048201526000907f00000000000000000000000000000000000000000000000000000000000000006001600160a01b0316906370a082319060240160206040518083038186803b158015610c2e57600080fd5b505afa158015610c42573d6000803e3d6000fd5b505050506040513d601f19601f82011682018060405250810190610c66919061157c565b9050610c706110ef565b6040516370a0823160e01b815230600482015260009082906001600160a01b037f000000000000000000000000000000000000000000000000000000000000000016906370a082319060240160206040518083038186803b158015610cd457600080fd5b505afa158015610ce8573d6000803e3d6000fd5b505050506040513d601f19601f82011682018060405250810190610d0c919061157c565b610d1691906115c1565b90508060026000828254610d2a91906115d8565b9091555061083a905061115e565b60405163534a7e1d60e11b8152600481018290527f00000000000000000000000000000000000000000000000000000000000000006001600160a01b03169063a694fc3a906024015b600060405180830381600087803b158015610d9b57600080fd5b505af1158015610daf573d6000803e3d6000fd5b5050505050565b600080546001600160a01b038381166001600160a01b0319831681178455604051919092169283917f8be0079c531659141344cd1fd0a4f28419497f9722a3daafe3b4186f6b6457e09190a35050565b604051632e1a7d4d60e01b8152600481018290527f00000000000000000000000000000000000000000000000000000000000000006001600160a01b031690632e1a7d4d90602401610d81565b6040516370a0823160e01b815230600482015260009081906001600160a01b037f000000000000000000000000000000000000000000000000000000000000000016906370a082319060240160206040518083038186803b158015610eb757600080fd5b505afa158015610ecb573d6000803e3d6000fd5b505050506040513d601f19601f82011682018060405250810190610eef919061157c565b92915050565b6000610f4a826040518060400160405280602081526020017f5361666545524332303a206c6f772d6c6576656c2063616c6c206661696c6564815250856001600160a01b0316610b719092919063ffffffff16565b80519091501561083a5780806020019051810190610f6891906115f0565b61083a5760405162461bcd60e51b815260206004820152602a60248201527f5361666545524332303a204552433230206f7065726174696f6e20646964206e6044820152691bdd081cdd58d8d9595960b21b606482015260840161043c565b6060824710156110285760405162461bcd60e51b815260206004820152602660248201527f416464726573733a20696e73756666696369656e742062616c616e636520666f6044820152651c8818d85b1b60d21b606482015260840161043c565b843b6110765760405162461bcd60e51b815260206004820152601d60248201527f416464726573733a2063616c6c20746f206e6f6e2d636f6e7472616374000000604482015260640161043c565b600080866001600160a01b03168587604051611092919061163e565b60006040518083038185875af1925050503d80600081146110cf576040519150601f19603f3d011682016040523d82523d6000602084013e6110d4565b606091505b50915091506110e482828661139b565b979650505050505050565b7f00000000000000000000000000000000000000000000000000000000000000006001600160a01b0316633d18b9126040518163ffffffff1660e01b8152600401600060405180830381600087803b15801561114a57600080fd5b505af115801561045c573d6000803e3d6000fd5b6003546040516370a0823160e01b8152306004820152600091906001600160a01b037f000000000000000000000000000000000000000000000000000000000000000016906370a082319060240160206040518083038186803b1580156111c457600080fd5b505afa1580156111d8573d6000803e3d6000fd5b505050506040513d601f19601f820116820180604052508101906111fc919061157c565b61120691906115c1565b9050801561040f576001541561125b57600061271060015483611229919061165a565b6112339190611679565b9050806003600082825461124791906115d8565b90915550611257905081836115c1565b9150505b7f00000000000000000000000000000000000000000000000000000000000000006001600160a01b03166338ed173982600060047f00000000000000000000000000000000000000000000000000000000000000006001600160a01b03166302ed05f46040518163ffffffff1660e01b815260040160206040518083038186803b1580156112e857600080fd5b505afa1580156112fc573d6000803e3d6000fd5b505050506040513d601f19601f82011682018060405250810190611320919061152a565b426040518663ffffffff1660e01b815260040161134195949392919061169b565b600060405180830381600087803b15801561135b57600080fd5b505af115801561136f573d6000803e3d6000fd5b505050506040513d6000823e601f3d908101601f191682016040526113979190810190611711565b5050565b606083156113aa575081610b83565b8251156113ba5782518084602001fd5b8160405162461bcd60e51b815260040161043c91906117cf565b6001600160a01b038116811461040f57600080fd5b600080600080608085870312156113ff57600080fd5b843561140a816113d4565b9350602085013561141a816113d4565b93969395505050506040820135916060013590565b60006020828403121561144157600080fd5b8135610b83816113d4565b604080825283519082018190526000906020906060840190828701845b8281101561148e5781516001600160a01b031684529284019290840190600101611469565b5050508381038285015284518082528583019183019060005b818110156114c3578351835292840192918401916001016114a7565b5090979650505050505050565b6000602082840312156114e257600080fd5b5035919050565b6000806000606084860312156114fe57600080fd5b8335611509816113d4565b92506020840135611519816113d4565b929592945050506040919091013590565b60006020828403121561153c57600080fd5b8151610b83816113d4565b6020808252818101527f4f776e61626c653a2063616c6c6572206973206e6f7420746865206f776e6572604082015260600190565b60006020828403121561158e57600080fd5b5051919050565b634e487b7160e01b600052604160045260246000fd5b634e487b7160e01b600052601160045260246000fd5b6000828210156115d3576115d36115ab565b500390565b600082198211156115eb576115eb6115ab565b500190565b60006020828403121561160257600080fd5b81518015158114610b8357600080fd5b60005b8381101561162d578181015183820152602001611615565b8381111561045c5750506000910152565b60008251611650818460208701611612565b9190910192915050565b6000816000190483118215151615611674576116746115ab565b500290565b60008261169657634e487b7160e01b600052601260045260246000fd5b500490565b600060a082018783526020878185015260a0604085015281875480845260c0860191508860005282600020935060005b818110156116f05784546001600160a01b0316835260019485019492840192016116cb565b50506001600160a01b03969096166060850152505050608001529392505050565b6000602080838503121561172457600080fd5b825167ffffffffffffffff8082111561173c57600080fd5b818501915085601f83011261175057600080fd5b81518181111561176257611762611595565b8060051b604051601f19603f8301168101818110858211171561178757611787611595565b6040529182528482019250838101850191888311156117a557600080fd5b938501935b828510156117c3578451845293850193928501926117aa565b98975050505050505050565b60208152600082518060208401526117ee816040850160208701611612565b601f01601f1916919091016040019291505056fea2646970667358221220bf12845f3d9e730b7aa87be7d84756858d64acde9a316e11a04b5a1dc1a505f764736f6c634300080900334f776e61626c653a2063616c6c6572206973206e6f7420746865206f776e6572",
  "linkReferences": {},
  "deployedLinkReferences": {}
}