{
  "_format": "hh-sol-artifact-1",
  "contractName": "HauntedHouseHarvestHelper",
  "sourceName": "contracts/HauntedHouseHarvestHelper.sol",
  "abi": [
    {
      "inputs": [
        {
          "internalType": "address",
          "name": "userAddress",
          "type": "address"
        },
        {
          "internalType": "address[]",
          "name": "tokenAddresses",
          "type": "address[]"
        }
      ],
      "name": "batchPendingZBOOFI",
      "outputs": [
        {
          "components": [
            {
              "internalType": "address",
              "name": "tokenAddress",
              "type": "address"
            },
            {
              "internalType": "uint256",
              "name": "pendingZBOOFI",
              "type": "uint256"
            }
          ],
          "internalType": "struct HauntedHouseHarvestHelper.Reward[]",
          "name": "",
          "type": "tuple[]"
        }
      ],
      "stateMutability": "view",
      "type": "function"
    },
    {
      "inputs": [],
      "name": "hauntedHouse",
      "outputs": [
        {
          "internalType": "contract IHauntedHouse",
          "name": "",
          "type": "address"
        }
      ],
      "stateMutability": "view",
      "type": "function"
    }
  ],
  "bytecode": "0x608060405234801561001057600080fd5b5061042e806100206000396000f3fe608060405234801561001057600080fd5b50600436106100365760003560e01c80633e12212e1461003b5780637d7e383e14610073575b600080fd5b61005673b178bd23876dd9f8aa60e7fdb0a2209fe2d7a9ab81565b6040516001600160a01b0390911681526020015b60405180910390f35b610086610081366004610270565b610093565b60405161006a9190610348565b60606000825167ffffffffffffffff8111156100b1576100b161025a565b6040519080825280602002602001820160405280156100f657816020015b60408051808201909152600080825260208201528152602001906001900390816100cf5790505b50905060005b835181101561023657604080518082019091526000808252602082015284828151811061012b5761012b6103a0565b60209081029190910101516001600160a01b03168152845173b178bd23876dd9f8aa60e7fdb0a2209fe2d7a9ab906338855df390879085908110610171576101716103a0565b6020026020010151886040518363ffffffff1660e01b81526004016101ac9291906001600160a01b0392831681529116602082015260400190565b60206040518083038186803b1580156101c457600080fd5b505afa1580156101d8573d6000803e3d6000fd5b505050506040513d601f19601f820116820180604052508101906101fc91906103b6565b602082015282518190849084908110610217576102176103a0565b602002602001018190525050808061022e906103cf565b9150506100fc565b509392505050565b80356001600160a01b038116811461025557600080fd5b919050565b634e487b7160e01b600052604160045260246000fd5b6000806040838503121561028357600080fd5b61028c8361023e565b915060208084013567ffffffffffffffff808211156102aa57600080fd5b818601915086601f8301126102be57600080fd5b8135818111156102d0576102d061025a565b8060051b604051601f19603f830116810181811085821117156102f5576102f561025a565b60405291825284820192508381018501918983111561031357600080fd5b938501935b82851015610338576103298561023e565b84529385019392850192610318565b8096505050505050509250929050565b602080825282518282018190526000919060409081850190868401855b8281101561039357815180516001600160a01b03168552860151868501529284019290850190600101610365565b5091979650505050505050565b634e487b7160e01b600052603260045260246000fd5b6000602082840312156103c857600080fd5b5051919050565b60006000198214156103f157634e487b7160e01b600052601160045260246000fd5b506001019056fea26469706673582212205e7d7a331b85e44979d0a6fbe8b7dc41468ab72901c7865e24a0b7d612cfb41664736f6c63430008090033",
  "linkReferences": {},
  "deployedLinkReferences": {}
}