{
  "_format": "hh-sol-artifact-1",
  "contractName": "BOOFI_Distributor",
  "sourceName": "contracts/BOOFI_Distributor.sol",
  "abi": [
    {
      "inputs": [
        {
          "internalType": "address[]",
          "name": "_beneficiaries",
          "type": "address[]"
        },
        {
          "internalType": "uint256[]",
          "name": "_bips",
          "type": "uint256[]"
        },
        {
          "internalType": "address",
          "name": "_BOOFI",
          "type": "address"
        }
      ],
      "stateMutability": "nonpayable",
      "type": "constructor"
    },
    {
      "anonymous": false,
      "inputs": [
        {
          "indexed": true,
          "internalType": "address",
          "name": "previousOwner",
          "type": "address"
        },
        {
          "indexed": true,
          "internalType": "address",
          "name": "newOwner",
          "type": "address"
        }
      ],
      "name": "OwnershipTransferred",
      "type": "event"
    },
    {
      "stateMutability": "nonpayable",
      "type": "fallback"
    },
    {
      "inputs": [],
      "name": "DEFAULT_TOKEN",
      "outputs": [
        {
          "internalType": "address",
          "name": "",
          "type": "address"
        }
      ],
      "stateMutability": "view",
      "type": "function"
    },
    {
      "inputs": [
        {
          "internalType": "uint256",
          "name": "",
          "type": "uint256"
        }
      ],
      "name": "beneficiaries",
      "outputs": [
        {
          "internalType": "address",
          "name": "",
          "type": "address"
        }
      ],
      "stateMutability": "view",
      "type": "function"
    },
    {
      "inputs": [
        {
          "internalType": "uint256",
          "name": "",
          "type": "uint256"
        }
      ],
      "name": "bips",
      "outputs": [
        {
          "internalType": "uint256",
          "name": "",
          "type": "uint256"
        }
      ],
      "stateMutability": "view",
      "type": "function"
    },
    {
      "inputs": [],
      "name": "checkStakingReward",
      "outputs": [
        {
          "internalType": "uint256",
          "name": "",
          "type": "uint256"
        }
      ],
      "stateMutability": "view",
      "type": "function"
    },
    {
      "inputs": [],
      "name": "defaultSplit",
      "outputs": [],
      "stateMutability": "nonpayable",
      "type": "function"
    },
    {
      "inputs": [],
      "name": "distributeBOOFI",
      "outputs": [],
      "stateMutability": "nonpayable",
      "type": "function"
    },
    {
      "inputs": [],
      "name": "minAmountToDistribute",
      "outputs": [
        {
          "internalType": "uint256",
          "name": "",
          "type": "uint256"
        }
      ],
      "stateMutability": "view",
      "type": "function"
    },
    {
      "inputs": [],
      "name": "numberBeneficiaries",
      "outputs": [
        {
          "internalType": "uint256",
          "name": "",
          "type": "uint256"
        }
      ],
      "stateMutability": "view",
      "type": "function"
    },
    {
      "inputs": [],
      "name": "owner",
      "outputs": [
        {
          "internalType": "address",
          "name": "",
          "type": "address"
        }
      ],
      "stateMutability": "view",
      "type": "function"
    },
    {
      "inputs": [
        {
          "internalType": "address",
          "name": "token",
          "type": "address"
        },
        {
          "internalType": "address",
          "name": "to",
          "type": "address"
        }
      ],
      "name": "recoverERC20",
      "outputs": [],
      "stateMutability": "nonpayable",
      "type": "function"
    },
    {
      "inputs": [],
      "name": "renounceOwnership",
      "outputs": [],
      "stateMutability": "nonpayable",
      "type": "function"
    },
    {
      "inputs": [
        {
          "internalType": "address",
          "name": "token",
          "type": "address"
        }
      ],
      "name": "splitERC20",
      "outputs": [],
      "stateMutability": "nonpayable",
      "type": "function"
    },
    {
      "inputs": [
        {
          "internalType": "address",
          "name": "newOwner",
          "type": "address"
        }
      ],
      "name": "transferOwnership",
      "outputs": [],
      "stateMutability": "nonpayable",
      "type": "function"
    },
    {
      "inputs": [
        {
          "internalType": "uint256",
          "name": "_minAmountToDistribute",
          "type": "uint256"
        }
      ],
      "name": "updateMinAmountToDistribute",
      "outputs": [],
      "stateMutability": "nonpayable",
      "type": "function"
    },
    {
      "inputs": [
        {
          "internalType": "address[]",
          "name": "_beneficiaries",
          "type": "address[]"
        },
        {
          "internalType": "uint256[]",
          "name": "_bips",
          "type": "uint256[]"
        }
      ],
      "name": "updateSplit",
      "outputs": [],
      "stateMutability": "nonpayable",
      "type": "function"
    }
  ],
  "bytecode": "0x60a0604052680ad78ebc5ac62000006004553480156200001e57600080fd5b506040516200182738038062001827833981016040819052620000419162000557565b8282828282826001600160a01b0381166200008e5760405162461bcd60e51b81526020600482015260086024820152671e995c9bc818985960c21b60448201526064015b60405180910390fd5b82516002819055825114620000e65760405162461bcd60e51b815260206004820152601560248201527f696e707574206c656e677468206d69736d617463680000000000000000000000604482015260640162000085565b604060025411156200012a5760405162461bcd60e51b815260206004820152600c60248201526b73616e69747920636865636b60a01b604482015260640162000085565b60006002546001600160401b0381111562000149576200014962000458565b60405190808252806020026020018201604052801562000173578160200160208202803683370190505b5080516200018a9160009160209091019062000399565b506002546001600160401b03811115620001a857620001a862000458565b604051908082528060200260200182016040528015620001d2578160200160208202803683370190505b508051620001e99160019160209091019062000403565b5060005b600254811015620002db578481815181106200020d576200020d62000639565b6020026020010151600082815481106200022b576200022b62000639565b9060005260206000200160006101000a8154816001600160a01b0302191690836001600160a01b031602179055508381815181106200026e576200026e62000639565b6020026020010151600182815481106200028c576200028c62000639565b9060005260206000200181905550838181518110620002af57620002af62000639565b602002602001015182620002c4919062000665565b915080620002d28162000680565b915050620001ed565b506127108114620003205760405162461bcd60e51b815260206004820152600e60248201526d77726f6e6720626970732073756d60901b604482015260640162000085565b506001600160a01b0316608052506200033b90503362000347565b5050505050506200069e565b600380546001600160a01b038381166001600160a01b0319831681179093556040519116919082907f8be0079c531659141344cd1fd0a4f28419497f9722a3daafe3b4186f6b6457e090600090a35050565b828054828255906000526020600020908101928215620003f1579160200282015b82811115620003f157825182546001600160a01b0319166001600160a01b03909116178255602090920191600190910190620003ba565b50620003ff92915062000441565b5090565b828054828255906000526020600020908101928215620003f1579160200282015b82811115620003f157825182559160200191906001019062000424565b5b80821115620003ff576000815560010162000442565b634e487b7160e01b600052604160045260246000fd5b604051601f8201601f191681016001600160401b038111828210171562000499576200049962000458565b604052919050565b60006001600160401b03821115620004bd57620004bd62000458565b5060051b60200190565b80516001600160a01b0381168114620004df57600080fd5b919050565b600082601f830112620004f657600080fd5b815160206200050f6200050983620004a1565b6200046e565b82815260059290921b840181019181810190868411156200052f57600080fd5b8286015b848110156200054c578051835291830191830162000533565b509695505050505050565b6000806000606084860312156200056d57600080fd5b83516001600160401b03808211156200058557600080fd5b818601915086601f8301126200059a57600080fd5b81516020620005ad6200050983620004a1565b82815260059290921b8401810191818101908a841115620005cd57600080fd5b948201945b83861015620005f657620005e686620004c7565b82529482019490820190620005d2565b918901519197509093505050808211156200061057600080fd5b506200061f86828701620004e4565b9250506200063060408501620004c7565b90509250925092565b634e487b7160e01b600052603260045260246000fd5b634e487b7160e01b600052601160045260246000fd5b600082198211156200067b576200067b6200064f565b500190565b60006000198214156200069757620006976200064f565b5060010190565b60805161114a620006dd600039600081816101b1015281816102110152818161024f0152818161035e015281816106c301526107b7015261114a6000f3fe608060405234801561001057600080fd5b50600436106100f45760003560e01c80639aff53ee11610097578063ebc9b79a11610066578063ebc9b79a146101ac578063efeb5e58146101d3578063f2fde38b146101e6578063f6f697ab146101f9576100f4565b80639aff53ee146100f4578063bae85b9114610187578063d4e4ca4114610190578063e21be86414610199576100f4565b80637150a10a116100d35780637150a10a14610134578063886f039a146101475780638da5cb5b1461015a578063971a6cb81461017f576100f4565b8062b48696146100fe578063157b922314610106578063715018a61461012c575b6100fc61020c565b005b6100fc610237565b610119610114366004610e34565b61039c565b6040519081526020015b60405180910390f35b6100fc6103bd565b6100fc610142366004610e99565b6103fa565b6100fc610155366004610f21565b610697565b6003546001600160a01b03165b6040516001600160a01b039091168152602001610123565b610119610795565b61011960025481565b61011960045481565b6100fc6101a7366004610e34565b610886565b6101677f000000000000000000000000000000000000000000000000000000000000000081565b6101676101e1366004610e34565b6108b5565b6100fc6101f4366004610f54565b6108df565b6100fc610207366004610f54565b610977565b6102357f0000000000000000000000000000000000000000000000000000000000000000610977565b565b6040516370a0823160e01b81523060048201526000907f00000000000000000000000000000000000000000000000000000000000000006001600160a01b0316906370a082319060240160206040518083038186803b15801561029957600080fd5b505afa1580156102ad573d6000803e3d6000fd5b505050506040513d601f19601f820116820180604052508101906102d19190610f6f565b90506004548111156103995760005b600254811015610397576103856000828154811061030057610300610f88565b9060005260206000200160009054906101000a90046001600160a01b03166127106001848154811061033457610334610f88565b90600052602060002001548561034a9190610fb4565b6103549190610fd3565b6001600160a01b037f0000000000000000000000000000000000000000000000000000000000000000169190610a93565b8061038f81610ff5565b9150506102e0565b505b50565b600181815481106103ac57600080fd5b600091825260209091200154905081565b6003546001600160a01b031633146103f05760405162461bcd60e51b81526004016103e790611010565b60405180910390fd5b6102356000610ae5565b6003546001600160a01b031633146104245760405162461bcd60e51b81526004016103e790611010565b60028390558083146104705760405162461bcd60e51b81526020600482015260156024820152740d2dce0eae840d8cadccee8d040dad2e6dac2e8c6d605b1b60448201526064016103e7565b604060025411156104b25760405162461bcd60e51b815260206004820152600c60248201526b73616e69747920636865636b60a01b60448201526064016103e7565b600060025467ffffffffffffffff8111156104cf576104cf611045565b6040519080825280602002602001820160405280156104f8578160200160208202803683370190505b50805161050d91600091602090910190610d83565b5060025467ffffffffffffffff81111561052957610529611045565b604051908082528060200260200182016040528015610552578160200160208202803683370190505b50805161056791600191602090910190610de4565b5060005b60025481101561064d5785858281811061058757610587610f88565b905060200201602081019061059c9190610f54565b600082815481106105af576105af610f88565b9060005260206000200160006101000a8154816001600160a01b0302191690836001600160a01b031602179055508383828181106105ef576105ef610f88565b905060200201356001828154811061060957610609610f88565b60009182526020909120015583838281811061062757610627610f88565b9050602002013582610639919061105b565b91508061064581610ff5565b91505061056b565b5061271081146106905760405162461bcd60e51b815260206004820152600e60248201526d77726f6e6720626970732073756d60901b60448201526064016103e7565b5050505050565b6003546001600160a01b031633146106c15760405162461bcd60e51b81526004016103e790611010565b7f00000000000000000000000000000000000000000000000000000000000000006001600160a01b0316826001600160a01b0316141561070057600080fd5b6040516370a0823160e01b81523060048201526000906001600160a01b038416906370a082319060240160206040518083038186803b15801561074257600080fd5b505afa158015610756573d6000803e3d6000fd5b505050506040513d601f19601f8201168201806040525081019061077a9190610f6f565b90506107906001600160a01b0384168383610a93565b505050565b6040516370a0823160e01b815230600482015260009081906001600160a01b037f000000000000000000000000000000000000000000000000000000000000000016906370a082319060240160206040518083038186803b1580156107f957600080fd5b505afa15801561080d573d6000803e3d6000fd5b505050506040513d601f19601f820116820180604052508101906108319190610f6f565b905060045481111561087a57612710600160008154811061085457610854610f88565b90600052602060002001548261086a9190610fb4565b6108749190610fd3565b91505090565b600091505090565b5090565b6003546001600160a01b031633146108b05760405162461bcd60e51b81526004016103e790611010565b600455565b600081815481106108c557600080fd5b6000918252602090912001546001600160a01b0316905081565b6003546001600160a01b031633146109095760405162461bcd60e51b81526004016103e790611010565b6001600160a01b03811661096e5760405162461bcd60e51b815260206004820152602660248201527f4f776e61626c653a206e6577206f776e657220697320746865207a65726f206160448201526564647265737360d01b60648201526084016103e7565b61039981610ae5565b6040516370a0823160e01b81523060048201526000906001600160a01b038316906370a082319060240160206040518083038186803b1580156109b957600080fd5b505afa1580156109cd573d6000803e3d6000fd5b505050506040513d601f19601f820116820180604052508101906109f19190610f6f565b905080156103975760005b60025481101561079057610a8160008281548110610a1c57610a1c610f88565b9060005260206000200160009054906101000a90046001600160a01b031661271060018481548110610a5057610a50610f88565b906000526020600020015485610a669190610fb4565b610a709190610fd3565b6001600160a01b0386169190610a93565b80610a8b81610ff5565b9150506109fc565b604080516001600160a01b038416602482015260448082018490528251808303909101815260649091019091526020810180516001600160e01b031663a9059cbb60e01b179052610790908490610b37565b600380546001600160a01b038381166001600160a01b0319831681179093556040519116919082907f8be0079c531659141344cd1fd0a4f28419497f9722a3daafe3b4186f6b6457e090600090a35050565b6000610b8c826040518060400160405280602081526020017f5361666545524332303a206c6f772d6c6576656c2063616c6c206661696c6564815250856001600160a01b0316610c099092919063ffffffff16565b8051909150156107905780806020019051810190610baa9190611073565b6107905760405162461bcd60e51b815260206004820152602a60248201527f5361666545524332303a204552433230206f7065726174696f6e20646964206e6044820152691bdd081cdd58d8d9595960b21b60648201526084016103e7565b6060610c188484600085610c22565b90505b9392505050565b606082471015610c835760405162461bcd60e51b815260206004820152602660248201527f416464726573733a20696e73756666696369656e742062616c616e636520666f6044820152651c8818d85b1b60d21b60648201526084016103e7565b843b610cd15760405162461bcd60e51b815260206004820152601d60248201527f416464726573733a2063616c6c20746f206e6f6e2d636f6e747261637400000060448201526064016103e7565b600080866001600160a01b03168587604051610ced91906110c5565b60006040518083038185875af1925050503d8060008114610d2a576040519150601f19603f3d011682016040523d82523d6000602084013e610d2f565b606091505b5091509150610d3f828286610d4a565b979650505050505050565b60608315610d59575081610c1b565b825115610d695782518084602001fd5b8160405162461bcd60e51b81526004016103e791906110e1565b828054828255906000526020600020908101928215610dd8579160200282015b82811115610dd857825182546001600160a01b0319166001600160a01b03909116178255602090920191600190910190610da3565b50610882929150610e1f565b828054828255906000526020600020908101928215610dd8579160200282015b82811115610dd8578251825591602001919060010190610e04565b5b808211156108825760008155600101610e20565b600060208284031215610e4657600080fd5b5035919050565b60008083601f840112610e5f57600080fd5b50813567ffffffffffffffff811115610e7757600080fd5b6020830191508360208260051b8501011115610e9257600080fd5b9250929050565b60008060008060408587031215610eaf57600080fd5b843567ffffffffffffffff80821115610ec757600080fd5b610ed388838901610e4d565b90965094506020870135915080821115610eec57600080fd5b50610ef987828801610e4d565b95989497509550505050565b80356001600160a01b0381168114610f1c57600080fd5b919050565b60008060408385031215610f3457600080fd5b610f3d83610f05565b9150610f4b60208401610f05565b90509250929050565b600060208284031215610f6657600080fd5b610c1b82610f05565b600060208284031215610f8157600080fd5b5051919050565b634e487b7160e01b600052603260045260246000fd5b634e487b7160e01b600052601160045260246000fd5b6000816000190483118215151615610fce57610fce610f9e565b500290565b600082610ff057634e487b7160e01b600052601260045260246000fd5b500490565b600060001982141561100957611009610f9e565b5060010190565b6020808252818101527f4f776e61626c653a2063616c6c6572206973206e6f7420746865206f776e6572604082015260600190565b634e487b7160e01b600052604160045260246000fd5b6000821982111561106e5761106e610f9e565b500190565b60006020828403121561108557600080fd5b81518015158114610c1b57600080fd5b60005b838110156110b0578181015183820152602001611098565b838111156110bf576000848401525b50505050565b600082516110d7818460208701611095565b9190910192915050565b6020815260008251806020840152611100816040850160208701611095565b601f01601f1916919091016040019291505056fea2646970667358221220102a5064c78b8b9924af8842f0edb19acdfe297adbee9ece4e7626378567269d64736f6c63430008090033",
  "linkReferences": {},
  "deployedLinkReferences": {}
}