{
  "_format": "hh-sol-artifact-1",
  "contractName": "BOOFI",
  "sourceName": "contracts/BOOFI.sol",
  "abi": [
    {
      "inputs": [],
      "stateMutability": "nonpayable",
      "type": "constructor"
    },
    {
      "anonymous": false,
      "inputs": [
        {
          "indexed": true,
          "internalType": "address",
          "name": "owner",
          "type": "address"
        },
        {
          "indexed": true,
          "internalType": "address",
          "name": "spender",
          "type": "address"
        },
        {
          "indexed": false,
          "internalType": "uint256",
          "name": "value",
          "type": "uint256"
        }
      ],
      "name": "Approval",
      "type": "event"
    },
    {
      "anonymous": false,
      "inputs": [
        {
          "indexed": true,
          "internalType": "address",
          "name": "delegator",
          "type": "address"
        },
        {
          "indexed": true,
          "internalType": "address",
          "name": "fromDelegate",
          "type": "address"
        },
        {
          "indexed": true,
          "internalType": "address",
          "name": "toDelegate",
          "type": "address"
        }
      ],
      "name": "DelegateChanged",
      "type": "event"
    },
    {
      "anonymous": false,
      "inputs": [
        {
          "indexed": true,
          "internalType": "address",
          "name": "delegate",
          "type": "address"
        },
        {
          "indexed": false,
          "internalType": "uint256",
          "name": "previousBalance",
          "type": "uint256"
        },
        {
          "indexed": false,
          "internalType": "uint256",
          "name": "newBalance",
          "type": "uint256"
        }
      ],
      "name": "DelegateVotesChanged",
      "type": "event"
    },
    {
      "anonymous": false,
      "inputs": [
        {
          "indexed": true,
          "internalType": "address",
          "name": "previousOwner",
          "type": "address"
        },
        {
          "indexed": true,
          "internalType": "address",
          "name": "newOwner",
          "type": "address"
        }
      ],
      "name": "OwnershipTransferred",
      "type": "event"
    },
    {
      "anonymous": false,
      "inputs": [
        {
          "indexed": true,
          "internalType": "address",
          "name": "from",
          "type": "address"
        },
        {
          "indexed": true,
          "internalType": "address",
          "name": "to",
          "type": "address"
        },
        {
          "indexed": false,
          "internalType": "uint256",
          "name": "value",
          "type": "uint256"
        }
      ],
      "name": "Transfer",
      "type": "event"
    },
    {
      "inputs": [],
      "name": "DELEGATION_TYPEHASH",
      "outputs": [
        {
          "internalType": "bytes32",
          "name": "",
          "type": "bytes32"
        }
      ],
      "stateMutability": "view",
      "type": "function"
    },
    {
      "inputs": [],
      "name": "DOMAIN_SEPARATOR",
      "outputs": [
        {
          "internalType": "bytes32",
          "name": "",
          "type": "bytes32"
        }
      ],
      "stateMutability": "view",
      "type": "function"
    },
    {
      "inputs": [],
      "name": "DOMAIN_TYPEHASH",
      "outputs": [
        {
          "internalType": "bytes32",
          "name": "",
          "type": "bytes32"
        }
      ],
      "stateMutability": "view",
      "type": "function"
    },
    {
      "inputs": [],
      "name": "END_OF_YEAR_ONE",
      "outputs": [
        {
          "internalType": "uint256",
          "name": "",
          "type": "uint256"
        }
      ],
      "stateMutability": "view",
      "type": "function"
    },
    {
      "inputs": [],
      "name": "PERMIT_TYPEHASH",
      "outputs": [
        {
          "internalType": "bytes32",
          "name": "",
          "type": "bytes32"
        }
      ],
      "stateMutability": "view",
      "type": "function"
    },
    {
      "inputs": [],
      "name": "YEAR_ONE_CAP",
      "outputs": [
        {
          "internalType": "uint256",
          "name": "",
          "type": "uint256"
        }
      ],
      "stateMutability": "view",
      "type": "function"
    },
    {
      "inputs": [
        {
          "internalType": "address",
          "name": "owner",
          "type": "address"
        },
        {
          "internalType": "address",
          "name": "spender",
          "type": "address"
        }
      ],
      "name": "allowance",
      "outputs": [
        {
          "internalType": "uint256",
          "name": "",
          "type": "uint256"
        }
      ],
      "stateMutability": "view",
      "type": "function"
    },
    {
      "inputs": [
        {
          "internalType": "address",
          "name": "spender",
          "type": "address"
        },
        {
          "internalType": "uint256",
          "name": "amount",
          "type": "uint256"
        }
      ],
      "name": "approve",
      "outputs": [
        {
          "internalType": "bool",
          "name": "",
          "type": "bool"
        }
      ],
      "stateMutability": "nonpayable",
      "type": "function"
    },
    {
      "inputs": [
        {
          "internalType": "address",
          "name": "account",
          "type": "address"
        }
      ],
      "name": "balanceOf",
      "outputs": [
        {
          "internalType": "uint256",
          "name": "",
          "type": "uint256"
        }
      ],
      "stateMutability": "view",
      "type": "function"
    },
    {
      "inputs": [
        {
          "internalType": "address",
          "name": "",
          "type": "address"
        },
        {
          "internalType": "uint32",
          "name": "",
          "type": "uint32"
        }
      ],
      "name": "checkpoints",
      "outputs": [
        {
          "internalType": "uint32",
          "name": "fromBlock",
          "type": "uint32"
        },
        {
          "internalType": "uint256",
          "name": "votes",
          "type": "uint256"
        }
      ],
      "stateMutability": "view",
      "type": "function"
    },
    {
      "inputs": [],
      "name": "decimals",
      "outputs": [
        {
          "internalType": "uint8",
          "name": "",
          "type": "uint8"
        }
      ],
      "stateMutability": "view",
      "type": "function"
    },
    {
      "inputs": [
        {
          "internalType": "address",
          "name": "spender",
          "type": "address"
        },
        {
          "internalType": "uint256",
          "name": "subtractedValue",
          "type": "uint256"
        }
      ],
      "name": "decreaseAllowance",
      "outputs": [
        {
          "internalType": "bool",
          "name": "",
          "type": "bool"
        }
      ],
      "stateMutability": "nonpayable",
      "type": "function"
    },
    {
      "inputs": [
        {
          "internalType": "address",
          "name": "delegatee",
          "type": "address"
        }
      ],
      "name": "delegate",
      "outputs": [],
      "stateMutability": "nonpayable",
      "type": "function"
    },
    {
      "inputs": [
        {
          "internalType": "address",
          "name": "delegatee",
          "type": "address"
        },
        {
          "internalType": "uint256",
          "name": "nonce",
          "type": "uint256"
        },
        {
          "internalType": "uint256",
          "name": "expiry",
          "type": "uint256"
        },
        {
          "internalType": "uint8",
          "name": "v",
          "type": "uint8"
        },
        {
          "internalType": "bytes32",
          "name": "r",
          "type": "bytes32"
        },
        {
          "internalType": "bytes32",
          "name": "s",
          "type": "bytes32"
        }
      ],
      "name": "delegateBySig",
      "outputs": [],
      "stateMutability": "nonpayable",
      "type": "function"
    },
    {
      "inputs": [
        {
          "internalType": "address",
          "name": "delegator",
          "type": "address"
        }
      ],
      "name": "delegates",
      "outputs": [
        {
          "internalType": "address",
          "name": "",
          "type": "address"
        }
      ],
      "stateMutability": "view",
      "type": "function"
    },
    {
      "inputs": [
        {
          "internalType": "address",
          "name": "account",
          "type": "address"
        }
      ],
      "name": "getCurrentVotes",
      "outputs": [
        {
          "internalType": "uint256",
          "name": "",
          "type": "uint256"
        }
      ],
      "stateMutability": "view",
      "type": "function"
    },
    {
      "inputs": [
        {
          "internalType": "address",
          "name": "delegatee",
          "type": "address"
        },
        {
          "internalType": "uint256",
          "name": "nonce",
          "type": "uint256"
        },
        {
          "internalType": "uint256",
          "name": "expiry",
          "type": "uint256"
        }
      ],
      "name": "getDelegationDigest",
      "outputs": [
        {
          "internalType": "bytes32",
          "name": "",
          "type": "bytes32"
        }
      ],
      "stateMutability": "view",
      "type": "function"
    },
    {
      "inputs": [
        {
          "internalType": "address",
          "name": "owner",
          "type": "address"
        },
        {
          "internalType": "address",
          "name": "spender",
          "type": "address"
        },
        {
          "internalType": "uint256",
          "name": "nonce",
          "type": "uint256"
        },
        {
          "internalType": "uint256",
          "name": "value",
          "type": "uint256"
        },
        {
          "internalType": "uint256",
          "name": "deadline",
          "type": "uint256"
        }
      ],
      "name": "getPermitDigest",
      "outputs": [
        {
          "internalType": "bytes32",
          "name": "",
          "type": "bytes32"
        }
      ],
      "stateMutability": "view",
      "type": "function"
    },
    {
      "inputs": [
        {
          "internalType": "address",
          "name": "account",
          "type": "address"
        },
        {
          "internalType": "uint256",
          "name": "blockNumber",
          "type": "uint256"
        }
      ],
      "name": "getPriorVotes",
      "outputs": [
        {
          "internalType": "uint256",
          "name": "",
          "type": "uint256"
        }
      ],
      "stateMutability": "view",
      "type": "function"
    },
    {
      "inputs": [
        {
          "internalType": "address",
          "name": "spender",
          "type": "address"
        },
        {
          "internalType": "uint256",
          "name": "addedValue",
          "type": "uint256"
        }
      ],
      "name": "increaseAllowance",
      "outputs": [
        {
          "internalType": "bool",
          "name": "",
          "type": "bool"
        }
      ],
      "stateMutability": "nonpayable",
      "type": "function"
    },
    {
      "inputs": [
        {
          "internalType": "address",
          "name": "account",
          "type": "address"
        },
        {
          "internalType": "uint256",
          "name": "amount",
          "type": "uint256"
        }
      ],
      "name": "mint",
      "outputs": [],
      "stateMutability": "nonpayable",
      "type": "function"
    },
    {
      "inputs": [],
      "name": "name",
      "outputs": [
        {
          "internalType": "string",
          "name": "",
          "type": "string"
        }
      ],
      "stateMutability": "view",
      "type": "function"
    },
    {
      "inputs": [
        {
          "internalType": "address",
          "name": "",
          "type": "address"
        }
      ],
      "name": "nonces",
      "outputs": [
        {
          "internalType": "uint256",
          "name": "",
          "type": "uint256"
        }
      ],
      "stateMutability": "view",
      "type": "function"
    },
    {
      "inputs": [
        {
          "internalType": "address",
          "name": "",
          "type": "address"
        }
      ],
      "name": "numCheckpoints",
      "outputs": [
        {
          "internalType": "uint32",
          "name": "",
          "type": "uint32"
        }
      ],
      "stateMutability": "view",
      "type": "function"
    },
    {
      "inputs": [],
      "name": "owner",
      "outputs": [
        {
          "internalType": "address",
          "name": "",
          "type": "address"
        }
      ],
      "stateMutability": "view",
      "type": "function"
    },
    {
      "inputs": [
        {
          "internalType": "address",
          "name": "owner",
          "type": "address"
        },
        {
          "internalType": "address",
          "name": "spender",
          "type": "address"
        },
        {
          "internalType": "uint256",
          "name": "value",
          "type": "uint256"
        },
        {
          "internalType": "uint256",
          "name": "deadline",
          "type": "uint256"
        },
        {
          "internalType": "uint8",
          "name": "v",
          "type": "uint8"
        },
        {
          "internalType": "bytes32",
          "name": "r",
          "type": "bytes32"
        },
        {
          "internalType": "bytes32",
          "name": "s",
          "type": "bytes32"
        }
      ],
      "name": "permit",
      "outputs": [],
      "stateMutability": "nonpayable",
      "type": "function"
    },
    {
      "inputs": [
        {
          "internalType": "address",
          "name": "",
          "type": "address"
        }
      ],
      "name": "permitNonces",
      "outputs": [
        {
          "internalType": "uint256",
          "name": "",
          "type": "uint256"
        }
      ],
      "stateMutability": "view",
      "type": "function"
    },
    {
      "inputs": [],
      "name": "renounceOwnership",
      "outputs": [],
      "stateMutability": "nonpayable",
      "type": "function"
    },
    {
      "inputs": [],
      "name": "symbol",
      "outputs": [
        {
          "internalType": "string",
          "name": "",
          "type": "string"
        }
      ],
      "stateMutability": "view",
      "type": "function"
    },
    {
      "inputs": [],
      "name": "totalSupply",
      "outputs": [
        {
          "internalType": "uint256",
          "name": "",
          "type": "uint256"
        }
      ],
      "stateMutability": "view",
      "type": "function"
    },
    {
      "inputs": [
        {
          "internalType": "address",
          "name": "recipient",
          "type": "address"
        },
        {
          "internalType": "uint256",
          "name": "amount",
          "type": "uint256"
        }
      ],
      "name": "transfer",
      "outputs": [
        {
          "internalType": "bool",
          "name": "",
          "type": "bool"
        }
      ],
      "stateMutability": "nonpayable",
      "type": "function"
    },
    {
      "inputs": [
        {
          "internalType": "address",
          "name": "sender",
          "type": "address"
        },
        {
          "internalType": "address",
          "name": "recipient",
          "type": "address"
        },
        {
          "internalType": "uint256",
          "name": "amount",
          "type": "uint256"
        }
      ],
      "name": "transferFrom",
      "outputs": [
        {
          "internalType": "bool",
          "name": "",
          "type": "bool"
        }
      ],
      "stateMutability": "nonpayable",
      "type": "function"
    },
    {
      "inputs": [
        {
          "internalType": "address",
          "name": "newOwner",
          "type": "address"
        }
      ],
      "name": "transferOwnership",
      "outputs": [],
      "stateMutability": "nonpayable",
      "type": "function"
    }
  ],
  "bytecode": "0x60c06040523480156200001157600080fd5b50604051806040016040528060118152602001702137b7902334b730b731b2902a37b5b2b760791b81525060405180604001604052806005815260200164424f4f464960d81b815250818181818160039080519060200190620000769291906200022b565b5080516200008c9060049060208401906200022b565b506200009a915050620000ce565b60805250620000b59250620000af9150503390565b6200013f565b620000c5426301e13380620002d1565b60a05262000335565b60007f8cad95687ba82c2ce50e74f7b754645e5117c3a5bec8151c0726d5857980a866620000fb62000191565b805160209091012046604080516020810194909452830191909152606082015230608082015260a00160405160208183030381529060405280519060200120905090565b600a80546001600160a01b038381166001600160a01b0319831681179093556040519116919082907f8be0079c531659141344cd1fd0a4f28419497f9722a3daafe3b4186f6b6457e090600090a35050565b606060038054620001a290620002f8565b80601f0160208091040260200160405190810160405280929190818152602001828054620001d090620002f8565b8015620002215780601f10620001f55761010080835404028352916020019162000221565b820191906000526020600020905b8154815290600101906020018083116200020357829003601f168201915b5050505050905090565b8280546200023990620002f8565b90600052602060002090601f0160209004810192826200025d5760008555620002a8565b82601f106200027857805160ff1916838001178555620002a8565b82800160010185558215620002a8579182015b82811115620002a85782518255916020019190600101906200028b565b50620002b6929150620002ba565b5090565b5b80821115620002b65760008155600101620002bb565b60008219821115620002f357634e487b7160e01b600052601160045260246000fd5b500190565b600181811c908216806200030d57607f821691505b602082108114156200032f57634e487b7160e01b600052602260045260246000fd5b50919050565b60805160a051611fd06200037e600039600081816104ca015261085b0152600081816102fb0152818161079e01528181610cca01528181610dfd01526114290152611fd06000f3fe608060405234801561001057600080fd5b50600436106101fb5760003560e01c8063715018a61161011a578063b4b5ea57116100ad578063d505accf1161007c578063d505accf146104ec578063dd62ed3e146104ff578063e7a324dc14610538578063f1127ed81461055f578063f2fde38b146105b657600080fd5b8063b4b5ea571461048d578063b57862d9146104a0578063c3cda520146104b2578063c6857ebd146104c557600080fd5b806395d89b41116100e957806395d89b411461044c578063a457c2d714610454578063a9059cbb14610467578063ac9ebbd01461047a57600080fd5b8063715018a614610400578063782d6fe1146104085780637ecebe001461041b5780638da5cb5b1461043b57600080fd5b8063313ce56711610192578063587cde1e11610161578063587cde1e146103455780635c19a95c146103895780636fcfff451461039c57806370a08231146103d757600080fd5b8063313ce567146102e75780633644e515146102f6578063395093511461031d57806340c10f191461033057600080fd5b806320606b70116101ce57806320606b701461027357806323b872dd1461029a5780632c19e8b5146102ad57806330adf81f146102c057600080fd5b806306fdde0314610200578063095ea7b31461021e57806318160ddd14610241578063191d0ffc14610253575b600080fd5b6102086105c9565b6040516102159190611b3a565b60405180910390f35b61023161022c366004611bab565b61065b565b6040519015158152602001610215565b6002545b604051908152602001610215565b610245610261366004611bd5565b60096020526000908152604090205481565b6102457f8cad95687ba82c2ce50e74f7b754645e5117c3a5bec8151c0726d5857980a86681565b6102316102a8366004611bf0565b610672565b6102456102bb366004611c2c565b610721565b6102457f6e71edae12b1b97f4d1f60370fef10105fa2faae0126114a169c64845d6126c981565b60405160128152602001610215565b6102457f000000000000000000000000000000000000000000000000000000000000000081565b61023161032b366004611bab565b6107f3565b61034361033e366004611bab565b61082f565b005b610371610353366004611bd5565b6001600160a01b039081166000908152600560205260409020541690565b6040516001600160a01b039091168152602001610215565b610343610397366004611bd5565b6108f5565b6103c26103aa366004611bd5565b60076020526000908152604090205463ffffffff1681565b60405163ffffffff9091168152602001610215565b6102456103e5366004611bd5565b6001600160a01b031660009081526020819052604090205490565b610343610902565b610245610416366004611bab565b610938565b610245610429366004611bd5565b60086020526000908152604090205481565b600a546001600160a01b0316610371565b610208610ba8565b610231610462366004611bab565b610bb7565b610231610475366004611bab565b610c50565b610245610488366004611c79565b610c5d565b61024561049b366004611bd5565b610d1d565b6102456a084595161401484a00000081565b6103436104c0366004611cbd565b610d92565b6102457f000000000000000000000000000000000000000000000000000000000000000081565b6103436104fa366004611d15565b611022565b61024561050d366004611d7f565b6001600160a01b03918216600090815260016020908152604080832093909416825291909152205490565b6102457fe48329057bfd03d55e49b547132e39cffd9c1820ad7b9d4c5307691425d15adf81565b61059a61056d366004611db2565b60066020908152600092835260408084209091529082529020805460019091015463ffffffff9091169082565b6040805163ffffffff9093168352602083019190915201610215565b6103436105c4366004611bd5565b611127565b6060600380546105d890611df2565b80601f016020809104026020016040519081016040528092919081815260200182805461060490611df2565b80156106515780601f1061062657610100808354040283529160200191610651565b820191906000526020600020905b81548152906001019060200180831161063457829003601f168201915b5050505050905090565b60006106683384846111bf565b5060015b92915050565b600061067f8484846112e3565b6001600160a01b0384166000908152600160209081526040808320338452909152902054828110156107095760405162461bcd60e51b815260206004820152602860248201527f45524332303a207472616e7366657220616d6f756e74206578636565647320616044820152676c6c6f77616e636560c01b60648201526084015b60405180910390fd5b61071685338584036111bf565b506001949350505050565b604080517f6e71edae12b1b97f4d1f60370fef10105fa2faae0126114a169c64845d6126c960208201526001600160a01b038088169282019290925290851660608201526080810183905260a0810184905260c08101829052600090819060e00160405160208183030381529060405280519060200120905060007f0000000000000000000000000000000000000000000000000000000000000000826040516020016107cf929190611e2d565b60408051808303601f19018152919052805160209091012098975050505050505050565b3360008181526001602090815260408083206001600160a01b0387168452909152812054909161066891859061082a908690611e5e565b6111bf565b600a546001600160a01b031633146108595760405162461bcd60e51b815260040161070090611e76565b7f00000000000000000000000000000000000000000000000000000000000000004210156108e7576a084595161401484a0000008161089760025490565b6108a19190611e5e565b11156108e75760405162461bcd60e51b815260206004820152601560248201527406d696e7420776f756c64206578636565642063617605c1b6044820152606401610700565b6108f18282611325565b5050565b6108ff3382611354565b50565b600a546001600160a01b0316331461092c5760405162461bcd60e51b815260040161070090611e76565b61093660006113d3565b565b60004382106109a45760405162461bcd60e51b815260206004820152603260248201527f455243323057697468566f74696e673a3a6765745072696f72566f7465733a206044820152711b9bdd081e595d0819195d195c9b5a5b995960721b6064820152608401610700565b6001600160a01b03831660009081526007602052604090205463ffffffff16806109d257600091505061066c565b6001600160a01b038416600090815260066020526040812084916109f7600185611eab565b63ffffffff90811682526020820192909252604001600020541611610a60576001600160a01b038416600090815260066020526040812090610a3a600184611eab565b63ffffffff1663ffffffff1681526020019081526020016000206001015491505061066c565b6001600160a01b038416600090815260066020908152604080832083805290915290205463ffffffff16831015610a9b57600091505061066c565b600080610aa9600184611eab565b90505b8163ffffffff168163ffffffff161115610b715760006002610ace8484611eab565b610ad89190611ed0565b610ae29083611eab565b6001600160a01b038816600090815260066020908152604080832063ffffffff8086168552908352928190208151808301909252805490931680825260019093015491810191909152919250871415610b455760200151945061066c9350505050565b805163ffffffff16871115610b5c57819350610b6a565b610b67600183611eab565b92505b5050610aac565b506001600160a01b038516600090815260066020908152604080832063ffffffff9094168352929052206001015491505092915050565b6060600480546105d890611df2565b3360009081526001602090815260408083206001600160a01b038616845290915281205482811015610c395760405162461bcd60e51b815260206004820152602560248201527f45524332303a2064656372656173656420616c6c6f77616e63652062656c6f77604482015264207a65726f60d81b6064820152608401610700565b610c4633858584036111bf565b5060019392505050565b60006106683384846112e3565b604080517fe48329057bfd03d55e49b547132e39cffd9c1820ad7b9d4c5307691425d15adf60208201526001600160a01b038516918101919091526060810183905260808101829052600090819060a00160405160208183030381529060405280519060200120905060007f000000000000000000000000000000000000000000000000000000000000000082604051602001610cfb929190611e2d565b60408051808303601f1901815291905280516020909101209695505050505050565b6001600160a01b03811660009081526007602052604081205463ffffffff1680610d48576000610d8b565b6001600160a01b038316600090815260066020526040812090610d6c600184611eab565b63ffffffff1663ffffffff168152602001908152602001600020600101545b9392505050565b604080517fe48329057bfd03d55e49b547132e39cffd9c1820ad7b9d4c5307691425d15adf60208201526001600160a01b03881691810191909152606081018690526080810185905260009060a00160405160208183030381529060405280519060200120905060007f000000000000000000000000000000000000000000000000000000000000000082604051602001610e2e929190611e2d565b60408051601f198184030181528282528051602091820120600080855291840180845281905260ff89169284019290925260608301879052608083018690529092509060019060a0016020604051602081039080840390855afa158015610e99573d6000803e3d6000fd5b5050604051601f1901519150506001600160a01b038116610f165760405162461bcd60e51b815260206004820152603160248201527f455243323057697468566f74696e673a3a64656c656761746542795369673a20604482015270696e76616c6964207369676e617475726560781b6064820152608401610700565b6001600160a01b0381166000908152600860205260408120805491610f3a83611f01565b919050558814610fa25760405162461bcd60e51b815260206004820152602d60248201527f455243323057697468566f74696e673a3a64656c656761746542795369673a2060448201526c696e76616c6964206e6f6e636560981b6064820152608401610700565b8642111561100c5760405162461bcd60e51b815260206004820152603160248201527f455243323057697468566f74696e673a3a64656c656761746542795369673a206044820152701cda59db985d1d5c9948195e1c1a5c9959607a1b6064820152608401610700565b611016818a611354565b5050505b505050505050565b428410156110645760405162461bcd60e51b815260206004820152600f60248201526e1c195c9b5a5d0e8e995e1c1a5c9959608a1b6044820152606401610700565b6001600160a01b038716600090815260096020526040812080547f6e71edae12b1b97f4d1f60370fef10105fa2faae0126114a169c64845d6126c9918a918a918a9190866110b183611f01565b909155506040805160208101969096526001600160a01b0394851690860152929091166060840152608083015260a082015260c0810186905260e0016040516020818303038152906040528051906020012090506111128882868686611425565b61111d8888886111bf565b5050505050505050565b600a546001600160a01b031633146111515760405162461bcd60e51b815260040161070090611e76565b6001600160a01b0381166111b65760405162461bcd60e51b815260206004820152602660248201527f4f776e61626c653a206e6577206f776e657220697320746865207a65726f206160448201526564647265737360d01b6064820152608401610700565b6108ff816113d3565b6001600160a01b0383166112215760405162461bcd60e51b8152602060048201526024808201527f45524332303a20617070726f76652066726f6d20746865207a65726f206164646044820152637265737360e01b6064820152608401610700565b6001600160a01b0382166112825760405162461bcd60e51b815260206004820152602260248201527f45524332303a20617070726f766520746f20746865207a65726f206164647265604482015261737360f01b6064820152608401610700565b6001600160a01b0383811660008181526001602090815260408083209487168084529482529182902085905590518481527f8c5be1e5ebec7d5bd14f71427d1e84f3dd0314c0f7b2291e5b200ac8c7c3b925910160405180910390a3505050565b6112ee83838361155c565b6001600160a01b038084166000908152600560205260408082205485841683529120546113209291821691168361172a565b505050565b61132f8282611889565b6001600160a01b038083166000908152600560205260408120546108f192168361172a565b6001600160a01b038281166000818152600560208181526040808420805485845282862054949093528787166001600160a01b03198416811790915590519190951694919391928592917f3134e8a2e6d97e929a7e54011ea5485d7d196dd5f0ba4d4ef95803e8e3fc257f9190a46113cd82848361172a565b50505050565b600a80546001600160a01b038381166001600160a01b0319831681179093556040519116919082907f8be0079c531659141344cd1fd0a4f28419497f9722a3daafe3b4186f6b6457e090600090a35050565b60007f00000000000000000000000000000000000000000000000000000000000000008560405160200161145a929190611e2d565b60408051601f198184030181528282528051602091820120600080855291840180845281905260ff88169284019290925260608301869052608083018590529092509060019060a0016020604051602081039080840390855afa1580156114c5573d6000803e3d6000fd5b5050604051601f1901519150506001600160a01b038116158015906114fb5750866001600160a01b0316816001600160a01b0316145b6115535760405162461bcd60e51b8152602060048201526024808201527f417263683a3a76616c69646174655369673a20696e76616c6964207369676e616044820152637475726560e01b6064820152608401610700565b50505050505050565b6001600160a01b0383166115c05760405162461bcd60e51b815260206004820152602560248201527f45524332303a207472616e736665722066726f6d20746865207a65726f206164604482015264647265737360d81b6064820152608401610700565b6001600160a01b0382166116225760405162461bcd60e51b815260206004820152602360248201527f45524332303a207472616e7366657220746f20746865207a65726f206164647260448201526265737360e81b6064820152608401610700565b6001600160a01b0383166000908152602081905260409020548181101561169a5760405162461bcd60e51b815260206004820152602660248201527f45524332303a207472616e7366657220616d6f756e7420657863656564732062604482015265616c616e636560d01b6064820152608401610700565b6001600160a01b038085166000908152602081905260408082208585039055918516815290812080548492906116d1908490611e5e565b92505081905550826001600160a01b0316846001600160a01b03167fddf252ad1be2c89b69c2b068fc378daa952ba7f163c4a11628f55a4df523b3ef8460405161171d91815260200190565b60405180910390a36113cd565b816001600160a01b0316836001600160a01b03161415801561174c5750600081115b15611320576001600160a01b038316156117ef576001600160a01b03831660009081526007602052604081205463ffffffff16908161178c5760006117cf565b6001600160a01b0385166000908152600660205260408120906117b0600185611eab565b63ffffffff1663ffffffff168152602001908152602001600020600101545b905060006117dd8483611f1c565b90506117eb86848484611968565b5050505b6001600160a01b03821615611320576001600160a01b03821660009081526007602052604081205463ffffffff16908161182a57600061186d565b6001600160a01b03841660009081526006602052604081209061184e600185611eab565b63ffffffff1663ffffffff168152602001908152602001600020600101545b9050600061187b8483611e5e565b905061101a85848484611968565b6001600160a01b0382166118df5760405162461bcd60e51b815260206004820152601f60248201527f45524332303a206d696e7420746f20746865207a65726f2061646472657373006044820152606401610700565b80600260008282546118f19190611e5e565b90915550506001600160a01b0382166000908152602081905260408120805483929061191e908490611e5e565b90915550506040518181526001600160a01b038316906000907fddf252ad1be2c89b69c2b068fc378daa952ba7f163c4a11628f55a4df523b3ef9060200160405180910390a35050565b600061198c436040518060600160405280603f8152602001611f5c603f9139611b0a565b905060008463ffffffff161180156119e657506001600160a01b038516600090815260066020526040812063ffffffff8316916119ca600188611eab565b63ffffffff908116825260208201929092526040016000205416145b15611a2f576001600160a01b03851660009081526006602052604081208391611a10600188611eab565b63ffffffff168152602081019190915260400160002060010155611abf565b60408051808201825263ffffffff838116825260208083018681526001600160a01b038a166000908152600683528581208a851682529092529390209151825463ffffffff191691161781559051600191820155611a8e908590611f33565b6001600160a01b0386166000908152600760205260409020805463ffffffff191663ffffffff929092169190911790555b60408051848152602081018490526001600160a01b038716917fdec2bacdd2f05b59de34da9b523dff8be42e5e38e818c82fdb0bae774387a724910160405180910390a25050505050565b6000816401000000008410611b325760405162461bcd60e51b81526004016107009190611b3a565b509192915050565b600060208083528351808285015260005b81811015611b6757858101830151858201604001528201611b4b565b81811115611b79576000604083870101525b50601f01601f1916929092016040019392505050565b80356001600160a01b0381168114611ba657600080fd5b919050565b60008060408385031215611bbe57600080fd5b611bc783611b8f565b946020939093013593505050565b600060208284031215611be757600080fd5b610d8b82611b8f565b600080600060608486031215611c0557600080fd5b611c0e84611b8f565b9250611c1c60208501611b8f565b9150604084013590509250925092565b600080600080600060a08688031215611c4457600080fd5b611c4d86611b8f565b9450611c5b60208701611b8f565b94979496505050506040830135926060810135926080909101359150565b600080600060608486031215611c8e57600080fd5b611c9784611b8f565b95602085013595506040909401359392505050565b803560ff81168114611ba657600080fd5b60008060008060008060c08789031215611cd657600080fd5b611cdf87611b8f565b95506020870135945060408701359350611cfb60608801611cac565b92506080870135915060a087013590509295509295509295565b600080600080600080600060e0888a031215611d3057600080fd5b611d3988611b8f565b9650611d4760208901611b8f565b95506040880135945060608801359350611d6360808901611cac565b925060a0880135915060c0880135905092959891949750929550565b60008060408385031215611d9257600080fd5b611d9b83611b8f565b9150611da960208401611b8f565b90509250929050565b60008060408385031215611dc557600080fd5b611dce83611b8f565b9150602083013563ffffffff81168114611de757600080fd5b809150509250929050565b600181811c90821680611e0657607f821691505b60208210811415611e2757634e487b7160e01b600052602260045260246000fd5b50919050565b61190160f01b81526002810192909252602282015260420190565b634e487b7160e01b600052601160045260246000fd5b60008219821115611e7157611e71611e48565b500190565b6020808252818101527f4f776e61626c653a2063616c6c6572206973206e6f7420746865206f776e6572604082015260600190565b600063ffffffff83811690831681811015611ec857611ec8611e48565b039392505050565b600063ffffffff80841680611ef557634e487b7160e01b600052601260045260246000fd5b92169190910492915050565b6000600019821415611f1557611f15611e48565b5060010190565b600082821015611f2e57611f2e611e48565b500390565b600063ffffffff808316818516808303821115611f5257611f52611e48565b0194935050505056fe455243323057697468566f74696e673a3a5f7772697465436865636b706f696e743a20626c6f636b206e756d62657220657863656564732033322062697473a2646970667358221220b2c59ead9eb57c9c79b4d4ec681007253c0625f001443b98b27d7801d4ac12bc64736f6c63430008090033",
  "linkReferences": {},
  "deployedLinkReferences": {}
}