{
  "contracts/TWAP_Oracle.sol": {
    "TWAP_Oracle": {
      "abi": [
        {
          "inputs": [],
          "stateMutability": "nonpayable",
          "type": "constructor"
        },
        {
          "anonymous": false,
          "inputs": [
            {
              "indexed": true,
              "internalType": "address",
              "name": "previousOwner",
              "type": "address"
            },
            {
              "indexed": true,
              "internalType": "address",
              "name": "newOwner",
              "type": "address"
            }
          ],
          "name": "OwnershipTransferred",
          "type": "event"
        },
        {
          "inputs": [],
          "name": "DEFAULT_FACTORY",
          "outputs": [
            {
              "internalType": "address",
              "name": "",
              "type": "address"
            }
          ],
          "stateMutability": "view",
          "type": "function"
        },
        {
          "inputs": [],
          "name": "PERIOD",
          "outputs": [
            {
              "internalType": "uint256",
              "name": "",
              "type": "uint256"
            }
          ],
          "stateMutability": "view",
          "type": "function"
        },
        {
          "inputs": [
            {
              "internalType": "address",
              "name": "tokenA",
              "type": "address"
            },
            {
              "internalType": "address",
              "name": "tokenB",
              "type": "address"
            },
            {
              "internalType": "address",
              "name": "tokenIn",
              "type": "address"
            },
            {
              "internalType": "uint256",
              "name": "amountIn",
              "type": "uint256"
            }
          ],
          "name": "consult",
          "outputs": [
            {
              "internalType": "uint256",
              "name": "amountOut",
              "type": "uint256"
            }
          ],
          "stateMutability": "view",
          "type": "function"
        },
        {
          "inputs": [
            {
              "internalType": "address",
              "name": "tokenA",
              "type": "address"
            },
            {
              "internalType": "address",
              "name": "tokenB",
              "type": "address"
            },
            {
              "internalType": "address",
              "name": "tokenIn",
              "type": "address"
            },
            {
              "internalType": "uint256",
              "name": "amountIn",
              "type": "uint256"
            }
          ],
          "name": "consultWithUpdate",
          "outputs": [
            {
              "internalType": "uint256",
              "name": "amountOut",
              "type": "uint256"
            }
          ],
          "stateMutability": "nonpayable",
          "type": "function"
        },
        {
          "inputs": [
            {
              "internalType": "address",
              "name": "",
              "type": "address"
            },
            {
              "internalType": "address",
              "name": "",
              "type": "address"
            }
          ],
          "name": "factories",
          "outputs": [
            {
              "internalType": "address",
              "name": "",
              "type": "address"
            }
          ],
          "stateMutability": "view",
          "type": "function"
        },
        {
          "inputs": [
            {
              "internalType": "address",
              "name": "",
              "type": "address"
            }
          ],
          "name": "factoryInitCodes",
          "outputs": [
            {
              "internalType": "bytes",
              "name": "",
              "type": "bytes"
            }
          ],
          "stateMutability": "view",
          "type": "function"
        },
        {
          "inputs": [
            {
              "internalType": "address[]",
              "name": "tokenAs",
              "type": "address[]"
            },
            {
              "internalType": "address[]",
              "name": "tokenBs",
              "type": "address[]"
            },
            {
              "internalType": "address",
              "name": "factory",
              "type": "address"
            }
          ],
          "name": "massSetFactory",
          "outputs": [],
          "stateMutability": "nonpayable",
          "type": "function"
        },
        {
          "inputs": [
            {
              "internalType": "address",
              "name": "",
              "type": "address"
            }
          ],
          "name": "observations",
          "outputs": [
            {
              "internalType": "uint256",
              "name": "timestamp",
              "type": "uint256"
            },
            {
              "internalType": "uint256",
              "name": "price0CumulativeLast",
              "type": "uint256"
            },
            {
              "internalType": "uint256",
              "name": "price1CumulativeLast",
              "type": "uint256"
            },
            {
              "components": [
                {
                  "internalType": "uint224",
                  "name": "_x",
                  "type": "uint224"
                }
              ],
              "internalType": "struct FixedPoint.uq112x112",
              "name": "price0Average",
              "type": "tuple"
            },
            {
              "components": [
                {
                  "internalType": "uint224",
                  "name": "_x",
                  "type": "uint224"
                }
              ],
              "internalType": "struct FixedPoint.uq112x112",
              "name": "price1Average",
              "type": "tuple"
            }
          ],
          "stateMutability": "view",
          "type": "function"
        },
        {
          "inputs": [],
          "name": "owner",
          "outputs": [
            {
              "internalType": "address",
              "name": "",
              "type": "address"
            }
          ],
          "stateMutability": "view",
          "type": "function"
        },
        {
          "inputs": [
            {
              "internalType": "address",
              "name": "factory",
              "type": "address"
            },
            {
              "internalType": "address",
              "name": "tokenA",
              "type": "address"
            },
            {
              "internalType": "address",
              "name": "tokenB",
              "type": "address"
            }
          ],
          "name": "pairFor",
          "outputs": [
            {
              "internalType": "address",
              "name": "pair",
              "type": "address"
            }
          ],
          "stateMutability": "view",
          "type": "function"
        },
        {
          "inputs": [],
          "name": "renounceOwnership",
          "outputs": [],
          "stateMutability": "nonpayable",
          "type": "function"
        },
        {
          "inputs": [
            {
              "internalType": "address",
              "name": "tokenA",
              "type": "address"
            },
            {
              "internalType": "address",
              "name": "tokenB",
              "type": "address"
            },
            {
              "internalType": "address",
              "name": "factory",
              "type": "address"
            }
          ],
          "name": "setFactory",
          "outputs": [],
          "stateMutability": "nonpayable",
          "type": "function"
        },
        {
          "inputs": [
            {
              "internalType": "address",
              "name": "factory",
              "type": "address"
            },
            {
              "internalType": "bytes",
              "name": "initCode",
              "type": "bytes"
            }
          ],
          "name": "setFactoryInitCode",
          "outputs": [],
          "stateMutability": "nonpayable",
          "type": "function"
        },
        {
          "inputs": [
            {
              "internalType": "address",
              "name": "newOwner",
              "type": "address"
            }
          ],
          "name": "transferOwnership",
          "outputs": [],
          "stateMutability": "nonpayable",
          "type": "function"
        },
        {
          "inputs": [
            {
              "internalType": "address",
              "name": "tokenA",
              "type": "address"
            },
            {
              "internalType": "address",
              "name": "tokenB",
              "type": "address"
            }
          ],
          "name": "update",
          "outputs": [],
          "stateMutability": "nonpayable",
          "type": "function"
        }
      ],
      "evm": {
        "bytecode": {
          "linkReferences": {},
          "object": "60806040523480156200001157600080fd5b50600080546001600160a01b0319163390811782556040519091907f8be0079c531659141344cd1fd0a4f28419497f9722a3daafe3b4186f6b6457e0908290a3620000ac73efa94de7a4656d787667c749f7e1223d71e9fd886040518060400160405280602081526020017f40231f6b438bce0797c9ada29b718a87ea0a5cea3fe9a771abdd76bd41a3e5458152506200016860201b60201c565b62000107739ad6c38be94206ca50bb0d90783181662f0cfa106040518060400160405280602081526020017f0bbca9af0511ad1a1da383135cf3a8d2ac620e549ef9f6ae3a4c33c2fed0af918152506200016860201b60201c565b6200016273a52abe4676dbfd04df42ef7755f01a3c41f28d276040518060400160405280602081526020017f47cc4f3a5e7a237c464e09c6758ac645084f198b8f64eedc923317ac4481a10c8152506200016860201b60201c565b620002c5565b336200017c6001600160e01b03620001de16565b6001600160a01b031614620001ae5760405162461bcd60e51b8152600401620001a59062000290565b60405180910390fd5b6001600160a01b03821660009081526003602090815260409091208251620001d992840190620001ee565b505050565b6000546001600160a01b03165b90565b828054600181600116156101000203166002900490600052602060002090601f016020900481019282601f106200023157805160ff191683800117855562000261565b8280016001018555821562000261579182015b828111156200026157825182559160200191906001019062000244565b506200026f92915062000273565b5090565b620001eb91905b808211156200026f57600081556001016200027a565b6020808252818101527f4f776e61626c653a2063616c6c6572206973206e6f7420746865206f776e6572604082015260600190565b6115c180620002d56000396000f3fe608060405234801561001057600080fd5b50600436106100f55760003560e01c80639653020e11610097578063b4d1d79511610066578063b4d1d795146101ed578063c640752d146101f5578063d92b006414610208578063f2fde38b1461021b576100f5565b80639653020e146101a157806396e6c337146101b4578063a94fabc5146101c7578063acb0211b146101da576100f5565b80636d91c0e2116100d35780636d91c0e214610158578063715018a61461016b5780638a04ff3c146101755780638da5cb5b14610199576100f5565b806329f468fc146100fa57806352cefcd0146101235780635ad8960d14610143575b600080fd5b61010d610108366004611030565b61022e565b60405161011a919061150b565b60405180910390f35b610136610131366004610f6f565b610449565b60405161011a91906112ef565b61014b6104e4565b60405161011a91906112db565b61014b610166366004610fe6565b6104fc565b610173610581565b005b610188610183366004610f6f565b6105fa565b60405161011a959493929190611514565b61014b610649565b61014b6101af366004610fae565b610659565b61010d6101c2366004611030565b61067f565b6101736101d5366004610fe6565b6106a0565b6101736101e8366004611080565b610773565b61010d6107d0565b610173610203366004610fae565b6107d7565b610173610216366004611130565b610949565b610173610229366004610f6f565b6109fd565b60008061023b8686610aad565b9050600061024a8288886104fc565b90506000816001600160a01b0316630dfe16816040518163ffffffff1660e01b815260040160206040518083038186803b15801561028757600080fd5b505afa15801561029b573d6000803e3d6000fd5b505050506040513d601f19601f820116820180604052508101906102bf9190610f92565b90506000826001600160a01b031663d21220a76040518163ffffffff1660e01b815260040160206040518083038186803b1580156102fc57600080fd5b505afa158015610310573d6000803e3d6000fd5b505050506040513d601f19601f820116820180604052508101906103349190610f92565b9050816001600160a01b0316876001600160a01b031614156103ae576001600160a01b03831660009081526001602090815260409182902082519182019092526003909101546001600160e01b0316815261039e90610399908863ffffffff610b2616565b610b85565b6001600160901b0316945061043d565b806001600160a01b0316876001600160a01b0316146103e85760405162461bcd60e51b81526004016103df906113b7565b60405180910390fd5b6001600160a01b03831660009081526001602090815260409182902082519182019092526003909101546001600160e01b0316815261043190610399908863ffffffff610b2616565b6001600160901b031694505b50505050949350505050565b60036020908152600091825260409182902080548351601f6002600019610100600186161502019093169290920491820184900484028101840190945280845290918301828280156104dc5780601f106104b1576101008083540402835291602001916104dc565b820191906000526020600020905b8154815290600101906020018083116104bf57829003601f168201915b505050505081565b73efa94de7a4656d787667c749f7e1223d71e9fd8881565b600080600061050b8585610b8c565b91509150858282604051602001610523929190611212565b60408051601f1981840301815282825280516020918201206001600160a01b038b166000908152600383529290922061055f9493909101611239565b60408051601f1981840301815291905280516020909101209695505050505050565b3361058a610649565b6001600160a01b0316146105b05760405162461bcd60e51b81526004016103df90611433565b600080546040516001600160a01b03909116907f8be0079c531659141344cd1fd0a4f28419497f9722a3daafe3b4186f6b6457e0908390a3600080546001600160a01b0319169055565b60016020818152600092835260409283902080549281015460028201548551808501875260038401546001600160e01b0390811682528751958601909752600490930154909516835292939185565b6000546001600160a01b03165b90565b60026020908152600092835260408084209091529082529020546001600160a01b031681565b600061068b85856107d7565b6106978585858561022e565b95945050505050565b336106a9610649565b6001600160a01b0316146106cf5760405162461bcd60e51b81526004016103df90611433565b6001600160a01b0380841660008181526002602081815260408084208887168552825280842080549688166001600160a01b0319978816811790915592825280842094845293905291812080549093169091179091556107308285856104fc565b905060008061073e83610c16565b506001600160a01b03909416600090815260016020819052604090912042815590810191909155600201929092555050505050565b3361077c610649565b6001600160a01b0316146107a25760405162461bcd60e51b81526004016103df90611433565b6001600160a01b038216600090815260036020908152604090912082516107cb92840190610e70565b505050565b6201518081565b60006107e38383610aad565b905060006107f28285856104fc565b6001600160a01b0381166000908152600160205260409020549091504203620151808111156109425760008061082784610c16565b5091509150428310156109165760405180602001604052808460016000886001600160a01b03166001600160a01b031681526020019081526020016000206001015485038161087257fe5b046001600160e01b039081169091526001600160a01b03861660009081526001602090815260409182902093516003850180546001600160e01b031916919094161790925580519182019052600290910154819085908403816108d157fe5b046001600160e01b039081169091526001600160a01b03861660009081526001602052604090209151600490920180546001600160e01b031916929091169190911790555b6001600160a01b0384166000908152600160208190526040909120428155908101929092556002909101555b5050505050565b33610952610649565b6001600160a01b0316146109785760405162461bcd60e51b81526004016103df90611433565b8382146109975760405162461bcd60e51b81526004016103df90611342565b60005b848110156109f5576109ed8686838181106109b157fe5b90506020020160208101906109c69190610f6f565b8585848181106109d257fe5b90506020020160208101906109e79190610f6f565b846106a0565b60010161099a565b505050505050565b33610a06610649565b6001600160a01b031614610a2c5760405162461bcd60e51b81526004016103df90611433565b6001600160a01b038116610a525760405162461bcd60e51b81526004016103df90611371565b600080546040516001600160a01b03808516939216917f8be0079c531659141344cd1fd0a4f28419497f9722a3daafe3b4186f6b6457e091a3600080546001600160a01b0319166001600160a01b0392909216919091179055565b6001600160a01b0382811660009081526002602090815260408083208585168452909152812054909116610af6575073efa94de7a4656d787667c749f7e1223d71e9fd88610b20565b506001600160a01b0380831660009081526002602090815260408083208585168452909152902054165b92915050565b610b2e610eee565b6000821580610b5457505082516001600160e01b031682810290838281610b5157fe5b04145b610b705760405162461bcd60e51b81526004016103df90611468565b60408051602081019091529081529392505050565b5160701c90565b600080826001600160a01b0316846001600160a01b03161415610bc15760405162461bcd60e51b81526004016103df906113ee565b826001600160a01b0316846001600160a01b031610610be1578284610be4565b83835b90925090506001600160a01b038216610c0f5760405162461bcd60e51b81526004016103df906114d4565b9250929050565b6000806000610c23610deb565b9050836001600160a01b0316635909c0d56040518163ffffffff1660e01b815260040160206040518083038186803b158015610c5e57600080fd5b505afa158015610c72573d6000803e3d6000fd5b505050506040513d601f19601f82011682018060405250810190610c9691906111fa565b9250836001600160a01b0316635a3d54936040518163ffffffff1660e01b815260040160206040518083038186803b158015610cd157600080fd5b505afa158015610ce5573d6000803e3d6000fd5b505050506040513d601f19601f82011682018060405250810190610d0991906111fa565b91506000806000866001600160a01b0316630902f1ac6040518163ffffffff1660e01b815260040160606040518083038186803b158015610d4957600080fd5b505afa158015610d5d573d6000803e3d6000fd5b505050506040513d601f19601f82011682018060405250810190610d8191906111b1565b9250925092508363ffffffff168163ffffffff1614610de15780840363ffffffff8116610dae8486610df5565b516001600160e01b031602969096019563ffffffff8116610dcf8585610df5565b516001600160e01b0316029590950194505b5050509193909250565b63ffffffff421690565b610dfd610f01565b6000826001600160701b031611610e265760405162461bcd60e51b81526004016103df9061149f565b6040805160208101909152806001600160701b0384166dffffffffffffffffffffffffffff60701b607087901b1681610e5b57fe5b046001600160e01b0316815250905092915050565b828054600181600116156101000203166002900490600052602060002090601f016020900481019282601f10610eb157805160ff1916838001178555610ede565b82800160010185558215610ede579182015b82811115610ede578251825591602001919060010190610ec3565b50610eea929150610f13565b5090565b6040518060200160405280600081525090565b60408051602081019091526000815290565b61065691905b80821115610eea5760008155600101610f19565b60008083601f840112610f3e578182fd5b50813567ffffffffffffffff811115610f55578182fd5b6020830191508360208083028501011115610c0f57600080fd5b600060208284031215610f80578081fd5b8135610f8b8161155e565b9392505050565b600060208284031215610fa3578081fd5b8151610f8b8161155e565b60008060408385031215610fc0578081fd5b8235610fcb8161155e565b91506020830135610fdb8161155e565b809150509250929050565b600080600060608486031215610ffa578081fd5b83356110058161155e565b925060208401356110158161155e565b915060408401356110258161155e565b809150509250925092565b60008060008060808587031215611045578081fd5b84356110508161155e565b935060208501356110608161155e565b925060408501356110708161155e565b9396929550929360600135925050565b60008060408385031215611092578182fd5b823561109d8161155e565b9150602083013567ffffffffffffffff808211156110b9578283fd5b81850186601f8201126110ca578384fd5b80359250818311156110da578384fd5b604051601f8401601f1916810160200183811182821017156110fa578586fd5b604052838152818401602001881015611111578485fd5b611122846020830160208501611552565b809450505050509250929050565b600080600080600060608688031215611147578081fd5b853567ffffffffffffffff8082111561115e578283fd5b61116a89838a01610f2d565b90975095506020880135915080821115611182578283fd5b5061118f88828901610f2d565b90945092505060408601356111a38161155e565b809150509295509295909350565b6000806000606084860312156111c5578283fd5b83516111d081611576565b60208501519093506111e181611576565b604085015190925063ffffffff81168114611025578182fd5b60006020828403121561120b578081fd5b5051919050565b6bffffffffffffffffffffffff19606093841b811682529190921b16601482015260280190565b600060ff60f81b825260016bffffffffffffffffffffffff198660601b168184015284601584015260358285548381166000811461127e5760018114611299576112cd565b60ff1982168785015260028204607f168701840192506112cd565b600282046112a689611546565b875b828110156112c45781548a8201880152908701906020016112a8565b50508701840192505b509098975050505050505050565b6001600160a01b0391909116815260200190565b6000602080835283518082850152825b8181101561131b578581018301518582016040015282016112ff565b8181111561132c5783604083870101525b50601f01601f1916929092016040019392505050565b6020808252601590820152740d2dce0eae840d8cadccee8d040dad2e6dac2e8c6d605b1b604082015260600190565b60208082526026908201527f4f776e61626c653a206e6577206f776e657220697320746865207a65726f206160408201526564647265737360d01b606082015260800190565b6020808252601c908201527f545741505f4f7261636c653a20696e76616c696420746f6b656e496e00000000604082015260600190565b60208082526025908201527f556e697377617056324c6962726172793a204944454e544943414c5f41444452604082015264455353455360d81b606082015260800190565b6020808252818101527f4f776e61626c653a2063616c6c6572206973206e6f7420746865206f776e6572604082015260600190565b60208082526018908201527f4669786564506f696e743a204d554c5f4f564552464c4f570000000000000000604082015260600190565b6020808252818101527f4669786564506f696e743a204449565f42595f5a45524f5f4652414354494f4e604082015260600190565b6020808252601e908201527f556e697377617056324c6962726172793a205a45524f5f414444524553530000604082015260600190565b90815260200190565b94855260208501939093526040840191909152516001600160e01b039081166060840152905116608082015260a00190565b60009081526020902090565b82818337506000910152565b6001600160a01b038116811461157357600080fd5b50565b6001600160701b038116811461157357600080fdfea2646970667358221220c48af8b46a9b1075bc27cb8924fa115c411912f9e7d76b4f55d98b97c397e01364736f6c63430006060033",
          "opcodes": "PUSH1 0x80 PUSH1 0x40 MSTORE CALLVALUE DUP1 ISZERO PUSH3 0x11 JUMPI PUSH1 0x0 DUP1 REVERT JUMPDEST POP PUSH1 0x0 DUP1 SLOAD PUSH1 0x1 PUSH1 0x1 PUSH1 0xA0 SHL SUB NOT AND CALLER SWAP1 DUP2 OR DUP3 SSTORE PUSH1 0x40 MLOAD SWAP1 SWAP2 SWAP1 PUSH32 0x8BE0079C531659141344CD1FD0A4F28419497F9722A3DAAFE3B4186F6B6457E0 SWAP1 DUP3 SWAP1 LOG3 PUSH3 0xAC PUSH20 0xEFA94DE7A4656D787667C749F7E1223D71E9FD88 PUSH1 0x40 MLOAD DUP1 PUSH1 0x40 ADD PUSH1 0x40 MSTORE DUP1 PUSH1 0x20 DUP2 MSTORE PUSH1 0x20 ADD PUSH32 0x40231F6B438BCE0797C9ADA29B718A87EA0A5CEA3FE9A771ABDD76BD41A3E545 DUP2 MSTORE POP PUSH3 0x168 PUSH1 0x20 SHL PUSH1 0x20 SHR JUMP JUMPDEST PUSH3 0x107 PUSH20 0x9AD6C38BE94206CA50BB0D90783181662F0CFA10 PUSH1 0x40 MLOAD DUP1 PUSH1 0x40 ADD PUSH1 0x40 MSTORE DUP1 PUSH1 0x20 DUP2 MSTORE PUSH1 0x20 ADD PUSH32 0xBBCA9AF0511AD1A1DA383135CF3A8D2AC620E549EF9F6AE3A4C33C2FED0AF91 DUP2 MSTORE POP PUSH3 0x168 PUSH1 0x20 SHL PUSH1 0x20 SHR JUMP JUMPDEST PUSH3 0x162 PUSH20 0xA52ABE4676DBFD04DF42EF7755F01A3C41F28D27 PUSH1 0x40 MLOAD DUP1 PUSH1 0x40 ADD PUSH1 0x40 MSTORE DUP1 PUSH1 0x20 DUP2 MSTORE PUSH1 0x20 ADD PUSH32 0x47CC4F3A5E7A237C464E09C6758AC645084F198B8F64EEDC923317AC4481A10C DUP2 MSTORE POP PUSH3 0x168 PUSH1 0x20 SHL PUSH1 0x20 SHR JUMP JUMPDEST PUSH3 0x2C5 JUMP JUMPDEST CALLER PUSH3 0x17C PUSH1 0x1 PUSH1 0x1 PUSH1 0xE0 SHL SUB PUSH3 0x1DE AND JUMP JUMPDEST PUSH1 0x1 PUSH1 0x1 PUSH1 0xA0 SHL SUB AND EQ PUSH3 0x1AE JUMPI PUSH1 0x40 MLOAD PUSH3 0x461BCD PUSH1 0xE5 SHL DUP2 MSTORE PUSH1 0x4 ADD PUSH3 0x1A5 SWAP1 PUSH3 0x290 JUMP JUMPDEST PUSH1 0x40 MLOAD DUP1 SWAP2 SUB SWAP1 REVERT JUMPDEST PUSH1 0x1 PUSH1 0x1 PUSH1 0xA0 SHL SUB DUP3 AND PUSH1 0x0 SWAP1 DUP2 MSTORE PUSH1 0x3 PUSH1 0x20 SWAP1 DUP2 MSTORE PUSH1 0x40 SWAP1 SWAP2 KECCAK256 DUP3 MLOAD PUSH3 0x1D9 SWAP3 DUP5 ADD SWAP1 PUSH3 0x1EE JUMP JUMPDEST POP POP POP JUMP JUMPDEST PUSH1 0x0 SLOAD PUSH1 0x1 PUSH1 0x1 PUSH1 0xA0 SHL SUB AND JUMPDEST SWAP1 JUMP JUMPDEST DUP3 DUP1 SLOAD PUSH1 0x1 DUP2 PUSH1 0x1 AND ISZERO PUSH2 0x100 MUL SUB AND PUSH1 0x2 SWAP1 DIV SWAP1 PUSH1 0x0 MSTORE PUSH1 0x20 PUSH1 0x0 KECCAK256 SWAP1 PUSH1 0x1F ADD PUSH1 0x20 SWAP1 DIV DUP2 ADD SWAP3 DUP3 PUSH1 0x1F LT PUSH3 0x231 JUMPI DUP1 MLOAD PUSH1 0xFF NOT AND DUP4 DUP1 ADD OR DUP6 SSTORE PUSH3 0x261 JUMP JUMPDEST DUP3 DUP1 ADD PUSH1 0x1 ADD DUP6 SSTORE DUP3 ISZERO PUSH3 0x261 JUMPI SWAP2 DUP3 ADD JUMPDEST DUP3 DUP2 GT ISZERO PUSH3 0x261 JUMPI DUP3 MLOAD DUP3 SSTORE SWAP2 PUSH1 0x20 ADD SWAP2 SWAP1 PUSH1 0x1 ADD SWAP1 PUSH3 0x244 JUMP JUMPDEST POP PUSH3 0x26F SWAP3 SWAP2 POP PUSH3 0x273 JUMP JUMPDEST POP SWAP1 JUMP JUMPDEST PUSH3 0x1EB SWAP2 SWAP1 JUMPDEST DUP1 DUP3 GT ISZERO PUSH3 0x26F JUMPI PUSH1 0x0 DUP2 SSTORE PUSH1 0x1 ADD PUSH3 0x27A JUMP JUMPDEST PUSH1 0x20 DUP1 DUP3 MSTORE DUP2 DUP2 ADD MSTORE PUSH32 0x4F776E61626C653A2063616C6C6572206973206E6F7420746865206F776E6572 PUSH1 0x40 DUP3 ADD MSTORE PUSH1 0x60 ADD SWAP1 JUMP JUMPDEST PUSH2 0x15C1 DUP1 PUSH3 0x2D5 PUSH1 0x0 CODECOPY PUSH1 0x0 RETURN INVALID PUSH1 0x80 PUSH1 0x40 MSTORE CALLVALUE DUP1 ISZERO PUSH2 0x10 JUMPI PUSH1 0x0 DUP1 REVERT JUMPDEST POP PUSH1 0x4 CALLDATASIZE LT PUSH2 0xF5 JUMPI PUSH1 0x0 CALLDATALOAD PUSH1 0xE0 SHR DUP1 PUSH4 0x9653020E GT PUSH2 0x97 JUMPI DUP1 PUSH4 0xB4D1D795 GT PUSH2 0x66 JUMPI DUP1 PUSH4 0xB4D1D795 EQ PUSH2 0x1ED JUMPI DUP1 PUSH4 0xC640752D EQ PUSH2 0x1F5 JUMPI DUP1 PUSH4 0xD92B0064 EQ PUSH2 0x208 JUMPI DUP1 PUSH4 0xF2FDE38B EQ PUSH2 0x21B JUMPI PUSH2 0xF5 JUMP JUMPDEST DUP1 PUSH4 0x9653020E EQ PUSH2 0x1A1 JUMPI DUP1 PUSH4 0x96E6C337 EQ PUSH2 0x1B4 JUMPI DUP1 PUSH4 0xA94FABC5 EQ PUSH2 0x1C7 JUMPI DUP1 PUSH4 0xACB0211B EQ PUSH2 0x1DA JUMPI PUSH2 0xF5 JUMP JUMPDEST DUP1 PUSH4 0x6D91C0E2 GT PUSH2 0xD3 JUMPI DUP1 PUSH4 0x6D91C0E2 EQ PUSH2 0x158 JUMPI DUP1 PUSH4 0x715018A6 EQ PUSH2 0x16B JUMPI DUP1 PUSH4 0x8A04FF3C EQ PUSH2 0x175 JUMPI DUP1 PUSH4 0x8DA5CB5B EQ PUSH2 0x199 JUMPI PUSH2 0xF5 JUMP JUMPDEST DUP1 PUSH4 0x29F468FC EQ PUSH2 0xFA JUMPI DUP1 PUSH4 0x52CEFCD0 EQ PUSH2 0x123 JUMPI DUP1 PUSH4 0x5AD8960D EQ PUSH2 0x143 JUMPI JUMPDEST PUSH1 0x0 DUP1 REVERT JUMPDEST PUSH2 0x10D PUSH2 0x108 CALLDATASIZE PUSH1 0x4 PUSH2 0x1030 JUMP JUMPDEST PUSH2 0x22E JUMP JUMPDEST PUSH1 0x40 MLOAD PUSH2 0x11A SWAP2 SWAP1 PUSH2 0x150B JUMP JUMPDEST PUSH1 0x40 MLOAD DUP1 SWAP2 SUB SWAP1 RETURN JUMPDEST PUSH2 0x136 PUSH2 0x131 CALLDATASIZE PUSH1 0x4 PUSH2 0xF6F JUMP JUMPDEST PUSH2 0x449 JUMP JUMPDEST PUSH1 0x40 MLOAD PUSH2 0x11A SWAP2 SWAP1 PUSH2 0x12EF JUMP JUMPDEST PUSH2 0x14B PUSH2 0x4E4 JUMP JUMPDEST PUSH1 0x40 MLOAD PUSH2 0x11A SWAP2 SWAP1 PUSH2 0x12DB JUMP JUMPDEST PUSH2 0x14B PUSH2 0x166 CALLDATASIZE PUSH1 0x4 PUSH2 0xFE6 JUMP JUMPDEST PUSH2 0x4FC JUMP JUMPDEST PUSH2 0x173 PUSH2 0x581 JUMP JUMPDEST STOP JUMPDEST PUSH2 0x188 PUSH2 0x183 CALLDATASIZE PUSH1 0x4 PUSH2 0xF6F JUMP JUMPDEST PUSH2 0x5FA JUMP JUMPDEST PUSH1 0x40 MLOAD PUSH2 0x11A SWAP6 SWAP5 SWAP4 SWAP3 SWAP2 SWAP1 PUSH2 0x1514 JUMP JUMPDEST PUSH2 0x14B PUSH2 0x649 JUMP JUMPDEST PUSH2 0x14B PUSH2 0x1AF CALLDATASIZE PUSH1 0x4 PUSH2 0xFAE JUMP JUMPDEST PUSH2 0x659 JUMP JUMPDEST PUSH2 0x10D PUSH2 0x1C2 CALLDATASIZE PUSH1 0x4 PUSH2 0x1030 JUMP JUMPDEST PUSH2 0x67F JUMP JUMPDEST PUSH2 0x173 PUSH2 0x1D5 CALLDATASIZE PUSH1 0x4 PUSH2 0xFE6 JUMP JUMPDEST PUSH2 0x6A0 JUMP JUMPDEST PUSH2 0x173 PUSH2 0x1E8 CALLDATASIZE PUSH1 0x4 PUSH2 0x1080 JUMP JUMPDEST PUSH2 0x773 JUMP JUMPDEST PUSH2 0x10D PUSH2 0x7D0 JUMP JUMPDEST PUSH2 0x173 PUSH2 0x203 CALLDATASIZE PUSH1 0x4 PUSH2 0xFAE JUMP JUMPDEST PUSH2 0x7D7 JUMP JUMPDEST PUSH2 0x173 PUSH2 0x216 CALLDATASIZE PUSH1 0x4 PUSH2 0x1130 JUMP JUMPDEST PUSH2 0x949 JUMP JUMPDEST PUSH2 0x173 PUSH2 0x229 CALLDATASIZE PUSH1 0x4 PUSH2 0xF6F JUMP JUMPDEST PUSH2 0x9FD JUMP JUMPDEST PUSH1 0x0 DUP1 PUSH2 0x23B DUP7 DUP7 PUSH2 0xAAD JUMP JUMPDEST SWAP1 POP PUSH1 0x0 PUSH2 0x24A DUP3 DUP9 DUP9 PUSH2 0x4FC JUMP JUMPDEST SWAP1 POP PUSH1 0x0 DUP2 PUSH1 0x1 PUSH1 0x1 PUSH1 0xA0 SHL SUB AND PUSH4 0xDFE1681 PUSH1 0x40 MLOAD DUP2 PUSH4 0xFFFFFFFF AND PUSH1 0xE0 SHL DUP2 MSTORE PUSH1 0x4 ADD PUSH1 0x20 PUSH1 0x40 MLOAD DUP1 DUP4 SUB DUP2 DUP7 DUP1 EXTCODESIZE ISZERO DUP1 ISZERO PUSH2 0x287 JUMPI PUSH1 0x0 DUP1 REVERT JUMPDEST POP GAS STATICCALL ISZERO DUP1 ISZERO PUSH2 0x29B JUMPI RETURNDATASIZE PUSH1 0x0 DUP1 RETURNDATACOPY RETURNDATASIZE PUSH1 0x0 REVERT JUMPDEST POP POP POP POP PUSH1 0x40 MLOAD RETURNDATASIZE PUSH1 0x1F NOT PUSH1 0x1F DUP3 ADD AND DUP3 ADD DUP1 PUSH1 0x40 MSTORE POP DUP2 ADD SWAP1 PUSH2 0x2BF SWAP2 SWAP1 PUSH2 0xF92 JUMP JUMPDEST SWAP1 POP PUSH1 0x0 DUP3 PUSH1 0x1 PUSH1 0x1 PUSH1 0xA0 SHL SUB AND PUSH4 0xD21220A7 PUSH1 0x40 MLOAD DUP2 PUSH4 0xFFFFFFFF AND PUSH1 0xE0 SHL DUP2 MSTORE PUSH1 0x4 ADD PUSH1 0x20 PUSH1 0x40 MLOAD DUP1 DUP4 SUB DUP2 DUP7 DUP1 EXTCODESIZE ISZERO DUP1 ISZERO PUSH2 0x2FC JUMPI PUSH1 0x0 DUP1 REVERT JUMPDEST POP GAS STATICCALL ISZERO DUP1 ISZERO PUSH2 0x310 JUMPI RETURNDATASIZE PUSH1 0x0 DUP1 RETURNDATACOPY RETURNDATASIZE PUSH1 0x0 REVERT JUMPDEST POP POP POP POP PUSH1 0x40 MLOAD RETURNDATASIZE PUSH1 0x1F NOT PUSH1 0x1F DUP3 ADD AND DUP3 ADD DUP1 PUSH1 0x40 MSTORE POP DUP2 ADD SWAP1 PUSH2 0x334 SWAP2 SWAP1 PUSH2 0xF92 JUMP JUMPDEST SWAP1 POP DUP2 PUSH1 0x1 PUSH1 0x1 PUSH1 0xA0 SHL SUB AND DUP8 PUSH1 0x1 PUSH1 0x1 PUSH1 0xA0 SHL SUB AND EQ ISZERO PUSH2 0x3AE JUMPI PUSH1 0x1 PUSH1 0x1 PUSH1 0xA0 SHL SUB DUP4 AND PUSH1 0x0 SWAP1 DUP2 MSTORE PUSH1 0x1 PUSH1 0x20 SWAP1 DUP2 MSTORE PUSH1 0x40 SWAP2 DUP3 SWAP1 KECCAK256 DUP3 MLOAD SWAP2 DUP3 ADD SWAP1 SWAP3 MSTORE PUSH1 0x3 SWAP1 SWAP2 ADD SLOAD PUSH1 0x1 PUSH1 0x1 PUSH1 0xE0 SHL SUB AND DUP2 MSTORE PUSH2 0x39E SWAP1 PUSH2 0x399 SWAP1 DUP9 PUSH4 0xFFFFFFFF PUSH2 0xB26 AND JUMP JUMPDEST PUSH2 0xB85 JUMP JUMPDEST PUSH1 0x1 PUSH1 0x1 PUSH1 0x90 SHL SUB AND SWAP5 POP PUSH2 0x43D JUMP JUMPDEST DUP1 PUSH1 0x1 PUSH1 0x1 PUSH1 0xA0 SHL SUB AND DUP8 PUSH1 0x1 PUSH1 0x1 PUSH1 0xA0 SHL SUB AND EQ PUSH2 0x3E8 JUMPI PUSH1 0x40 MLOAD PUSH3 0x461BCD PUSH1 0xE5 SHL DUP2 MSTORE PUSH1 0x4 ADD PUSH2 0x3DF SWAP1 PUSH2 0x13B7 JUMP JUMPDEST PUSH1 0x40 MLOAD DUP1 SWAP2 SUB SWAP1 REVERT JUMPDEST PUSH1 0x1 PUSH1 0x1 PUSH1 0xA0 SHL SUB DUP4 AND PUSH1 0x0 SWAP1 DUP2 MSTORE PUSH1 0x1 PUSH1 0x20 SWAP1 DUP2 MSTORE PUSH1 0x40 SWAP2 DUP3 SWAP1 KECCAK256 DUP3 MLOAD SWAP2 DUP3 ADD SWAP1 SWAP3 MSTORE PUSH1 0x3 SWAP1 SWAP2 ADD SLOAD PUSH1 0x1 PUSH1 0x1 PUSH1 0xE0 SHL SUB AND DUP2 MSTORE PUSH2 0x431 SWAP1 PUSH2 0x399 SWAP1 DUP9 PUSH4 0xFFFFFFFF PUSH2 0xB26 AND JUMP JUMPDEST PUSH1 0x1 PUSH1 0x1 PUSH1 0x90 SHL SUB AND SWAP5 POP JUMPDEST POP POP POP POP SWAP5 SWAP4 POP POP POP POP JUMP JUMPDEST PUSH1 0x3 PUSH1 0x20 SWAP1 DUP2 MSTORE PUSH1 0x0 SWAP2 DUP3 MSTORE PUSH1 0x40 SWAP2 DUP3 SWAP1 KECCAK256 DUP1 SLOAD DUP4 MLOAD PUSH1 0x1F PUSH1 0x2 PUSH1 0x0 NOT PUSH2 0x100 PUSH1 0x1 DUP7 AND ISZERO MUL ADD SWAP1 SWAP4 AND SWAP3 SWAP1 SWAP3 DIV SWAP2 DUP3 ADD DUP5 SWAP1 DIV DUP5 MUL DUP2 ADD DUP5 ADD SWAP1 SWAP5 MSTORE DUP1 DUP5 MSTORE SWAP1 SWAP2 DUP4 ADD DUP3 DUP3 DUP1 ISZERO PUSH2 0x4DC JUMPI DUP1 PUSH1 0x1F LT PUSH2 0x4B1 JUMPI PUSH2 0x100 DUP1 DUP4 SLOAD DIV MUL DUP4 MSTORE SWAP2 PUSH1 0x20 ADD SWAP2 PUSH2 0x4DC JUMP JUMPDEST DUP3 ADD SWAP2 SWAP1 PUSH1 0x0 MSTORE PUSH1 0x20 PUSH1 0x0 KECCAK256 SWAP1 JUMPDEST DUP2 SLOAD DUP2 MSTORE SWAP1 PUSH1 0x1 ADD SWAP1 PUSH1 0x20 ADD DUP1 DUP4 GT PUSH2 0x4BF JUMPI DUP3 SWAP1 SUB PUSH1 0x1F AND DUP3 ADD SWAP2 JUMPDEST POP POP POP POP POP DUP2 JUMP JUMPDEST PUSH20 0xEFA94DE7A4656D787667C749F7E1223D71E9FD88 DUP2 JUMP JUMPDEST PUSH1 0x0 DUP1 PUSH1 0x0 PUSH2 0x50B DUP6 DUP6 PUSH2 0xB8C JUMP JUMPDEST SWAP2 POP SWAP2 POP DUP6 DUP3 DUP3 PUSH1 0x40 MLOAD PUSH1 0x20 ADD PUSH2 0x523 SWAP3 SWAP2 SWAP1 PUSH2 0x1212 JUMP JUMPDEST PUSH1 0x40 DUP1 MLOAD PUSH1 0x1F NOT DUP2 DUP5 SUB ADD DUP2 MSTORE DUP3 DUP3 MSTORE DUP1 MLOAD PUSH1 0x20 SWAP2 DUP3 ADD KECCAK256 PUSH1 0x1 PUSH1 0x1 PUSH1 0xA0 SHL SUB DUP12 AND PUSH1 0x0 SWAP1 DUP2 MSTORE PUSH1 0x3 DUP4 MSTORE SWAP3 SWAP1 SWAP3 KECCAK256 PUSH2 0x55F SWAP5 SWAP4 SWAP1 SWAP2 ADD PUSH2 0x1239 JUMP JUMPDEST PUSH1 0x40 DUP1 MLOAD PUSH1 0x1F NOT DUP2 DUP5 SUB ADD DUP2 MSTORE SWAP2 SWAP1 MSTORE DUP1 MLOAD PUSH1 0x20 SWAP1 SWAP2 ADD KECCAK256 SWAP7 SWAP6 POP POP POP POP POP POP JUMP JUMPDEST CALLER PUSH2 0x58A PUSH2 0x649 JUMP JUMPDEST PUSH1 0x1 PUSH1 0x1 PUSH1 0xA0 SHL SUB AND EQ PUSH2 0x5B0 JUMPI PUSH1 0x40 MLOAD PUSH3 0x461BCD PUSH1 0xE5 SHL DUP2 MSTORE PUSH1 0x4 ADD PUSH2 0x3DF SWAP1 PUSH2 0x1433 JUMP JUMPDEST PUSH1 0x0 DUP1 SLOAD PUSH1 0x40 MLOAD PUSH1 0x1 PUSH1 0x1 PUSH1 0xA0 SHL SUB SWAP1 SWAP2 AND SWAP1 PUSH32 0x8BE0079C531659141344CD1FD0A4F28419497F9722A3DAAFE3B4186F6B6457E0 SWAP1 DUP4 SWAP1 LOG3 PUSH1 0x0 DUP1 SLOAD PUSH1 0x1 PUSH1 0x1 PUSH1 0xA0 SHL SUB NOT AND SWAP1 SSTORE JUMP JUMPDEST PUSH1 0x1 PUSH1 0x20 DUP2 DUP2 MSTORE PUSH1 0x0 SWAP3 DUP4 MSTORE PUSH1 0x40 SWAP3 DUP4 SWAP1 KECCAK256 DUP1 SLOAD SWAP3 DUP2 ADD SLOAD PUSH1 0x2 DUP3 ADD SLOAD DUP6 MLOAD DUP1 DUP6 ADD DUP8 MSTORE PUSH1 0x3 DUP5 ADD SLOAD PUSH1 0x1 PUSH1 0x1 PUSH1 0xE0 SHL SUB SWAP1 DUP2 AND DUP3 MSTORE DUP8 MLOAD SWAP6 DUP7 ADD SWAP1 SWAP8 MSTORE PUSH1 0x4 SWAP1 SWAP4 ADD SLOAD SWAP1 SWAP6 AND DUP4 MSTORE SWAP3 SWAP4 SWAP2 DUP6 JUMP JUMPDEST PUSH1 0x0 SLOAD PUSH1 0x1 PUSH1 0x1 PUSH1 0xA0 SHL SUB AND JUMPDEST SWAP1 JUMP JUMPDEST PUSH1 0x2 PUSH1 0x20 SWAP1 DUP2 MSTORE PUSH1 0x0 SWAP3 DUP4 MSTORE PUSH1 0x40 DUP1 DUP5 KECCAK256 SWAP1 SWAP2 MSTORE SWAP1 DUP3 MSTORE SWAP1 KECCAK256 SLOAD PUSH1 0x1 PUSH1 0x1 PUSH1 0xA0 SHL SUB AND DUP2 JUMP JUMPDEST PUSH1 0x0 PUSH2 0x68B DUP6 DUP6 PUSH2 0x7D7 JUMP JUMPDEST PUSH2 0x697 DUP6 DUP6 DUP6 DUP6 PUSH2 0x22E JUMP JUMPDEST SWAP6 SWAP5 POP POP POP POP POP JUMP JUMPDEST CALLER PUSH2 0x6A9 PUSH2 0x649 JUMP JUMPDEST PUSH1 0x1 PUSH1 0x1 PUSH1 0xA0 SHL SUB AND EQ PUSH2 0x6CF JUMPI PUSH1 0x40 MLOAD PUSH3 0x461BCD PUSH1 0xE5 SHL DUP2 MSTORE PUSH1 0x4 ADD PUSH2 0x3DF SWAP1 PUSH2 0x1433 JUMP JUMPDEST PUSH1 0x1 PUSH1 0x1 PUSH1 0xA0 SHL SUB DUP1 DUP5 AND PUSH1 0x0 DUP2 DUP2 MSTORE PUSH1 0x2 PUSH1 0x20 DUP2 DUP2 MSTORE PUSH1 0x40 DUP1 DUP5 KECCAK256 DUP9 DUP8 AND DUP6 MSTORE DUP3 MSTORE DUP1 DUP5 KECCAK256 DUP1 SLOAD SWAP7 DUP9 AND PUSH1 0x1 PUSH1 0x1 PUSH1 0xA0 SHL SUB NOT SWAP8 DUP9 AND DUP2 OR SWAP1 SWAP2 SSTORE SWAP3 DUP3 MSTORE DUP1 DUP5 KECCAK256 SWAP5 DUP5 MSTORE SWAP4 SWAP1 MSTORE SWAP2 DUP2 KECCAK256 DUP1 SLOAD SWAP1 SWAP4 AND SWAP1 SWAP2 OR SWAP1 SWAP2 SSTORE PUSH2 0x730 DUP3 DUP6 DUP6 PUSH2 0x4FC JUMP JUMPDEST SWAP1 POP PUSH1 0x0 DUP1 PUSH2 0x73E DUP4 PUSH2 0xC16 JUMP JUMPDEST POP PUSH1 0x1 PUSH1 0x1 PUSH1 0xA0 SHL SUB SWAP1 SWAP5 AND PUSH1 0x0 SWAP1 DUP2 MSTORE PUSH1 0x1 PUSH1 0x20 DUP2 SWAP1 MSTORE PUSH1 0x40 SWAP1 SWAP2 KECCAK256 TIMESTAMP DUP2 SSTORE SWAP1 DUP2 ADD SWAP2 SWAP1 SWAP2 SSTORE PUSH1 0x2 ADD SWAP3 SWAP1 SWAP3 SSTORE POP POP POP POP POP JUMP JUMPDEST CALLER PUSH2 0x77C PUSH2 0x649 JUMP JUMPDEST PUSH1 0x1 PUSH1 0x1 PUSH1 0xA0 SHL SUB AND EQ PUSH2 0x7A2 JUMPI PUSH1 0x40 MLOAD PUSH3 0x461BCD PUSH1 0xE5 SHL DUP2 MSTORE PUSH1 0x4 ADD PUSH2 0x3DF SWAP1 PUSH2 0x1433 JUMP JUMPDEST PUSH1 0x1 PUSH1 0x1 PUSH1 0xA0 SHL SUB DUP3 AND PUSH1 0x0 SWAP1 DUP2 MSTORE PUSH1 0x3 PUSH1 0x20 SWAP1 DUP2 MSTORE PUSH1 0x40 SWAP1 SWAP2 KECCAK256 DUP3 MLOAD PUSH2 0x7CB SWAP3 DUP5 ADD SWAP1 PUSH2 0xE70 JUMP JUMPDEST POP POP POP JUMP JUMPDEST PUSH3 0x15180 DUP2 JUMP JUMPDEST PUSH1 0x0 PUSH2 0x7E3 DUP4 DUP4 PUSH2 0xAAD JUMP JUMPDEST SWAP1 POP PUSH1 0x0 PUSH2 0x7F2 DUP3 DUP6 DUP6 PUSH2 0x4FC JUMP JUMPDEST PUSH1 0x1 PUSH1 0x1 PUSH1 0xA0 SHL SUB DUP2 AND PUSH1 0x0 SWAP1 DUP2 MSTORE PUSH1 0x1 PUSH1 0x20 MSTORE PUSH1 0x40 SWAP1 KECCAK256 SLOAD SWAP1 SWAP2 POP TIMESTAMP SUB PUSH3 0x15180 DUP2 GT ISZERO PUSH2 0x942 JUMPI PUSH1 0x0 DUP1 PUSH2 0x827 DUP5 PUSH2 0xC16 JUMP JUMPDEST POP SWAP2 POP SWAP2 POP TIMESTAMP DUP4 LT ISZERO PUSH2 0x916 JUMPI PUSH1 0x40 MLOAD DUP1 PUSH1 0x20 ADD PUSH1 0x40 MSTORE DUP1 DUP5 PUSH1 0x1 PUSH1 0x0 DUP9 PUSH1 0x1 PUSH1 0x1 PUSH1 0xA0 SHL SUB AND PUSH1 0x1 PUSH1 0x1 PUSH1 0xA0 SHL SUB AND DUP2 MSTORE PUSH1 0x20 ADD SWAP1 DUP2 MSTORE PUSH1 0x20 ADD PUSH1 0x0 KECCAK256 PUSH1 0x1 ADD SLOAD DUP6 SUB DUP2 PUSH2 0x872 JUMPI INVALID JUMPDEST DIV PUSH1 0x1 PUSH1 0x1 PUSH1 0xE0 SHL SUB SWAP1 DUP2 AND SWAP1 SWAP2 MSTORE PUSH1 0x1 PUSH1 0x1 PUSH1 0xA0 SHL SUB DUP7 AND PUSH1 0x0 SWAP1 DUP2 MSTORE PUSH1 0x1 PUSH1 0x20 SWAP1 DUP2 MSTORE PUSH1 0x40 SWAP2 DUP3 SWAP1 KECCAK256 SWAP4 MLOAD PUSH1 0x3 DUP6 ADD DUP1 SLOAD PUSH1 0x1 PUSH1 0x1 PUSH1 0xE0 SHL SUB NOT AND SWAP2 SWAP1 SWAP5 AND OR SWAP1 SWAP3 SSTORE DUP1 MLOAD SWAP2 DUP3 ADD SWAP1 MSTORE PUSH1 0x2 SWAP1 SWAP2 ADD SLOAD DUP2 SWAP1 DUP6 SWAP1 DUP5 SUB DUP2 PUSH2 0x8D1 JUMPI INVALID JUMPDEST DIV PUSH1 0x1 PUSH1 0x1 PUSH1 0xE0 SHL SUB SWAP1 DUP2 AND SWAP1 SWAP2 MSTORE PUSH1 0x1 PUSH1 0x1 PUSH1 0xA0 SHL SUB DUP7 AND PUSH1 0x0 SWAP1 DUP2 MSTORE PUSH1 0x1 PUSH1 0x20 MSTORE PUSH1 0x40 SWAP1 KECCAK256 SWAP2 MLOAD PUSH1 0x4 SWAP1 SWAP3 ADD DUP1 SLOAD PUSH1 0x1 PUSH1 0x1 PUSH1 0xE0 SHL SUB NOT AND SWAP3 SWAP1 SWAP2 AND SWAP2 SWAP1 SWAP2 OR SWAP1 SSTORE JUMPDEST PUSH1 0x1 PUSH1 0x1 PUSH1 0xA0 SHL SUB DUP5 AND PUSH1 0x0 SWAP1 DUP2 MSTORE PUSH1 0x1 PUSH1 0x20 DUP2 SWAP1 MSTORE PUSH1 0x40 SWAP1 SWAP2 KECCAK256 TIMESTAMP DUP2 SSTORE SWAP1 DUP2 ADD SWAP3 SWAP1 SWAP3 SSTORE PUSH1 0x2 SWAP1 SWAP2 ADD SSTORE JUMPDEST POP POP POP POP POP JUMP JUMPDEST CALLER PUSH2 0x952 PUSH2 0x649 JUMP JUMPDEST PUSH1 0x1 PUSH1 0x1 PUSH1 0xA0 SHL SUB AND EQ PUSH2 0x978 JUMPI PUSH1 0x40 MLOAD PUSH3 0x461BCD PUSH1 0xE5 SHL DUP2 MSTORE PUSH1 0x4 ADD PUSH2 0x3DF SWAP1 PUSH2 0x1433 JUMP JUMPDEST DUP4 DUP3 EQ PUSH2 0x997 JUMPI PUSH1 0x40 MLOAD PUSH3 0x461BCD PUSH1 0xE5 SHL DUP2 MSTORE PUSH1 0x4 ADD PUSH2 0x3DF SWAP1 PUSH2 0x1342 JUMP JUMPDEST PUSH1 0x0 JUMPDEST DUP5 DUP2 LT ISZERO PUSH2 0x9F5 JUMPI PUSH2 0x9ED DUP7 DUP7 DUP4 DUP2 DUP2 LT PUSH2 0x9B1 JUMPI INVALID JUMPDEST SWAP1 POP PUSH1 0x20 MUL ADD PUSH1 0x20 DUP2 ADD SWAP1 PUSH2 0x9C6 SWAP2 SWAP1 PUSH2 0xF6F JUMP JUMPDEST DUP6 DUP6 DUP5 DUP2 DUP2 LT PUSH2 0x9D2 JUMPI INVALID JUMPDEST SWAP1 POP PUSH1 0x20 MUL ADD PUSH1 0x20 DUP2 ADD SWAP1 PUSH2 0x9E7 SWAP2 SWAP1 PUSH2 0xF6F JUMP JUMPDEST DUP5 PUSH2 0x6A0 JUMP JUMPDEST PUSH1 0x1 ADD PUSH2 0x99A JUMP JUMPDEST POP POP POP POP POP POP JUMP JUMPDEST CALLER PUSH2 0xA06 PUSH2 0x649 JUMP JUMPDEST PUSH1 0x1 PUSH1 0x1 PUSH1 0xA0 SHL SUB AND EQ PUSH2 0xA2C JUMPI PUSH1 0x40 MLOAD PUSH3 0x461BCD PUSH1 0xE5 SHL DUP2 MSTORE PUSH1 0x4 ADD PUSH2 0x3DF SWAP1 PUSH2 0x1433 JUMP JUMPDEST PUSH1 0x1 PUSH1 0x1 PUSH1 0xA0 SHL SUB DUP2 AND PUSH2 0xA52 JUMPI PUSH1 0x40 MLOAD PUSH3 0x461BCD PUSH1 0xE5 SHL DUP2 MSTORE PUSH1 0x4 ADD PUSH2 0x3DF SWAP1 PUSH2 0x1371 JUMP JUMPDEST PUSH1 0x0 DUP1 SLOAD PUSH1 0x40 MLOAD PUSH1 0x1 PUSH1 0x1 PUSH1 0xA0 SHL SUB DUP1 DUP6 AND SWAP4 SWAP3 AND SWAP2 PUSH32 0x8BE0079C531659141344CD1FD0A4F28419497F9722A3DAAFE3B4186F6B6457E0 SWAP2 LOG3 PUSH1 0x0 DUP1 SLOAD PUSH1 0x1 PUSH1 0x1 PUSH1 0xA0 SHL SUB NOT AND PUSH1 0x1 PUSH1 0x1 PUSH1 0xA0 SHL SUB SWAP3 SWAP1 SWAP3 AND SWAP2 SWAP1 SWAP2 OR SWAP1 SSTORE JUMP JUMPDEST PUSH1 0x1 PUSH1 0x1 PUSH1 0xA0 SHL SUB DUP3 DUP2 AND PUSH1 0x0 SWAP1 DUP2 MSTORE PUSH1 0x2 PUSH1 0x20 SWAP1 DUP2 MSTORE PUSH1 0x40 DUP1 DUP4 KECCAK256 DUP6 DUP6 AND DUP5 MSTORE SWAP1 SWAP2 MSTORE DUP2 KECCAK256 SLOAD SWAP1 SWAP2 AND PUSH2 0xAF6 JUMPI POP PUSH20 0xEFA94DE7A4656D787667C749F7E1223D71E9FD88 PUSH2 0xB20 JUMP JUMPDEST POP PUSH1 0x1 PUSH1 0x1 PUSH1 0xA0 SHL SUB DUP1 DUP4 AND PUSH1 0x0 SWAP1 DUP2 MSTORE PUSH1 0x2 PUSH1 0x20 SWAP1 DUP2 MSTORE PUSH1 0x40 DUP1 DUP4 KECCAK256 DUP6 DUP6 AND DUP5 MSTORE SWAP1 SWAP2 MSTORE SWAP1 KECCAK256 SLOAD AND JUMPDEST SWAP3 SWAP2 POP POP JUMP JUMPDEST PUSH2 0xB2E PUSH2 0xEEE JUMP JUMPDEST PUSH1 0x0 DUP3 ISZERO DUP1 PUSH2 0xB54 JUMPI POP POP DUP3 MLOAD PUSH1 0x1 PUSH1 0x1 PUSH1 0xE0 SHL SUB AND DUP3 DUP2 MUL SWAP1 DUP4 DUP3 DUP2 PUSH2 0xB51 JUMPI INVALID JUMPDEST DIV EQ JUMPDEST PUSH2 0xB70 JUMPI PUSH1 0x40 MLOAD PUSH3 0x461BCD PUSH1 0xE5 SHL DUP2 MSTORE PUSH1 0x4 ADD PUSH2 0x3DF SWAP1 PUSH2 0x1468 JUMP JUMPDEST PUSH1 0x40 DUP1 MLOAD PUSH1 0x20 DUP2 ADD SWAP1 SWAP2 MSTORE SWAP1 DUP2 MSTORE SWAP4 SWAP3 POP POP POP JUMP JUMPDEST MLOAD PUSH1 0x70 SHR SWAP1 JUMP JUMPDEST PUSH1 0x0 DUP1 DUP3 PUSH1 0x1 PUSH1 0x1 PUSH1 0xA0 SHL SUB AND DUP5 PUSH1 0x1 PUSH1 0x1 PUSH1 0xA0 SHL SUB AND EQ ISZERO PUSH2 0xBC1 JUMPI PUSH1 0x40 MLOAD PUSH3 0x461BCD PUSH1 0xE5 SHL DUP2 MSTORE PUSH1 0x4 ADD PUSH2 0x3DF SWAP1 PUSH2 0x13EE JUMP JUMPDEST DUP3 PUSH1 0x1 PUSH1 0x1 PUSH1 0xA0 SHL SUB AND DUP5 PUSH1 0x1 PUSH1 0x1 PUSH1 0xA0 SHL SUB AND LT PUSH2 0xBE1 JUMPI DUP3 DUP5 PUSH2 0xBE4 JUMP JUMPDEST DUP4 DUP4 JUMPDEST SWAP1 SWAP3 POP SWAP1 POP PUSH1 0x1 PUSH1 0x1 PUSH1 0xA0 SHL SUB DUP3 AND PUSH2 0xC0F JUMPI PUSH1 0x40 MLOAD PUSH3 0x461BCD PUSH1 0xE5 SHL DUP2 MSTORE PUSH1 0x4 ADD PUSH2 0x3DF SWAP1 PUSH2 0x14D4 JUMP JUMPDEST SWAP3 POP SWAP3 SWAP1 POP JUMP JUMPDEST PUSH1 0x0 DUP1 PUSH1 0x0 PUSH2 0xC23 PUSH2 0xDEB JUMP JUMPDEST SWAP1 POP DUP4 PUSH1 0x1 PUSH1 0x1 PUSH1 0xA0 SHL SUB AND PUSH4 0x5909C0D5 PUSH1 0x40 MLOAD DUP2 PUSH4 0xFFFFFFFF AND PUSH1 0xE0 SHL DUP2 MSTORE PUSH1 0x4 ADD PUSH1 0x20 PUSH1 0x40 MLOAD DUP1 DUP4 SUB DUP2 DUP7 DUP1 EXTCODESIZE ISZERO DUP1 ISZERO PUSH2 0xC5E JUMPI PUSH1 0x0 DUP1 REVERT JUMPDEST POP GAS STATICCALL ISZERO DUP1 ISZERO PUSH2 0xC72 JUMPI RETURNDATASIZE PUSH1 0x0 DUP1 RETURNDATACOPY RETURNDATASIZE PUSH1 0x0 REVERT JUMPDEST POP POP POP POP PUSH1 0x40 MLOAD RETURNDATASIZE PUSH1 0x1F NOT PUSH1 0x1F DUP3 ADD AND DUP3 ADD DUP1 PUSH1 0x40 MSTORE POP DUP2 ADD SWAP1 PUSH2 0xC96 SWAP2 SWAP1 PUSH2 0x11FA JUMP JUMPDEST SWAP3 POP DUP4 PUSH1 0x1 PUSH1 0x1 PUSH1 0xA0 SHL SUB AND PUSH4 0x5A3D5493 PUSH1 0x40 MLOAD DUP2 PUSH4 0xFFFFFFFF AND PUSH1 0xE0 SHL DUP2 MSTORE PUSH1 0x4 ADD PUSH1 0x20 PUSH1 0x40 MLOAD DUP1 DUP4 SUB DUP2 DUP7 DUP1 EXTCODESIZE ISZERO DUP1 ISZERO PUSH2 0xCD1 JUMPI PUSH1 0x0 DUP1 REVERT JUMPDEST POP GAS STATICCALL ISZERO DUP1 ISZERO PUSH2 0xCE5 JUMPI RETURNDATASIZE PUSH1 0x0 DUP1 RETURNDATACOPY RETURNDATASIZE PUSH1 0x0 REVERT JUMPDEST POP POP POP POP PUSH1 0x40 MLOAD RETURNDATASIZE PUSH1 0x1F NOT PUSH1 0x1F DUP3 ADD AND DUP3 ADD DUP1 PUSH1 0x40 MSTORE POP DUP2 ADD SWAP1 PUSH2 0xD09 SWAP2 SWAP1 PUSH2 0x11FA JUMP JUMPDEST SWAP2 POP PUSH1 0x0 DUP1 PUSH1 0x0 DUP7 PUSH1 0x1 PUSH1 0x1 PUSH1 0xA0 SHL SUB AND PUSH4 0x902F1AC PUSH1 0x40 MLOAD DUP2 PUSH4 0xFFFFFFFF AND PUSH1 0xE0 SHL DUP2 MSTORE PUSH1 0x4 ADD PUSH1 0x60 PUSH1 0x40 MLOAD DUP1 DUP4 SUB DUP2 DUP7 DUP1 EXTCODESIZE ISZERO DUP1 ISZERO PUSH2 0xD49 JUMPI PUSH1 0x0 DUP1 REVERT JUMPDEST POP GAS STATICCALL ISZERO DUP1 ISZERO PUSH2 0xD5D JUMPI RETURNDATASIZE PUSH1 0x0 DUP1 RETURNDATACOPY RETURNDATASIZE PUSH1 0x0 REVERT JUMPDEST POP POP POP POP PUSH1 0x40 MLOAD RETURNDATASIZE PUSH1 0x1F NOT PUSH1 0x1F DUP3 ADD AND DUP3 ADD DUP1 PUSH1 0x40 MSTORE POP DUP2 ADD SWAP1 PUSH2 0xD81 SWAP2 SWAP1 PUSH2 0x11B1 JUMP JUMPDEST SWAP3 POP SWAP3 POP SWAP3 POP DUP4 PUSH4 0xFFFFFFFF AND DUP2 PUSH4 0xFFFFFFFF AND EQ PUSH2 0xDE1 JUMPI DUP1 DUP5 SUB PUSH4 0xFFFFFFFF DUP2 AND PUSH2 0xDAE DUP5 DUP7 PUSH2 0xDF5 JUMP JUMPDEST MLOAD PUSH1 0x1 PUSH1 0x1 PUSH1 0xE0 SHL SUB AND MUL SWAP7 SWAP1 SWAP7 ADD SWAP6 PUSH4 0xFFFFFFFF DUP2 AND PUSH2 0xDCF DUP6 DUP6 PUSH2 0xDF5 JUMP JUMPDEST MLOAD PUSH1 0x1 PUSH1 0x1 PUSH1 0xE0 SHL SUB AND MUL SWAP6 SWAP1 SWAP6 ADD SWAP5 POP JUMPDEST POP POP POP SWAP2 SWAP4 SWAP1 SWAP3 POP JUMP JUMPDEST PUSH4 0xFFFFFFFF TIMESTAMP AND SWAP1 JUMP JUMPDEST PUSH2 0xDFD PUSH2 0xF01 JUMP JUMPDEST PUSH1 0x0 DUP3 PUSH1 0x1 PUSH1 0x1 PUSH1 0x70 SHL SUB AND GT PUSH2 0xE26 JUMPI PUSH1 0x40 MLOAD PUSH3 0x461BCD PUSH1 0xE5 SHL DUP2 MSTORE PUSH1 0x4 ADD PUSH2 0x3DF SWAP1 PUSH2 0x149F JUMP JUMPDEST PUSH1 0x40 DUP1 MLOAD PUSH1 0x20 DUP2 ADD SWAP1 SWAP2 MSTORE DUP1 PUSH1 0x1 PUSH1 0x1 PUSH1 0x70 SHL SUB DUP5 AND PUSH14 0xFFFFFFFFFFFFFFFFFFFFFFFFFFFF PUSH1 0x70 SHL PUSH1 0x70 DUP8 SWAP1 SHL AND DUP2 PUSH2 0xE5B JUMPI INVALID JUMPDEST DIV PUSH1 0x1 PUSH1 0x1 PUSH1 0xE0 SHL SUB AND DUP2 MSTORE POP SWAP1 POP SWAP3 SWAP2 POP POP JUMP JUMPDEST DUP3 DUP1 SLOAD PUSH1 0x1 DUP2 PUSH1 0x1 AND ISZERO PUSH2 0x100 MUL SUB AND PUSH1 0x2 SWAP1 DIV SWAP1 PUSH1 0x0 MSTORE PUSH1 0x20 PUSH1 0x0 KECCAK256 SWAP1 PUSH1 0x1F ADD PUSH1 0x20 SWAP1 DIV DUP2 ADD SWAP3 DUP3 PUSH1 0x1F LT PUSH2 0xEB1 JUMPI DUP1 MLOAD PUSH1 0xFF NOT AND DUP4 DUP1 ADD OR DUP6 SSTORE PUSH2 0xEDE JUMP JUMPDEST DUP3 DUP1 ADD PUSH1 0x1 ADD DUP6 SSTORE DUP3 ISZERO PUSH2 0xEDE JUMPI SWAP2 DUP3 ADD JUMPDEST DUP3 DUP2 GT ISZERO PUSH2 0xEDE JUMPI DUP3 MLOAD DUP3 SSTORE SWAP2 PUSH1 0x20 ADD SWAP2 SWAP1 PUSH1 0x1 ADD SWAP1 PUSH2 0xEC3 JUMP JUMPDEST POP PUSH2 0xEEA SWAP3 SWAP2 POP PUSH2 0xF13 JUMP JUMPDEST POP SWAP1 JUMP JUMPDEST PUSH1 0x40 MLOAD DUP1 PUSH1 0x20 ADD PUSH1 0x40 MSTORE DUP1 PUSH1 0x0 DUP2 MSTORE POP SWAP1 JUMP JUMPDEST PUSH1 0x40 DUP1 MLOAD PUSH1 0x20 DUP2 ADD SWAP1 SWAP2 MSTORE PUSH1 0x0 DUP2 MSTORE SWAP1 JUMP JUMPDEST PUSH2 0x656 SWAP2 SWAP1 JUMPDEST DUP1 DUP3 GT ISZERO PUSH2 0xEEA JUMPI PUSH1 0x0 DUP2 SSTORE PUSH1 0x1 ADD PUSH2 0xF19 JUMP JUMPDEST PUSH1 0x0 DUP1 DUP4 PUSH1 0x1F DUP5 ADD SLT PUSH2 0xF3E JUMPI DUP2 DUP3 REVERT JUMPDEST POP DUP2 CALLDATALOAD PUSH8 0xFFFFFFFFFFFFFFFF DUP2 GT ISZERO PUSH2 0xF55 JUMPI DUP2 DUP3 REVERT JUMPDEST PUSH1 0x20 DUP4 ADD SWAP2 POP DUP4 PUSH1 0x20 DUP1 DUP4 MUL DUP6 ADD ADD GT ISZERO PUSH2 0xC0F JUMPI PUSH1 0x0 DUP1 REVERT JUMPDEST PUSH1 0x0 PUSH1 0x20 DUP3 DUP5 SUB SLT ISZERO PUSH2 0xF80 JUMPI DUP1 DUP2 REVERT JUMPDEST DUP2 CALLDATALOAD PUSH2 0xF8B DUP2 PUSH2 0x155E JUMP JUMPDEST SWAP4 SWAP3 POP POP POP JUMP JUMPDEST PUSH1 0x0 PUSH1 0x20 DUP3 DUP5 SUB SLT ISZERO PUSH2 0xFA3 JUMPI DUP1 DUP2 REVERT JUMPDEST DUP2 MLOAD PUSH2 0xF8B DUP2 PUSH2 0x155E JUMP JUMPDEST PUSH1 0x0 DUP1 PUSH1 0x40 DUP4 DUP6 SUB SLT ISZERO PUSH2 0xFC0 JUMPI DUP1 DUP2 REVERT JUMPDEST DUP3 CALLDATALOAD PUSH2 0xFCB DUP2 PUSH2 0x155E JUMP JUMPDEST SWAP2 POP PUSH1 0x20 DUP4 ADD CALLDATALOAD PUSH2 0xFDB DUP2 PUSH2 0x155E JUMP JUMPDEST DUP1 SWAP2 POP POP SWAP3 POP SWAP3 SWAP1 POP JUMP JUMPDEST PUSH1 0x0 DUP1 PUSH1 0x0 PUSH1 0x60 DUP5 DUP7 SUB SLT ISZERO PUSH2 0xFFA JUMPI DUP1 DUP2 REVERT JUMPDEST DUP4 CALLDATALOAD PUSH2 0x1005 DUP2 PUSH2 0x155E JUMP JUMPDEST SWAP3 POP PUSH1 0x20 DUP5 ADD CALLDATALOAD PUSH2 0x1015 DUP2 PUSH2 0x155E JUMP JUMPDEST SWAP2 POP PUSH1 0x40 DUP5 ADD CALLDATALOAD PUSH2 0x1025 DUP2 PUSH2 0x155E JUMP JUMPDEST DUP1 SWAP2 POP POP SWAP3 POP SWAP3 POP SWAP3 JUMP JUMPDEST PUSH1 0x0 DUP1 PUSH1 0x0 DUP1 PUSH1 0x80 DUP6 DUP8 SUB SLT ISZERO PUSH2 0x1045 JUMPI DUP1 DUP2 REVERT JUMPDEST DUP5 CALLDATALOAD PUSH2 0x1050 DUP2 PUSH2 0x155E JUMP JUMPDEST SWAP4 POP PUSH1 0x20 DUP6 ADD CALLDATALOAD PUSH2 0x1060 DUP2 PUSH2 0x155E JUMP JUMPDEST SWAP3 POP PUSH1 0x40 DUP6 ADD CALLDATALOAD PUSH2 0x1070 DUP2 PUSH2 0x155E JUMP JUMPDEST SWAP4 SWAP7 SWAP3 SWAP6 POP SWAP3 SWAP4 PUSH1 0x60 ADD CALLDATALOAD SWAP3 POP POP JUMP JUMPDEST PUSH1 0x0 DUP1 PUSH1 0x40 DUP4 DUP6 SUB SLT ISZERO PUSH2 0x1092 JUMPI DUP2 DUP3 REVERT JUMPDEST DUP3 CALLDATALOAD PUSH2 0x109D DUP2 PUSH2 0x155E JUMP JUMPDEST SWAP2 POP PUSH1 0x20 DUP4 ADD CALLDATALOAD PUSH8 0xFFFFFFFFFFFFFFFF DUP1 DUP3 GT ISZERO PUSH2 0x10B9 JUMPI DUP3 DUP4 REVERT JUMPDEST DUP2 DUP6 ADD DUP7 PUSH1 0x1F DUP3 ADD SLT PUSH2 0x10CA JUMPI DUP4 DUP5 REVERT JUMPDEST DUP1 CALLDATALOAD SWAP3 POP DUP2 DUP4 GT ISZERO PUSH2 0x10DA JUMPI DUP4 DUP5 REVERT JUMPDEST PUSH1 0x40 MLOAD PUSH1 0x1F DUP5 ADD PUSH1 0x1F NOT AND DUP2 ADD PUSH1 0x20 ADD DUP4 DUP2 GT DUP3 DUP3 LT OR ISZERO PUSH2 0x10FA JUMPI DUP6 DUP7 REVERT JUMPDEST PUSH1 0x40 MSTORE DUP4 DUP2 MSTORE DUP2 DUP5 ADD PUSH1 0x20 ADD DUP9 LT ISZERO PUSH2 0x1111 JUMPI DUP5 DUP6 REVERT JUMPDEST PUSH2 0x1122 DUP5 PUSH1 0x20 DUP4 ADD PUSH1 0x20 DUP6 ADD PUSH2 0x1552 JUMP JUMPDEST DUP1 SWAP5 POP POP POP POP POP SWAP3 POP SWAP3 SWAP1 POP JUMP JUMPDEST PUSH1 0x0 DUP1 PUSH1 0x0 DUP1 PUSH1 0x0 PUSH1 0x60 DUP7 DUP9 SUB SLT ISZERO PUSH2 0x1147 JUMPI DUP1 DUP2 REVERT JUMPDEST DUP6 CALLDATALOAD PUSH8 0xFFFFFFFFFFFFFFFF DUP1 DUP3 GT ISZERO PUSH2 0x115E JUMPI DUP3 DUP4 REVERT JUMPDEST PUSH2 0x116A DUP10 DUP4 DUP11 ADD PUSH2 0xF2D JUMP JUMPDEST SWAP1 SWAP8 POP SWAP6 POP PUSH1 0x20 DUP9 ADD CALLDATALOAD SWAP2 POP DUP1 DUP3 GT ISZERO PUSH2 0x1182 JUMPI DUP3 DUP4 REVERT JUMPDEST POP PUSH2 0x118F DUP9 DUP3 DUP10 ADD PUSH2 0xF2D JUMP JUMPDEST SWAP1 SWAP5 POP SWAP3 POP POP PUSH1 0x40 DUP7 ADD CALLDATALOAD PUSH2 0x11A3 DUP2 PUSH2 0x155E JUMP JUMPDEST DUP1 SWAP2 POP POP SWAP3 SWAP6 POP SWAP3 SWAP6 SWAP1 SWAP4 POP JUMP JUMPDEST PUSH1 0x0 DUP1 PUSH1 0x0 PUSH1 0x60 DUP5 DUP7 SUB SLT ISZERO PUSH2 0x11C5 JUMPI DUP3 DUP4 REVERT JUMPDEST DUP4 MLOAD PUSH2 0x11D0 DUP2 PUSH2 0x1576 JUMP JUMPDEST PUSH1 0x20 DUP6 ADD MLOAD SWAP1 SWAP4 POP PUSH2 0x11E1 DUP2 PUSH2 0x1576 JUMP JUMPDEST PUSH1 0x40 DUP6 ADD MLOAD SWAP1 SWAP3 POP PUSH4 0xFFFFFFFF DUP2 AND DUP2 EQ PUSH2 0x1025 JUMPI DUP2 DUP3 REVERT JUMPDEST PUSH1 0x0 PUSH1 0x20 DUP3 DUP5 SUB SLT ISZERO PUSH2 0x120B JUMPI DUP1 DUP2 REVERT JUMPDEST POP MLOAD SWAP2 SWAP1 POP JUMP JUMPDEST PUSH12 0xFFFFFFFFFFFFFFFFFFFFFFFF NOT PUSH1 0x60 SWAP4 DUP5 SHL DUP2 AND DUP3 MSTORE SWAP2 SWAP1 SWAP3 SHL AND PUSH1 0x14 DUP3 ADD MSTORE PUSH1 0x28 ADD SWAP1 JUMP JUMPDEST PUSH1 0x0 PUSH1 0xFF PUSH1 0xF8 SHL DUP3 MSTORE PUSH1 0x1 PUSH12 0xFFFFFFFFFFFFFFFFFFFFFFFF NOT DUP7 PUSH1 0x60 SHL AND DUP2 DUP5 ADD MSTORE DUP5 PUSH1 0x15 DUP5 ADD MSTORE PUSH1 0x35 DUP3 DUP6 SLOAD DUP4 DUP2 AND PUSH1 0x0 DUP2 EQ PUSH2 0x127E JUMPI PUSH1 0x1 DUP2 EQ PUSH2 0x1299 JUMPI PUSH2 0x12CD JUMP JUMPDEST PUSH1 0xFF NOT DUP3 AND DUP8 DUP6 ADD MSTORE PUSH1 0x2 DUP3 DIV PUSH1 0x7F AND DUP8 ADD DUP5 ADD SWAP3 POP PUSH2 0x12CD JUMP JUMPDEST PUSH1 0x2 DUP3 DIV PUSH2 0x12A6 DUP10 PUSH2 0x1546 JUMP JUMPDEST DUP8 JUMPDEST DUP3 DUP2 LT ISZERO PUSH2 0x12C4 JUMPI DUP2 SLOAD DUP11 DUP3 ADD DUP9 ADD MSTORE SWAP1 DUP8 ADD SWAP1 PUSH1 0x20 ADD PUSH2 0x12A8 JUMP JUMPDEST POP POP DUP8 ADD DUP5 ADD SWAP3 POP JUMPDEST POP SWAP1 SWAP9 SWAP8 POP POP POP POP POP POP POP POP JUMP JUMPDEST PUSH1 0x1 PUSH1 0x1 PUSH1 0xA0 SHL SUB SWAP2 SWAP1 SWAP2 AND DUP2 MSTORE PUSH1 0x20 ADD SWAP1 JUMP JUMPDEST PUSH1 0x0 PUSH1 0x20 DUP1 DUP4 MSTORE DUP4 MLOAD DUP1 DUP3 DUP6 ADD MSTORE DUP3 JUMPDEST DUP2 DUP2 LT ISZERO PUSH2 0x131B JUMPI DUP6 DUP2 ADD DUP4 ADD MLOAD DUP6 DUP3 ADD PUSH1 0x40 ADD MSTORE DUP3 ADD PUSH2 0x12FF JUMP JUMPDEST DUP2 DUP2 GT ISZERO PUSH2 0x132C JUMPI DUP4 PUSH1 0x40 DUP4 DUP8 ADD ADD MSTORE JUMPDEST POP PUSH1 0x1F ADD PUSH1 0x1F NOT AND SWAP3 SWAP1 SWAP3 ADD PUSH1 0x40 ADD SWAP4 SWAP3 POP POP POP JUMP JUMPDEST PUSH1 0x20 DUP1 DUP3 MSTORE PUSH1 0x15 SWAP1 DUP3 ADD MSTORE PUSH21 0xD2DCE0EAE840D8CADCCEE8D040DAD2E6DAC2E8C6D PUSH1 0x5B SHL PUSH1 0x40 DUP3 ADD MSTORE PUSH1 0x60 ADD SWAP1 JUMP JUMPDEST PUSH1 0x20 DUP1 DUP3 MSTORE PUSH1 0x26 SWAP1 DUP3 ADD MSTORE PUSH32 0x4F776E61626C653A206E6577206F776E657220697320746865207A65726F2061 PUSH1 0x40 DUP3 ADD MSTORE PUSH6 0x646472657373 PUSH1 0xD0 SHL PUSH1 0x60 DUP3 ADD MSTORE PUSH1 0x80 ADD SWAP1 JUMP JUMPDEST PUSH1 0x20 DUP1 DUP3 MSTORE PUSH1 0x1C SWAP1 DUP3 ADD MSTORE PUSH32 0x545741505F4F7261636C653A20696E76616C696420746F6B656E496E00000000 PUSH1 0x40 DUP3 ADD MSTORE PUSH1 0x60 ADD SWAP1 JUMP JUMPDEST PUSH1 0x20 DUP1 DUP3 MSTORE PUSH1 0x25 SWAP1 DUP3 ADD MSTORE PUSH32 0x556E697377617056324C6962726172793A204944454E544943414C5F41444452 PUSH1 0x40 DUP3 ADD MSTORE PUSH5 0x4553534553 PUSH1 0xD8 SHL PUSH1 0x60 DUP3 ADD MSTORE PUSH1 0x80 ADD SWAP1 JUMP JUMPDEST PUSH1 0x20 DUP1 DUP3 MSTORE DUP2 DUP2 ADD MSTORE PUSH32 0x4F776E61626C653A2063616C6C6572206973206E6F7420746865206F776E6572 PUSH1 0x40 DUP3 ADD MSTORE PUSH1 0x60 ADD SWAP1 JUMP JUMPDEST PUSH1 0x20 DUP1 DUP3 MSTORE PUSH1 0x18 SWAP1 DUP3 ADD MSTORE PUSH32 0x4669786564506F696E743A204D554C5F4F564552464C4F570000000000000000 PUSH1 0x40 DUP3 ADD MSTORE PUSH1 0x60 ADD SWAP1 JUMP JUMPDEST PUSH1 0x20 DUP1 DUP3 MSTORE DUP2 DUP2 ADD MSTORE PUSH32 0x4669786564506F696E743A204449565F42595F5A45524F5F4652414354494F4E PUSH1 0x40 DUP3 ADD MSTORE PUSH1 0x60 ADD SWAP1 JUMP JUMPDEST PUSH1 0x20 DUP1 DUP3 MSTORE PUSH1 0x1E SWAP1 DUP3 ADD MSTORE PUSH32 0x556E697377617056324C6962726172793A205A45524F5F414444524553530000 PUSH1 0x40 DUP3 ADD MSTORE PUSH1 0x60 ADD SWAP1 JUMP JUMPDEST SWAP1 DUP2 MSTORE PUSH1 0x20 ADD SWAP1 JUMP JUMPDEST SWAP5 DUP6 MSTORE PUSH1 0x20 DUP6 ADD SWAP4 SWAP1 SWAP4 MSTORE PUSH1 0x40 DUP5 ADD SWAP2 SWAP1 SWAP2 MSTORE MLOAD PUSH1 0x1 PUSH1 0x1 PUSH1 0xE0 SHL SUB SWAP1 DUP2 AND PUSH1 0x60 DUP5 ADD MSTORE SWAP1 MLOAD AND PUSH1 0x80 DUP3 ADD MSTORE PUSH1 0xA0 ADD SWAP1 JUMP JUMPDEST PUSH1 0x0 SWAP1 DUP2 MSTORE PUSH1 0x20 SWAP1 KECCAK256 SWAP1 JUMP JUMPDEST DUP3 DUP2 DUP4 CALLDATACOPY POP PUSH1 0x0 SWAP2 ADD MSTORE JUMP JUMPDEST PUSH1 0x1 PUSH1 0x1 PUSH1 0xA0 SHL SUB DUP2 AND DUP2 EQ PUSH2 0x1573 JUMPI PUSH1 0x0 DUP1 REVERT JUMPDEST POP JUMP JUMPDEST PUSH1 0x1 PUSH1 0x1 PUSH1 0x70 SHL SUB DUP2 AND DUP2 EQ PUSH2 0x1573 JUMPI PUSH1 0x0 DUP1 REVERT INVALID LOG2 PUSH5 0x6970667358 0x22 SLT KECCAK256 0xC4 DUP11 0xF8 0xB4 PUSH11 0x9B1075BC27CB8924FA115C COINBASE NOT SLT 0xF9 0xE7 0xD7 PUSH12 0x4F55D98B97C397E01364736F PUSH13 0x63430006060033000000000000 "
        },
        "methodIdentifiers": {
          "DEFAULT_FACTORY()": "5ad8960d",
          "PERIOD()": "b4d1d795",
          "consult(address,address,address,uint256)": "29f468fc",
          "consultWithUpdate(address,address,address,uint256)": "96e6c337",
          "factories(address,address)": "9653020e",
          "factoryInitCodes(address)": "52cefcd0",
          "massSetFactory(address[],address[],address)": "d92b0064",
          "observations(address)": "8a04ff3c",
          "owner()": "8da5cb5b",
          "pairFor(address,address,address)": "6d91c0e2",
          "renounceOwnership()": "715018a6",
          "setFactory(address,address,address)": "a94fabc5",
          "setFactoryInitCode(address,bytes)": "acb0211b",
          "transferOwnership(address)": "f2fde38b",
          "update(address,address)": "c640752d"
        }
      }
    }
  }
}