{
  "_format": "hh-sol-artifact-1",
  "contractName": "TWAP_Oracle",
  "sourceName": "contracts/TWAP_Oracle.sol",
  "abi": [
    {
      "inputs": [],
      "stateMutability": "nonpayable",
      "type": "constructor"
    },
    {
      "anonymous": false,
      "inputs": [
        {
          "indexed": true,
          "internalType": "address",
          "name": "previousOwner",
          "type": "address"
        },
        {
          "indexed": true,
          "internalType": "address",
          "name": "newOwner",
          "type": "address"
        }
      ],
      "name": "OwnershipTransferred",
      "type": "event"
    },
    {
      "inputs": [],
      "name": "DEFAULT_FACTORY",
      "outputs": [
        {
          "internalType": "address",
          "name": "",
          "type": "address"
        }
      ],
      "stateMutability": "view",
      "type": "function"
    },
    {
      "inputs": [],
      "name": "PERIOD",
      "outputs": [
        {
          "internalType": "uint256",
          "name": "",
          "type": "uint256"
        }
      ],
      "stateMutability": "view",
      "type": "function"
    },
    {
      "inputs": [
        {
          "internalType": "address",
          "name": "tokenA",
          "type": "address"
        },
        {
          "internalType": "address",
          "name": "tokenB",
          "type": "address"
        },
        {
          "internalType": "address",
          "name": "tokenIn",
          "type": "address"
        },
        {
          "internalType": "uint256",
          "name": "amountIn",
          "type": "uint256"
        }
      ],
      "name": "consult",
      "outputs": [
        {
          "internalType": "uint256",
          "name": "amountOut",
          "type": "uint256"
        }
      ],
      "stateMutability": "view",
      "type": "function"
    },
    {
      "inputs": [
        {
          "internalType": "address",
          "name": "tokenA",
          "type": "address"
        },
        {
          "internalType": "address",
          "name": "tokenB",
          "type": "address"
        },
        {
          "internalType": "address",
          "name": "tokenIn",
          "type": "address"
        },
        {
          "internalType": "uint256",
          "name": "amountIn",
          "type": "uint256"
        }
      ],
      "name": "consultWithUpdate",
      "outputs": [
        {
          "internalType": "uint256",
          "name": "amountOut",
          "type": "uint256"
        }
      ],
      "stateMutability": "nonpayable",
      "type": "function"
    },
    {
      "inputs": [
        {
          "internalType": "address",
          "name": "",
          "type": "address"
        },
        {
          "internalType": "address",
          "name": "",
          "type": "address"
        }
      ],
      "name": "factories",
      "outputs": [
        {
          "internalType": "address",
          "name": "",
          "type": "address"
        }
      ],
      "stateMutability": "view",
      "type": "function"
    },
    {
      "inputs": [
        {
          "internalType": "address",
          "name": "",
          "type": "address"
        }
      ],
      "name": "factoryInitCodes",
      "outputs": [
        {
          "internalType": "bytes",
          "name": "",
          "type": "bytes"
        }
      ],
      "stateMutability": "view",
      "type": "function"
    },
    {
      "inputs": [
        {
          "internalType": "address[]",
          "name": "tokenAs",
          "type": "address[]"
        },
        {
          "internalType": "address[]",
          "name": "tokenBs",
          "type": "address[]"
        },
        {
          "internalType": "address",
          "name": "factory",
          "type": "address"
        }
      ],
      "name": "massSetFactory",
      "outputs": [],
      "stateMutability": "nonpayable",
      "type": "function"
    },
    {
      "inputs": [
        {
          "internalType": "address",
          "name": "",
          "type": "address"
        }
      ],
      "name": "observations",
      "outputs": [
        {
          "internalType": "uint256",
          "name": "timestamp",
          "type": "uint256"
        },
        {
          "internalType": "uint256",
          "name": "price0CumulativeLast",
          "type": "uint256"
        },
        {
          "internalType": "uint256",
          "name": "price1CumulativeLast",
          "type": "uint256"
        },
        {
          "components": [
            {
              "internalType": "uint224",
              "name": "_x",
              "type": "uint224"
            }
          ],
          "internalType": "struct FixedPoint.uq112x112",
          "name": "price0Average",
          "type": "tuple"
        },
        {
          "components": [
            {
              "internalType": "uint224",
              "name": "_x",
              "type": "uint224"
            }
          ],
          "internalType": "struct FixedPoint.uq112x112",
          "name": "price1Average",
          "type": "tuple"
        }
      ],
      "stateMutability": "view",
      "type": "function"
    },
    {
      "inputs": [],
      "name": "owner",
      "outputs": [
        {
          "internalType": "address",
          "name": "",
          "type": "address"
        }
      ],
      "stateMutability": "view",
      "type": "function"
    },
    {
      "inputs": [
        {
          "internalType": "address",
          "name": "factory",
          "type": "address"
        },
        {
          "internalType": "address",
          "name": "tokenA",
          "type": "address"
        },
        {
          "internalType": "address",
          "name": "tokenB",
          "type": "address"
        }
      ],
      "name": "pairFor",
      "outputs": [
        {
          "internalType": "address",
          "name": "pair",
          "type": "address"
        }
      ],
      "stateMutability": "view",
      "type": "function"
    },
    {
      "inputs": [],
      "name": "renounceOwnership",
      "outputs": [],
      "stateMutability": "nonpayable",
      "type": "function"
    },
    {
      "inputs": [
        {
          "internalType": "address",
          "name": "tokenA",
          "type": "address"
        },
        {
          "internalType": "address",
          "name": "tokenB",
          "type": "address"
        },
        {
          "internalType": "address",
          "name": "factory",
          "type": "address"
        }
      ],
      "name": "setFactory",
      "outputs": [],
      "stateMutability": "nonpayable",
      "type": "function"
    },
    {
      "inputs": [
        {
          "internalType": "address",
          "name": "factory",
          "type": "address"
        },
        {
          "internalType": "bytes",
          "name": "initCode",
          "type": "bytes"
        }
      ],
      "name": "setFactoryInitCode",
      "outputs": [],
      "stateMutability": "nonpayable",
      "type": "function"
    },
    {
      "inputs": [
        {
          "internalType": "address",
          "name": "newOwner",
          "type": "address"
        }
      ],
      "name": "transferOwnership",
      "outputs": [],
      "stateMutability": "nonpayable",
      "type": "function"
    },
    {
      "inputs": [
        {
          "internalType": "address",
          "name": "tokenA",
          "type": "address"
        },
        {
          "internalType": "address",
          "name": "tokenB",
          "type": "address"
        }
      ],
      "name": "update",
      "outputs": [],
      "stateMutability": "nonpayable",
      "type": "function"
    }
  ],
  "bytecode": "0x60806040523480156200001157600080fd5b50600080546001600160a01b0319163390811782556040519091907f8be0079c531659141344cd1fd0a4f28419497f9722a3daafe3b4186f6b6457e0908290a3620000ac73efa94de7a4656d787667c749f7e1223d71e9fd886040518060400160405280602081526020017f40231f6b438bce0797c9ada29b718a87ea0a5cea3fe9a771abdd76bd41a3e5458152506200016860201b60201c565b62000107739ad6c38be94206ca50bb0d90783181662f0cfa106040518060400160405280602081526020017f0bbca9af0511ad1a1da383135cf3a8d2ac620e549ef9f6ae3a4c33c2fed0af918152506200016860201b60201c565b6200016273a52abe4676dbfd04df42ef7755f01a3c41f28d276040518060400160405280602081526020017f47cc4f3a5e7a237c464e09c6758ac645084f198b8f64eedc923317ac4481a10c8152506200016860201b60201c565b620002c5565b336200017c6001600160e01b03620001de16565b6001600160a01b031614620001ae5760405162461bcd60e51b8152600401620001a59062000290565b60405180910390fd5b6001600160a01b03821660009081526003602090815260409091208251620001d992840190620001ee565b505050565b6000546001600160a01b03165b90565b828054600181600116156101000203166002900490600052602060002090601f016020900481019282601f106200023157805160ff191683800117855562000261565b8280016001018555821562000261579182015b828111156200026157825182559160200191906001019062000244565b506200026f92915062000273565b5090565b620001eb91905b808211156200026f57600081556001016200027a565b6020808252818101527f4f776e61626c653a2063616c6c6572206973206e6f7420746865206f776e6572604082015260600190565b6115c180620002d56000396000f3fe608060405234801561001057600080fd5b50600436106100f55760003560e01c80639653020e11610097578063b4d1d79511610066578063b4d1d795146101ed578063c640752d146101f5578063d92b006414610208578063f2fde38b1461021b576100f5565b80639653020e146101a157806396e6c337146101b4578063a94fabc5146101c7578063acb0211b146101da576100f5565b80636d91c0e2116100d35780636d91c0e214610158578063715018a61461016b5780638a04ff3c146101755780638da5cb5b14610199576100f5565b806329f468fc146100fa57806352cefcd0146101235780635ad8960d14610143575b600080fd5b61010d610108366004611030565b61022e565b60405161011a919061150b565b60405180910390f35b610136610131366004610f6f565b610449565b60405161011a91906112ef565b61014b6104e4565b60405161011a91906112db565b61014b610166366004610fe6565b6104fc565b610173610581565b005b610188610183366004610f6f565b6105fa565b60405161011a959493929190611514565b61014b610649565b61014b6101af366004610fae565b610659565b61010d6101c2366004611030565b61067f565b6101736101d5366004610fe6565b6106a0565b6101736101e8366004611080565b610773565b61010d6107d0565b610173610203366004610fae565b6107d7565b610173610216366004611130565b610949565b610173610229366004610f6f565b6109fd565b60008061023b8686610aad565b9050600061024a8288886104fc565b90506000816001600160a01b0316630dfe16816040518163ffffffff1660e01b815260040160206040518083038186803b15801561028757600080fd5b505afa15801561029b573d6000803e3d6000fd5b505050506040513d601f19601f820116820180604052508101906102bf9190610f92565b90506000826001600160a01b031663d21220a76040518163ffffffff1660e01b815260040160206040518083038186803b1580156102fc57600080fd5b505afa158015610310573d6000803e3d6000fd5b505050506040513d601f19601f820116820180604052508101906103349190610f92565b9050816001600160a01b0316876001600160a01b031614156103ae576001600160a01b03831660009081526001602090815260409182902082519182019092526003909101546001600160e01b0316815261039e90610399908863ffffffff610b2616565b610b85565b6001600160901b0316945061043d565b806001600160a01b0316876001600160a01b0316146103e85760405162461bcd60e51b81526004016103df906113b7565b60405180910390fd5b6001600160a01b03831660009081526001602090815260409182902082519182019092526003909101546001600160e01b0316815261043190610399908863ffffffff610b2616565b6001600160901b031694505b50505050949350505050565b60036020908152600091825260409182902080548351601f6002600019610100600186161502019093169290920491820184900484028101840190945280845290918301828280156104dc5780601f106104b1576101008083540402835291602001916104dc565b820191906000526020600020905b8154815290600101906020018083116104bf57829003601f168201915b505050505081565b73efa94de7a4656d787667c749f7e1223d71e9fd8881565b600080600061050b8585610b8c565b91509150858282604051602001610523929190611212565b60408051601f1981840301815282825280516020918201206001600160a01b038b166000908152600383529290922061055f9493909101611239565b60408051601f1981840301815291905280516020909101209695505050505050565b3361058a610649565b6001600160a01b0316146105b05760405162461bcd60e51b81526004016103df90611433565b600080546040516001600160a01b03909116907f8be0079c531659141344cd1fd0a4f28419497f9722a3daafe3b4186f6b6457e0908390a3600080546001600160a01b0319169055565b60016020818152600092835260409283902080549281015460028201548551808501875260038401546001600160e01b0390811682528751958601909752600490930154909516835292939185565b6000546001600160a01b03165b90565b60026020908152600092835260408084209091529082529020546001600160a01b031681565b600061068b85856107d7565b6106978585858561022e565b95945050505050565b336106a9610649565b6001600160a01b0316146106cf5760405162461bcd60e51b81526004016103df90611433565b6001600160a01b0380841660008181526002602081815260408084208887168552825280842080549688166001600160a01b0319978816811790915592825280842094845293905291812080549093169091179091556107308285856104fc565b905060008061073e83610c16565b506001600160a01b03909416600090815260016020819052604090912042815590810191909155600201929092555050505050565b3361077c610649565b6001600160a01b0316146107a25760405162461bcd60e51b81526004016103df90611433565b6001600160a01b038216600090815260036020908152604090912082516107cb92840190610e70565b505050565b6201518081565b60006107e38383610aad565b905060006107f28285856104fc565b6001600160a01b0381166000908152600160205260409020549091504203620151808111156109425760008061082784610c16565b5091509150428310156109165760405180602001604052808460016000886001600160a01b03166001600160a01b031681526020019081526020016000206001015485038161087257fe5b046001600160e01b039081169091526001600160a01b03861660009081526001602090815260409182902093516003850180546001600160e01b031916919094161790925580519182019052600290910154819085908403816108d157fe5b046001600160e01b039081169091526001600160a01b03861660009081526001602052604090209151600490920180546001600160e01b031916929091169190911790555b6001600160a01b0384166000908152600160208190526040909120428155908101929092556002909101555b5050505050565b33610952610649565b6001600160a01b0316146109785760405162461bcd60e51b81526004016103df90611433565b8382146109975760405162461bcd60e51b81526004016103df90611342565b60005b848110156109f5576109ed8686838181106109b157fe5b90506020020160208101906109c69190610f6f565b8585848181106109d257fe5b90506020020160208101906109e79190610f6f565b846106a0565b60010161099a565b505050505050565b33610a06610649565b6001600160a01b031614610a2c5760405162461bcd60e51b81526004016103df90611433565b6001600160a01b038116610a525760405162461bcd60e51b81526004016103df90611371565b600080546040516001600160a01b03808516939216917f8be0079c531659141344cd1fd0a4f28419497f9722a3daafe3b4186f6b6457e091a3600080546001600160a01b0319166001600160a01b0392909216919091179055565b6001600160a01b0382811660009081526002602090815260408083208585168452909152812054909116610af6575073efa94de7a4656d787667c749f7e1223d71e9fd88610b20565b506001600160a01b0380831660009081526002602090815260408083208585168452909152902054165b92915050565b610b2e610eee565b6000821580610b5457505082516001600160e01b031682810290838281610b5157fe5b04145b610b705760405162461bcd60e51b81526004016103df90611468565b60408051602081019091529081529392505050565b5160701c90565b600080826001600160a01b0316846001600160a01b03161415610bc15760405162461bcd60e51b81526004016103df906113ee565b826001600160a01b0316846001600160a01b031610610be1578284610be4565b83835b90925090506001600160a01b038216610c0f5760405162461bcd60e51b81526004016103df906114d4565b9250929050565b6000806000610c23610deb565b9050836001600160a01b0316635909c0d56040518163ffffffff1660e01b815260040160206040518083038186803b158015610c5e57600080fd5b505afa158015610c72573d6000803e3d6000fd5b505050506040513d601f19601f82011682018060405250810190610c9691906111fa565b9250836001600160a01b0316635a3d54936040518163ffffffff1660e01b815260040160206040518083038186803b158015610cd157600080fd5b505afa158015610ce5573d6000803e3d6000fd5b505050506040513d601f19601f82011682018060405250810190610d0991906111fa565b91506000806000866001600160a01b0316630902f1ac6040518163ffffffff1660e01b815260040160606040518083038186803b158015610d4957600080fd5b505afa158015610d5d573d6000803e3d6000fd5b505050506040513d601f19601f82011682018060405250810190610d8191906111b1565b9250925092508363ffffffff168163ffffffff1614610de15780840363ffffffff8116610dae8486610df5565b516001600160e01b031602969096019563ffffffff8116610dcf8585610df5565b516001600160e01b0316029590950194505b5050509193909250565b63ffffffff421690565b610dfd610f01565b6000826001600160701b031611610e265760405162461bcd60e51b81526004016103df9061149f565b6040805160208101909152806001600160701b0384166dffffffffffffffffffffffffffff60701b607087901b1681610e5b57fe5b046001600160e01b0316815250905092915050565b828054600181600116156101000203166002900490600052602060002090601f016020900481019282601f10610eb157805160ff1916838001178555610ede565b82800160010185558215610ede579182015b82811115610ede578251825591602001919060010190610ec3565b50610eea929150610f13565b5090565b6040518060200160405280600081525090565b60408051602081019091526000815290565b61065691905b80821115610eea5760008155600101610f19565b60008083601f840112610f3e578182fd5b50813567ffffffffffffffff811115610f55578182fd5b6020830191508360208083028501011115610c0f57600080fd5b600060208284031215610f80578081fd5b8135610f8b8161155e565b9392505050565b600060208284031215610fa3578081fd5b8151610f8b8161155e565b60008060408385031215610fc0578081fd5b8235610fcb8161155e565b91506020830135610fdb8161155e565b809150509250929050565b600080600060608486031215610ffa578081fd5b83356110058161155e565b925060208401356110158161155e565b915060408401356110258161155e565b809150509250925092565b60008060008060808587031215611045578081fd5b84356110508161155e565b935060208501356110608161155e565b925060408501356110708161155e565b9396929550929360600135925050565b60008060408385031215611092578182fd5b823561109d8161155e565b9150602083013567ffffffffffffffff808211156110b9578283fd5b81850186601f8201126110ca578384fd5b80359250818311156110da578384fd5b604051601f8401601f1916810160200183811182821017156110fa578586fd5b604052838152818401602001881015611111578485fd5b611122846020830160208501611552565b809450505050509250929050565b600080600080600060608688031215611147578081fd5b853567ffffffffffffffff8082111561115e578283fd5b61116a89838a01610f2d565b90975095506020880135915080821115611182578283fd5b5061118f88828901610f2d565b90945092505060408601356111a38161155e565b809150509295509295909350565b6000806000606084860312156111c5578283fd5b83516111d081611576565b60208501519093506111e181611576565b604085015190925063ffffffff81168114611025578182fd5b60006020828403121561120b578081fd5b5051919050565b6bffffffffffffffffffffffff19606093841b811682529190921b16601482015260280190565b600060ff60f81b825260016bffffffffffffffffffffffff198660601b168184015284601584015260358285548381166000811461127e5760018114611299576112cd565b60ff1982168785015260028204607f168701840192506112cd565b600282046112a689611546565b875b828110156112c45781548a8201880152908701906020016112a8565b50508701840192505b509098975050505050505050565b6001600160a01b0391909116815260200190565b6000602080835283518082850152825b8181101561131b578581018301518582016040015282016112ff565b8181111561132c5783604083870101525b50601f01601f1916929092016040019392505050565b6020808252601590820152740d2dce0eae840d8cadccee8d040dad2e6dac2e8c6d605b1b604082015260600190565b60208082526026908201527f4f776e61626c653a206e6577206f776e657220697320746865207a65726f206160408201526564647265737360d01b606082015260800190565b6020808252601c908201527f545741505f4f7261636c653a20696e76616c696420746f6b656e496e00000000604082015260600190565b60208082526025908201527f556e697377617056324c6962726172793a204944454e544943414c5f41444452604082015264455353455360d81b606082015260800190565b6020808252818101527f4f776e61626c653a2063616c6c6572206973206e6f7420746865206f776e6572604082015260600190565b60208082526018908201527f4669786564506f696e743a204d554c5f4f564552464c4f570000000000000000604082015260600190565b6020808252818101527f4669786564506f696e743a204449565f42595f5a45524f5f4652414354494f4e604082015260600190565b6020808252601e908201527f556e697377617056324c6962726172793a205a45524f5f414444524553530000604082015260600190565b90815260200190565b94855260208501939093526040840191909152516001600160e01b039081166060840152905116608082015260a00190565b60009081526020902090565b82818337506000910152565b6001600160a01b038116811461157357600080fd5b50565b6001600160701b038116811461157357600080fdfea2646970667358221220c48af8b46a9b1075bc27cb8924fa115c411912f9e7d76b4f55d98b97c397e01364736f6c63430006060033",
  "linkReferences": {},
  "deployedLinkReferences": {}
}