{
  "_format": "hh-sol-artifact-1",
  "contractName": "BoofiStrategyForJoeV3Staking",
  "sourceName": "contracts/BoofiStrategyForJoeV3Staking.sol",
  "abi": [
    {
      "inputs": [
        {
          "internalType": "contract IHauntedHouse",
          "name": "_hauntedHouse",
          "type": "address"
        },
        {
          "internalType": "contract IERC20",
          "name": "_depositToken",
          "type": "address"
        },
        {
          "internalType": "uint256",
          "name": "_JOE_PID",
          "type": "uint256"
        },
        {
          "internalType": "address[]",
          "name": "_REWARD_TOKENS_ARRAY",
          "type": "address[]"
        }
      ],
      "stateMutability": "nonpayable",
      "type": "constructor"
    },
    {
      "anonymous": false,
      "inputs": [
        {
          "indexed": true,
          "internalType": "address",
          "name": "previousOwner",
          "type": "address"
        },
        {
          "indexed": true,
          "internalType": "address",
          "name": "newOwner",
          "type": "address"
        }
      ],
      "name": "OwnershipTransferred",
      "type": "event"
    },
    {
      "inputs": [],
      "name": "AVAX",
      "outputs": [
        {
          "internalType": "address",
          "name": "",
          "type": "address"
        }
      ],
      "stateMutability": "view",
      "type": "function"
    },
    {
      "inputs": [],
      "name": "JOE_MASTERCHEF_V3",
      "outputs": [
        {
          "internalType": "contract IJoeChef",
          "name": "",
          "type": "address"
        }
      ],
      "stateMutability": "view",
      "type": "function"
    },
    {
      "inputs": [],
      "name": "JOE_PID",
      "outputs": [
        {
          "internalType": "uint256",
          "name": "",
          "type": "uint256"
        }
      ],
      "stateMutability": "view",
      "type": "function"
    },
    {
      "inputs": [],
      "name": "JOE_ROUTER",
      "outputs": [
        {
          "internalType": "contract IRouter",
          "name": "",
          "type": "address"
        }
      ],
      "stateMutability": "view",
      "type": "function"
    },
    {
      "inputs": [],
      "name": "NUMBER_REWARDS_TOKENS",
      "outputs": [
        {
          "internalType": "uint256",
          "name": "",
          "type": "uint256"
        }
      ],
      "stateMutability": "view",
      "type": "function"
    },
    {
      "inputs": [
        {
          "internalType": "uint256",
          "name": "",
          "type": "uint256"
        }
      ],
      "name": "REWARDS_TOKEN_ARRAY",
      "outputs": [
        {
          "internalType": "address",
          "name": "",
          "type": "address"
        }
      ],
      "stateMutability": "view",
      "type": "function"
    },
    {
      "inputs": [],
      "name": "ROUTER",
      "outputs": [
        {
          "internalType": "contract IRouter",
          "name": "",
          "type": "address"
        }
      ],
      "stateMutability": "view",
      "type": "function"
    },
    {
      "inputs": [],
      "name": "checkReward",
      "outputs": [
        {
          "internalType": "uint256",
          "name": "",
          "type": "uint256"
        }
      ],
      "stateMutability": "view",
      "type": "function"
    },
    {
      "inputs": [
        {
          "internalType": "address",
          "name": "",
          "type": "address"
        },
        {
          "internalType": "address",
          "name": "",
          "type": "address"
        },
        {
          "internalType": "uint256",
          "name": "tokenAmount",
          "type": "uint256"
        },
        {
          "internalType": "uint256",
          "name": "",
          "type": "uint256"
        }
      ],
      "name": "deposit",
      "outputs": [],
      "stateMutability": "nonpayable",
      "type": "function"
    },
    {
      "inputs": [],
      "name": "depositToken",
      "outputs": [
        {
          "internalType": "contract IERC20",
          "name": "",
          "type": "address"
        }
      ],
      "stateMutability": "view",
      "type": "function"
    },
    {
      "inputs": [],
      "name": "hauntedHouse",
      "outputs": [
        {
          "internalType": "contract IHauntedHouse",
          "name": "",
          "type": "address"
        }
      ],
      "stateMutability": "view",
      "type": "function"
    },
    {
      "inputs": [
        {
          "internalType": "contract IERC20",
          "name": "token",
          "type": "address"
        },
        {
          "internalType": "address",
          "name": "to",
          "type": "address"
        },
        {
          "internalType": "uint256",
          "name": "amount",
          "type": "uint256"
        }
      ],
      "name": "inCaseTokensGetStuck",
      "outputs": [],
      "stateMutability": "nonpayable",
      "type": "function"
    },
    {
      "inputs": [
        {
          "internalType": "address",
          "name": "newStrategy",
          "type": "address"
        }
      ],
      "name": "migrate",
      "outputs": [],
      "stateMutability": "nonpayable",
      "type": "function"
    },
    {
      "inputs": [],
      "name": "onMigration",
      "outputs": [],
      "stateMutability": "nonpayable",
      "type": "function"
    },
    {
      "inputs": [],
      "name": "owner",
      "outputs": [
        {
          "internalType": "address",
          "name": "",
          "type": "address"
        }
      ],
      "stateMutability": "view",
      "type": "function"
    },
    {
      "inputs": [
        {
          "internalType": "address",
          "name": "",
          "type": "address"
        }
      ],
      "name": "pendingTokens",
      "outputs": [
        {
          "internalType": "address[]",
          "name": "",
          "type": "address[]"
        },
        {
          "internalType": "uint256[]",
          "name": "",
          "type": "uint256[]"
        }
      ],
      "stateMutability": "view",
      "type": "function"
    },
    {
      "inputs": [],
      "name": "performanceFeeBips",
      "outputs": [
        {
          "internalType": "uint256",
          "name": "",
          "type": "uint256"
        }
      ],
      "stateMutability": "view",
      "type": "function"
    },
    {
      "inputs": [],
      "name": "renounceOwnership",
      "outputs": [],
      "stateMutability": "nonpayable",
      "type": "function"
    },
    {
      "inputs": [
        {
          "internalType": "uint256",
          "name": "newPerformanceFeeBips",
          "type": "uint256"
        }
      ],
      "name": "setPerformanceFeeBips",
      "outputs": [],
      "stateMutability": "nonpayable",
      "type": "function"
    },
    {
      "inputs": [
        {
          "internalType": "uint256",
          "name": "",
          "type": "uint256"
        }
      ],
      "name": "storedPerformanceFees",
      "outputs": [
        {
          "internalType": "uint256",
          "name": "",
          "type": "uint256"
        }
      ],
      "stateMutability": "view",
      "type": "function"
    },
    {
      "inputs": [
        {
          "internalType": "uint256",
          "name": "",
          "type": "uint256"
        }
      ],
      "name": "totalHarvested",
      "outputs": [
        {
          "internalType": "uint256",
          "name": "",
          "type": "uint256"
        }
      ],
      "stateMutability": "view",
      "type": "function"
    },
    {
      "inputs": [
        {
          "internalType": "address",
          "name": "newOwner",
          "type": "address"
        }
      ],
      "name": "transferOwnership",
      "outputs": [],
      "stateMutability": "nonpayable",
      "type": "function"
    },
    {
      "inputs": [
        {
          "internalType": "address",
          "name": "",
          "type": "address"
        },
        {
          "internalType": "address",
          "name": "to",
          "type": "address"
        },
        {
          "internalType": "uint256",
          "name": "tokenAmount",
          "type": "uint256"
        },
        {
          "internalType": "uint256",
          "name": "",
          "type": "uint256"
        }
      ],
      "name": "withdraw",
      "outputs": [],
      "stateMutability": "nonpayable",
      "type": "function"
    },
    {
      "inputs": [],
      "name": "withdrawPerformanceFees",
      "outputs": [],
      "stateMutability": "nonpayable",
      "type": "function"
    }
  ],
  "bytecode": "0x610120604052610bb86001553480156200001857600080fd5b5060405162002c9d38038062002c9d8339810160408190526200003b9162000ced565b83837360ae616a2155ee3d9a68541ba4544862310933d48383836200006033620006b6565b6001600160a01b038216158015906200008157506001600160a01b03811615155b620000be5760405162461bcd60e51b81526020600482015260086024820152671e995c9bc818985960c21b60448201526064015b60405180910390fd5b6001600160a01b03808316608052811660a052620000dc8262000706565b50508051620000f16002602084018362000bf0565b5060e0819052806001600160401b0381111562000112576200011262000cc5565b6040519080825280602002602001820160405280156200013c578160200160208202803683370190505b508051620001539160049160209091019062000c5a565b50806001600160401b038111156200016f576200016f62000cc5565b60405190808252806020026020018201604052801562000199578160200160208202803683370190505b508051620001b09160039160209091019062000c5a565b506001600160a01b03831660c05260005b818110156200026e5773eeeeeeeeeeeeeeeeeeeeeeeeeeeeeeeeeeeeeeee6001600160a01b0316838281518110620001fd57620001fd62000df5565b60200260200101516001600160a01b03161462000259576200025960c05160001985848151811062000233576200023362000df5565b60200260200101516001600160a01b03166200076a60201b62000abb179092919060201c565b80620002658162000e0b565b915050620001c1565b505050505050736e84a6216ea6dacc71ee8e6b0a5b7322eebc0fdd6001600160a01b031681600081518110620002a857620002a862000df5565b60200260200101516001600160a01b031614620003085760405162461bcd60e51b815260206004820152601860248201527f666972737420726577617264206d757374206265204a4f4500000000000000006044820152606401620000b5565b600560209081527f05b8ccbb9d4d8fb16ea74ce3c29a41f1b461fbdaff4714a0d9a8eb05499746bc8054600181810183557fd08c889a2b804c67887cd70e57ff036e6bc341281711f6587c117607d171d09391820180546001600160a01b0319908116736e84a6216ea6dacc71ee8e6b0a5b7322eebc0fdd17909155835491820184559101805490911673b31f66aa3c1e785363f0875a1b74e27b85fd66c71790556000805260408051637679b9d360e01b8152905191926001600160a01b03881692637679b9d3926004808201939291829003018186803b158015620003ee57600080fd5b505afa15801562000403573d6000803e3d6000fd5b505050506040513d601f19601f8201168201806040525081019062000429919062000e35565b815460018082018455600093845260209093200180546001600160a01b0319166001600160a01b03929092169190911790555b81518110156200066d57600081815260056020526040902082518390839081106200048b576200048b62000df5565b60209081029190910181015182546001810184556000938452919092200180546001600160a01b0319166001600160a01b03909216919091179055815173eeeeeeeeeeeeeeeeeeeeeeeeeeeeeeeeeeeeeeee90839083908110620004f357620004f362000df5565b60200260200101516001600160a01b03161415801562000555575073b31f66aa3c1e785363f0875a1b74e27b85fd66c76001600160a01b031682828151811062000541576200054162000df5565b60200260200101516001600160a01b031614155b156200059e5760008181526005602090815260408220805460018101825590835291200180546001600160a01b03191673b31f66aa3c1e785363f0875a1b74e27b85fd66c71790555b60056000828152602001908152602001600020856001600160a01b0316637679b9d36040518163ffffffff1660e01b815260040160206040518083038186803b158015620005eb57600080fd5b505afa15801562000600573d6000803e3d6000fd5b505050506040513d601f19601f8201168201806040525081019062000626919062000e35565b81546001810183556000928352602090922090910180546001600160a01b0319166001600160a01b0390921691909117905580620006648162000e0b565b9150506200045c565b50610100829052620006ac6001600160a01b03841673188bed1968b795d5c9022f6a0bb5931ac4c18f006000196200076a602090811b62000abb17901c565b5050505062000f19565b600080546001600160a01b038381166001600160a01b0319831681178455604051919092169283917f8be0079c531659141344cd1fd0a4f28419497f9722a3daafe3b4186f6b6457e09190a35050565b6000546001600160a01b03163314620007515760405162461bcd60e51b8152602060048201819052602482015260008051602062002c7d8339815191526044820152606401620000b5565b6200076781620008c960201b62000c121760201c565b50565b801580620007f85750604051636eb1769f60e11b81523060048201526001600160a01b03838116602483015284169063dd62ed3e9060440160206040518083038186803b158015620007bb57600080fd5b505afa158015620007d0573d6000803e3d6000fd5b505050506040513d601f19601f82011682018060405250810190620007f6919062000e55565b155b6200086c5760405162461bcd60e51b815260206004820152603660248201527f5361666545524332303a20617070726f76652066726f6d206e6f6e2d7a65726f60448201527f20746f206e6f6e2d7a65726f20616c6c6f77616e6365000000000000000000006064820152608401620000b5565b604080516001600160a01b038416602482015260448082018490528251808303909101815260649091019091526020810180516001600160e01b0390811663095ea7b360e01b17909152620008c49185916200098616565b505050565b6000546001600160a01b03163314620009145760405162461bcd60e51b8152602060048201819052602482015260008051602062002c7d8339815191526044820152606401620000b5565b6001600160a01b0381166200097b5760405162461bcd60e51b815260206004820152602660248201527f4f776e61626c653a206e6577206f776e657220697320746865207a65726f206160448201526564647265737360d01b6064820152608401620000b5565b6200076781620006b6565b6000620009e2826040518060400160405280602081526020017f5361666545524332303a206c6f772d6c6576656c2063616c6c206661696c6564815250856001600160a01b031662000a6460201b62000caa179092919060201c565b805190915015620008c4578080602001905181019062000a03919062000e6f565b620008c45760405162461bcd60e51b815260206004820152602a60248201527f5361666545524332303a204552433230206f7065726174696f6e20646964206e6044820152691bdd081cdd58d8d9595960b21b6064820152608401620000b5565b606062000a75848460008562000a7f565b90505b9392505050565b60608247101562000ae25760405162461bcd60e51b815260206004820152602660248201527f416464726573733a20696e73756666696369656e742062616c616e636520666f6044820152651c8818d85b1b60d21b6064820152608401620000b5565b843b62000b325760405162461bcd60e51b815260206004820152601d60248201527f416464726573733a2063616c6c20746f206e6f6e2d636f6e74726163740000006044820152606401620000b5565b600080866001600160a01b0316858760405162000b50919062000ec6565b60006040518083038185875af1925050503d806000811462000b8f576040519150601f19603f3d011682016040523d82523d6000602084013e62000b94565b606091505b50909250905062000ba782828662000bb2565b979650505050505050565b6060831562000bc357508162000a78565b82511562000bd45782518084602001fd5b8160405162461bcd60e51b8152600401620000b5919062000ee4565b82805482825590600052602060002090810192821562000c48579160200282015b8281111562000c4857825182546001600160a01b0319166001600160a01b0390911617825560209092019160019091019062000c11565b5062000c5692915062000c98565b5090565b82805482825590600052602060002090810192821562000c48579160200282015b8281111562000c4857825182559160200191906001019062000c7b565b5b8082111562000c56576000815560010162000c99565b6001600160a01b03811681146200076757600080fd5b634e487b7160e01b600052604160045260246000fd5b805162000ce88162000caf565b919050565b6000806000806080858703121562000d0457600080fd5b845162000d118162000caf565b8094505060208086015162000d268162000caf565b6040870151606088015191955093506001600160401b038082111562000d4b57600080fd5b818801915088601f83011262000d6057600080fd5b81518181111562000d755762000d7562000cc5565b8060051b604051601f19603f8301168101818110858211171562000d9d5762000d9d62000cc5565b60405291825284820192508381018501918b83111562000dbc57600080fd5b938501935b8285101562000de55762000dd58562000cdb565b8452938501939285019262000dc1565b989b979a50959850505050505050565b634e487b7160e01b600052603260045260246000fd5b600060001982141562000e2e57634e487b7160e01b600052601160045260246000fd5b5060010190565b60006020828403121562000e4857600080fd5b815162000a788162000caf565b60006020828403121562000e6857600080fd5b5051919050565b60006020828403121562000e8257600080fd5b8151801515811462000a7857600080fd5b60005b8381101562000eb057818101518382015260200162000e96565b8381111562000ec0576000848401525b50505050565b6000825162000eda81846020870162000e93565b9190910192915050565b602081526000825180602084015262000f0581604085016020870162000e93565b601f01601f19169190910160400192915050565b60805160a05160c05160e05161010051611ca862000fd5600039600081816102940152818161074301528181610ef501528181610fd40152818161106201526113ba015260008181610249015281816103bf015281816108e001528181610d4e01528181610db60152610e3001526000818161018701526115990152600081816103420152818161059b015281816106e0015281816108b30152610a2b0152600081816101ec0152818161045e01526115de0152611ca86000f3fe608060405234801561001057600080fd5b50600436106101585760003560e01c80639c0be147116100c3578063c89039c51161007c578063c89039c51461033d578063c910103614610364578063ce5494bb14610377578063dfd0c09d1461038a578063f2fde38b14610393578063f587268a146103a657600080fd5b80639c0be1471461028f578063a35c5822146102b6578063b59f091e146102c9578063bbf59c02146102e4578063c031a66f146102ff578063c4b24a461461033557600080fd5b80635e26d5eb116101155780635e26d5eb1461020e5780635ea5f6a314610221578063715018a61461023c5780637163c9d9146102445780637bfe950c1461026b5780638da5cb5b1461027e57600080fd5b806304a0906e1461015d57806320e8c565146101675780632d39811f1461017a57806332fe7b2614610182578063352525a6146101c65780633e12212e146101e7575b600080fd5b6101656103b9565b005b610165610175366004611732565b610509565b610165610559565b6101a97f000000000000000000000000000000000000000000000000000000000000000081565b6040516001600160a01b0390911681526020015b60405180910390f35b6101d96101d4366004611778565b61062b565b6040519081526020016101bd565b6101a97f000000000000000000000000000000000000000000000000000000000000000081565b6101d961021c366004611778565b61064c565b6101a97360ae616a2155ee3d9a68541ba4544862310933d481565b61016561065c565b6101d97f000000000000000000000000000000000000000000000000000000000000000081565b610165610279366004611732565b610692565b6000546001600160a01b03166101a9565b6101d97f000000000000000000000000000000000000000000000000000000000000000081565b6101a96102c4366004611778565b610707565b6101a973eeeeeeeeeeeeeeeeeeeeeeeeeeeeeeeeeeeeeeee81565b6101a973188bed1968b795d5c9022f6a0bb5931ac4c18f0081565b61032761030d366004611791565b506040805160008082526020820190815281830190925291565b6040516101bd9291906117ae565b6101d9610731565b6101a97f000000000000000000000000000000000000000000000000000000000000000081565b610165610372366004611778565b6107ef565b610165610385366004611791565b610861565b6101d960015481565b6101656103a1366004611791565b61097c565b6101656103b4366004611832565b6109af565b6000805b7f000000000000000000000000000000000000000000000000000000000000000081101561050557600481815481106103f8576103f8611873565b9060005260206000200154915060006004828154811061041a5761041a611873565b90600052602060002001819055506104f36002828154811061043e5761043e611873565b9060005260206000200160009054906101000a90046001600160a01b03167f00000000000000000000000000000000000000000000000000000000000000006001600160a01b0316638471692a6040518163ffffffff1660e01b815260040160206040518083038186803b1580156104b557600080fd5b505afa1580156104c9573d6000803e3d6000fd5b505050506040513d601f19601f820116820180604052508101906104ed9190611889565b84610cc3565b806104fd816118bc565b9150506103bd565b5050565b6000546001600160a01b0316331461053c5760405162461bcd60e51b8152600401610533906118d7565b60405180910390fd5b610544610d38565b81156105535761055382610ee6565b50505050565b6000546001600160a01b031633146105835760405162461bcd60e51b8152600401610533906118d7565b6040516370a0823160e01b81523060048201526000907f00000000000000000000000000000000000000000000000000000000000000006001600160a01b0316906370a082319060240160206040518083038186803b1580156105e557600080fd5b505afa1580156105f9573d6000803e3d6000fd5b505050506040513d601f19601f8201168201806040525081019061061d919061190c565b905061062881610ee6565b50565b6003818154811061063b57600080fd5b600091825260209091200154905081565b6004818154811061063b57600080fd5b6000546001600160a01b031633146106865760405162461bcd60e51b8152600401610533906118d7565b6106906000610f75565b565b6000546001600160a01b031633146106bc5760405162461bcd60e51b8152600401610533906118d7565b6106c4610d38565b8115610553576106d382610fc5565b6105536001600160a01b037f0000000000000000000000000000000000000000000000000000000000000000168484611023565b6002818154811061071757600080fd5b6000918252602090912001546001600160a01b0316905081565b60405160016232bd9d60e01b031981527f00000000000000000000000000000000000000000000000000000000000000006004820152306024820152600090819073188bed1968b795d5c9022f6a0bb5931ac4c18f009063ffcd42639060440160006040518083038186803b1580156107a957600080fd5b505afa1580156107bd573d6000803e3d6000fd5b505050506040513d6000823e601f3d908101601f191682016040526107e59190810190611998565b5091949350505050565b6000546001600160a01b031633146108195760405162461bcd60e51b8152600401610533906118d7565b61271081111561085c5760405162461bcd60e51b815260206004820152600e60248201526d0d2dce0eae840e8dede40d0d2ced60931b6044820152606401610533565b600155565b6000546001600160a01b0316331461088b5760405162461bcd60e51b8152600401610533906118d7565b6000610895611053565b905080156108da576108a681610fc5565b6108da6001600160a01b037f0000000000000000000000000000000000000000000000000000000000000000168383611023565b6000805b7f0000000000000000000000000000000000000000000000000000000000000000811015610553576109366002828154811061091c5761091c611873565b6000918252602090912001546001600160a01b0316611106565b915061096a6002828154811061094e5761094e611873565b6000918252602090912001546001600160a01b03168584610cc3565b80610974816118bc565b9150506108de565b6000546001600160a01b031633146109a65760405162461bcd60e51b8152600401610533906118d7565b61062881610c12565b6000546001600160a01b031633146109d95760405162461bcd60e51b8152600401610533906118d7565b60008111610a295760405162461bcd60e51b815260206004820152601760248201527f63616e6e6f74207265636f766572203020746f6b656e730000000000000000006044820152606401610533565b7f00000000000000000000000000000000000000000000000000000000000000006001600160a01b0316836001600160a01b03161415610aab5760405162461bcd60e51b815260206004820152601c60248201527f63616e6e6f74207265636f766572206465706f73697420746f6b656e000000006044820152606401610533565b610ab6838383610cc3565b505050565b801580610b445750604051636eb1769f60e11b81523060048201526001600160a01b03838116602483015284169063dd62ed3e9060440160206040518083038186803b158015610b0a57600080fd5b505afa158015610b1e573d6000803e3d6000fd5b505050506040513d601f19601f82011682018060405250810190610b42919061190c565b155b610baf5760405162461bcd60e51b815260206004820152603660248201527f5361666545524332303a20617070726f76652066726f6d206e6f6e2d7a65726f60448201527520746f206e6f6e2d7a65726f20616c6c6f77616e636560501b6064820152608401610533565b6040516001600160a01b038316602482015260448101829052610ab690849063095ea7b360e01b906064015b60408051601f198184030181529190526020810180516001600160e01b03166001600160e01b0319909316929092179091526111b1565b6000546001600160a01b03163314610c3c5760405162461bcd60e51b8152600401610533906118d7565b6001600160a01b038116610ca15760405162461bcd60e51b815260206004820152602660248201527f4f776e61626c653a206e6577206f776e657220697320746865207a65726f206160448201526564647265737360d01b6064820152608401610533565b61062881610f75565b6060610cb98484600085611283565b90505b9392505050565b8015610ab6576001600160a01b03831673eeeeeeeeeeeeeeeeeeeeeeeeeeeeeeeeeeeeeeee1415610d24576040516001600160a01b0383169082156108fc029083906000818181858888f19350505050158015610553573d6000803e3d6000fd5b610ab66001600160a01b0384168383611023565b6000610d42610731565b905080156106285760007f000000000000000000000000000000000000000000000000000000000000000067ffffffffffffffff811115610d8557610d85611925565b604051908082528060200260200182016040528015610dae578160200160208202803683370190505b50905060005b7f0000000000000000000000000000000000000000000000000000000000000000811015610e2157610df26002828154811061091c5761091c611873565b828281518110610e0457610e04611873565b602090810291909101015280610e19816118bc565b915050610db4565b50610e2a6113ab565b6000805b7f000000000000000000000000000000000000000000000000000000000000000081101561055357828181518110610e6857610e68611873565b6020026020010151610e866002838154811061091c5761091c611873565b610e909190611a51565b91508115610ed4578160038281548110610eac57610eac611873565b906000526020600020016000828254610ec59190611a68565b90915550610ed4905081611432565b80610ede816118bc565b915050610e2e565b604051631c57762b60e31b81527f000000000000000000000000000000000000000000000000000000000000000060048201526024810182905273188bed1968b795d5c9022f6a0bb5931ac4c18f009063e2bbb158906044015b600060405180830381600087803b158015610f5a57600080fd5b505af1158015610f6e573d6000803e3d6000fd5b5050505050565b600080546001600160a01b038381166001600160a01b0319831681178455604051919092169283917f8be0079c531659141344cd1fd0a4f28419497f9722a3daafe3b4186f6b6457e09190a35050565b604051630441a3e760e41b81527f000000000000000000000000000000000000000000000000000000000000000060048201526024810182905273188bed1968b795d5c9022f6a0bb5931ac4c18f009063441a3e7090604401610f40565b6040516001600160a01b038316602482015260448101829052610ab690849063a9059cbb60e01b90606401610bdb565b6040516393f1a40b60e01b81527f00000000000000000000000000000000000000000000000000000000000000006004820152306024820152600090819073188bed1968b795d5c9022f6a0bb5931ac4c18f00906393f1a40b90604401604080518083038186803b1580156110c757600080fd5b505afa1580156110db573d6000803e3d6000fd5b505050506040513d601f19601f820116820180604052508101906110ff9190611a80565b5092915050565b60006001600160a01b03821673eeeeeeeeeeeeeeeeeeeeeeeeeeeeeeeeeeeeeeee1415611134575047919050565b6040516370a0823160e01b81523060048201526001600160a01b038316906370a082319060240160206040518083038186803b15801561117357600080fd5b505afa158015611187573d6000803e3d6000fd5b505050506040513d601f19601f820116820180604052508101906111ab919061190c565b92915050565b6000611206826040518060400160405280602081526020017f5361666545524332303a206c6f772d6c6576656c2063616c6c206661696c6564815250856001600160a01b0316610caa9092919063ffffffff16565b805190915015610ab657808060200190518101906112249190611aa4565b610ab65760405162461bcd60e51b815260206004820152602a60248201527f5361666545524332303a204552433230206f7065726174696f6e20646964206e6044820152691bdd081cdd58d8d9595960b21b6064820152608401610533565b6060824710156112e45760405162461bcd60e51b815260206004820152602660248201527f416464726573733a20696e73756666696369656e742062616c616e636520666f6044820152651c8818d85b1b60d21b6064820152608401610533565b843b6113325760405162461bcd60e51b815260206004820152601d60248201527f416464726573733a2063616c6c20746f206e6f6e2d636f6e74726163740000006044820152606401610533565b600080866001600160a01b0316858760405161134e9190611ac6565b60006040518083038185875af1925050503d806000811461138b576040519150601f19603f3d011682016040523d82523d6000602084013e611390565b606091505b50915091506113a08282866116e4565b979650505050505050565b604051631c57762b60e31b81527f000000000000000000000000000000000000000000000000000000000000000060048201526000602482015273188bed1968b795d5c9022f6a0bb5931ac4c18f009063e2bbb15890604401600060405180830381600087803b15801561141e57600080fd5b505af1158015610553573d6000803e3d6000fd5b60006004828154811061144757611447611873565b90600052602060002001546114686002848154811061091c5761091c611873565b6114729190611a51565b9050801561050557600154156114e2576000612710600154836114959190611ae2565b61149f9190611b01565b905080600484815481106114b5576114b5611873565b9060005260206000200160008282546114ce9190611a68565b909155506114de90508183611a51565b9150505b73eeeeeeeeeeeeeeeeeeeeeeeeeeeeeeeeeeeeeeee6001600160a01b03166002838154811061151357611513611873565b6000918252602090912001546001600160a01b031614156115975773b31f66aa3c1e785363f0875a1b74e27b85fd66c76001600160a01b031663d0e30db0826040518263ffffffff1660e01b81526004016000604051808303818588803b15801561157d57600080fd5b505af1158015611591573d6000803e3d6000fd5b50505050505b7f00000000000000000000000000000000000000000000000000000000000000006001600160a01b03166338ed1739826000600560008781526020019081526020016000207f00000000000000000000000000000000000000000000000000000000000000006001600160a01b03166302ed05f46040518163ffffffff1660e01b815260040160206040518083038186803b15801561163557600080fd5b505afa158015611649573d6000803e3d6000fd5b505050506040513d601f19601f8201168201806040525081019061166d9190611889565b426040518663ffffffff1660e01b815260040161168e959493929190611b23565b600060405180830381600087803b1580156116a857600080fd5b505af11580156116bc573d6000803e3d6000fd5b505050506040513d6000823e601f3d908101601f19168201604052610ab69190810190611b99565b606083156116f3575081610cbc565b8251156117035782518084602001fd5b8160405162461bcd60e51b81526004016105339190611c3f565b6001600160a01b038116811461062857600080fd5b6000806000806080858703121561174857600080fd5b84356117538161171d565b935060208501356117638161171d565b93969395505050506040820135916060013590565b60006020828403121561178a57600080fd5b5035919050565b6000602082840312156117a357600080fd5b8135610cbc8161171d565b604080825283519082018190526000906020906060840190828701845b828110156117f05781516001600160a01b0316845292840192908401906001016117cb565b5050508381038285015284518082528583019183019060005b8181101561182557835183529284019291840191600101611809565b5090979650505050505050565b60008060006060848603121561184757600080fd5b83356118528161171d565b925060208401356118628161171d565b929592945050506040919091013590565b634e487b7160e01b600052603260045260246000fd5b60006020828403121561189b57600080fd5b8151610cbc8161171d565b634e487b7160e01b600052601160045260246000fd5b60006000198214156118d0576118d06118a6565b5060010190565b6020808252818101527f4f776e61626c653a2063616c6c6572206973206e6f7420746865206f776e6572604082015260600190565b60006020828403121561191e57600080fd5b5051919050565b634e487b7160e01b600052604160045260246000fd5b604051601f8201601f1916810167ffffffffffffffff8111828210171561196457611964611925565b604052919050565b60005b8381101561198757818101518382015260200161196f565b838111156105535750506000910152565b600080600080608085870312156119ae57600080fd5b8451935060208501516119c08161171d565b604086015190935067ffffffffffffffff808211156119de57600080fd5b818701915087601f8301126119f257600080fd5b815181811115611a0457611a04611925565b611a17601f8201601f191660200161193b565b9150808252886020828501011115611a2e57600080fd5b611a3f81602084016020860161196c565b50606096909601519497939650505050565b600082821015611a6357611a636118a6565b500390565b60008219821115611a7b57611a7b6118a6565b500190565b60008060408385031215611a9357600080fd5b505080516020909101519092909150565b600060208284031215611ab657600080fd5b81518015158114610cbc57600080fd5b60008251611ad881846020870161196c565b9190910192915050565b6000816000190483118215151615611afc57611afc6118a6565b500290565b600082611b1e57634e487b7160e01b600052601260045260246000fd5b500490565b600060a082018783526020878185015260a0604085015281875480845260c0860191508860005282600020935060005b81811015611b785784546001600160a01b031683526001948501949284019201611b53565b50506001600160a01b03969096166060850152505050608001529392505050565b60006020808385031215611bac57600080fd5b825167ffffffffffffffff80821115611bc457600080fd5b818501915085601f830112611bd857600080fd5b815181811115611bea57611bea611925565b8060051b9150611bfb84830161193b565b8181529183018401918481019088841115611c1557600080fd5b938501935b83851015611c3357845182529385019390850190611c1a565b98975050505050505050565b6020815260008251806020840152611c5e81604085016020870161196c565b601f01601f1916919091016040019291505056fea2646970667358221220efffee51e777be7ef83eace6b524713eafced55cbd3b0520adffdd3798b27f1d64736f6c634300080900334f776e61626c653a2063616c6c6572206973206e6f7420746865206f776e6572",
  "linkReferences": {},
  "deployedLinkReferences": {}
}