{
  "_format": "hh-sol-artifact-1",
  "contractName": "BoofiStrategyForQiStaking",
  "sourceName": "contracts/BoofiStrategyForQiStaking.sol",
  "abi": [
    {
      "inputs": [
        {
          "internalType": "contract IHauntedHouse",
          "name": "_hauntedHouse",
          "type": "address"
        },
        {
          "internalType": "contract IERC20",
          "name": "_depositToken",
          "type": "address"
        },
        {
          "internalType": "contract ICToken",
          "name": "_CTOKEN",
          "type": "address"
        }
      ],
      "stateMutability": "nonpayable",
      "type": "constructor"
    },
    {
      "anonymous": false,
      "inputs": [
        {
          "indexed": true,
          "internalType": "address",
          "name": "previousOwner",
          "type": "address"
        },
        {
          "indexed": true,
          "internalType": "address",
          "name": "newOwner",
          "type": "address"
        }
      ],
      "name": "OwnershipTransferred",
      "type": "event"
    },
    {
      "inputs": [],
      "name": "COMPTROLLER",
      "outputs": [
        {
          "internalType": "address",
          "name": "",
          "type": "address"
        }
      ],
      "stateMutability": "view",
      "type": "function"
    },
    {
      "inputs": [],
      "name": "CTOKEN",
      "outputs": [
        {
          "internalType": "contract ICToken",
          "name": "",
          "type": "address"
        }
      ],
      "stateMutability": "view",
      "type": "function"
    },
    {
      "inputs": [],
      "name": "REWARD_TOKEN",
      "outputs": [
        {
          "internalType": "contract IERC20",
          "name": "",
          "type": "address"
        }
      ],
      "stateMutability": "view",
      "type": "function"
    },
    {
      "inputs": [],
      "name": "ROUTER",
      "outputs": [
        {
          "internalType": "contract IRouter",
          "name": "",
          "type": "address"
        }
      ],
      "stateMutability": "view",
      "type": "function"
    },
    {
      "inputs": [],
      "name": "checkReward",
      "outputs": [
        {
          "internalType": "uint256",
          "name": "",
          "type": "uint256"
        }
      ],
      "stateMutability": "view",
      "type": "function"
    },
    {
      "inputs": [
        {
          "internalType": "address",
          "name": "",
          "type": "address"
        },
        {
          "internalType": "address",
          "name": "",
          "type": "address"
        },
        {
          "internalType": "uint256",
          "name": "tokenAmount",
          "type": "uint256"
        },
        {
          "internalType": "uint256",
          "name": "",
          "type": "uint256"
        }
      ],
      "name": "deposit",
      "outputs": [],
      "stateMutability": "nonpayable",
      "type": "function"
    },
    {
      "inputs": [],
      "name": "depositToken",
      "outputs": [
        {
          "internalType": "contract IERC20",
          "name": "",
          "type": "address"
        }
      ],
      "stateMutability": "view",
      "type": "function"
    },
    {
      "inputs": [],
      "name": "hauntedHouse",
      "outputs": [
        {
          "internalType": "contract IHauntedHouse",
          "name": "",
          "type": "address"
        }
      ],
      "stateMutability": "view",
      "type": "function"
    },
    {
      "inputs": [
        {
          "internalType": "contract IERC20",
          "name": "token",
          "type": "address"
        },
        {
          "internalType": "address",
          "name": "to",
          "type": "address"
        },
        {
          "internalType": "uint256",
          "name": "amount",
          "type": "uint256"
        }
      ],
      "name": "inCaseTokensGetStuck",
      "outputs": [],
      "stateMutability": "nonpayable",
      "type": "function"
    },
    {
      "inputs": [
        {
          "internalType": "address",
          "name": "newStrategy",
          "type": "address"
        }
      ],
      "name": "migrate",
      "outputs": [],
      "stateMutability": "nonpayable",
      "type": "function"
    },
    {
      "inputs": [],
      "name": "onMigration",
      "outputs": [],
      "stateMutability": "nonpayable",
      "type": "function"
    },
    {
      "inputs": [],
      "name": "owner",
      "outputs": [
        {
          "internalType": "address",
          "name": "",
          "type": "address"
        }
      ],
      "stateMutability": "view",
      "type": "function"
    },
    {
      "inputs": [
        {
          "internalType": "address",
          "name": "",
          "type": "address"
        }
      ],
      "name": "pendingTokens",
      "outputs": [
        {
          "internalType": "address[]",
          "name": "",
          "type": "address[]"
        },
        {
          "internalType": "uint256[]",
          "name": "",
          "type": "uint256[]"
        }
      ],
      "stateMutability": "view",
      "type": "function"
    },
    {
      "inputs": [],
      "name": "performanceFeeBips",
      "outputs": [
        {
          "internalType": "uint256",
          "name": "",
          "type": "uint256"
        }
      ],
      "stateMutability": "view",
      "type": "function"
    },
    {
      "inputs": [],
      "name": "renounceOwnership",
      "outputs": [],
      "stateMutability": "nonpayable",
      "type": "function"
    },
    {
      "inputs": [
        {
          "internalType": "uint256",
          "name": "newPerformanceFeeBips",
          "type": "uint256"
        }
      ],
      "name": "setPerformanceFeeBips",
      "outputs": [],
      "stateMutability": "nonpayable",
      "type": "function"
    },
    {
      "inputs": [],
      "name": "storedPerformanceFees",
      "outputs": [
        {
          "internalType": "uint256",
          "name": "",
          "type": "uint256"
        }
      ],
      "stateMutability": "view",
      "type": "function"
    },
    {
      "inputs": [],
      "name": "storedWavaxPerformanceFees",
      "outputs": [
        {
          "internalType": "uint256",
          "name": "",
          "type": "uint256"
        }
      ],
      "stateMutability": "view",
      "type": "function"
    },
    {
      "inputs": [],
      "name": "totalProfitsUnderlyingRealized",
      "outputs": [
        {
          "internalType": "uint256",
          "name": "",
          "type": "uint256"
        }
      ],
      "stateMutability": "view",
      "type": "function"
    },
    {
      "inputs": [],
      "name": "totalRewardTokenHarvested",
      "outputs": [
        {
          "internalType": "uint256",
          "name": "",
          "type": "uint256"
        }
      ],
      "stateMutability": "view",
      "type": "function"
    },
    {
      "inputs": [],
      "name": "totalWavaxHarvested",
      "outputs": [
        {
          "internalType": "uint256",
          "name": "",
          "type": "uint256"
        }
      ],
      "stateMutability": "view",
      "type": "function"
    },
    {
      "inputs": [
        {
          "internalType": "address",
          "name": "newOwner",
          "type": "address"
        }
      ],
      "name": "transferOwnership",
      "outputs": [],
      "stateMutability": "nonpayable",
      "type": "function"
    },
    {
      "inputs": [
        {
          "internalType": "address",
          "name": "",
          "type": "address"
        },
        {
          "internalType": "address",
          "name": "to",
          "type": "address"
        },
        {
          "internalType": "uint256",
          "name": "tokenAmount",
          "type": "uint256"
        },
        {
          "internalType": "uint256",
          "name": "",
          "type": "uint256"
        }
      ],
      "name": "withdraw",
      "outputs": [],
      "stateMutability": "nonpayable",
      "type": "function"
    },
    {
      "inputs": [],
      "name": "withdrawPerformanceFees",
      "outputs": [],
      "stateMutability": "nonpayable",
      "type": "function"
    },
    {
      "stateMutability": "payable",
      "type": "receive"
    }
  ],
  "bytecode": "0x610140604052610bb86001553480156200001857600080fd5b5060405162003159380380620031598339810160408190526200003b9162000a52565b828273486af39519b4dc9a7fccd318217352830e8ad9b483738729438eb15e2c8b576fcc6aecda6a148776c0f57360ae616a2155ee3d9a68541ba4544862310933d485856200008a3362000481565b6001600160a01b03821615801590620000ab57506001600160a01b03811615155b620000e85760405162461bcd60e51b81526020600482015260086024820152671e995c9bc818985960c21b60448201526064015b60405180910390fd5b6001600160a01b03808316608052811660a0526200010682620004d1565b50506001600160a01b0384811660c05283811660e05282811661010081905290821661012081905262000149919060001962000535602090811b62000e2217901c565b6200017260e051600019876001600160a01b03166200053560201b62000e22179092919060201c565b5060039450620001829350505050565b604051908082528060200260200182016040528015620001ac578160200160208202803683370190505b508051620001c391600591602090910190620009bb565b50738729438eb15e2c8b576fcc6aecda6a148776c0f56005600081548110620001f057620001f062000aa6565b9060005260206000200160006101000a8154816001600160a01b0302191690836001600160a01b0316021790555073b31f66aa3c1e785363f0875a1b74e27b85fd66c760056001815481106200024a576200024a62000aa6565b9060005260206000200160006101000a8154816001600160a01b0302191690836001600160a01b03160217905550826001600160a01b0316637679b9d36040518163ffffffff1660e01b815260040160206040518083038186803b158015620002b257600080fd5b505afa158015620002c7573d6000803e3d6000fd5b505050506040513d601f19601f82011682018060405250810190620002ed919062000abc565b600560028154811062000304576200030462000aa6565b600091825260209091200180546001600160a01b03929092166001600160a01b031990921691909117905560408051600280825260608201909252908160200160208202803683375050815162000363926008925060200190620009bb565b5073b31f66aa3c1e785363f0875a1b74e27b85fd66c7600860008154811062000390576200039062000aa6565b9060005260206000200160006101000a8154816001600160a01b0302191690836001600160a01b03160217905550826001600160a01b0316637679b9d36040518163ffffffff1660e01b815260040160206040518083038186803b158015620003f857600080fd5b505afa1580156200040d573d6000803e3d6000fd5b505050506040513d601f19601f8201168201806040525081019062000433919062000abc565b60086001815481106200044a576200044a62000aa6565b9060005260206000200160006101000a8154816001600160a01b0302191690836001600160a01b0316021790555050505062000ba0565b600080546001600160a01b038381166001600160a01b0319831681178455604051919092169283917f8be0079c531659141344cd1fd0a4f28419497f9722a3daafe3b4186f6b6457e09190a35050565b6000546001600160a01b031633146200051c5760405162461bcd60e51b81526020600482018190526024820152600080516020620031398339815191526044820152606401620000df565b62000532816200069460201b62000f791760201c565b50565b801580620005c35750604051636eb1769f60e11b81523060048201526001600160a01b03838116602483015284169063dd62ed3e9060440160206040518083038186803b1580156200058657600080fd5b505afa1580156200059b573d6000803e3d6000fd5b505050506040513d601f19601f82011682018060405250810190620005c1919062000adc565b155b620006375760405162461bcd60e51b815260206004820152603660248201527f5361666545524332303a20617070726f76652066726f6d206e6f6e2d7a65726f60448201527f20746f206e6f6e2d7a65726f20616c6c6f77616e6365000000000000000000006064820152608401620000df565b604080516001600160a01b038416602482015260448082018490528251808303909101815260649091019091526020810180516001600160e01b0390811663095ea7b360e01b179091526200068f9185916200075116565b505050565b6000546001600160a01b03163314620006df5760405162461bcd60e51b81526020600482018190526024820152600080516020620031398339815191526044820152606401620000df565b6001600160a01b038116620007465760405162461bcd60e51b815260206004820152602660248201527f4f776e61626c653a206e6577206f776e657220697320746865207a65726f206160448201526564647265737360d01b6064820152608401620000df565b620005328162000481565b6000620007ad826040518060400160405280602081526020017f5361666545524332303a206c6f772d6c6576656c2063616c6c206661696c6564815250856001600160a01b03166200082f60201b62001011179092919060201c565b8051909150156200068f5780806020019051810190620007ce919062000af6565b6200068f5760405162461bcd60e51b815260206004820152602a60248201527f5361666545524332303a204552433230206f7065726174696f6e20646964206e6044820152691bdd081cdd58d8d9595960b21b6064820152608401620000df565b60606200084084846000856200084a565b90505b9392505050565b606082471015620008ad5760405162461bcd60e51b815260206004820152602660248201527f416464726573733a20696e73756666696369656e742062616c616e636520666f6044820152651c8818d85b1b60d21b6064820152608401620000df565b843b620008fd5760405162461bcd60e51b815260206004820152601d60248201527f416464726573733a2063616c6c20746f206e6f6e2d636f6e74726163740000006044820152606401620000df565b600080866001600160a01b031685876040516200091b919062000b4d565b60006040518083038185875af1925050503d80600081146200095a576040519150601f19603f3d011682016040523d82523d6000602084013e6200095f565b606091505b509092509050620009728282866200097d565b979650505050505050565b606083156200098e57508162000843565b8251156200099f5782518084602001fd5b8160405162461bcd60e51b8152600401620000df919062000b6b565b82805482825590600052602060002090810192821562000a13579160200282015b8281111562000a1357825182546001600160a01b0319166001600160a01b03909116178255602090920191600190910190620009dc565b5062000a2192915062000a25565b5090565b5b8082111562000a21576000815560010162000a26565b6001600160a01b03811681146200053257600080fd5b60008060006060848603121562000a6857600080fd5b835162000a758162000a3c565b602085015190935062000a888162000a3c565b604085015190925062000a9b8162000a3c565b809150509250925092565b634e487b7160e01b600052603260045260246000fd5b60006020828403121562000acf57600080fd5b8151620008438162000a3c565b60006020828403121562000aef57600080fd5b5051919050565b60006020828403121562000b0957600080fd5b815180151581146200084357600080fd5b60005b8381101562000b3757818101518382015260200162000b1d565b8381111562000b47576000848401525b50505050565b6000825162000b6181846020870162000b1a565b9190910192915050565b602081526000825180602084015262000b8c81604085016020870162000b1a565b601f01601f19169190910160400192915050565b60805160a05160c05160e051610100516101205161247e62000cbb600039600081816101b901528181611bf80152611e3301526000818161034901528181610af101528181610b880152818161133f01528181611397015281816114450152611d5001526000818161023e015281816109460152818161104c01528181611593015281816116c501526117e1015260008181610296015281816107f401528181611a2e0152611aac0152600081816104010152818161069a015281816107ae01528181610a2101528181610ab201528181610d89015281816110e7015261127a01526000818161020a015281816104f501528181611115015281816111e1015281816112a601528181611c2c0152611e67015261247e6000f3fe60806040526004361061014f5760003560e01c80638da5cb5b116100b6578063c89039c51161006f578063c89039c5146103ef578063c910103614610423578063ce5494bb14610443578063dfd0c09d14610463578063f2fde38b14610479578063f587268a1461049957600080fd5b80638da5cb5b1461031957806399248ea714610337578063aa19d4371461036b578063c031a66f14610381578063c273e3f0146103c4578063c4b24a46146103da57600080fd5b80635dc5376b116101085780635dc5376b146102605780635f82c67e146102845780636cac18d5146102b8578063715018a6146102ce5780637bfe950c146102e3578063864ec9b41461030357600080fd5b806304a0906e1461015b57806320e8c565146101725780632d39811f1461019257806332fe7b26146101a75780633e12212e146101f8578063432954111461022c57600080fd5b3661015657005b600080fd5b34801561016757600080fd5b506101706104b9565b005b34801561017e57600080fd5b5061017061018d366004611f0c565b610608565b34801561019e57600080fd5b50610170610658565b3480156101b357600080fd5b506101db7f000000000000000000000000000000000000000000000000000000000000000081565b6040516001600160a01b0390911681526020015b60405180910390f35b34801561020457600080fd5b506101db7f000000000000000000000000000000000000000000000000000000000000000081565b34801561023857600080fd5b506101db7f000000000000000000000000000000000000000000000000000000000000000081565b34801561026c57600080fd5b5061027660065481565b6040519081526020016101ef565b34801561029057600080fd5b506101db7f000000000000000000000000000000000000000000000000000000000000000081565b3480156102c457600080fd5b5061027660025481565b3480156102da57600080fd5b5061017061072a565b3480156102ef57600080fd5b506101706102fe366004611f0c565b610760565b34801561030f57600080fd5b5061027660045481565b34801561032557600080fd5b506000546001600160a01b03166101db565b34801561034357600080fd5b506101db7f000000000000000000000000000000000000000000000000000000000000000081565b34801561037757600080fd5b5061027660035481565b34801561038d57600080fd5b506103b661039c366004611f52565b506040805160008082526020820190815281830190925291565b6040516101ef929190611f6f565b3480156103d057600080fd5b5061027660075481565b3480156103e657600080fd5b506102766107d5565b3480156103fb57600080fd5b506101db7f000000000000000000000000000000000000000000000000000000000000000081565b34801561042f57600080fd5b5061017061043e366004611ff3565b61087c565b34801561044f57600080fd5b5061017061045e366004611f52565b6108ee565b34801561046f57600080fd5b5061027660015481565b34801561048557600080fd5b50610170610494366004611f52565b610cda565b3480156104a557600080fd5b506101706104b436600461200c565b610d0d565b6104c161102a565b60006007549050600060078190555073b31f66aa3c1e785363f0875a1b74e27b85fd66c76001600160a01b031663a9059cbb7f00000000000000000000000000000000000000000000000000000000000000006001600160a01b0316638471692a6040518163ffffffff1660e01b815260040160206040518083038186803b15801561054c57600080fd5b505afa158015610560573d6000803e3d6000fd5b505050506040513d601f19601f82011682018060405250810190610584919061205d565b6040516001600160e01b031960e084901b1681526001600160a01b03909116600482015260248101849052604401602060405180830381600087803b1580156105cc57600080fd5b505af11580156105e0573d6000803e3d6000fd5b505050506040513d601f19601f82011682018060405250810190610604919061207a565b5050565b6000546001600160a01b0316331461063b5760405162461bcd60e51b81526004016106329061209c565b60405180910390fd5b61064361136d565b8115610652576106528261157a565b50505050565b6000546001600160a01b031633146106825760405162461bcd60e51b81526004016106329061209c565b6040516370a0823160e01b81523060048201526000907f00000000000000000000000000000000000000000000000000000000000000006001600160a01b0316906370a082319060240160206040518083038186803b1580156106e457600080fd5b505afa1580156106f8573d6000803e3d6000fd5b505050506040513d601f19601f8201168201806040525081019061071c91906120d1565b90506107278161157a565b50565b6000546001600160a01b031633146107545760405162461bcd60e51b81526004016106329061209c565b61075e600061165c565b565b6000546001600160a01b0316331461078a5760405162461bcd60e51b81526004016106329061209c565b61079261136d565b8115610652576107a1826116ac565b6106526001600160a01b037f0000000000000000000000000000000000000000000000000000000000000000168484611799565b6040516305b9783d60e01b8152600060048201819052306024830152907f00000000000000000000000000000000000000000000000000000000000000006001600160a01b0316906305b9783d906044015b60206040518083038186803b15801561083f57600080fd5b505afa158015610853573d6000803e3d6000fd5b505050506040513d601f19601f8201168201806040525081019061087791906120d1565b905090565b6000546001600160a01b031633146108a65760405162461bcd60e51b81526004016106329061209c565b6127108111156108e95760405162461bcd60e51b815260206004820152600e60248201526d0d2dce0eae840e8dede40d0d2ced60931b6044820152606401610632565b600155565b6000546001600160a01b031633146109185760405162461bcd60e51b81526004016106329061209c565b60006109226117c9565b60405163db006a7560e01b8152600481018290529091506000906001600160a01b037f0000000000000000000000000000000000000000000000000000000000000000169063db006a7590602401602060405180830381600087803b15801561098a57600080fd5b505af115801561099e573d6000803e3d6000fd5b505050506040513d601f19601f820116820180604052508101906109c291906120d1565b90508015610a095760405162461bcd60e51b815260206004820152601460248201527310d513d2d153881c995919595b4819985a5b195960621b6044820152606401610632565b6040516370a0823160e01b81523060048201526000907f00000000000000000000000000000000000000000000000000000000000000006001600160a01b0316906370a082319060240160206040518083038186803b158015610a6b57600080fd5b505afa158015610a7f573d6000803e3d6000fd5b505050506040513d601f19601f82011682018060405250810190610aa391906120d1565b9050610ad96001600160a01b037f0000000000000000000000000000000000000000000000000000000000000000168583611799565b6040516370a0823160e01b81523060048201526000907f00000000000000000000000000000000000000000000000000000000000000006001600160a01b0316906370a082319060240160206040518083038186803b158015610b3b57600080fd5b505afa158015610b4f573d6000803e3d6000fd5b505050506040513d601f19601f82011682018060405250810190610b7391906120d1565b90508015610baf57610baf6001600160a01b037f0000000000000000000000000000000000000000000000000000000000000000168683611799565b6040516370a0823160e01b815230600482015260009073b31f66aa3c1e785363f0875a1b74e27b85fd66c7906370a082319060240160206040518083038186803b158015610bfc57600080fd5b505afa158015610c10573d6000803e3d6000fd5b505050506040513d601f19601f82011682018060405250810190610c3491906120d1565b90508015610cd25760405163a9059cbb60e01b81526001600160a01b03871660048201526024810182905273b31f66aa3c1e785363f0875a1b74e27b85fd66c79063a9059cbb90604401602060405180830381600087803b158015610c9857600080fd5b505af1158015610cac573d6000803e3d6000fd5b505050506040513d601f19601f82011682018060405250810190610cd0919061207a565b505b505050505050565b6000546001600160a01b03163314610d045760405162461bcd60e51b81526004016106329061209c565b61072781610f79565b6000546001600160a01b03163314610d375760405162461bcd60e51b81526004016106329061209c565b60008111610d875760405162461bcd60e51b815260206004820152601760248201527f63616e6e6f74207265636f766572203020746f6b656e730000000000000000006044820152606401610632565b7f00000000000000000000000000000000000000000000000000000000000000006001600160a01b0316836001600160a01b03161415610e095760405162461bcd60e51b815260206004820152601c60248201527f63616e6e6f74207265636f766572206465706f73697420746f6b656e000000006044820152606401610632565b610e1d6001600160a01b0384168383611799565b505050565b801580610eab5750604051636eb1769f60e11b81523060048201526001600160a01b03838116602483015284169063dd62ed3e9060440160206040518083038186803b158015610e7157600080fd5b505afa158015610e85573d6000803e3d6000fd5b505050506040513d601f19601f82011682018060405250810190610ea991906120d1565b155b610f165760405162461bcd60e51b815260206004820152603660248201527f5361666545524332303a20617070726f76652066726f6d206e6f6e2d7a65726f60448201527520746f206e6f6e2d7a65726f20616c6c6f77616e636560501b6064820152608401610632565b6040516001600160a01b038316602482015260448101829052610e1d90849063095ea7b360e01b906064015b60408051601f198184030181529190526020810180516001600160e01b03166001600160e01b031990931692909217909152611818565b6000546001600160a01b03163314610fa35760405162461bcd60e51b81526004016106329061209c565b6001600160a01b0381166110085760405162461bcd60e51b815260206004820152602660248201527f4f776e61626c653a206e6577206f776e657220697320746865207a65726f206160448201526564647265737360d01b6064820152608401610632565b6107278161165c565b606061102084846000856118ea565b90505b9392505050565b600480546000808355604051633af9e66960e01b8152309381019390935290917f00000000000000000000000000000000000000000000000000000000000000006001600160a01b031690633af9e66990602401602060405180830381600087803b15801561109857600080fd5b505af11580156110ac573d6000803e3d6000fd5b505050506040513d601f19601f820116820180604052508101906110d091906120d1565b604051637345c91760e11b81526001600160a01b037f0000000000000000000000000000000000000000000000000000000000000000811660048301529192506000917f0000000000000000000000000000000000000000000000000000000000000000169063e68b922e906024016101406040518083038186803b15801561115857600080fd5b505afa15801561116c573d6000803e3d6000fd5b505050506040513d601f19601f82011682018060405250810190611190919061218d565b60e081015190915060008184116111a85760006111b2565b6111b28285612241565b905080156112a1576111c3816116ac565b80600360008282546111d59190612258565b925050819055506112a17f00000000000000000000000000000000000000000000000000000000000000006001600160a01b0316638471692a6040518163ffffffff1660e01b815260040160206040518083038186803b15801561123857600080fd5b505afa15801561124c573d6000803e3d6000fd5b505050506040513d601f19601f82011682018060405250810190611270919061205d565b6001600160a01b037f0000000000000000000000000000000000000000000000000000000000000000169083611799565b6113667f00000000000000000000000000000000000000000000000000000000000000006001600160a01b0316638471692a6040518163ffffffff1660e01b815260040160206040518083038186803b1580156112fd57600080fd5b505afa158015611311573d6000803e3d6000fd5b505050506040513d601f19601f82011682018060405250810190611335919061205d565b6001600160a01b037f0000000000000000000000000000000000000000000000000000000000000000169087611799565b5050505050565b60006113776107d5565b90508015610727576040516370a0823160e01b81523060048201526000907f00000000000000000000000000000000000000000000000000000000000000006001600160a01b0316906370a082319060240160206040518083038186803b1580156113e157600080fd5b505afa1580156113f5573d6000803e3d6000fd5b505050506040513d601f19601f8201168201806040525081019061141991906120d1565b9050611423611a12565b6040516370a0823160e01b815230600482015260009082906001600160a01b037f000000000000000000000000000000000000000000000000000000000000000016906370a082319060240160206040518083038186803b15801561148757600080fd5b505afa15801561149b573d6000803e3d6000fd5b505050506040513d601f19601f820116820180604052508101906114bf91906120d1565b6114c99190612241565b905080600260008282546114dd9190612258565b9091555047905080156115725773b31f66aa3c1e785363f0875a1b74e27b85fd66c76001600160a01b031663d0e30db0826040518263ffffffff1660e01b81526004016000604051808303818588803b15801561153957600080fd5b505af115801561154d573d6000803e3d6000fd5b505050505080600660008282546115649190612258565b909155506115729050611b0e565b610652611d32565b60405163140e25ad60e31b8152600481018290526000907f00000000000000000000000000000000000000000000000000000000000000006001600160a01b03169063a0712d6890602401602060405180830381600087803b1580156115df57600080fd5b505af11580156115f3573d6000803e3d6000fd5b505050506040513d601f19601f8201168201806040525081019061161791906120d1565b905080156106045760405162461bcd60e51b815260206004820152601260248201527110d513d2d153881b5a5b9d0819985a5b195960721b6044820152606401610632565b600080546001600160a01b038381166001600160a01b0319831681178455604051919092169283917f8be0079c531659141344cd1fd0a4f28419497f9722a3daafe3b4186f6b6457e09190a35050565b60405163852a12e360e01b8152600481018290526000907f00000000000000000000000000000000000000000000000000000000000000006001600160a01b03169063852a12e390602401602060405180830381600087803b15801561171157600080fd5b505af1158015611725573d6000803e3d6000fd5b505050506040513d601f19601f8201168201806040525081019061174991906120d1565b905080156106045760405162461bcd60e51b815260206004820152601e60248201527f43544f4b454e2072656465656d556e6465726c79696e67206661696c656400006044820152606401610632565b6040516001600160a01b038316602482015260448101829052610e1d90849063a9059cbb60e01b90606401610f42565b6040516370a0823160e01b81523060048201526000907f00000000000000000000000000000000000000000000000000000000000000006001600160a01b0316906370a0823190602401610827565b600061186d826040518060400160405280602081526020017f5361666545524332303a206c6f772d6c6576656c2063616c6c206661696c6564815250856001600160a01b03166110119092919063ffffffff16565b805190915015610e1d578080602001905181019061188b919061207a565b610e1d5760405162461bcd60e51b815260206004820152602a60248201527f5361666545524332303a204552433230206f7065726174696f6e20646964206e6044820152691bdd081cdd58d8d9595960b21b6064820152608401610632565b60608247101561194b5760405162461bcd60e51b815260206004820152602660248201527f416464726573733a20696e73756666696369656e742062616c616e636520666f6044820152651c8818d85b1b60d21b6064820152608401610632565b843b6119995760405162461bcd60e51b815260206004820152601d60248201527f416464726573733a2063616c6c20746f206e6f6e2d636f6e74726163740000006044820152606401610632565b600080866001600160a01b031685876040516119b5919061229c565b60006040518083038185875af1925050503d80600081146119f2576040519150601f19603f3d011682016040523d82523d6000602084013e6119f7565b606091505b5091509150611a07828286611ebe565b979650505050505050565b604051630952c56360e01b8152600060048201523060248201527f00000000000000000000000000000000000000000000000000000000000000006001600160a01b031690630952c56390604401600060405180830381600087803b158015611a7a57600080fd5b505af1158015611a8e573d6000803e3d6000fd5b5050604051630952c56360e01b8152600160048201523060248201527f00000000000000000000000000000000000000000000000000000000000000006001600160a01b03169250630952c5639150604401600060405180830381600087803b158015611afa57600080fd5b505af1158015610652573d6000803e3d6000fd5b6007546040516370a0823160e01b81523060048201526000919073b31f66aa3c1e785363f0875a1b74e27b85fd66c7906370a082319060240160206040518083038186803b158015611b5f57600080fd5b505afa158015611b73573d6000803e3d6000fd5b505050506040513d601f19601f82011682018060405250810190611b9791906120d1565b611ba19190612241565b905080156107275760015415611bf657600061271060015483611bc491906122b8565b611bce91906122d7565b90508060076000828254611be29190612258565b90915550611bf290508183612241565b9150505b7f00000000000000000000000000000000000000000000000000000000000000006001600160a01b03166338ed173982600060087f00000000000000000000000000000000000000000000000000000000000000006001600160a01b03166302ed05f46040518163ffffffff1660e01b815260040160206040518083038186803b158015611c8357600080fd5b505afa158015611c97573d6000803e3d6000fd5b505050506040513d601f19601f82011682018060405250810190611cbb919061205d565b426040518663ffffffff1660e01b8152600401611cdc9594939291906122f9565b600060405180830381600087803b158015611cf657600080fd5b505af1158015611d0a573d6000803e3d6000fd5b505050506040513d6000823e601f3d908101601f19168201604052610604919081019061236f565b600480546040516370a0823160e01b815230928101929092526000917f00000000000000000000000000000000000000000000000000000000000000006001600160a01b0316906370a082319060240160206040518083038186803b158015611d9a57600080fd5b505afa158015611dae573d6000803e3d6000fd5b505050506040513d601f19601f82011682018060405250810190611dd291906120d1565b611ddc9190612241565b905080156107275760015415611e3157600061271060015483611dff91906122b8565b611e0991906122d7565b90508060046000828254611e1d9190612258565b90915550611e2d90508183612241565b9150505b7f00000000000000000000000000000000000000000000000000000000000000006001600160a01b03166338ed173982600060057f00000000000000000000000000000000000000000000000000000000000000006001600160a01b03166302ed05f46040518163ffffffff1660e01b815260040160206040518083038186803b158015611c8357600080fd5b60608315611ecd575081611023565b825115611edd5782518084602001fd5b8160405162461bcd60e51b81526004016106329190612415565b6001600160a01b038116811461072757600080fd5b60008060008060808587031215611f2257600080fd5b8435611f2d81611ef7565b93506020850135611f3d81611ef7565b93969395505050506040820135916060013590565b600060208284031215611f6457600080fd5b813561102381611ef7565b604080825283519082018190526000906020906060840190828701845b82811015611fb15781516001600160a01b031684529284019290840190600101611f8c565b5050508381038285015284518082528583019183019060005b81811015611fe657835183529284019291840191600101611fca565b5090979650505050505050565b60006020828403121561200557600080fd5b5035919050565b60008060006060848603121561202157600080fd5b833561202c81611ef7565b9250602084013561203c81611ef7565b929592945050506040919091013590565b805161205881611ef7565b919050565b60006020828403121561206f57600080fd5b815161102381611ef7565b60006020828403121561208c57600080fd5b8151801515811461102357600080fd5b6020808252818101527f4f776e61626c653a2063616c6c6572206973206e6f7420746865206f776e6572604082015260600190565b6000602082840312156120e357600080fd5b5051919050565b634e487b7160e01b600052604160045260246000fd5b604051610140810167ffffffffffffffff81118282101715612124576121246120ea565b60405290565b604051601f8201601f1916810167ffffffffffffffff81118282101715612153576121536120ea565b604052919050565b80516fffffffffffffffffffffffffffffffff8116811461205857600080fd5b805161ffff8116811461205857600080fd5b600061014082840312156121a057600080fd5b6121a8612100565b6121b18361204d565b81526121bf6020840161204d565b602082015260408301516040820152606083015160608201526080830151608082015260a083015160a082015260c083015160c082015260e083015160e082015261010061220e81850161215b565b9082015261012061222084820161217b565b908201529392505050565b634e487b7160e01b600052601160045260246000fd5b6000828210156122535761225361222b565b500390565b6000821982111561226b5761226b61222b565b500190565b60005b8381101561228b578181015183820152602001612273565b838111156106525750506000910152565b600082516122ae818460208701612270565b9190910192915050565b60008160001904831182151516156122d2576122d261222b565b500290565b6000826122f457634e487b7160e01b600052601260045260246000fd5b500490565b600060a082018783526020878185015260a0604085015281875480845260c0860191508860005282600020935060005b8181101561234e5784546001600160a01b031683526001948501949284019201612329565b50506001600160a01b03969096166060850152505050608001529392505050565b6000602080838503121561238257600080fd5b825167ffffffffffffffff8082111561239a57600080fd5b818501915085601f8301126123ae57600080fd5b8151818111156123c0576123c06120ea565b8060051b91506123d184830161212a565b81815291830184019184810190888411156123eb57600080fd5b938501935b83851015612409578451825293850193908501906123f0565b98975050505050505050565b6020815260008251806020840152612434816040850160208701612270565b601f01601f1916919091016040019291505056fea26469706673582212203e7258e30587b9276540e31f48003e5d97458958868e3d71ded51a1efb18e42f64736f6c634300080900334f776e61626c653a2063616c6c6572206973206e6f7420746865206f776e6572",
  "linkReferences": {},
  "deployedLinkReferences": {}
}