{
  "_format": "hh-sol-artifact-1",
  "contractName": "ERC20Distributor",
  "sourceName": "contracts/ERC20Distributor.sol",
  "abi": [
    {
      "inputs": [
        {
          "internalType": "address[]",
          "name": "_beneficiaries",
          "type": "address[]"
        },
        {
          "internalType": "uint256[]",
          "name": "_bips",
          "type": "uint256[]"
        },
        {
          "internalType": "address",
          "name": "_DEFAULT_TOKEN",
          "type": "address"
        }
      ],
      "stateMutability": "nonpayable",
      "type": "constructor"
    },
    {
      "stateMutability": "nonpayable",
      "type": "fallback"
    },
    {
      "inputs": [],
      "name": "DEFAULT_TOKEN",
      "outputs": [
        {
          "internalType": "address",
          "name": "",
          "type": "address"
        }
      ],
      "stateMutability": "view",
      "type": "function"
    },
    {
      "inputs": [
        {
          "internalType": "uint256",
          "name": "",
          "type": "uint256"
        }
      ],
      "name": "beneficiaries",
      "outputs": [
        {
          "internalType": "address",
          "name": "",
          "type": "address"
        }
      ],
      "stateMutability": "view",
      "type": "function"
    },
    {
      "inputs": [
        {
          "internalType": "uint256",
          "name": "",
          "type": "uint256"
        }
      ],
      "name": "bips",
      "outputs": [
        {
          "internalType": "uint256",
          "name": "",
          "type": "uint256"
        }
      ],
      "stateMutability": "view",
      "type": "function"
    },
    {
      "inputs": [],
      "name": "defaultSplit",
      "outputs": [],
      "stateMutability": "nonpayable",
      "type": "function"
    },
    {
      "inputs": [],
      "name": "numberBeneficiaries",
      "outputs": [
        {
          "internalType": "uint256",
          "name": "",
          "type": "uint256"
        }
      ],
      "stateMutability": "view",
      "type": "function"
    },
    {
      "inputs": [
        {
          "internalType": "address",
          "name": "token",
          "type": "address"
        }
      ],
      "name": "splitERC20",
      "outputs": [],
      "stateMutability": "nonpayable",
      "type": "function"
    }
  ],
  "bytecode": "0x60a06040523480156200001157600080fd5b5060405162000d2838038062000d288339810160408190526200003491620004e1565b6001600160a01b0381166200007b5760405162461bcd60e51b81526020600482015260086024820152671e995c9bc818985960c21b60448201526064015b60405180910390fd5b82516002819055825114620000d35760405162461bcd60e51b815260206004820152601560248201527f696e707574206c656e677468206d69736d617463680000000000000000000000604482015260640162000072565b60406002541115620001175760405162461bcd60e51b815260206004820152600c60248201526b73616e69747920636865636b60a01b604482015260640162000072565b60006002546001600160401b03811115620001365762000136620003e2565b60405190808252806020026020018201604052801562000160578160200160208202803683370190505b508051620001779160009160209091019062000323565b506002546001600160401b03811115620001955762000195620003e2565b604051908082528060200260200182016040528015620001bf578160200160208202803683370190505b508051620001d6916001916020909101906200038d565b5060005b600254811015620002c857848181518110620001fa57620001fa620005c3565b602002602001015160008281548110620002185762000218620005c3565b9060005260206000200160006101000a8154816001600160a01b0302191690836001600160a01b031602179055508381815181106200025b576200025b620005c3565b602002602001015160018281548110620002795762000279620005c3565b90600052602060002001819055508381815181106200029c576200029c620005c3565b602002602001015182620002b19190620005ef565b915080620002bf816200060a565b915050620001da565b5061271081146200030d5760405162461bcd60e51b815260206004820152600e60248201526d77726f6e6720626970732073756d60901b604482015260640162000072565b506001600160a01b031660805250620006289050565b8280548282559060005260206000209081019282156200037b579160200282015b828111156200037b57825182546001600160a01b0319166001600160a01b0390911617825560209092019160019091019062000344565b5062000389929150620003cb565b5090565b8280548282559060005260206000209081019282156200037b579160200282015b828111156200037b578251825591602001919060010190620003ae565b5b80821115620003895760008155600101620003cc565b634e487b7160e01b600052604160045260246000fd5b604051601f8201601f191681016001600160401b0381118282101715620004235762000423620003e2565b604052919050565b60006001600160401b03821115620004475762000447620003e2565b5060051b60200190565b80516001600160a01b03811681146200046957600080fd5b919050565b600082601f8301126200048057600080fd5b815160206200049962000493836200042b565b620003f8565b82815260059290921b84018101918181019086841115620004b957600080fd5b8286015b84811015620004d65780518352918301918301620004bd565b509695505050505050565b600080600060608486031215620004f757600080fd5b83516001600160401b03808211156200050f57600080fd5b818601915086601f8301126200052457600080fd5b815160206200053762000493836200042b565b82815260059290921b8401810191818101908a8411156200055757600080fd5b948201945b838610156200058057620005708662000451565b825294820194908201906200055c565b918901519197509093505050808211156200059a57600080fd5b50620005a9868287016200046e565b925050620005ba6040850162000451565b90509250925092565b634e487b7160e01b600052603260045260246000fd5b634e487b7160e01b600052601160045260246000fd5b60008219821115620006055762000605620005d9565b500190565b6000600019821415620006215762000621620005d9565b5060010190565b6080516106de6200064a6000396000818160a0015261010501526106de6000f3fe608060405234801561001057600080fd5b50600436106100625760003560e01c8063157b92231461006c5780639aff53ee14610062578063bae85b9114610092578063ebc9b79a1461009b578063efeb5e58146100da578063f6f697ab146100ed575b61006a610100565b005b61007f61007a366004610524565b61012b565b6040519081526020015b60405180910390f35b61007f60025481565b6100c27f000000000000000000000000000000000000000000000000000000000000000081565b6040516001600160a01b039091168152602001610089565b6100c26100e8366004610524565b61014c565b61006a6100fb36600461053d565b610176565b6101297f0000000000000000000000000000000000000000000000000000000000000000610176565b565b6001818154811061013b57600080fd5b600091825260209091200154905081565b6000818154811061015c57600080fd5b6000918252602090912001546001600160a01b0316905081565b6040516370a0823160e01b81523060048201526000906001600160a01b038316906370a082319060240160206040518083038186803b1580156101b857600080fd5b505afa1580156101cc573d6000803e3d6000fd5b505050506040513d601f19601f820116820180604052508101906101f09190610566565b905080156102945760005b600254811015610292576102806000828154811061021b5761021b61057f565b9060005260206000200160009054906101000a90046001600160a01b03166127106001848154811061024f5761024f61057f565b90600052602060002001548561026591906105ab565b61026f91906105ca565b6001600160a01b0386169190610298565b8061028a816105ec565b9150506101fb565b505b5050565b604080516001600160a01b03848116602483015260448083018590528351808403909101815260649092018352602080830180516001600160e01b031663a9059cbb60e01b17905283518085019094528084527f5361666545524332303a206c6f772d6c6576656c2063616c6c206661696c656490840152610292928692916000916103289185169084906103aa565b80519091501561029257808060200190518101906103469190610607565b6102925760405162461bcd60e51b815260206004820152602a60248201527f5361666545524332303a204552433230206f7065726174696f6e20646964206e6044820152691bdd081cdd58d8d9595960b21b60648201526084015b60405180910390fd5b60606103b984846000856103c3565b90505b9392505050565b6060824710156104245760405162461bcd60e51b815260206004820152602660248201527f416464726573733a20696e73756666696369656e742062616c616e636520666f6044820152651c8818d85b1b60d21b60648201526084016103a1565b843b6104725760405162461bcd60e51b815260206004820152601d60248201527f416464726573733a2063616c6c20746f206e6f6e2d636f6e747261637400000060448201526064016103a1565b600080866001600160a01b0316858760405161048e9190610659565b60006040518083038185875af1925050503d80600081146104cb576040519150601f19603f3d011682016040523d82523d6000602084013e6104d0565b606091505b50915091506104e08282866104eb565b979650505050505050565b606083156104fa5750816103bc565b82511561050a5782518084602001fd5b8160405162461bcd60e51b81526004016103a19190610675565b60006020828403121561053657600080fd5b5035919050565b60006020828403121561054f57600080fd5b81356001600160a01b03811681146103bc57600080fd5b60006020828403121561057857600080fd5b5051919050565b634e487b7160e01b600052603260045260246000fd5b634e487b7160e01b600052601160045260246000fd5b60008160001904831182151516156105c5576105c5610595565b500290565b6000826105e757634e487b7160e01b600052601260045260246000fd5b500490565b600060001982141561060057610600610595565b5060010190565b60006020828403121561061957600080fd5b815180151581146103bc57600080fd5b60005b8381101561064457818101518382015260200161062c565b83811115610653576000848401525b50505050565b6000825161066b818460208701610629565b9190910192915050565b6020815260008251806020840152610694816040850160208701610629565b601f01601f1916919091016040019291505056fea264697066735822122025f85a29f015ef0a6cf3d45129574f3a603cbfc882370e6757edebe231e1cf8064736f6c63430008090033",
  "linkReferences": {},
  "deployedLinkReferences": {}
}