{
  "_format": "hh-sol-artifact-1",
  "contractName": "zBOOFI_Staking_Helper",
  "sourceName": "contracts/zBOOFI_Staking_Helper.sol",
  "abi": [
    {
      "inputs": [
        {
          "internalType": "contract IERC20WithPermit",
          "name": "_BOOFI",
          "type": "address"
        },
        {
          "internalType": "contract IZBOOFI",
          "name": "_ZBOOFI",
          "type": "address"
        },
        {
          "internalType": "contract IZBOOFI_Staking",
          "name": "_ZBOOFI_STAKING",
          "type": "address"
        }
      ],
      "stateMutability": "nonpayable",
      "type": "constructor"
    },
    {
      "inputs": [],
      "name": "BOOFI",
      "outputs": [
        {
          "internalType": "contract IERC20WithPermit",
          "name": "",
          "type": "address"
        }
      ],
      "stateMutability": "view",
      "type": "function"
    },
    {
      "inputs": [],
      "name": "ZBOOFI",
      "outputs": [
        {
          "internalType": "contract IZBOOFI",
          "name": "",
          "type": "address"
        }
      ],
      "stateMutability": "view",
      "type": "function"
    },
    {
      "inputs": [],
      "name": "ZBOOFI_STAKING",
      "outputs": [
        {
          "internalType": "contract IZBOOFI_Staking",
          "name": "",
          "type": "address"
        }
      ],
      "stateMutability": "view",
      "type": "function"
    },
    {
      "inputs": [
        {
          "internalType": "uint256",
          "name": "amountBoofi",
          "type": "uint256"
        }
      ],
      "name": "deposit",
      "outputs": [],
      "stateMutability": "nonpayable",
      "type": "function"
    },
    {
      "inputs": [
        {
          "internalType": "uint256",
          "name": "amountBoofi",
          "type": "uint256"
        }
      ],
      "name": "depositAndStake",
      "outputs": [],
      "stateMutability": "nonpayable",
      "type": "function"
    },
    {
      "inputs": [
        {
          "internalType": "uint256",
          "name": "amountBoofi",
          "type": "uint256"
        },
        {
          "internalType": "uint256",
          "name": "value",
          "type": "uint256"
        },
        {
          "internalType": "uint256",
          "name": "deadline",
          "type": "uint256"
        },
        {
          "internalType": "uint8",
          "name": "v",
          "type": "uint8"
        },
        {
          "internalType": "bytes32",
          "name": "r",
          "type": "bytes32"
        },
        {
          "internalType": "bytes32",
          "name": "s",
          "type": "bytes32"
        }
      ],
      "name": "depositAndStakeWithPermit",
      "outputs": [],
      "stateMutability": "nonpayable",
      "type": "function"
    },
    {
      "inputs": [
        {
          "internalType": "uint256",
          "name": "amountBoofi",
          "type": "uint256"
        },
        {
          "internalType": "uint256",
          "name": "value",
          "type": "uint256"
        },
        {
          "internalType": "uint256",
          "name": "deadline",
          "type": "uint256"
        },
        {
          "internalType": "uint8",
          "name": "v",
          "type": "uint8"
        },
        {
          "internalType": "bytes32",
          "name": "r",
          "type": "bytes32"
        },
        {
          "internalType": "bytes32",
          "name": "s",
          "type": "bytes32"
        }
      ],
      "name": "depositWithPermit",
      "outputs": [],
      "stateMutability": "nonpayable",
      "type": "function"
    }
  ],
  "bytecode": "0x60e060405234801561001057600080fd5b50604051610bae380380610bae83398101604081905261002f9161016b565b6001600160a01b03838116608081905283821660a081905291831660c05260405163095ea7b360e01b8152600481019290925260001960248301529063095ea7b390604401602060405180830381600087803b15801561008e57600080fd5b505af11580156100a2573d6000803e3d6000fd5b505050506040513d601f19601f820116820180604052508101906100c691906101b8565b5060405163095ea7b360e01b81526001600160a01b038281166004830152600019602483015283169063095ea7b390604401602060405180830381600087803b15801561011257600080fd5b505af1158015610126573d6000803e3d6000fd5b505050506040513d601f19601f8201168201806040525081019061014a91906101b8565b505050506101e1565b6001600160a01b038116811461016857600080fd5b50565b60008060006060848603121561018057600080fd5b835161018b81610153565b602085015190935061019c81610153565b60408501519092506101ad81610153565b809150509250925092565b6000602082840312156101ca57600080fd5b815180151581146101da57600080fd5b9392505050565b60805160a05160c0516109676102476000396000818161013f0152610367015260008181608701528181610247015281816102c201526104ab0152600081816101050152818161017801528181610209015281816103de015261046701526109676000f3fe608060405234801561001057600080fd5b506004361061007d5760003560e01c80636a55a0841161005b5780636a55a084146100ed5780637679b9d314610100578063b6b55f2514610127578063ecb7d8651461013a57600080fd5b80632e2ff02614610082578063515bc323146100c557806359fe8539146100da575b600080fd5b6100a97f000000000000000000000000000000000000000000000000000000000000000081565b6040516001600160a01b03909116815260200160405180910390f35b6100d86100d33660046107c8565b610161565b005b6100d86100e8366004610821565b6101fc565b6100d86100fb3660046107c8565b6103c7565b6100a97f000000000000000000000000000000000000000000000000000000000000000081565b6100d8610135366004610821565b61045a565b6100a97f000000000000000000000000000000000000000000000000000000000000000081565b60405163d505accf60e01b81526001600160a01b037f0000000000000000000000000000000000000000000000000000000000000000169063d505accf906101b990339030908a908a908a908a908a9060040161083a565b600060405180830381600087803b1580156101d357600080fd5b505af11580156101e7573d6000803e3d6000fd5b505050506101f48661045a565b505050505050565b6102316001600160a01b037f000000000000000000000000000000000000000000000000000000000000000016333084610512565b604051632967cf8360e21b8152600481018290527f00000000000000000000000000000000000000000000000000000000000000006001600160a01b03169063a59f3e0c90602401600060405180830381600087803b15801561029357600080fd5b505af11580156102a7573d6000803e3d6000fd5b50506040516370a0823160e01b8152306004820152600092507f00000000000000000000000000000000000000000000000000000000000000006001600160a01b031691506370a082319060240160206040518083038186803b15801561030d57600080fd5b505afa158015610321573d6000803e3d6000fd5b505050506040513d601f19601f82011682018060405250810190610345919061087b565b60405160016255295b60e01b03198152336004820152602481018290529091507f00000000000000000000000000000000000000000000000000000000000000006001600160a01b03169063ffaad6a590604401600060405180830381600087803b1580156103b357600080fd5b505af11580156101f4573d6000803e3d6000fd5b60405163d505accf60e01b81526001600160a01b037f0000000000000000000000000000000000000000000000000000000000000000169063d505accf9061041f90339030908a908a908a908a908a9060040161083a565b600060405180830381600087803b15801561043957600080fd5b505af115801561044d573d6000803e3d6000fd5b505050506101f4866101fc565b61048f6001600160a01b037f000000000000000000000000000000000000000000000000000000000000000016333084610512565b604051630291fc1f60e61b8152336004820152602481018290527f00000000000000000000000000000000000000000000000000000000000000006001600160a01b03169063a47f07c090604401600060405180830381600087803b1580156104f757600080fd5b505af115801561050b573d6000803e3d6000fd5b5050505050565b604080516001600160a01b0385811660248301528416604482015260648082018490528251808303909101815260849091019091526020810180516001600160e01b03166323b872dd60e01b17905261056c908590610572565b50505050565b60006105c7826040518060400160405280602081526020017f5361666545524332303a206c6f772d6c6576656c2063616c6c206661696c6564815250856001600160a01b031661064e9092919063ffffffff16565b80519091501561064957808060200190518101906105e59190610894565b6106495760405162461bcd60e51b815260206004820152602a60248201527f5361666545524332303a204552433230206f7065726174696f6e20646964206e6044820152691bdd081cdd58d8d9595960b21b60648201526084015b60405180910390fd5b505050565b606061065d8484600085610667565b90505b9392505050565b6060824710156106c85760405162461bcd60e51b815260206004820152602660248201527f416464726573733a20696e73756666696369656e742062616c616e636520666f6044820152651c8818d85b1b60d21b6064820152608401610640565b843b6107165760405162461bcd60e51b815260206004820152601d60248201527f416464726573733a2063616c6c20746f206e6f6e2d636f6e74726163740000006044820152606401610640565b600080866001600160a01b0316858760405161073291906108e2565b60006040518083038185875af1925050503d806000811461076f576040519150601f19603f3d011682016040523d82523d6000602084013e610774565b606091505b509150915061078482828661078f565b979650505050505050565b6060831561079e575081610660565b8251156107ae5782518084602001fd5b8160405162461bcd60e51b815260040161064091906108fe565b60008060008060008060c087890312156107e157600080fd5b863595506020870135945060408701359350606087013560ff8116811461080757600080fd5b9598949750929560808101359460a0909101359350915050565b60006020828403121561083357600080fd5b5035919050565b6001600160a01b0397881681529590961660208601526040850193909352606084019190915260ff16608083015260a082015260c081019190915260e00190565b60006020828403121561088d57600080fd5b5051919050565b6000602082840312156108a657600080fd5b8151801515811461066057600080fd5b60005b838110156108d15781810151838201526020016108b9565b8381111561056c5750506000910152565b600082516108f48184602087016108b6565b9190910192915050565b602081526000825180602084015261091d8160408501602087016108b6565b601f01601f1916919091016040019291505056fea2646970667358221220c677dd7524eac3fa8564c1afd6b112863c0c257669a5fc2b1298dc10f51ea2ab64736f6c63430008090033",
  "linkReferences": {},
  "deployedLinkReferences": {}
}