{
  "_format": "hh-sol-artifact-1",
  "contractName": "zBOOFI_Staking",
  "sourceName": "contracts/zBOOFI_Staking.sol",
  "abi": [
    {
      "inputs": [
        {
          "internalType": "contract IERC20",
          "name": "_ZBOOFI",
          "type": "address"
        },
        {
          "internalType": "contract IERC20",
          "name": "_BOOFI",
          "type": "address"
        },
        {
          "internalType": "contract IBOOFI_Distributor",
          "name": "_boofiDistributor",
          "type": "address"
        }
      ],
      "stateMutability": "nonpayable",
      "type": "constructor"
    },
    {
      "anonymous": false,
      "inputs": [
        {
          "indexed": true,
          "internalType": "uint256",
          "name": "dayNumber",
          "type": "uint256"
        },
        {
          "indexed": true,
          "internalType": "uint256",
          "name": "timestamp",
          "type": "uint256"
        },
        {
          "indexed": true,
          "internalType": "uint256",
          "name": "boofiPerShare",
          "type": "uint256"
        }
      ],
      "name": "DailyUpdate",
      "type": "event"
    },
    {
      "anonymous": false,
      "inputs": [
        {
          "indexed": true,
          "internalType": "address",
          "name": "caller",
          "type": "address"
        },
        {
          "indexed": true,
          "internalType": "address",
          "name": "to",
          "type": "address"
        },
        {
          "indexed": false,
          "internalType": "uint256",
          "name": "amount",
          "type": "uint256"
        }
      ],
      "name": "Deposit",
      "type": "event"
    },
    {
      "anonymous": false,
      "inputs": [
        {
          "indexed": true,
          "internalType": "address",
          "name": "caller",
          "type": "address"
        },
        {
          "indexed": true,
          "internalType": "address",
          "name": "to",
          "type": "address"
        },
        {
          "indexed": false,
          "internalType": "uint256",
          "name": "amount",
          "type": "uint256"
        },
        {
          "indexed": true,
          "internalType": "uint256",
          "name": "totalAmountHarvested",
          "type": "uint256"
        }
      ],
      "name": "Harvest",
      "type": "event"
    },
    {
      "anonymous": false,
      "inputs": [
        {
          "indexed": true,
          "internalType": "address",
          "name": "previousOwner",
          "type": "address"
        },
        {
          "indexed": true,
          "internalType": "address",
          "name": "newOwner",
          "type": "address"
        }
      ],
      "name": "OwnershipTransferred",
      "type": "event"
    },
    {
      "anonymous": false,
      "inputs": [
        {
          "indexed": true,
          "internalType": "address",
          "name": "caller",
          "type": "address"
        },
        {
          "indexed": true,
          "internalType": "address",
          "name": "to",
          "type": "address"
        },
        {
          "indexed": false,
          "internalType": "uint256",
          "name": "amount",
          "type": "uint256"
        }
      ],
      "name": "Withdraw",
      "type": "event"
    },
    {
      "inputs": [],
      "name": "ACC_BOOFI_PRECISION",
      "outputs": [
        {
          "internalType": "uint256",
          "name": "",
          "type": "uint256"
        }
      ],
      "stateMutability": "view",
      "type": "function"
    },
    {
      "inputs": [],
      "name": "BOOFI",
      "outputs": [
        {
          "internalType": "contract IERC20",
          "name": "",
          "type": "address"
        }
      ],
      "stateMutability": "view",
      "type": "function"
    },
    {
      "inputs": [],
      "name": "MAX_BIPS",
      "outputs": [
        {
          "internalType": "uint256",
          "name": "",
          "type": "uint256"
        }
      ],
      "stateMutability": "view",
      "type": "function"
    },
    {
      "inputs": [],
      "name": "NUMBER_TOP_HARVESTERS",
      "outputs": [
        {
          "internalType": "uint256",
          "name": "",
          "type": "uint256"
        }
      ],
      "stateMutability": "view",
      "type": "function"
    },
    {
      "inputs": [],
      "name": "SECONDS_PER_DAY",
      "outputs": [
        {
          "internalType": "uint256",
          "name": "",
          "type": "uint256"
        }
      ],
      "stateMutability": "view",
      "type": "function"
    },
    {
      "inputs": [],
      "name": "ZBOOFI",
      "outputs": [
        {
          "internalType": "contract IERC20",
          "name": "",
          "type": "address"
        }
      ],
      "stateMutability": "view",
      "type": "function"
    },
    {
      "inputs": [],
      "name": "boofiDistributor",
      "outputs": [
        {
          "internalType": "contract IBOOFI_Distributor",
          "name": "",
          "type": "address"
        }
      ],
      "stateMutability": "view",
      "type": "function"
    },
    {
      "inputs": [],
      "name": "boofiPerShare",
      "outputs": [
        {
          "internalType": "uint256",
          "name": "",
          "type": "uint256"
        }
      ],
      "stateMutability": "view",
      "type": "function"
    },
    {
      "inputs": [],
      "name": "checkReward",
      "outputs": [
        {
          "internalType": "uint256",
          "name": "",
          "type": "uint256"
        }
      ],
      "stateMutability": "view",
      "type": "function"
    },
    {
      "inputs": [
        {
          "internalType": "uint256",
          "name": "amount",
          "type": "uint256"
        }
      ],
      "name": "deposit",
      "outputs": [],
      "stateMutability": "nonpayable",
      "type": "function"
    },
    {
      "inputs": [
        {
          "internalType": "address",
          "name": "to",
          "type": "address"
        },
        {
          "internalType": "uint256",
          "name": "amount",
          "type": "uint256"
        }
      ],
      "name": "depositTo",
      "outputs": [],
      "stateMutability": "nonpayable",
      "type": "function"
    },
    {
      "inputs": [
        {
          "internalType": "address",
          "name": "to",
          "type": "address"
        },
        {
          "internalType": "uint256",
          "name": "amount",
          "type": "uint256"
        },
        {
          "internalType": "uint256",
          "name": "value",
          "type": "uint256"
        },
        {
          "internalType": "uint256",
          "name": "deadline",
          "type": "uint256"
        },
        {
          "internalType": "uint8",
          "name": "v",
          "type": "uint8"
        },
        {
          "internalType": "bytes32",
          "name": "r",
          "type": "bytes32"
        },
        {
          "internalType": "bytes32",
          "name": "s",
          "type": "bytes32"
        }
      ],
      "name": "depositToWithPermit",
      "outputs": [],
      "stateMutability": "nonpayable",
      "type": "function"
    },
    {
      "inputs": [
        {
          "internalType": "uint256",
          "name": "amount",
          "type": "uint256"
        },
        {
          "internalType": "uint256",
          "name": "value",
          "type": "uint256"
        },
        {
          "internalType": "uint256",
          "name": "deadline",
          "type": "uint256"
        },
        {
          "internalType": "uint8",
          "name": "v",
          "type": "uint8"
        },
        {
          "internalType": "bytes32",
          "name": "r",
          "type": "bytes32"
        },
        {
          "internalType": "bytes32",
          "name": "s",
          "type": "bytes32"
        }
      ],
      "name": "depositWithPermit",
      "outputs": [],
      "stateMutability": "nonpayable",
      "type": "function"
    },
    {
      "inputs": [
        {
          "internalType": "uint256",
          "name": "amountDays",
          "type": "uint256"
        }
      ],
      "name": "getBoofiPerShareHistory",
      "outputs": [
        {
          "internalType": "uint256[]",
          "name": "",
          "type": "uint256[]"
        },
        {
          "internalType": "uint256[]",
          "name": "",
          "type": "uint256[]"
        }
      ],
      "stateMutability": "view",
      "type": "function"
    },
    {
      "inputs": [],
      "name": "getLargestAmountsHarvested",
      "outputs": [
        {
          "internalType": "uint256[10]",
          "name": "",
          "type": "uint256[10]"
        }
      ],
      "stateMutability": "view",
      "type": "function"
    },
    {
      "inputs": [],
      "name": "getLatestStoredBoofiPerShare",
      "outputs": [
        {
          "internalType": "uint256",
          "name": "",
          "type": "uint256"
        },
        {
          "internalType": "uint256",
          "name": "",
          "type": "uint256"
        }
      ],
      "stateMutability": "view",
      "type": "function"
    },
    {
      "inputs": [],
      "name": "getTopHarvesters",
      "outputs": [
        {
          "internalType": "address[10]",
          "name": "",
          "type": "address[10]"
        }
      ],
      "stateMutability": "view",
      "type": "function"
    },
    {
      "inputs": [],
      "name": "harvest",
      "outputs": [],
      "stateMutability": "nonpayable",
      "type": "function"
    },
    {
      "inputs": [
        {
          "internalType": "address",
          "name": "to",
          "type": "address"
        }
      ],
      "name": "harvestTo",
      "outputs": [],
      "stateMutability": "nonpayable",
      "type": "function"
    },
    {
      "inputs": [
        {
          "internalType": "address",
          "name": "",
          "type": "address"
        }
      ],
      "name": "harvested",
      "outputs": [
        {
          "internalType": "uint256",
          "name": "",
          "type": "uint256"
        }
      ],
      "stateMutability": "view",
      "type": "function"
    },
    {
      "inputs": [
        {
          "internalType": "uint256",
          "name": "",
          "type": "uint256"
        }
      ],
      "name": "historicBoofiPerShare",
      "outputs": [
        {
          "internalType": "uint256",
          "name": "",
          "type": "uint256"
        }
      ],
      "stateMutability": "view",
      "type": "function"
    },
    {
      "inputs": [
        {
          "internalType": "uint256",
          "name": "",
          "type": "uint256"
        }
      ],
      "name": "historicTimestamps",
      "outputs": [
        {
          "internalType": "uint256",
          "name": "",
          "type": "uint256"
        }
      ],
      "stateMutability": "view",
      "type": "function"
    },
    {
      "inputs": [
        {
          "internalType": "uint256",
          "name": "",
          "type": "uint256"
        }
      ],
      "name": "largestAmountsHarvested",
      "outputs": [
        {
          "internalType": "uint256",
          "name": "",
          "type": "uint256"
        }
      ],
      "stateMutability": "view",
      "type": "function"
    },
    {
      "inputs": [],
      "name": "numStoredDailyData",
      "outputs": [
        {
          "internalType": "uint256",
          "name": "",
          "type": "uint256"
        }
      ],
      "stateMutability": "view",
      "type": "function"
    },
    {
      "inputs": [],
      "name": "owner",
      "outputs": [
        {
          "internalType": "address",
          "name": "",
          "type": "address"
        }
      ],
      "stateMutability": "view",
      "type": "function"
    },
    {
      "inputs": [
        {
          "internalType": "address",
          "name": "user",
          "type": "address"
        }
      ],
      "name": "pendingBOOFI",
      "outputs": [
        {
          "internalType": "uint256",
          "name": "",
          "type": "uint256"
        }
      ],
      "stateMutability": "view",
      "type": "function"
    },
    {
      "inputs": [
        {
          "internalType": "address",
          "name": "token",
          "type": "address"
        },
        {
          "internalType": "address",
          "name": "to",
          "type": "address"
        }
      ],
      "name": "recoverERC20",
      "outputs": [],
      "stateMutability": "nonpayable",
      "type": "function"
    },
    {
      "inputs": [
        {
          "internalType": "address",
          "name": "token",
          "type": "address"
        },
        {
          "internalType": "address",
          "name": "to",
          "type": "address"
        }
      ],
      "name": "recoverERC20FromDistributor",
      "outputs": [],
      "stateMutability": "nonpayable",
      "type": "function"
    },
    {
      "inputs": [],
      "name": "renounceOwnership",
      "outputs": [],
      "stateMutability": "nonpayable",
      "type": "function"
    },
    {
      "inputs": [
        {
          "internalType": "address",
          "name": "",
          "type": "address"
        }
      ],
      "name": "rewardDebt",
      "outputs": [
        {
          "internalType": "uint256",
          "name": "",
          "type": "uint256"
        }
      ],
      "stateMutability": "view",
      "type": "function"
    },
    {
      "inputs": [],
      "name": "rollingStartTimestamp",
      "outputs": [
        {
          "internalType": "uint256",
          "name": "",
          "type": "uint256"
        }
      ],
      "stateMutability": "view",
      "type": "function"
    },
    {
      "inputs": [
        {
          "internalType": "contract IBOOFI_Distributor",
          "name": "_boofiDistributor",
          "type": "address"
        }
      ],
      "name": "setBoofiDistributor",
      "outputs": [],
      "stateMutability": "nonpayable",
      "type": "function"
    },
    {
      "inputs": [
        {
          "internalType": "address",
          "name": "",
          "type": "address"
        }
      ],
      "name": "shares",
      "outputs": [
        {
          "internalType": "uint256",
          "name": "",
          "type": "uint256"
        }
      ],
      "stateMutability": "view",
      "type": "function"
    },
    {
      "inputs": [],
      "name": "timeSinceLastDailyUpdate",
      "outputs": [
        {
          "internalType": "uint256",
          "name": "",
          "type": "uint256"
        }
      ],
      "stateMutability": "view",
      "type": "function"
    },
    {
      "inputs": [
        {
          "internalType": "uint256",
          "name": "",
          "type": "uint256"
        }
      ],
      "name": "topHarvesters",
      "outputs": [
        {
          "internalType": "address",
          "name": "",
          "type": "address"
        }
      ],
      "stateMutability": "view",
      "type": "function"
    },
    {
      "inputs": [],
      "name": "totalHarvested",
      "outputs": [
        {
          "internalType": "uint256",
          "name": "",
          "type": "uint256"
        }
      ],
      "stateMutability": "view",
      "type": "function"
    },
    {
      "inputs": [],
      "name": "totalShares",
      "outputs": [
        {
          "internalType": "uint256",
          "name": "",
          "type": "uint256"
        }
      ],
      "stateMutability": "view",
      "type": "function"
    },
    {
      "inputs": [
        {
          "internalType": "address",
          "name": "newOwner",
          "type": "address"
        }
      ],
      "name": "transferOwnership",
      "outputs": [],
      "stateMutability": "nonpayable",
      "type": "function"
    },
    {
      "inputs": [
        {
          "internalType": "uint256",
          "name": "amount",
          "type": "uint256"
        }
      ],
      "name": "withdraw",
      "outputs": [],
      "stateMutability": "nonpayable",
      "type": "function"
    },
    {
      "inputs": [
        {
          "internalType": "address",
          "name": "to",
          "type": "address"
        },
        {
          "internalType": "uint256",
          "name": "amount",
          "type": "uint256"
        }
      ],
      "name": "withdrawTo",
      "outputs": [],
      "stateMutability": "nonpayable",
      "type": "function"
    }
  ],
  "bytecode": "0x60c06040523480156200001157600080fd5b50604051620022ae380380620022ae8339810160408190526200003491620001d5565b6200003f336200016c565b6001600160a01b0383811660805282811660a052600180546001600160a01b03191691831691909117905560005b600a811015620000c45761dead600582600a811062000090576200009062000229565b0180546001600160a01b0319166001600160a01b039290921691909117905580620000bb816200023f565b9150506200006d565b506001601a819055600354601b80548084019091557f3ad8aa4f87544323a9d1e5dd902f40c356527a7955687113db5f9a85ad579dc10155601c805480830182556000918252427f0e4562a10381dec21b205ed72637e6b1b523bdd0e4d4d50af5cd23dd4500a2119091018190556019819055604051919290917fecd37ef348fc4101247ce509d164afa6f602339a545ba331eeb4197af0a95b7c908490a450505062000269565b600080546001600160a01b038381166001600160a01b0319831681178455604051919092169283917f8be0079c531659141344cd1fd0a4f28419497f9722a3daafe3b4186f6b6457e09190a35050565b6001600160a01b0381168114620001d257600080fd5b50565b600080600060608486031215620001eb57600080fd5b8351620001f881620001bc565b60208501519093506200020b81620001bc565b60408501519092506200021e81620001bc565b809150509250925092565b634e487b7160e01b600052603260045260246000fd5b60006000198214156200026257634e487b7160e01b600052601160045260246000fd5b5060010190565b60805160a051611fd9620002d56000396000818161042e0152818161087c01528181610b7501528181610fdf01526110ec015260008181610357015281816109fb01528181610a8f01528181610bb201528181610f7d015281816112cb01526113eb0152611fd96000f3fe608060405234801561001057600080fd5b50600436106102485760003560e01c8063715018a61161013b578063b3249e9e116100b8578063ce7c2ac21161007c578063ce7c2ac2146104f3578063eda02d9214610513578063f2fde38b14610522578063fcf5765014610535578063ffaad6a51461054857600080fd5b8063b3249e9e146104b3578063b6b55f25146104bc578063bd35a72e146104cf578063c4b24a46146104e2578063c69a965b146104ea57600080fd5b806396c5f980116100ff57806396c5f98014610474578063a59c128f14610487578063a8ce0d9b14610490578063ac5f08bd14610498578063ae01b1d2146104ab57600080fd5b8063715018a61461041757806374f0314f1461041f5780637679b9d314610429578063886f039a146104505780638da5cb5b1461046357600080fd5b80632e1a7d4d116101c95780634641257d1161018d5780634641257d146103b65780634f891f06146103be578063515bc323146103d1578063567a00de146103e45780635873eb9b146103f757600080fd5b80632e1a7d4d1461033f5780632e2ff026146103525780633a98ef39146103795780633c59392714610382578063439781f6146103a357600080fd5b80631ef4efb7116102105780631ef4efb7146102d7578063205c2878146102f757806323dc11421461030c57806327c53ca0146103155780632b5268051461032a57600080fd5b8063026a6c5e1461024d578063088d95941461026957806309c11db51461027c5780631b368439146102a75780631b91ca83146102c4575b600080fd5b61025660195481565b6040519081526020015b60405180910390f35b610256610277366004611b53565b61055b565b61028f61028a366004611b53565b61057c565b6040516001600160a01b039091168152602001610260565b6102af61059c565b60408051928352602083019190915201610260565b6102566102d2366004611b53565b6105ff565b6102566102e5366004611b81565b601d6020526000908152604090205481565b61030a610305366004611b9e565b61060f565b005b61025660045481565b61031d61061d565b6040516102609190611bca565b610332610659565b6040516102609190611bfc565b61030a61034d366004611b53565b61069f565b61028f7f000000000000000000000000000000000000000000000000000000000000000081565b61025660025481565b610395610390366004611b53565b6106ac565b604051610260929190611c69565b61030a6103b1366004611c8e565b610847565b61030a610924565b6102566103cc366004611b81565b610937565b61030a6103df366004611cdd565b6109e4565b61030a6103f2366004611d2e565b610a78565b610256610405366004611b81565b601f6020526000908152604090205481565b61030a610b15565b6102566201518081565b61028f7f000000000000000000000000000000000000000000000000000000000000000081565b61030a61045e366004611c8e565b610b49565b6000546001600160a01b031661028f565b61030a610482366004611b81565b610c85565b61025660035481565b610256610c96565b60015461028f906001600160a01b031681565b610256600a81565b61025661271081565b61030a6104ca366004611b53565b610cab565b6102566104dd366004611b53565b610cb5565b610256610ccc565b610256601a5481565b610256610501366004611b81565b601e6020526000908152604090205481565b610256670de0b6b3a764000081565b61030a610530366004611b81565b610d49565b61030a610543366004611b81565b610de1565b61030a610556366004611b9e565b610e2d565b601b818154811061056b57600080fd5b600091825260209091200154905081565b600581600a811061058c57600080fd5b01546001600160a01b0316905081565b600080601b6001601a546105b09190611da9565b815481106105c0576105c0611dc0565b9060005260206000200154601c6001601a546105dc9190611da9565b815481106105ec576105ec611dc0565b9060005260206000200154915091509091565b601c818154811061056b57600080fd5b6106198282610e37565b5050565b610625611b34565b6040805161014081019182905290600f90600a9082845b81548152602001906001019080831161063c575050505050905090565b610661611b34565b6040805161014081019182905290600590600a9082845b81546001600160a01b03168152600190910190602001808311610678575050505050905090565b6106a93382610e37565b50565b60608060006001601a546106c09190611da9565b905060008185116106e5576106d58583611da9565b6106e0906001611dd6565b6106e8565b60005b905060006106f68284611da9565b610701906001611dd6565b905060008167ffffffffffffffff81111561071e5761071e611dee565b604051908082528060200260200182016040528015610747578160200160208202803683370190505b50905060008267ffffffffffffffff81111561076557610765611dee565b60405190808252806020026020018201604052801561078e578160200160208202803683370190505b509050835b85811161083957601b81815481106107ad576107ad611dc0565b90600052602060002001548386836107c59190611da9565b815181106107d5576107d5611dc0565b602002602001018181525050601c81815481106107f4576107f4611dc0565b906000526020600020015482868361080c9190611da9565b8151811061081c5761081c611dc0565b60209081029190910101528061083181611e04565b915050610793565b509097909650945050505050565b6000546001600160a01b0316331461087a5760405162461bcd60e51b815260040161087190611e1f565b60405180910390fd5b7f00000000000000000000000000000000000000000000000000000000000000006001600160a01b0316826001600160a01b031614156108b957600080fd5b60015460405163443781cd60e11b81526001600160a01b03848116600483015283811660248301529091169063886f039a90604401600060405180830381600087803b15801561090857600080fd5b505af115801561091c573d6000803e3d6000fd5b505050505050565b61092c610fa4565b610935336111b3565b565b600080610942610ccc565b600354600254919250901561097d57600254610966670de0b6b3a764000084611e54565b6109709190611e73565b61097a9082611dd6565b90505b6001600160a01b0384166000908152601e6020526040812054670de0b6b3a7640000906109ab908490611e54565b6109b59190611e73565b6001600160a01b0386166000908152601f60205260409020549091506109db9082611da9565b95945050505050565b60405163d505accf60e01b81526001600160a01b037f0000000000000000000000000000000000000000000000000000000000000000169063d505accf90610a3c90339030908a908a908a908a908a90600401611e95565b600060405180830381600087803b158015610a5657600080fd5b505af1158015610a6a573d6000803e3d6000fd5b5050505061091c33876112f2565b60405163d505accf60e01b81526001600160a01b037f0000000000000000000000000000000000000000000000000000000000000000169063d505accf90610ad090339030908a908a908a908a908a90600401611e95565b600060405180830381600087803b158015610aea57600080fd5b505af1158015610afe573d6000803e3d6000fd5b50505050610b0c87876112f2565b50505050505050565b6000546001600160a01b03163314610b3f5760405162461bcd60e51b815260040161087190611e1f565b6109356000611413565b6000546001600160a01b03163314610b735760405162461bcd60e51b815260040161087190611e1f565b7f00000000000000000000000000000000000000000000000000000000000000006001600160a01b0316826001600160a01b031614158015610be757507f00000000000000000000000000000000000000000000000000000000000000006001600160a01b0316826001600160a01b031614155b610bf057600080fd5b6040516370a0823160e01b81523060048201526000906001600160a01b038416906370a082319060240160206040518083038186803b158015610c3257600080fd5b505afa158015610c46573d6000803e3d6000fd5b505050506040513d601f19601f82011682018060405250810190610c6a9190611ed6565b9050610c806001600160a01b0384168383611463565b505050565b610c8d610fa4565b6106a9816111b3565b600060195442610ca69190611da9565b905090565b6106a933826112f2565b600f81600a8110610cc557600080fd5b0154905081565b600154604080516312e34d9760e31b815290516000926001600160a01b03169163971a6cb8916004808301926020929190829003018186803b158015610d1157600080fd5b505afa158015610d25573d6000803e3d6000fd5b505050506040513d601f19601f82011682018060405250810190610ca69190611ed6565b6000546001600160a01b03163314610d735760405162461bcd60e51b815260040161087190611e1f565b6001600160a01b038116610dd85760405162461bcd60e51b815260206004820152602660248201527f4f776e61626c653a206e6577206f776e657220697320746865207a65726f206160448201526564647265737360d01b6064820152608401610871565b6106a981611413565b6000546001600160a01b03163314610e0b5760405162461bcd60e51b815260040161087190611e1f565b600180546001600160a01b0319166001600160a01b0392909216919091179055565b61061982826112f2565b610e3f610fa4565b610e48826111b3565b801561061957336000908152601e6020526040902054811115610ead5760405162461bcd60e51b815260206004820181905260248201527f63616e6e6f74207769746864726177206d6f7265207468616e207374616b65646044820152606401610871565b336000908152601e602052604081208054839290610ecc908490611da9565b925050819055508060026000828254610ee59190611da9565b9091555050600354670de0b6b3a764000090610f02908390611e54565b610f0c9190611e73565b336000908152601f602052604081208054909190610f2b908490611da9565b90915550506040518181526001600160a01b0383169033907f9b1bfa7fa9ee420a16e124f794c35ac9f90472acc99140eb2f6447c714cad8eb9060200160405180910390a36106196001600160a01b037f0000000000000000000000000000000000000000000000000000000000000000168383611463565b6000610fae610ccc565b9050600081118015610fc257506000600254115b156111ab576040516370a0823160e01b81523060048201526000907f00000000000000000000000000000000000000000000000000000000000000006001600160a01b0316906370a082319060240160206040518083038186803b15801561102957600080fd5b505afa15801561103d573d6000803e3d6000fd5b505050506040513d601f19601f820116820180604052508101906110619190611ed6565b9050600160009054906101000a90046001600160a01b03166001600160a01b031662b486966040518163ffffffff1660e01b8152600401600060405180830381600087803b1580156110b257600080fd5b505af11580156110c6573d6000803e3d6000fd5b50506040516370a0823160e01b8152306004820152600092508391506001600160a01b037f000000000000000000000000000000000000000000000000000000000000000016906370a082319060240160206040518083038186803b15801561112e57600080fd5b505afa158015611142573d6000803e3d6000fd5b505050506040513d601f19601f820116820180604052508101906111669190611ed6565b6111709190611da9565b600254909150611188670de0b6b3a764000083611e54565b6111929190611e73565b600360008282546111a39190611dd6565b909155505050505b6106a96114c6565b600354336000908152601e60205260408120549091670de0b6b3a7640000916111dc9190611e54565b6111e69190611e73565b336000908152601f6020526040812054919250906112049083611da9565b336000908152601f6020526040902083905590508015610c805780600460008282546112309190611dd6565b90915550506001600160a01b0383166000908152601d60205260408120805483929061125d908490611dd6565b9091555061126c90508361158f565b6001600160a01b0383166000818152601d602090815260409182902054915184815291929133917fdec9257d126f56798a34ce7ca0ffedeaa9a024543946f79c3b5038035ba32a1e910160405180910390a4610c806001600160a01b037f0000000000000000000000000000000000000000000000000000000000000000168483611463565b6112fa610fa4565b611303826111b3565b8015610619576001600160a01b0382166000908152601e602052604081208054839290611331908490611dd6565b92505081905550806002600082825461134a9190611dd6565b9091555050600354670de0b6b3a764000090611367908390611e54565b6113719190611e73565b6001600160a01b0383166000908152601f602052604081208054909190611399908490611dd6565b90915550506040518181526001600160a01b0383169033907f5548c837ab068cf56a2c2479df0882a4922fd203edb7517321831d95078c5f629060200160405180910390a36106196001600160a01b037f0000000000000000000000000000000000000000000000000000000000000000163330846118aa565b600080546001600160a01b038381166001600160a01b0319831681178455604051919092169283917f8be0079c531659141344cd1fd0a4f28419497f9722a3daafe3b4186f6b6457e09190a35050565b6040516001600160a01b038316602482015260448101829052610c8090849063a9059cbb60e01b906064015b60408051601f198184030181529190526020810180516001600160e01b03166001600160e01b0319909316929092179091526118e8565b620151806114d2610c96565b1061093557600354601b805460018181019092557f3ad8aa4f87544323a9d1e5dd902f40c356527a7955687113db5f9a85ad579dc10191909155601c805480830182556000918252427f0e4562a10381dec21b205ed72637e6b1b523bdd0e4d4d50af5cd23dd4500a21190910155601a8054909190611552908490611dd6565b9091555050600354601a546040514291907fecd37ef348fc4101247ce509d164afa6f602339a545ba331eeb4197af0a95b7c90600090a442601955565b6001600160a01b0381166000908152601d602052604090205480600f6115b76001600a611da9565b600a81106115c7576115c7611dc0565b0154106115d2575050565b6000805b600a82101561162757836001600160a01b0316600583600a81106115fc576115fc611dc0565b01546001600160a01b0316141561161557506001611627565b8161161f81611e04565b9250506115d6565b60005b600a8110156116665783600f82600a811061164757611647611dc0565b0154101561165457611666565b8061165e81611e04565b91505061162a565b816117c65760006116796001600a611da9565b90505b8181111561172457600f611691600183611da9565b600a81106116a1576116a1611dc0565b0154600f82600a81106116b6576116b6611dc0565b015560056116c5600183611da9565b600a81106116d5576116d5611dc0565b01546001600160a01b0316600582600a81106116f3576116f3611dc0565b0180546001600160a01b0319166001600160a01b03929092169190911790558061171c81611eef565b91505061167c565b506117316001600a611da9565b8110156117865783600f82600a811061174c5761174c611dc0565b015584600582600a811061176257611762611dc0565b0180546001600160a01b0319166001600160a01b03929092169190911790556118a3565b83600f6117956001600a611da9565b600a81106117a5576117a5611dc0565b015410156117c15783600f82600a811061174c5761174c611dc0565b6118a3565b80831061188c57825b8181111561187757600f6117e4600183611da9565b600a81106117f4576117f4611dc0565b0154600f82600a811061180957611809611dc0565b01556005611818600183611da9565b600a811061182857611828611dc0565b01546001600160a01b0316600582600a811061184657611846611dc0565b0180546001600160a01b0319166001600160a01b03929092169190911790558061186f81611eef565b9150506117cf565b5083600f82600a811061174c5761174c611dc0565b83600f84600a81106118a0576118a0611dc0565b01555b5050505050565b6040516001600160a01b03808516602483015283166044820152606481018290526118e29085906323b872dd60e01b9060840161148f565b50505050565b600061193d826040518060400160405280602081526020017f5361666545524332303a206c6f772d6c6576656c2063616c6c206661696c6564815250856001600160a01b03166119ba9092919063ffffffff16565b805190915015610c80578080602001905181019061195b9190611f06565b610c805760405162461bcd60e51b815260206004820152602a60248201527f5361666545524332303a204552433230206f7065726174696f6e20646964206e6044820152691bdd081cdd58d8d9595960b21b6064820152608401610871565b60606119c984846000856119d3565b90505b9392505050565b606082471015611a345760405162461bcd60e51b815260206004820152602660248201527f416464726573733a20696e73756666696369656e742062616c616e636520666f6044820152651c8818d85b1b60d21b6064820152608401610871565b843b611a825760405162461bcd60e51b815260206004820152601d60248201527f416464726573733a2063616c6c20746f206e6f6e2d636f6e74726163740000006044820152606401610871565b600080866001600160a01b03168587604051611a9e9190611f54565b60006040518083038185875af1925050503d8060008114611adb576040519150601f19603f3d011682016040523d82523d6000602084013e611ae0565b606091505b5091509150611af0828286611afb565b979650505050505050565b60608315611b0a5750816119cc565b825115611b1a5782518084602001fd5b8160405162461bcd60e51b81526004016108719190611f70565b604051806101400160405280600a906020820280368337509192915050565b600060208284031215611b6557600080fd5b5035919050565b6001600160a01b03811681146106a957600080fd5b600060208284031215611b9357600080fd5b81356119cc81611b6c565b60008060408385031215611bb157600080fd5b8235611bbc81611b6c565b946020939093013593505050565b6101408101818360005b600a811015611bf3578151835260209283019290910190600101611bd4565b50505092915050565b6101408101818360005b600a811015611bf35781516001600160a01b0316835260209283019290910190600101611c06565b600081518084526020808501945080840160005b83811015611c5e57815187529582019590820190600101611c42565b509495945050505050565b604081526000611c7c6040830185611c2e565b82810360208401526109db8185611c2e565b60008060408385031215611ca157600080fd5b8235611cac81611b6c565b91506020830135611cbc81611b6c565b809150509250929050565b803560ff81168114611cd857600080fd5b919050565b60008060008060008060c08789031215611cf657600080fd5b863595506020870135945060408701359350611d1460608801611cc7565b92506080870135915060a087013590509295509295509295565b600080600080600080600060e0888a031215611d4957600080fd5b8735611d5481611b6c565b9650602088013595506040880135945060608801359350611d7760808901611cc7565b925060a0880135915060c0880135905092959891949750929550565b634e487b7160e01b600052601160045260246000fd5b600082821015611dbb57611dbb611d93565b500390565b634e487b7160e01b600052603260045260246000fd5b60008219821115611de957611de9611d93565b500190565b634e487b7160e01b600052604160045260246000fd5b6000600019821415611e1857611e18611d93565b5060010190565b6020808252818101527f4f776e61626c653a2063616c6c6572206973206e6f7420746865206f776e6572604082015260600190565b6000816000190483118215151615611e6e57611e6e611d93565b500290565b600082611e9057634e487b7160e01b600052601260045260246000fd5b500490565b6001600160a01b0397881681529590961660208601526040850193909352606084019190915260ff16608083015260a082015260c081019190915260e00190565b600060208284031215611ee857600080fd5b5051919050565b600081611efe57611efe611d93565b506000190190565b600060208284031215611f1857600080fd5b815180151581146119cc57600080fd5b60005b83811015611f43578181015183820152602001611f2b565b838111156118e25750506000910152565b60008251611f66818460208701611f28565b9190910192915050565b6020815260008251806020840152611f8f816040850160208701611f28565b601f01601f1916919091016040019291505056fea2646970667358221220e36df5c109d911eea4194984df91b9aa0635aa741e9fb93c7113a6763d42c54464736f6c63430008090033",
  "linkReferences": {},
  "deployedLinkReferences": {}
}